{
  "_format": "hh-sol-artifact-1",
  "contractName": "Kibo",
  "sourceName": "contracts/Kibo.sol",
  "abi": [
    {
      "inputs": [],
      "stateMutability": "nonpayable",
      "type": "constructor"
    },
    {
      "inputs": [],
      "name": "AlreadyClaimed",
      "type": "error"
    },
    {
      "inputs": [],
      "name": "AmountOutOfRange",
      "type": "error"
    },
    {
      "inputs": [],
      "name": "BpsOutOfRange",
      "type": "error"
    },
    {
      "inputs": [],
      "name": "InvalidAddress",
      "type": "error"
    },
    {
      "inputs": [],
      "name": "InvalidTiers",
      "type": "error"
    },
    {
      "inputs": [],
      "name": "NeedMilestone",
      "type": "error"
    },
    {
      "inputs": [],
      "name": "NoStreakToRecover",
      "type": "error"
    },
    {
      "inputs": [],
      "name": "NothingToWithdraw",
      "type": "error"
    },
    {
      "inputs": [],
      "name": "Paused",
      "type": "error"
    },
    {
      "inputs": [],
      "name": "PoolEmpty",
      "type": "error"
    },
    {
      "inputs": [],
      "name": "RecoveryPending",
      "type": "error"
    },
    {
      "inputs": [],
      "name": "TooSoon",
      "type": "error"
    },
    {
      "inputs": [],
      "name": "TransferFailed",
      "type": "error"
    },
    {
      "inputs": [],
      "name": "Unauthorized",
      "type": "error"
    },
    {
      "anonymous": false,
      "inputs": [
        {
          "indexed": true,
          "internalType": "address",
          "name": "user",
          "type": "address"
        },
        {
          "indexed": false,
          "internalType": "enum Kibo.Badge",
          "name": "badge",
          "type": "uint8"
        }
      ],
      "name": "BadgeEarned",
      "type": "event"
    },
    {
      "anonymous": false,
      "inputs": [
        {
          "indexed": true,
          "internalType": "address",
          "name": "by",
          "type": "address"
        }
      ],
      "name": "ContractPaused",
      "type": "event"
    },
    {
      "anonymous": false,
      "inputs": [
        {
          "indexed": true,
          "internalType": "address",
          "name": "by",
          "type": "address"
        }
      ],
      "name": "ContractUnpaused",
      "type": "event"
    },
    {
      "anonymous": false,
      "inputs": [
        {
          "indexed": true,
          "internalType": "address",
          "name": "user",
          "type": "address"
        },
        {
          "indexed": false,
          "internalType": "uint32",
          "name": "streak",
          "type": "uint32"
        },
        {
          "indexed": false,
          "internalType": "uint40",
          "name": "timestamp",
          "type": "uint40"
        }
      ],
      "name": "Deposited",
      "type": "event"
    },
    {
      "anonymous": false,
      "inputs": [
        {
          "indexed": true,
          "internalType": "address",
          "name": "payer",
          "type": "address"
        },
        {
          "indexed": true,
          "internalType": "address",
          "name": "beneficiary",
          "type": "address"
        },
        {
          "indexed": false,
          "internalType": "uint32",
          "name": "streak",
          "type": "uint32"
        },
        {
          "indexed": false,
          "internalType": "uint40",
          "name": "timestamp",
          "type": "uint40"
        }
      ],
      "name": "DepositedFor",
      "type": "event"
    },
    {
      "anonymous": false,
      "inputs": [
        {
          "indexed": true,
          "internalType": "address",
          "name": "user",
          "type": "address"
        },
        {
          "indexed": false,
          "internalType": "uint128",
          "name": "totalDeposited",
          "type": "uint128"
        }
      ],
      "name": "GoalReached",
      "type": "event"
    },
    {
      "anonymous": false,
      "inputs": [
        {
          "indexed": true,
          "internalType": "address",
          "name": "user",
          "type": "address"
        },
        {
          "indexed": false,
          "internalType": "uint128",
          "name": "target",
          "type": "uint128"
        }
      ],
      "name": "GoalSet",
      "type": "event"
    },
    {
      "anonymous": false,
      "inputs": [
        {
          "indexed": true,
          "internalType": "address",
          "name": "previousOwner",
          "type": "address"
        },
        {
          "indexed": true,
          "internalType": "address",
          "name": "newOwner",
          "type": "address"
        }
      ],
      "name": "OwnershipTransferStarted",
      "type": "event"
    },
    {
      "anonymous": false,
      "inputs": [
        {
          "indexed": true,
          "internalType": "address",
          "name": "previousOwner",
          "type": "address"
        },
        {
          "indexed": true,
          "internalType": "address",
          "name": "newOwner",
          "type": "address"
        }
      ],
      "name": "OwnershipTransferred",
      "type": "event"
    },
    {
      "anonymous": false,
      "inputs": [
        {
          "indexed": true,
          "internalType": "address",
          "name": "funder",
          "type": "address"
        },
        {
          "indexed": false,
          "internalType": "uint256",
          "name": "amount",
          "type": "uint256"
        }
      ],
      "name": "PoolFunded",
      "type": "event"
    },
    {
      "anonymous": false,
      "inputs": [
        {
          "indexed": true,
          "internalType": "address",
          "name": "user",
          "type": "address"
        },
        {
          "indexed": false,
          "internalType": "uint8",
          "name": "shields",
          "type": "uint8"
        }
      ],
      "name": "PrecisionShield",
      "type": "event"
    },
    {
      "anonymous": false,
      "inputs": [
        {
          "indexed": true,
          "internalType": "address",
          "name": "ref",
          "type": "address"
        },
        {
          "indexed": true,
          "internalType": "address",
          "name": "referee",
          "type": "address"
        },
        {
          "indexed": false,
          "internalType": "uint256",
          "name": "amount",
          "type": "uint256"
        }
      ],
      "name": "ReferralRewardAccrued",
      "type": "event"
    },
    {
      "anonymous": false,
      "inputs": [
        {
          "indexed": false,
          "internalType": "uint256",
          "name": "oldBps",
          "type": "uint256"
        },
        {
          "indexed": false,
          "internalType": "uint256",
          "name": "newBps",
          "type": "uint256"
        }
      ],
      "name": "ReferralRewardBpsUpdated",
      "type": "event"
    },
    {
      "anonymous": false,
      "inputs": [
        {
          "indexed": true,
          "internalType": "address",
          "name": "ref",
          "type": "address"
        },
        {
          "indexed": false,
          "internalType": "uint256",
          "name": "amount",
          "type": "uint256"
        }
      ],
      "name": "ReferralRewardClaimed",
      "type": "event"
    },
    {
      "anonymous": false,
      "inputs": [
        {
          "indexed": true,
          "internalType": "address",
          "name": "ref",
          "type": "address"
        },
        {
          "indexed": true,
          "internalType": "address",
          "name": "referee",
          "type": "address"
        },
        {
          "indexed": false,
          "internalType": "uint256",
          "name": "amount",
          "type": "uint256"
        }
      ],
      "name": "ReferralRewardSkipped",
      "type": "event"
    },
    {
      "anonymous": false,
      "inputs": [
        {
          "indexed": true,
          "internalType": "address",
          "name": "user",
          "type": "address"
        },
        {
          "indexed": false,
          "internalType": "uint32",
          "name": "streak",
          "type": "uint32"
        },
        {
          "indexed": false,
          "internalType": "uint256",
          "name": "reward",
          "type": "uint256"
        }
      ],
      "name": "RewardClaimed",
      "type": "event"
    },
    {
      "anonymous": false,
      "inputs": [
        {
          "indexed": false,
          "internalType": "uint256",
          "name": "t1",
          "type": "uint256"
        },
        {
          "indexed": false,
          "internalType": "uint256",
          "name": "t2",
          "type": "uint256"
        },
        {
          "indexed": false,
          "internalType": "uint256",
          "name": "t3",
          "type": "uint256"
        },
        {
          "indexed": false,
          "internalType": "uint256",
          "name": "t4",
          "type": "uint256"
        }
      ],
      "name": "RewardTiersUpdated",
      "type": "event"
    },
    {
      "anonymous": false,
      "inputs": [
        {
          "indexed": true,
          "internalType": "address",
          "name": "user",
          "type": "address"
        },
        {
          "indexed": false,
          "internalType": "uint32",
          "name": "streak",
          "type": "uint32"
        },
        {
          "indexed": false,
          "internalType": "uint8",
          "name": "shieldsLeft",
          "type": "uint8"
        }
      ],
      "name": "ShieldUsed",
      "type": "event"
    },
    {
      "anonymous": false,
      "inputs": [
        {
          "indexed": true,
          "internalType": "address",
          "name": "user",
          "type": "address"
        },
        {
          "indexed": false,
          "internalType": "uint32",
          "name": "oldStreak",
          "type": "uint32"
        }
      ],
      "name": "StreakBroken",
      "type": "event"
    },
    {
      "anonymous": false,
      "inputs": [
        {
          "indexed": true,
          "internalType": "address",
          "name": "user",
          "type": "address"
        },
        {
          "indexed": false,
          "internalType": "uint32",
          "name": "streak",
          "type": "uint32"
        },
        {
          "indexed": false,
          "internalType": "uint256",
          "name": "fee",
          "type": "uint256"
        }
      ],
      "name": "StreakRecovered",
      "type": "event"
    },
    {
      "anonymous": false,
      "inputs": [
        {
          "indexed": true,
          "internalType": "address",
          "name": "user",
          "type": "address"
        },
        {
          "indexed": false,
          "internalType": "uint256",
          "name": "payout",
          "type": "uint256"
        },
        {
          "indexed": false,
          "internalType": "uint256",
          "name": "penalty",
          "type": "uint256"
        }
      ],
      "name": "Withdrawn",
      "type": "event"
    },
    {
      "inputs": [],
      "name": "COOLDOWN",
      "outputs": [
        {
          "internalType": "uint256",
          "name": "",
          "type": "uint256"
        }
      ],
      "stateMutability": "view",
      "type": "function"
    },
    {
      "inputs": [],
      "name": "MAX_DEPOSIT",
      "outputs": [
        {
          "internalType": "uint256",
          "name": "",
          "type": "uint256"
        }
      ],
      "stateMutability": "view",
      "type": "function"
    },
    {
      "inputs": [],
      "name": "MAX_RECOVERY_FEE",
      "outputs": [
        {
          "internalType": "uint256",
          "name": "",
          "type": "uint256"
        }
      ],
      "stateMutability": "view",
      "type": "function"
    },
    {
      "inputs": [],
      "name": "MAX_REWARD_TIER",
      "outputs": [
        {
          "internalType": "uint256",
          "name": "",
          "type": "uint256"
        }
      ],
      "stateMutability": "view",
      "type": "function"
    },
    {
      "inputs": [],
      "name": "MAX_SHIELDS",
      "outputs": [
        {
          "internalType": "uint8",
          "name": "",
          "type": "uint8"
        }
      ],
      "stateMutability": "view",
      "type": "function"
    },
    {
      "inputs": [],
      "name": "MIN_DEPOSIT",
      "outputs": [
        {
          "internalType": "uint256",
          "name": "",
          "type": "uint256"
        }
      ],
      "stateMutability": "view",
      "type": "function"
    },
    {
      "inputs": [],
      "name": "POOL_FEE_BPS",
      "outputs": [
        {
          "internalType": "uint256",
          "name": "",
          "type": "uint256"
        }
      ],
      "stateMutability": "view",
      "type": "function"
    },
    {
      "inputs": [],
      "name": "PRECISION_WINDOW",
      "outputs": [
        {
          "internalType": "uint256",
          "name": "",
          "type": "uint256"
        }
      ],
      "stateMutability": "view",
      "type": "function"
    },
    {
      "inputs": [],
      "name": "STREAK_THRESHOLD",
      "outputs": [
        {
          "internalType": "uint256",
          "name": "",
          "type": "uint256"
        }
      ],
      "stateMutability": "view",
      "type": "function"
    },
    {
      "inputs": [],
      "name": "acceptOwnership",
      "outputs": [],
      "stateMutability": "nonpayable",
      "type": "function"
    },
    {
      "inputs": [],
      "name": "cUSD",
      "outputs": [
        {
          "internalType": "contract IERC20",
          "name": "",
          "type": "address"
        }
      ],
      "stateMutability": "view",
      "type": "function"
    },
    {
      "inputs": [],
      "name": "claimReferralReward",
      "outputs": [],
      "stateMutability": "nonpayable",
      "type": "function"
    },
    {
      "inputs": [],
      "name": "claimReward",
      "outputs": [],
      "stateMutability": "nonpayable",
      "type": "function"
    },
    {
      "inputs": [
        {
          "internalType": "uint256",
          "name": "amount",
          "type": "uint256"
        },
        {
          "internalType": "address",
          "name": "ref",
          "type": "address"
        }
      ],
      "name": "deposit",
      "outputs": [],
      "stateMutability": "nonpayable",
      "type": "function"
    },
    {
      "inputs": [
        {
          "internalType": "address",
          "name": "beneficiary",
          "type": "address"
        },
        {
          "internalType": "uint256",
          "name": "amount",
          "type": "uint256"
        }
      ],
      "name": "depositFor",
      "outputs": [],
      "stateMutability": "nonpayable",
      "type": "function"
    },
    {
      "inputs": [
        {
          "internalType": "uint256",
          "name": "",
          "type": "uint256"
        }
      ],
      "name": "depositors",
      "outputs": [
        {
          "internalType": "address",
          "name": "",
          "type": "address"
        }
      ],
      "stateMutability": "view",
      "type": "function"
    },
    {
      "inputs": [
        {
          "internalType": "uint256",
          "name": "amount",
          "type": "uint256"
        }
      ],
      "name": "fundPool",
      "outputs": [],
      "stateMutability": "nonpayable",
      "type": "function"
    },
    {
      "inputs": [
        {
          "internalType": "address",
          "name": "user",
          "type": "address"
        }
      ],
      "name": "getBadge",
      "outputs": [
        {
          "internalType": "enum Kibo.Badge",
          "name": "",
          "type": "uint8"
        }
      ],
      "stateMutability": "view",
      "type": "function"
    },
    {
      "inputs": [
        {
          "internalType": "uint256",
          "name": "limit",
          "type": "uint256"
        }
      ],
      "name": "getLeaderboard",
      "outputs": [
        {
          "internalType": "address[]",
          "name": "addrs",
          "type": "address[]"
        },
        {
          "internalType": "uint256[]",
          "name": "streaks",
          "type": "uint256[]"
        },
        {
          "internalType": "uint256[]",
          "name": "totals",
          "type": "uint256[]"
        }
      ],
      "stateMutability": "view",
      "type": "function"
    },
    {
      "inputs": [
        {
          "internalType": "address",
          "name": "user",
          "type": "address"
        }
      ],
      "name": "getUser",
      "outputs": [
        {
          "internalType": "uint256",
          "name": "streak",
          "type": "uint256"
        },
        {
          "internalType": "uint256",
          "name": "lastDeposit",
          "type": "uint256"
        },
        {
          "internalType": "uint256",
          "name": "totalDeposited",
          "type": "uint256"
        },
        {
          "internalType": "uint256",
          "name": "longestStreak",
          "type": "uint256"
        },
        {
          "internalType": "bool",
          "name": "canDeposit",
          "type": "bool"
        },
        {
          "internalType": "uint256",
          "name": "lastClaimedStreak",
          "type": "uint256"
        },
        {
          "internalType": "uint8",
          "name": "shields",
          "type": "uint8"
        },
        {
          "internalType": "uint256",
          "name": "brokenStreak",
          "type": "uint256"
        },
        {
          "internalType": "enum Kibo.Badge",
          "name": "badge",
          "type": "uint8"
        },
        {
          "internalType": "uint256",
          "name": "rewardsClaimed",
          "type": "uint256"
        }
      ],
      "stateMutability": "view",
      "type": "function"
    },
    {
      "inputs": [],
      "name": "owner",
      "outputs": [
        {
          "internalType": "address",
          "name": "",
          "type": "address"
        }
      ],
      "stateMutability": "view",
      "type": "function"
    },
    {
      "inputs": [],
      "name": "pause",
      "outputs": [],
      "stateMutability": "nonpayable",
      "type": "function"
    },
    {
      "inputs": [],
      "name": "paused",
      "outputs": [
        {
          "internalType": "bool",
          "name": "",
          "type": "bool"
        }
      ],
      "stateMutability": "view",
      "type": "function"
    },
    {
      "inputs": [],
      "name": "pendingOwner",
      "outputs": [
        {
          "internalType": "address",
          "name": "",
          "type": "address"
        }
      ],
      "stateMutability": "view",
      "type": "function"
    },
    {
      "inputs": [
        {
          "internalType": "address",
          "name": "",
          "type": "address"
        }
      ],
      "name": "pendingReferralReward",
      "outputs": [
        {
          "internalType": "uint256",
          "name": "",
          "type": "uint256"
        }
      ],
      "stateMutability": "view",
      "type": "function"
    },
    {
      "inputs": [],
      "name": "poolBalance",
      "outputs": [
        {
          "internalType": "uint256",
          "name": "",
          "type": "uint256"
        }
      ],
      "stateMutability": "view",
      "type": "function"
    },
    {
      "inputs": [],
      "name": "poolFunds",
      "outputs": [
        {
          "internalType": "uint256",
          "name": "",
          "type": "uint256"
        }
      ],
      "stateMutability": "view",
      "type": "function"
    },
    {
      "inputs": [],
      "name": "recoverStreak",
      "outputs": [],
      "stateMutability": "nonpayable",
      "type": "function"
    },
    {
      "inputs": [],
      "name": "referralRewardBps",
      "outputs": [
        {
          "internalType": "uint256",
          "name": "",
          "type": "uint256"
        }
      ],
      "stateMutability": "view",
      "type": "function"
    },
    {
      "inputs": [
        {
          "internalType": "address",
          "name": "",
          "type": "address"
        }
      ],
      "name": "referrer",
      "outputs": [
        {
          "internalType": "address",
          "name": "",
          "type": "address"
        }
      ],
      "stateMutability": "view",
      "type": "function"
    },
    {
      "inputs": [],
      "name": "rewardTier1",
      "outputs": [
        {
          "internalType": "uint256",
          "name": "",
          "type": "uint256"
        }
      ],
      "stateMutability": "view",
      "type": "function"
    },
    {
      "inputs": [],
      "name": "rewardTier2",
      "outputs": [
        {
          "internalType": "uint256",
          "name": "",
          "type": "uint256"
        }
      ],
      "stateMutability": "view",
      "type": "function"
    },
    {
      "inputs": [],
      "name": "rewardTier3",
      "outputs": [
        {
          "internalType": "uint256",
          "name": "",
          "type": "uint256"
        }
      ],
      "stateMutability": "view",
      "type": "function"
    },
    {
      "inputs": [],
      "name": "rewardTier4",
      "outputs": [
        {
          "internalType": "uint256",
          "name": "",
          "type": "uint256"
        }
      ],
      "stateMutability": "view",
      "type": "function"
    },
    {
      "inputs": [
        {
          "internalType": "address",
          "name": "",
          "type": "address"
        }
      ],
      "name": "savingsGoal",
      "outputs": [
        {
          "internalType": "uint128",
          "name": "",
          "type": "uint128"
        }
      ],
      "stateMutability": "view",
      "type": "function"
    },
    {
      "inputs": [
        {
          "internalType": "uint128",
          "name": "target",
          "type": "uint128"
        }
      ],
      "name": "setGoal",
      "outputs": [],
      "stateMutability": "nonpayable",
      "type": "function"
    },
    {
      "inputs": [
        {
          "internalType": "uint256",
          "name": "bps",
          "type": "uint256"
        }
      ],
      "name": "setReferralRewardBps",
      "outputs": [],
      "stateMutability": "nonpayable",
      "type": "function"
    },
    {
      "inputs": [
        {
          "internalType": "uint256",
          "name": "t1",
          "type": "uint256"
        },
        {
          "internalType": "uint256",
          "name": "t2",
          "type": "uint256"
        },
        {
          "internalType": "uint256",
          "name": "t3",
          "type": "uint256"
        },
        {
          "internalType": "uint256",
          "name": "t4",
          "type": "uint256"
        }
      ],
      "name": "setRewardTiers",
      "outputs": [],
      "stateMutability": "nonpayable",
      "type": "function"
    },
    {
      "inputs": [
        {
          "internalType": "uint256",
          "name": "bps",
          "type": "uint256"
        }
      ],
      "name": "setWithdrawalPenaltyBps",
      "outputs": [],
      "stateMutability": "nonpayable",
      "type": "function"
    },
    {
      "inputs": [],
      "name": "totalDepositors",
      "outputs": [
        {
          "internalType": "uint256",
          "name": "",
          "type": "uint256"
        }
      ],
      "stateMutability": "view",
      "type": "function"
    },
    {
      "inputs": [
        {
          "internalType": "address",
          "name": "",
          "type": "address"
        }
      ],
      "name": "totalRewardsClaimed",
      "outputs": [
        {
          "internalType": "uint256",
          "name": "",
          "type": "uint256"
        }
      ],
      "stateMutability": "view",
      "type": "function"
    },
    {
      "inputs": [
        {
          "internalType": "address",
          "name": "newOwner",
          "type": "address"
        }
      ],
      "name": "transferOwnership",
      "outputs": [],
      "stateMutability": "nonpayable",
      "type": "function"
    },
    {
      "inputs": [],
      "name": "unpause",
      "outputs": [],
      "stateMutability": "nonpayable",
      "type": "function"
    },
    {
      "inputs": [
        {
          "internalType": "address",
          "name": "",
          "type": "address"
        }
      ],
      "name": "users",
      "outputs": [
        {
          "internalType": "uint32",
          "name": "streak",
          "type": "uint32"
        },
        {
          "internalType": "uint32",
          "name": "longestStreak",
          "type": "uint32"
        },
        {
          "internalType": "uint32",
          "name": "lastClaimedStreak",
          "type": "uint32"
        },
        {
          "internalType": "uint32",
          "name": "brokenStreak",
          "type": "uint32"
        },
        {
          "internalType": "uint40",
          "name": "lastDeposit",
          "type": "uint40"
        },
        {
          "internalType": "bool",
          "name": "isDepositor",
          "type": "bool"
        },
        {
          "internalType": "uint8",
          "name": "shields",
          "type": "uint8"
        },
        {
          "internalType": "uint128",
          "name": "totalDeposited",
          "type": "uint128"
        }
      ],
      "stateMutability": "view",
      "type": "function"
    },
    {
      "inputs": [],
      "name": "withdraw",
      "outputs": [],
      "stateMutability": "nonpayable",
      "type": "function"
    },
    {
      "inputs": [],
      "name": "withdrawalPenaltyBps",
      "outputs": [
        {
          "internalType": "uint256",
          "name": "",
          "type": "uint256"
        }
      ],
      "stateMutability": "view",
      "type": "function"
    }
  ],
  "bytecode": "0x6080806040523461005f576611c37937e08000600055662aa1efb94e00006001556658d15e1762800060025566b1a2bc2ec500006003556101f46004819055600555600680546001600160a01b0319163317905561214d90816100658239f35b600080fdfe6080604081815260048036101561001557600080fd5b600092833560e01c9081631fccf67214611a1c575080632cf003c2146119e15780632f4f21e2146117e55780633ccfd60b146116405780633f4ba83a146115e65780633fbf422f146115c7578063418f3128146115a85780634c8530ce1461158c57806351bea8c31461156f5780635264dab014611552578063546cea861461153657806354b1de8f146114fd5780635c975abb146114d657806360bd13d9146114b757806366fc0127146114985780636e553f65146111a45780636f77926b146110b25780637289cca614610f0b57806375f4c05914610eee57806379ba509714610e7f57806382bbf60e14610e3d5780638456cb5914610ddd5780638da5cb5b14610db457806396365d44146105e25780639b4b2c9c14610cd55780639f147d0014610c9d578063a2724a4d14610c7f578063a2c8b36914610c12578063a34b46fe1461091c578063a87430ba1461087e578063aa0224fd1461085b578063af10bbcd14610487578063b09e603f146107de578063b88a802f14610601578063bc2104d2146105e2578063c254de8814610595578063cd6c787314610579578063da3a5f721461048c578063dd5967c314610487578063e1e158a514610466578063e30c39781461043d578063e4b2fb79146103fa578063f2fde38b14610369578063f67ded4e1461034a578063f6ce90041461030e5763ff84a2621461021d57600080fd5b3461030a57608036600319011261030a57600654813592606435926044359260243591906001600160a01b031633036102fd57851580156102f3575b80156102e9575b80156102df575b80156102ce575b6102c05750916080939185937f7ddff0131937dfb4362682c96132c768e4bce6a574b2c4ebd904636975d99f15968855806001558260025583600355815194855260208501528301526060820152a180f35b825163036899eb60e31b8152fd5b50670de0b6b3a7640000851161026e565b5083851115610267565b5081841115610260565b5085821115610259565b82516282b42960e81b8152fd5b8280fd5b5050346103465760203660031901126103465760209181906001600160a01b03610336611a4a565b168152600d845220549051908152f35b5080fd5b5050346103465781600319360112610346576020906002549051908152f35b503461030a57602036600319011261030a57610383611a4a565b6006546001600160a01b039081169291338490036103eb57169283156103de575050600780546001600160a01b031916831790557f38d16b8cac22d99fc7c124b9cd0de2d3fa1faef420bfe791d8c362d765e227008380a380f35b5163e6c4247b60e01b8152fd5b84516282b42960e81b81528390fd5b503461030a57602036600319011261030a573591600e5483101561043a5750610424602092611adf565b905491519160018060a01b039160031b1c168152f35b80fd5b50503461034657816003193601126103465760075490516001600160a01b039091168152602090f35b50503461034657816003193601126103465760209051655af3107a40008152f35b611abc565b50903461030a57602036600319011261030a5780516323b872dd60e01b815233818401908152306020828101919091528435604083018190529492918290819060600103818873765de816845861e75a25fca122bb6898b8b1282a5af190811561056f578591610541575b501561053357508160085401600855519081527f32173d8e51cec3a6fe484b7a1c3febe760cdf96e03d4cca36a43563a4333e83860203392a280f35b90516312171d8360e31b8152fd5b610562915060203d8111610568575b61055a8183611b2c565b810190611b64565b386104f7565b503d610550565b83513d87823e3d90fd5b5050346103465781600319360112610346576020905160328152f35b505034610346576020366003190112610346576105e06105d763ffffffff8360209560018060a01b036105c6611a4a565b168152600987522054851c16612073565b91518092611a65565bf35b5050346103465781600319360112610346576020906008549051908152f35b503461030a578260031936011261030a5760ff60075460a01c166107d05733835260096020528183209182549163ffffffff93848416946007861080156107c4575b6107b45784841c168511156107a55761065b85612039565b938460085410610795576bffffffff000000000000000019811690841b6bffffffff0000000000000000161780825560b01c60ff169060038210610770575b505060088054849003905533808652600d6020908152838720805486019055835163a9059cbb60e01b8152838101928352828201869052918290819060400103818973765de816845861e75a25fca122bb6898b8b1282a5af1908115610766578691610748575b501561053357505163ffffffff9092168252602082015233907f0d26a00dfd91636328b46a49a079c1612a57c89258f2fea78c7469ec0b5f80479080604081015b0390a280f35b610760915060203d81116105685761055a8183611b2c565b38610701565b83513d88823e3d90fd5b805460ff60b01b191660019290920160b01b60ff60b01b16919091179055388061069a565b83516305ce024d60e51b81528390fd5b509051630c8d9eab60e31b8152fd5b8351632e6d9aff60e01b81528390fd5b50600786061515610643565b90516313d0ff5960e31b8152fd5b503461030a57602036600319011261030a57600654813592906001600160a01b0316330361084f576103e88311610842577e6d2ab5e2e5f0fd1d9bf29d6f60ae957400958ebae002a5f2d361a417993cd49082548151908152846020820152a15580f35b5163063941ff60e31b8152fd5b516282b42960e81b8152fd5b5050346103465781600319360112610346576020905167016345785d8a00008152f35b505034610346576020366003190112610346576101009181906001600160a01b036108a7611a4a565b16815260096020522060ff6001600160801b0360018354930154169183519363ffffffff908183168652818360201c1660208701528183821c16908601528160601c16606085015264ffffffffff8160801c166080850152818160a81c16151560a085015260b01c1660c083015260e0820152f35b509190346103465760208060031936011261030a57833593600e5460c88110600014610c0957945b80861015610c045750845b610958866120d1565b90610962876120d1565b9661096c816120d1565b9386885b878a8c88878510610b8b5750509250505050875b838110610a8a57505081036109fe57509490915b8351946060860160608752875180915282608088019801915b8181106109e1578789038489015287806109dd89896109d08e8b611a88565b9184830390850152611a88565b0390f35b82516001600160a01b0316895297830197918301916001016109b1565b610a0d819793979492946120d1565b96610a17826120d1565b93610a21836120d1565b95885b848110610a35575050505050610998565b6001908b610a57826001600160a01b03610a4f8288612103565b511692612103565b52610a628185612103565b51610a6d828a612103565b52610a788186612103565b51610a83828b612103565b5201610a24565b8060019182810192838211610b7857835b868110610b4c575050808203610ab3575b5050610984565b610b44906001600160a01b0380610aca858b612103565b511690610ad7838b612103565b5116610ae3858b612103565b52610aee828a612103565b528c610b1b82610afe8684612103565b5192610b0a8282612103565b51610b158883612103565b52612103565b52610b26838a612103565b5192610b3d610b35838c612103565b51918b612103565b5288612103565b523880610aac565b8d610b6285610b5b8484612103565b5192612103565b5110610b70575b8101610a9b565b925082610b69565b634e487b7160e01b8c526011855260248cfd5b8463ffffffff600197610b9d83611adf565b8a8060a01b0391549060031b1c169586815260098098522054169283610bcc575b505050505050018790610970565b84610b1583610bda95612103565b528b5288526001600160801b03828a8c20015416610bf88289612103565b5238808088848f610bbe565b61094f565b5060c894610944565b503461030a57602036600319011261030a5735906001600160801b03821680920361030a57338352600c602052808320826001600160801b0319825416179055519081527fd576bc64b95e6bbdb657e504fcdadeb74867d950336fd046addd6db94933ab0d60203392a280f35b50503461034657816003193601126103465760209051620119408152f35b5050346103465760203660031901126103465760209181906001600160a01b03610cc5611a4a565b168152600b845220549051908152f35b50903461030a578260031936011261030a57338352602090600b825280842054928315610da65733808652600b8452828620869055825163a9059cbb60e01b8152828101918252602082018690529084908290819060400103818973765de816845861e75a25fca122bb6898b8b1282a5af1908115610766578691610d89575b50156105335750907f5be4d22009fea85381595ed91090bc5c0bc92a93fe07ed7472c5888eb1993f8391519283523392a280f35b610da09150843d86116105685761055a8183611b2c565b38610d55565b9051630686827b60e51b8152fd5b50503461034657816003193601126103465760065490516001600160a01b039091168152602090f35b50903461030a578260031936011261030a576006546001600160a01b0316330361084f576007805460ff60a01b1916600160a01b17905582337f81990fd9a5c552b8e3677917d8a03c07678f0d2cb68f88b634aca2022e9bd19f8280a280f35b505034610346576020366003190112610346576020916001600160801b039082906001600160a01b03610e6e611a4a565b168152600c85522054169051908152f35b503461030a578260031936011261030a576007546001600160a01b0392909190838316330361084f57505060065491339083167f8be0079c531659141344cd1fd0a4f28419497f9722a3daafe3b4186f6b6457e08580a36001600160a01b031991821633176006551660075580f35b503461030a578260031936011261030a5760209250549051908152f35b50903461030a578260031936011261030a5760ff60075460a01c166110a55733835260096020528083209081549163ffffffff93848460601c169485159081958215611099575b505061108b57655af3107a400093848602948686041417156110785767016345785d8a0000808511611070575b5082516323b872dd60e01b8152338282019081523060208281019190915260408201879052908290819060600103818a73765de816845861e75a25fca122bb6898b8b1282a5af1908115611066578791611048575b501561103a575080546fffffffff0000000000000000ffffffff19168417905560088054830190555163ffffffff9092168252602082015233907fc428c32598bfe7863de948cb3b5ffb667a08521ac39c31a674722457e9800b6e908060408101610742565b82516312171d8360e31b8152fd5b611060915060203d81116105685761055a8183611b2c565b38610fd4565b84513d89823e3d90fd5b935038610f7f565b634e487b7160e01b865260119052602485fd5b8251631f309d3760e21b8152fd5b16151590503880610f52565b516313d0ff5960e31b8152fd5b50823461043a57602036600319011261043a576001600160a01b036110d5611a4a565b169182825260096020528382209384549164ffffffffff6001600160801b036001828660801c16980154169463ffffffff95868660201c1691620119408a0194858b1161119157509585610140999589958560209b956111899a8f9c61113b889a612073565b9b8152600d8f5220549b85519d8e89891681520152848d015260608c01524216101560808a01521c1660a087015260ff8160b01c1660c087015260601c1660e0850152610100840190611a65565b610120820152f35b634e487b7160e01b825260119052602490fd5b503461030a578160031936011261030a576001600160a01b03602435818116928035918490036114945760ff60075460a01c1661148657655af3107a400082108015611475575b61146757338652602091600983528587209364ffffffffff95864216968654908160801c166201194081018091116114545788106114445760a81c60ff161590818061143b575b80611431575b8061141b575b6113fa575b5087516323b872dd60e01b8152338582019081523060208201526040810185905286908290819060600103818d73765de816845861e75a25fca122bb6898b8b1282a5af19081156113f0578a916113d3575b50156113c357928287959263ffffffff956112d67f1091413ac916d6d977ba19245be465e86c3dfd74cc7c9903af6856d3e3668e559a6107429a9733611bb2565b611308575b505050505416935191829133958390929164ffffffffff60209163ffffffff604085019616845216910152565b338b52600a8452898b205416915490821515806113ba575b156112db576127109161133291611b7c565b6008549190049283808310611389577f9e2c5f94b327df7a7ea63d4c940cf9abf3d51452d7a5aca95b6140ce2c823ef29203600855828b52600b8152898b2084815401905589519384523393a35b388080806112db565b507fdf599ad211fa168884e13fd826c0ffce9953e8779d95c69096d14abe8e041f6b915089519384523393a3611380565b50811515611320565b87516312171d8360e31b81528490fd5b6113ea9150863d88116105685761055a8183611b2c565b38611295565b89513d8c823e3d90fd5b338a52600a8652888a2080546001600160a01b031916909117905538611243565b50808a52600a865233838a8c205416141561123e565b5033811415611238565b50801515611232565b8851636fed7d8560e01b81528590fd5b634e487b7160e01b8b526011865260248bfd5b845163c64200e960e01b8152fd5b50670de0b6b3a764000082116111eb565b84516313d0ff5960e31b8152fd5b8580fd5b5050346103465781600319360112610346576020906005549051908152f35b5050346103465781600319360112610346576020906003549051908152f35b50503461034657816003193601126103465760209060ff60075460a01c1690519015158152f35b503461030a57602036600319011261030a57600654813592906001600160a01b0316330361084f576103e8831161084257505060055580f35b5050346103465781600319360112610346576020905160038152f35b505034610346578160031936011261034657602091549051908152f35b50503461034657816003193601126103465760209051611c208152f35b5050346103465781600319360112610346576020905160078152f35b505034610346578160031936011261034657602090600e549051908152f35b5050346103465781600319360112610346576020906001549051908152f35b50903461030a578260031936011261030a576006546001600160a01b0316330361084f576007805460ff60a01b1916905582337f5b65b0c1363b3003db9bcc5e1fd8805a6d6bf5bf6dc9d3431ee4494cd7d117668280a280f35b50919034610346578160031936011261034657338252602090600982528083209160018301908154936001600160801b0385169283156117d557338752600d8352848720549082549163ffffffff83881c16151590816117cb575b50156117ba576116be6127106116b660058054045b88611b7c565b048096611ba5565b6fffffffffffffffffffffffffffffffff1990971690556001600160b81b0319169055338552600d8152828520859055816117ad575b825163a9059cbb60e01b8152338782019081526020810186905282908290819060400103818973765de816845861e75a25fca122bb6898b8b1282a5af19081156117a3578691611786575b501561177657825193845283015233917f92ccf450a286a957af52509bc1c9939d1a6a481783e142e41e2499f0bb66ebc69190a280f35b82516312171d8360e31b81528690fd5b61179d9150823d84116105685761055a8183611b2c565b3861173f565b84513d88823e3d90fd5b81600854016008556116f4565b6116be6127106116b66005546116b0565b905085113861169b565b8451630686827b60e51b81528890fd5b50903461030a578060031936011261030a576117ff611a4a565b6024359260ff60075460a01c166119d3576001600160a01b0382169384156119c457655af3107a4000811080156119b3575b6119a45784865260096020528386209081549363ffffffff93848660601c1615158061199a575b61198c5764ffffffffff8042169660801c1662011940810180911161197957861061196b5786516323b872dd60e01b8152338282019081523060208281019190915260408201869052908290819060600103818d73765de816845861e75a25fca122bb6898b8b1282a5af1908115611961578a91611943575b501561193557509161190a8561192f95937f910fefe8cbd875c2cefeec15c9fce0f7bf2d542d5c42e57b8ed2395127e29b109795611bb2565b549451941663ffffffff16845264ffffffffff16602084015233929081906040820190565b0390a380f35b86516312171d8360e31b8152fd5b61195b915060203d81116105685761055a8183611b2c565b386118d1565b88513d8c823e3d90fd5b8651636fed7d8560e01b8152fd5b634e487b7160e01b8a526011825260248afd5b8651630916c16b60e11b8152fd5b5084861615611858565b50825163c64200e960e01b8152fd5b50670de0b6b3a76400008111611831565b50825163e6c4247b60e01b8152fd5b82516313d0ff5960e31b8152fd5b505034610346576020366003190112610346576020916001600160a01b0390829082611a0b611a4a565b168152600a85522054169051908152f35b8490346103465781600319360112610346578073765de816845861e75a25fca122bb6898b8b1282a60209252f35b600435906001600160a01b0382168203611a6057565b600080fd5b906005821015611a725752565b634e487b7160e01b600052602160045260246000fd5b90815180825260208080930193019160005b828110611aa8575050505090565b835185529381019392810192600101611a9a565b34611a60576000366003190112611a60576020604051670de0b6b3a76400008152f35b600e54811015611b1657600e6000527fbb7b4a454dc3493923482f07822329ed19e8244eff582cc204f8554c3620c3fd0190600090565b634e487b7160e01b600052603260045260246000fd5b90601f8019910116810190811067ffffffffffffffff821117611b4e57604052565b634e487b7160e01b600052604160045260246000fd5b90816020910312611a6057518015158103611a605790565b81810292918115918404141715611b8f57565b634e487b7160e01b600052601160045260246000fd5b91908203918211611b8f57565b60018060a01b03169160008381526009602052604081209260328102818104603214821517156120255790612710611bf39204908160085401600855611ba5565b92805464ffffffffff90818160801c16801515908161200b575b50611f2d575b50815490808260801c168015159182611ede575b5050611e7b575b50805463ffffffff9081600181831601169464ffffffffff60801b9060801b16808674ffffffffff000000000000000000000000ffffffff198416171795868555600185019687546001600160801b03809a168a8216018a8111611e6757918b9593918b99989795936001600160801b03199c8d91169116178a55848160201c168211611daf575b505050505050805460ff8160a81c1615611d42575b5050808560409252600c60205220918254928284168015159081611d34575b50611cf8575b505050505050565b7f35003c2a88a451cd165f157aa0f4efaa1c78331d1bda2c6bbf1a32e40a07d398946020941690555416604051908152a2388080808080611cf0565b905083835416101538611cea565b60ff60a81b1916600160a81b179055600e5468010000000000000000811015611d9b5790611d7882600160409401600e55611adf565b81546001600160a01b0360039290921b91821b19169088901b1790559038611ccb565b634e487b7160e01b82526041600452602482fd5b67ffffffff000000009060201b169274ffffffffff0000000000000000ffffffffffffffff191617171780845560201c16601e81148015611e5d575b8015611e53575b8015611e48575b611e07575b80808080611cb6565b6020611e337fe77c5a722d2d46cdd1852f1811f567c19dadc53da7fc1e0ee6fc979d0335dbac92612073565b611e406040518092611a65565ba28538611dfe565b5061016d8114611df9565b5060b48114611df2565b50605a8114611deb565b634e487b7160e01b89526011600452602489fd5b60b01c60ff166003811015611c2e57815460ff60b01b191660019190910160b01b60ff60b01b16178155847ff31aa52e228bac5c0fd9b53de3947b96a6b562a29503dea0c7a2784cdc228044602060ff845460b01c16604051908152a238611c2e565b620119408201925090828111611f19576201356001809211611f0557851611153880611c27565b634e487b7160e01b85526011600452602485fd5b634e487b7160e01b86526011600452602486fd5b60b081901c60ff1615611faf5750815460ff60b01b19811660b091821c60ff166000190190911b60ff60b01b16178255857fa3cd923e771784f8ab03c4bc813511f007df871c8652c02cd19cc966132b19646040845463ffffffff60601b198116865560ff82519163ffffffff8116835260b01c166020820152a25b38611c13565b867fc0539bb1c6561e4f713a8725d44795917796a9717ae897fbc6707ef291fac9b0602060405163ffffffff85168152a26fffffffff0000000000000000ffffffff19811660609190911b63ffffffff60601b16178255611fa9565b6202a300915001828111611f055782168286161138611c0d565b634e487b7160e01b83526011600452602483fd5b63ffffffff16603181101561206c57602381101561206557600e111561205f5760005490565b60015490565b5060025490565b5060035490565b63ffffffff1661016d8110156120b35760b48110156120ad57605a8110156120a757601e11156120a257600090565b600190565b50600290565b50600390565b50600490565b67ffffffffffffffff8111611b4e5760051b60200190565b906120db826120b9565b6120e86040519182611b2c565b82815280926120f9601f19916120b9565b0190602036910137565b8051821015611b165760209160051b01019056fea2646970667358221220d308d0cb15df1bca8a6a4789a857b4a90aba76bae9c96750b035acbb45fb615f64736f6c63430008140033",
  "linkReferences": {},
  "deployedLinkReferences": {}
}