{
  "_format": "hh-sol-artifact-1",
  "contractName": "Kibo",
  "sourceName": "contracts/Kibo.sol",
  "abi": [
    {
      "inputs": [],
      "stateMutability": "nonpayable",
      "type": "constructor"
    },
    {
      "inputs": [],
      "name": "AlreadyClaimed",
      "type": "error"
    },
    {
      "inputs": [],
      "name": "AmountOutOfRange",
      "type": "error"
    },
    {
      "inputs": [],
      "name": "BpsOutOfRange",
      "type": "error"
    },
    {
      "inputs": [],
      "name": "InvalidAddress",
      "type": "error"
    },
    {
      "inputs": [],
      "name": "InvalidTiers",
      "type": "error"
    },
    {
      "inputs": [],
      "name": "NeedMilestone",
      "type": "error"
    },
    {
      "inputs": [],
      "name": "NoStreakToRecover",
      "type": "error"
    },
    {
      "inputs": [],
      "name": "NothingToWithdraw",
      "type": "error"
    },
    {
      "inputs": [],
      "name": "Paused",
      "type": "error"
    },
    {
      "inputs": [],
      "name": "PoolEmpty",
      "type": "error"
    },
    {
      "inputs": [],
      "name": "RecoveryPending",
      "type": "error"
    },
    {
      "inputs": [],
      "name": "TooSoon",
      "type": "error"
    },
    {
      "inputs": [],
      "name": "TransferFailed",
      "type": "error"
    },
    {
      "inputs": [],
      "name": "Unauthorized",
      "type": "error"
    },
    {
      "anonymous": false,
      "inputs": [
        {
          "indexed": true,
          "internalType": "address",
          "name": "user",
          "type": "address"
        },
        {
          "indexed": false,
          "internalType": "enum Kibo.Badge",
          "name": "badge",
          "type": "uint8"
        }
      ],
      "name": "BadgeEarned",
      "type": "event"
    },
    {
      "anonymous": false,
      "inputs": [
        {
          "indexed": true,
          "internalType": "address",
          "name": "by",
          "type": "address"
        }
      ],
      "name": "ContractPaused",
      "type": "event"
    },
    {
      "anonymous": false,
      "inputs": [
        {
          "indexed": true,
          "internalType": "address",
          "name": "by",
          "type": "address"
        }
      ],
      "name": "ContractUnpaused",
      "type": "event"
    },
    {
      "anonymous": false,
      "inputs": [
        {
          "indexed": true,
          "internalType": "address",
          "name": "user",
          "type": "address"
        },
        {
          "indexed": false,
          "internalType": "uint32",
          "name": "streak",
          "type": "uint32"
        },
        {
          "indexed": false,
          "internalType": "uint40",
          "name": "timestamp",
          "type": "uint40"
        }
      ],
      "name": "Deposited",
      "type": "event"
    },
    {
      "anonymous": false,
      "inputs": [
        {
          "indexed": true,
          "internalType": "address",
          "name": "payer",
          "type": "address"
        },
        {
          "indexed": true,
          "internalType": "address",
          "name": "beneficiary",
          "type": "address"
        },
        {
          "indexed": false,
          "internalType": "uint32",
          "name": "streak",
          "type": "uint32"
        },
        {
          "indexed": false,
          "internalType": "uint40",
          "name": "timestamp",
          "type": "uint40"
        }
      ],
      "name": "DepositedFor",
      "type": "event"
    },
    {
      "anonymous": false,
      "inputs": [
        {
          "indexed": true,
          "internalType": "address",
          "name": "user",
          "type": "address"
        }
      ],
      "name": "GoalCancelled",
      "type": "event"
    },
    {
      "anonymous": false,
      "inputs": [
        {
          "indexed": true,
          "internalType": "address",
          "name": "user",
          "type": "address"
        },
        {
          "indexed": false,
          "internalType": "uint128",
          "name": "totalDeposited",
          "type": "uint128"
        }
      ],
      "name": "GoalReached",
      "type": "event"
    },
    {
      "anonymous": false,
      "inputs": [
        {
          "indexed": true,
          "internalType": "address",
          "name": "user",
          "type": "address"
        },
        {
          "indexed": false,
          "internalType": "uint128",
          "name": "target",
          "type": "uint128"
        }
      ],
      "name": "GoalSet",
      "type": "event"
    },
    {
      "anonymous": false,
      "inputs": [
        {
          "indexed": true,
          "internalType": "address",
          "name": "previousOwner",
          "type": "address"
        },
        {
          "indexed": true,
          "internalType": "address",
          "name": "newOwner",
          "type": "address"
        }
      ],
      "name": "OwnershipTransferStarted",
      "type": "event"
    },
    {
      "anonymous": false,
      "inputs": [
        {
          "indexed": true,
          "internalType": "address",
          "name": "previousOwner",
          "type": "address"
        },
        {
          "indexed": true,
          "internalType": "address",
          "name": "newOwner",
          "type": "address"
        }
      ],
      "name": "OwnershipTransferred",
      "type": "event"
    },
    {
      "anonymous": false,
      "inputs": [
        {
          "indexed": false,
          "internalType": "uint256",
          "name": "oldBps",
          "type": "uint256"
        },
        {
          "indexed": false,
          "internalType": "uint256",
          "name": "newBps",
          "type": "uint256"
        }
      ],
      "name": "PoolFeeBpsUpdated",
      "type": "event"
    },
    {
      "anonymous": false,
      "inputs": [
        {
          "indexed": true,
          "internalType": "address",
          "name": "funder",
          "type": "address"
        },
        {
          "indexed": false,
          "internalType": "uint256",
          "name": "amount",
          "type": "uint256"
        }
      ],
      "name": "PoolFunded",
      "type": "event"
    },
    {
      "anonymous": false,
      "inputs": [
        {
          "indexed": true,
          "internalType": "address",
          "name": "user",
          "type": "address"
        },
        {
          "indexed": false,
          "internalType": "uint8",
          "name": "shields",
          "type": "uint8"
        }
      ],
      "name": "PrecisionShield",
      "type": "event"
    },
    {
      "anonymous": false,
      "inputs": [
        {
          "indexed": true,
          "internalType": "address",
          "name": "ref",
          "type": "address"
        },
        {
          "indexed": true,
          "internalType": "address",
          "name": "referee",
          "type": "address"
        },
        {
          "indexed": false,
          "internalType": "uint256",
          "name": "amount",
          "type": "uint256"
        }
      ],
      "name": "ReferralRewardAccrued",
      "type": "event"
    },
    {
      "anonymous": false,
      "inputs": [
        {
          "indexed": false,
          "internalType": "uint256",
          "name": "oldBps",
          "type": "uint256"
        },
        {
          "indexed": false,
          "internalType": "uint256",
          "name": "newBps",
          "type": "uint256"
        }
      ],
      "name": "ReferralRewardBpsUpdated",
      "type": "event"
    },
    {
      "anonymous": false,
      "inputs": [
        {
          "indexed": true,
          "internalType": "address",
          "name": "ref",
          "type": "address"
        },
        {
          "indexed": false,
          "internalType": "uint256",
          "name": "amount",
          "type": "uint256"
        }
      ],
      "name": "ReferralRewardClaimed",
      "type": "event"
    },
    {
      "anonymous": false,
      "inputs": [
        {
          "indexed": true,
          "internalType": "address",
          "name": "ref",
          "type": "address"
        },
        {
          "indexed": true,
          "internalType": "address",
          "name": "referee",
          "type": "address"
        },
        {
          "indexed": false,
          "internalType": "uint256",
          "name": "amount",
          "type": "uint256"
        }
      ],
      "name": "ReferralRewardSkipped",
      "type": "event"
    },
    {
      "anonymous": false,
      "inputs": [
        {
          "indexed": true,
          "internalType": "address",
          "name": "user",
          "type": "address"
        },
        {
          "indexed": false,
          "internalType": "uint32",
          "name": "streak",
          "type": "uint32"
        },
        {
          "indexed": false,
          "internalType": "uint256",
          "name": "reward",
          "type": "uint256"
        }
      ],
      "name": "RewardClaimed",
      "type": "event"
    },
    {
      "anonymous": false,
      "inputs": [
        {
          "indexed": false,
          "internalType": "uint256",
          "name": "t1",
          "type": "uint256"
        },
        {
          "indexed": false,
          "internalType": "uint256",
          "name": "t2",
          "type": "uint256"
        },
        {
          "indexed": false,
          "internalType": "uint256",
          "name": "t3",
          "type": "uint256"
        },
        {
          "indexed": false,
          "internalType": "uint256",
          "name": "t4",
          "type": "uint256"
        }
      ],
      "name": "RewardTiersUpdated",
      "type": "event"
    },
    {
      "anonymous": false,
      "inputs": [
        {
          "indexed": true,
          "internalType": "address",
          "name": "user",
          "type": "address"
        },
        {
          "indexed": false,
          "internalType": "uint32",
          "name": "streak",
          "type": "uint32"
        },
        {
          "indexed": false,
          "internalType": "uint8",
          "name": "shieldsLeft",
          "type": "uint8"
        }
      ],
      "name": "ShieldUsed",
      "type": "event"
    },
    {
      "anonymous": false,
      "inputs": [
        {
          "indexed": true,
          "internalType": "address",
          "name": "user",
          "type": "address"
        },
        {
          "indexed": false,
          "internalType": "uint32",
          "name": "oldStreak",
          "type": "uint32"
        }
      ],
      "name": "StreakBroken",
      "type": "event"
    },
    {
      "anonymous": false,
      "inputs": [
        {
          "indexed": true,
          "internalType": "address",
          "name": "user",
          "type": "address"
        },
        {
          "indexed": false,
          "internalType": "uint32",
          "name": "streak",
          "type": "uint32"
        },
        {
          "indexed": false,
          "internalType": "uint256",
          "name": "fee",
          "type": "uint256"
        }
      ],
      "name": "StreakRecovered",
      "type": "event"
    },
    {
      "anonymous": false,
      "inputs": [
        {
          "indexed": true,
          "internalType": "address",
          "name": "user",
          "type": "address"
        },
        {
          "indexed": false,
          "internalType": "uint256",
          "name": "payout",
          "type": "uint256"
        },
        {
          "indexed": false,
          "internalType": "uint256",
          "name": "penalty",
          "type": "uint256"
        }
      ],
      "name": "Withdrawn",
      "type": "event"
    },
    {
      "inputs": [],
      "name": "COOLDOWN",
      "outputs": [
        {
          "internalType": "uint256",
          "name": "",
          "type": "uint256"
        }
      ],
      "stateMutability": "view",
      "type": "function"
    },
    {
      "inputs": [],
      "name": "MAX_DEPOSIT",
      "outputs": [
        {
          "internalType": "uint256",
          "name": "",
          "type": "uint256"
        }
      ],
      "stateMutability": "view",
      "type": "function"
    },
    {
      "inputs": [],
      "name": "MAX_POOL_FEE_BPS",
      "outputs": [
        {
          "internalType": "uint256",
          "name": "",
          "type": "uint256"
        }
      ],
      "stateMutability": "view",
      "type": "function"
    },
    {
      "inputs": [],
      "name": "MAX_RECOVERY_FEE",
      "outputs": [
        {
          "internalType": "uint256",
          "name": "",
          "type": "uint256"
        }
      ],
      "stateMutability": "view",
      "type": "function"
    },
    {
      "inputs": [],
      "name": "MAX_REWARD_TIER",
      "outputs": [
        {
          "internalType": "uint256",
          "name": "",
          "type": "uint256"
        }
      ],
      "stateMutability": "view",
      "type": "function"
    },
    {
      "inputs": [],
      "name": "MAX_SHIELDS",
      "outputs": [
        {
          "internalType": "uint8",
          "name": "",
          "type": "uint8"
        }
      ],
      "stateMutability": "view",
      "type": "function"
    },
    {
      "inputs": [],
      "name": "MIN_DEPOSIT",
      "outputs": [
        {
          "internalType": "uint256",
          "name": "",
          "type": "uint256"
        }
      ],
      "stateMutability": "view",
      "type": "function"
    },
    {
      "inputs": [],
      "name": "PRECISION_WINDOW",
      "outputs": [
        {
          "internalType": "uint256",
          "name": "",
          "type": "uint256"
        }
      ],
      "stateMutability": "view",
      "type": "function"
    },
    {
      "inputs": [],
      "name": "STREAK_THRESHOLD",
      "outputs": [
        {
          "internalType": "uint256",
          "name": "",
          "type": "uint256"
        }
      ],
      "stateMutability": "view",
      "type": "function"
    },
    {
      "inputs": [],
      "name": "acceptOwnership",
      "outputs": [],
      "stateMutability": "nonpayable",
      "type": "function"
    },
    {
      "inputs": [],
      "name": "cUSD",
      "outputs": [
        {
          "internalType": "contract IERC20",
          "name": "",
          "type": "address"
        }
      ],
      "stateMutability": "view",
      "type": "function"
    },
    {
      "inputs": [],
      "name": "cancelOwnershipTransfer",
      "outputs": [],
      "stateMutability": "nonpayable",
      "type": "function"
    },
    {
      "inputs": [],
      "name": "claimReferralReward",
      "outputs": [],
      "stateMutability": "nonpayable",
      "type": "function"
    },
    {
      "inputs": [],
      "name": "claimReward",
      "outputs": [],
      "stateMutability": "nonpayable",
      "type": "function"
    },
    {
      "inputs": [
        {
          "internalType": "uint256",
          "name": "amount",
          "type": "uint256"
        },
        {
          "internalType": "address",
          "name": "ref",
          "type": "address"
        }
      ],
      "name": "deposit",
      "outputs": [],
      "stateMutability": "nonpayable",
      "type": "function"
    },
    {
      "inputs": [
        {
          "internalType": "address",
          "name": "beneficiary",
          "type": "address"
        },
        {
          "internalType": "uint256",
          "name": "amount",
          "type": "uint256"
        }
      ],
      "name": "depositFor",
      "outputs": [],
      "stateMutability": "nonpayable",
      "type": "function"
    },
    {
      "inputs": [
        {
          "internalType": "uint256",
          "name": "",
          "type": "uint256"
        }
      ],
      "name": "depositors",
      "outputs": [
        {
          "internalType": "address",
          "name": "",
          "type": "address"
        }
      ],
      "stateMutability": "view",
      "type": "function"
    },
    {
      "inputs": [
        {
          "internalType": "uint256",
          "name": "amount",
          "type": "uint256"
        }
      ],
      "name": "fundPool",
      "outputs": [],
      "stateMutability": "nonpayable",
      "type": "function"
    },
    {
      "inputs": [
        {
          "internalType": "address",
          "name": "user",
          "type": "address"
        }
      ],
      "name": "getBadge",
      "outputs": [
        {
          "internalType": "enum Kibo.Badge",
          "name": "",
          "type": "uint8"
        }
      ],
      "stateMutability": "view",
      "type": "function"
    },
    {
      "inputs": [
        {
          "internalType": "uint256",
          "name": "limit",
          "type": "uint256"
        }
      ],
      "name": "getLeaderboard",
      "outputs": [
        {
          "internalType": "address[]",
          "name": "addrs",
          "type": "address[]"
        },
        {
          "internalType": "uint256[]",
          "name": "streaks",
          "type": "uint256[]"
        },
        {
          "internalType": "uint256[]",
          "name": "totals",
          "type": "uint256[]"
        }
      ],
      "stateMutability": "view",
      "type": "function"
    },
    {
      "inputs": [
        {
          "internalType": "address",
          "name": "user",
          "type": "address"
        }
      ],
      "name": "getUser",
      "outputs": [
        {
          "internalType": "uint256",
          "name": "streak",
          "type": "uint256"
        },
        {
          "internalType": "uint256",
          "name": "lastDeposit",
          "type": "uint256"
        },
        {
          "internalType": "uint256",
          "name": "totalDeposited",
          "type": "uint256"
        },
        {
          "internalType": "uint256",
          "name": "longestStreak",
          "type": "uint256"
        },
        {
          "internalType": "bool",
          "name": "canDeposit",
          "type": "bool"
        },
        {
          "internalType": "uint256",
          "name": "lastClaimedStreak",
          "type": "uint256"
        },
        {
          "internalType": "uint8",
          "name": "shields",
          "type": "uint8"
        },
        {
          "internalType": "uint256",
          "name": "brokenStreak",
          "type": "uint256"
        },
        {
          "internalType": "enum Kibo.Badge",
          "name": "badge",
          "type": "uint8"
        },
        {
          "internalType": "uint256",
          "name": "rewardsClaimed",
          "type": "uint256"
        }
      ],
      "stateMutability": "view",
      "type": "function"
    },
    {
      "inputs": [],
      "name": "owner",
      "outputs": [
        {
          "internalType": "address",
          "name": "",
          "type": "address"
        }
      ],
      "stateMutability": "view",
      "type": "function"
    },
    {
      "inputs": [],
      "name": "pause",
      "outputs": [],
      "stateMutability": "nonpayable",
      "type": "function"
    },
    {
      "inputs": [],
      "name": "paused",
      "outputs": [
        {
          "internalType": "bool",
          "name": "",
          "type": "bool"
        }
      ],
      "stateMutability": "view",
      "type": "function"
    },
    {
      "inputs": [],
      "name": "pendingOwner",
      "outputs": [
        {
          "internalType": "address",
          "name": "",
          "type": "address"
        }
      ],
      "stateMutability": "view",
      "type": "function"
    },
    {
      "inputs": [
        {
          "internalType": "address",
          "name": "",
          "type": "address"
        }
      ],
      "name": "pendingReferralReward",
      "outputs": [
        {
          "internalType": "uint256",
          "name": "",
          "type": "uint256"
        }
      ],
      "stateMutability": "view",
      "type": "function"
    },
    {
      "inputs": [],
      "name": "poolBalance",
      "outputs": [
        {
          "internalType": "uint256",
          "name": "",
          "type": "uint256"
        }
      ],
      "stateMutability": "view",
      "type": "function"
    },
    {
      "inputs": [],
      "name": "poolFeeBps",
      "outputs": [
        {
          "internalType": "uint256",
          "name": "",
          "type": "uint256"
        }
      ],
      "stateMutability": "view",
      "type": "function"
    },
    {
      "inputs": [],
      "name": "poolFunds",
      "outputs": [
        {
          "internalType": "uint256",
          "name": "",
          "type": "uint256"
        }
      ],
      "stateMutability": "view",
      "type": "function"
    },
    {
      "inputs": [],
      "name": "recoverStreak",
      "outputs": [],
      "stateMutability": "nonpayable",
      "type": "function"
    },
    {
      "inputs": [],
      "name": "referralRewardBps",
      "outputs": [
        {
          "internalType": "uint256",
          "name": "",
          "type": "uint256"
        }
      ],
      "stateMutability": "view",
      "type": "function"
    },
    {
      "inputs": [
        {
          "internalType": "address",
          "name": "",
          "type": "address"
        }
      ],
      "name": "referrer",
      "outputs": [
        {
          "internalType": "address",
          "name": "",
          "type": "address"
        }
      ],
      "stateMutability": "view",
      "type": "function"
    },
    {
      "inputs": [],
      "name": "rewardTier1",
      "outputs": [
        {
          "internalType": "uint256",
          "name": "",
          "type": "uint256"
        }
      ],
      "stateMutability": "view",
      "type": "function"
    },
    {
      "inputs": [],
      "name": "rewardTier2",
      "outputs": [
        {
          "internalType": "uint256",
          "name": "",
          "type": "uint256"
        }
      ],
      "stateMutability": "view",
      "type": "function"
    },
    {
      "inputs": [],
      "name": "rewardTier3",
      "outputs": [
        {
          "internalType": "uint256",
          "name": "",
          "type": "uint256"
        }
      ],
      "stateMutability": "view",
      "type": "function"
    },
    {
      "inputs": [],
      "name": "rewardTier4",
      "outputs": [
        {
          "internalType": "uint256",
          "name": "",
          "type": "uint256"
        }
      ],
      "stateMutability": "view",
      "type": "function"
    },
    {
      "inputs": [
        {
          "internalType": "address",
          "name": "",
          "type": "address"
        }
      ],
      "name": "savingsGoal",
      "outputs": [
        {
          "internalType": "uint128",
          "name": "",
          "type": "uint128"
        }
      ],
      "stateMutability": "view",
      "type": "function"
    },
    {
      "inputs": [
        {
          "internalType": "uint128",
          "name": "target",
          "type": "uint128"
        }
      ],
      "name": "setGoal",
      "outputs": [],
      "stateMutability": "nonpayable",
      "type": "function"
    },
    {
      "inputs": [
        {
          "internalType": "uint256",
          "name": "bps",
          "type": "uint256"
        }
      ],
      "name": "setPoolFeeBps",
      "outputs": [],
      "stateMutability": "nonpayable",
      "type": "function"
    },
    {
      "inputs": [
        {
          "internalType": "uint256",
          "name": "bps",
          "type": "uint256"
        }
      ],
      "name": "setReferralRewardBps",
      "outputs": [],
      "stateMutability": "nonpayable",
      "type": "function"
    },
    {
      "inputs": [
        {
          "internalType": "uint256",
          "name": "t1",
          "type": "uint256"
        },
        {
          "internalType": "uint256",
          "name": "t2",
          "type": "uint256"
        },
        {
          "internalType": "uint256",
          "name": "t3",
          "type": "uint256"
        },
        {
          "internalType": "uint256",
          "name": "t4",
          "type": "uint256"
        }
      ],
      "name": "setRewardTiers",
      "outputs": [],
      "stateMutability": "nonpayable",
      "type": "function"
    },
    {
      "inputs": [
        {
          "internalType": "uint256",
          "name": "bps",
          "type": "uint256"
        }
      ],
      "name": "setWithdrawalPenaltyBps",
      "outputs": [],
      "stateMutability": "nonpayable",
      "type": "function"
    },
    {
      "inputs": [],
      "name": "totalDepositors",
      "outputs": [
        {
          "internalType": "uint256",
          "name": "",
          "type": "uint256"
        }
      ],
      "stateMutability": "view",
      "type": "function"
    },
    {
      "inputs": [
        {
          "internalType": "address",
          "name": "",
          "type": "address"
        }
      ],
      "name": "totalRewardsClaimed",
      "outputs": [
        {
          "internalType": "uint256",
          "name": "",
          "type": "uint256"
        }
      ],
      "stateMutability": "view",
      "type": "function"
    },
    {
      "inputs": [
        {
          "internalType": "address",
          "name": "newOwner",
          "type": "address"
        }
      ],
      "name": "transferOwnership",
      "outputs": [],
      "stateMutability": "nonpayable",
      "type": "function"
    },
    {
      "inputs": [],
      "name": "unpause",
      "outputs": [],
      "stateMutability": "nonpayable",
      "type": "function"
    },
    {
      "inputs": [
        {
          "internalType": "address",
          "name": "",
          "type": "address"
        }
      ],
      "name": "users",
      "outputs": [
        {
          "internalType": "uint32",
          "name": "streak",
          "type": "uint32"
        },
        {
          "internalType": "uint32",
          "name": "longestStreak",
          "type": "uint32"
        },
        {
          "internalType": "uint32",
          "name": "lastClaimedStreak",
          "type": "uint32"
        },
        {
          "internalType": "uint32",
          "name": "brokenStreak",
          "type": "uint32"
        },
        {
          "internalType": "uint40",
          "name": "lastDeposit",
          "type": "uint40"
        },
        {
          "internalType": "bool",
          "name": "isDepositor",
          "type": "bool"
        },
        {
          "internalType": "uint8",
          "name": "shields",
          "type": "uint8"
        },
        {
          "internalType": "uint128",
          "name": "totalDeposited",
          "type": "uint128"
        }
      ],
      "stateMutability": "view",
      "type": "function"
    },
    {
      "inputs": [],
      "name": "withdraw",
      "outputs": [],
      "stateMutability": "nonpayable",
      "type": "function"
    },
    {
      "inputs": [],
      "name": "withdrawalPenaltyBps",
      "outputs": [
        {
          "internalType": "uint256",
          "name": "",
          "type": "uint256"
        }
      ],
      "stateMutability": "view",
      "type": "function"
    }
  ],
  "bytecode": "0x608080604052346100645760326000556611c37937e08000600155662aa1efb94e00006002556658d15e1762800060035566b1a2bc2ec500006004556101f46005819055600655600780546001600160a01b03191633179055612280908161006a8239f35b600080fdfe6080604081815260048036101561001557600080fd5b600092833560e01c9081631fccf67214611b495750806323452b9c14611b115780632cf003c214611ad65780632f4f21e2146118da57806337e1b65a146118bd5780633ccfd60b146117205780633f4ba83a146116c65780633fbf422f146116a7578063418f31281461168857806348903e01146116215780634c8530ce1461160557806351bea8c3146115e85780635264dab0146115c9578063546cea86146115ad57806354b1de8f146115675780635c975abb1461154057806360bd13d91461152357806366fc0127146115045780636e553f65146112085780636f77926b146111165780637289cca614610f6f57806375f4c05914610f5057806379ba509714610ee157806382bbf60e14610e9f5780638456cb5914610e335780638da5cb5b14610e0a57806396365d44146106025780639b4b2c9c14610d2b5780639f147d0014610cf3578063a2724a4d14610cd5578063a2c8b36914610c39578063a34b46fe14610943578063a87430ba146108a5578063aa0224fd14610882578063af10bbcd146104a7578063b09e603f146107fe578063b88a802f14610621578063bc2104d214610602578063c254de88146105b5578063c7a0ecac14610599578063da3a5f72146104ac578063dd5967c3146104a7578063e1e158a514610486578063e30c39781461045d578063e4b2fb791461041a578063f2fde38b14610389578063f67ded4e1461036a578063f6ce90041461032e5763ff84a2621461023e57600080fd5b3461032a57608036600319011261032a57600754813592606435926044359260243591906001600160a01b0316330361031d5785158015610313575b8015610309575b80156102ff575b80156102ee575b6102e0579185939185608096947f7ddff0131937dfb4362682c96132c768e4bce6a574b2c4ebd904636975d99f1598600155826002558460035555815194855260208501528301526060820152a180f35b825163036899eb60e31b8152fd5b50670de0b6b3a7640000851161028f565b5083851115610288565b5081841115610281565b508582111561027a565b82516282b42960e81b8152fd5b8280fd5b5050346103665760203660031901126103665760209181906001600160a01b03610356611b77565b168152600e845220549051908152f35b5080fd5b5050346103665781600319360112610366576020906003549051908152f35b503461032a57602036600319011261032a576103a3611b77565b6007546001600160a01b0390811692913384900361040b57169283156103fe575050600880546001600160a01b031916831790557f38d16b8cac22d99fc7c124b9cd0de2d3fa1faef420bfe791d8c362d765e227008380a380f35b5163e6c4247b60e01b8152fd5b84516282b42960e81b81528390fd5b503461032a57602036600319011261032a573591600f5483101561045a5750610444602092611c0c565b905491519160018060a01b039160031b1c168152f35b80fd5b50503461036657816003193601126103665760085490516001600160a01b039091168152602090f35b50503461036657816003193601126103665760209051655af3107a40008152f35b611be9565b50903461032a57602036600319011261032a5780516323b872dd60e01b815233818401908152306020828101919091528435604083018190529492918290819060600103818873765de816845861e75a25fca122bb6898b8b1282a5af190811561058f578591610561575b501561055357508160095401600955519081527f32173d8e51cec3a6fe484b7a1c3febe760cdf96e03d4cca36a43563a4333e83860203392a280f35b90516312171d8360e31b8152fd5b610582915060203d8111610588575b61057a8183611c59565b810190611c91565b38610517565b503d610570565b83513d87823e3d90fd5b5050346103665781600319360112610366576020905160c88152f35b505034610366576020366003190112610366576106006105f763ffffffff8360209560018060a01b036105e6611b77565b168152600a87522054851c166121a6565b91518092611b92565bf35b5050346103665781600319360112610366576020906009549051908152f35b503461032a578260031936011261032a5760ff60085460a01c166107f057338352600a6020528183209182549163ffffffff93848416946007861080156107e4575b6107d45784841c168511156107c55761067b8561216c565b9384600954106107b5576bffffffff000000000000000019811690841b6bffffffff0000000000000000161780825560b01c60ff169060038210610790575b505060098054849003905533808652600e6020908152838720805486019055835163a9059cbb60e01b8152838101928352828201869052918290819060400103818973765de816845861e75a25fca122bb6898b8b1282a5af1908115610786578691610768575b501561055357505163ffffffff9092168252602082015233907f0d26a00dfd91636328b46a49a079c1612a57c89258f2fea78c7469ec0b5f80479080604081015b0390a280f35b610780915060203d81116105885761057a8183611c59565b38610721565b83513d88823e3d90fd5b805460ff60b01b191660019290920160b01b60ff60b01b1691909117905538806106ba565b83516305ce024d60e51b81528390fd5b509051630c8d9eab60e31b8152fd5b8351632e6d9aff60e01b81528390fd5b50600786061515610663565b90516313d0ff5960e31b8152fd5b50903461032a57602036600319011261032a57600754823592906001600160a01b03163303610875576103e8831161086757507e6d2ab5e2e5f0fd1d9bf29d6f60ae957400958ebae002a5f2d361a417993cd4906005548151908152836020820152a160055580f35b905163063941ff60e31b8152fd5b90516282b42960e81b8152fd5b5050346103665781600319360112610366576020905167016345785d8a00008152f35b505034610366576020366003190112610366576101009181906001600160a01b036108ce611b77565b168152600a6020522060ff6001600160801b0360018354930154169183519363ffffffff908183168652818360201c1660208701528183821c16908601528160601c16606085015264ffffffffff8160801c166080850152818160a81c16151560a085015260b01c1660c083015260e0820152f35b509190346103665760208060031936011261032a57833593600f5460c88110600014610c3057945b80861015610c2b5750845b61097f86612204565b9061098987612204565b9661099381612204565b9386885b878a8c88878510610bb25750509250505050875b838110610ab15750508103610a2557509490915b8351946060860160608752875180915282608088019801915b818110610a0857878903848901528780610a0489896109f78e8b611bb5565b9184830390850152611bb5565b0390f35b82516001600160a01b0316895297830197918301916001016109d8565b610a3481979397949294612204565b96610a3e82612204565b93610a4883612204565b95885b848110610a5c5750505050506109bf565b6001908b610a7e826001600160a01b03610a768288612236565b511692612236565b52610a898185612236565b51610a94828a612236565b52610a9f8186612236565b51610aaa828b612236565b5201610a4b565b8060019182810192838211610b9f57835b868110610b73575050808203610ada575b50506109ab565b610b6b906001600160a01b0380610af1858b612236565b511690610afe838b612236565b5116610b0a858b612236565b52610b15828a612236565b528c610b4282610b258684612236565b5192610b318282612236565b51610b3c8883612236565b52612236565b52610b4d838a612236565b5192610b64610b5c838c612236565b51918b612236565b5288612236565b523880610ad3565b8d610b8985610b828484612236565b5192612236565b5110610b97575b8101610ac2565b925082610b90565b634e487b7160e01b8c526011855260248cfd5b8463ffffffff600197610bc483611c0c565b8a8060a01b0391549060031b1c1695868152600a8098522054169283610bf3575b505050505050018790610997565b84610b3c83610c0195612236565b528b5288526001600160801b03828a8c20015416610c1f8289612236565b5238808088848f610be5565b610976565b5060c89461096b565b503461032a57602036600319011261032a5735906001600160801b03821680920361032a57338352600d60205280832080546001600160801b0319168317905581610ca8575050337f8e7ceb5d4a16b827a2dbebf1f7dba029626039ce0855da597c692098a3e78c608280a280f35b519081527fd576bc64b95e6bbdb657e504fcdadeb74867d950336fd046addd6db94933ab0d60203392a280f35b50503461036657816003193601126103665760209051620119408152f35b5050346103665760203660031901126103665760209181906001600160a01b03610d1b611b77565b168152600c845220549051908152f35b50903461032a578260031936011261032a57338352602090600c825280842054928315610dfc5733808652600c8452828620869055825163a9059cbb60e01b8152828101918252602082018690529084908290819060400103818973765de816845861e75a25fca122bb6898b8b1282a5af1908115610786578691610ddf575b50156105535750907f5be4d22009fea85381595ed91090bc5c0bc92a93fe07ed7472c5888eb1993f8391519283523392a280f35b610df69150843d86116105885761057a8183611c59565b38610dab565b9051630686827b60e51b8152fd5b50503461036657816003193601126103665760075490516001600160a01b039091168152602090f35b50903461032a578260031936011261032a576007546001600160a01b03163303610e93576008805460ff60a01b1916600160a01b17905582337f81990fd9a5c552b8e3677917d8a03c07678f0d2cb68f88b634aca2022e9bd19f8280a280f35b516282b42960e81b8152fd5b505034610366576020366003190112610366576020916001600160801b039082906001600160a01b03610ed0611b77565b168152600d85522054169051908152f35b503461032a578260031936011261032a576008546001600160a01b03929091908383163303610e9357505060075491339083167f8be0079c531659141344cd1fd0a4f28419497f9722a3daafe3b4186f6b6457e08580a36001600160a01b031991821633176007551660085580f35b5050346103665781600319360112610366576020906005549051908152f35b50903461032a578260031936011261032a5760ff60085460a01c1661110957338352600a6020528083209081549163ffffffff93848460601c1694851590819582156110fd575b50506110ef57655af3107a400093848602948686041417156110dc5767016345785d8a00008085116110d4575b5082516323b872dd60e01b8152338282019081523060208281019190915260408201879052908290819060600103818a73765de816845861e75a25fca122bb6898b8b1282a5af19081156110ca5787916110ac575b501561109e575080546fffffffff0000000000000000ffffffff19168417905560098054830190555163ffffffff9092168252602082015233907fc428c32598bfe7863de948cb3b5ffb667a08521ac39c31a674722457e9800b6e908060408101610762565b82516312171d8360e31b8152fd5b6110c4915060203d81116105885761057a8183611c59565b38611038565b84513d89823e3d90fd5b935038610fe3565b634e487b7160e01b865260119052602485fd5b8251631f309d3760e21b8152fd5b16151590503880610fb6565b516313d0ff5960e31b8152fd5b50823461045a57602036600319011261045a576001600160a01b03611139611b77565b1691828252600a6020528382209384549164ffffffffff6001600160801b036001828660801c16980154169463ffffffff95868660201c1691620119408a0194858b116111f557509585610140999589958560209b956111ed9a8f9c61119f889a6121a6565b9b8152600e8f5220549b85519d8e89891681520152848d015260608c01524216101560808a01521c1660a087015260ff8160b01c1660c087015260601c1660e0850152610100840190611b92565b610120820152f35b634e487b7160e01b825260119052602490fd5b503461032a578160031936011261032a576024356001600160a01b03818116918335908390036115005760ff60085460a01c166114f057655af3107a4000811080156114df575b6114cf57338652602091600a83528587209364ffffffffff95864216968654908160801c166201194081018091116114bc5788106114ad5760a81c60ff16159182806114a4575b8061149a575b80611484575b611463575b5087516323b872dd60e01b8152338282019081523060208201526040810186905286908290819060600103818d73765de816845861e75a25fca122bb6898b8b1282a5af1908115611459578a9161143c575b501561142e575092826107629592879561133a7f1091413ac916d6d977ba19245be465e86c3dfd74cc7c9903af6856d3e3668e559963ffffffff9733611cdf565b61136b575b5050505416935191829133958390929164ffffffffff60209163ffffffff604085019616845216910152565b338a52600b8352888a205416906005549082151580611425575b611390575b5061133f565b6127109161139d91611ca9565b60095491900492838083106113f4577f9e2c5f94b327df7a7ea63d4c940cf9abf3d51452d7a5aca95b6140ce2c823ef29203600955828b52600c8152898b2084815401905589519384523393a35b3880808061138a565b507fdf599ad211fa168884e13fd826c0ffce9953e8779d95c69096d14abe8e041f6b915089519384523393a36113eb565b50811515611385565b87516312171d8360e31b8152fd5b6114539150863d88116105885761057a8183611c59565b386112f9565b89513d8c823e3d90fd5b338a52600b8652888a2080546001600160a01b0319169091179055386112a7565b50808a52600b865233848a8c20541614156112a2565b503381141561129c565b50801515611296565b508751636fed7d8560e01b8152fd5b634e487b7160e01b8b526011835260248bfd5b845163c64200e960e01b81528490fd5b50670de0b6b3a7640000811161124f565b84516313d0ff5960e31b81528490fd5b8580fd5b5050346103665781600319360112610366576020906006549051908152f35b503461032a578260031936011261032a5760209250549051908152f35b50503461036657816003193601126103665760209060ff60085460a01c1690519015158152f35b503461032a57602036600319011261032a57600754813592906001600160a01b03163303610e93576103e883116115a057505060065580f35b5163063941ff60e31b8152fd5b5050346103665781600319360112610366576020905160038152f35b5050346103665781600319360112610366576020906001549051908152f35b50503461036657816003193601126103665760209051611c208152f35b5050346103665781600319360112610366576020905160078152f35b50903461032a57602036600319011261032a57600754823592906001600160a01b031633036108755760c8831161086757507ff8f76aeed5add00fd43eed1a4a8d1d8f0ef674595076b8e424cf5b656d2fb8b59083548151908152836020820152a1815580f35b505034610366578160031936011261036657602090600f549051908152f35b5050346103665781600319360112610366576020906002549051908152f35b50903461032a578260031936011261032a576007546001600160a01b03163303610e93576008805460ff60a01b1916905582337f5b65b0c1363b3003db9bcc5e1fd8805a6d6bf5bf6dc9d3431ee4494cd7d117668280a280f35b50919034610366578160031936011261036657338252602090600a82528083209160018301908154936001600160801b0385169283156118ad57338752600e8352848720549082549163ffffffff83881c16151590816118a3575b50156118925761179f6127106117976005600654045b88611ca9565b048096611cd2565b6001600160801b031990971690556001600160b81b0319169055338552600e815282852085905581611885575b825163a9059cbb60e01b8152338782019081526020810186905282908290819060400103818973765de816845861e75a25fca122bb6898b8b1282a5af190811561187b57869161185e575b501561184e57825193845283015233917f92ccf450a286a957af52509bc1c9939d1a6a481783e142e41e2499f0bb66ebc69190a280f35b82516312171d8360e31b81528690fd5b6118759150823d84116105885761057a8183611c59565b38611817565b84513d88823e3d90fd5b81600954016009556117cc565b61179f612710611797600654611791565b905085113861177b565b8451630686827b60e51b81528890fd5b505034610366578160031936011261036657602091549051908152f35b50903461032a578060031936011261032a576118f4611b77565b6024359260ff60085460a01c16611ac8576001600160a01b038216938415611ab957655af3107a400081108015611aa8575b611a9957848652600a6020528386209081549363ffffffff93848660601c16151580611a8f575b611a815764ffffffffff8042169660801c16620119408101809111611a6e578610611a605786516323b872dd60e01b8152338282019081523060208281019190915260408201869052908290819060600103818d73765de816845861e75a25fca122bb6898b8b1282a5af1908115611a56578a91611a38575b5015611a2a5750916119ff85611a2495937f910fefe8cbd875c2cefeec15c9fce0f7bf2d542d5c42e57b8ed2395127e29b109795611cdf565b549451941663ffffffff16845264ffffffffff16602084015233929081906040820190565b0390a380f35b86516312171d8360e31b8152fd5b611a50915060203d81116105885761057a8183611c59565b386119c6565b88513d8c823e3d90fd5b8651636fed7d8560e01b8152fd5b634e487b7160e01b8a526011825260248afd5b8651630916c16b60e11b8152fd5b508486161561194d565b50825163c64200e960e01b8152fd5b50670de0b6b3a76400008111611926565b50825163e6c4247b60e01b8152fd5b82516313d0ff5960e31b8152fd5b505034610366576020366003190112610366576020916001600160a01b0390829082611b00611b77565b168152600b85522054169051908152f35b50903461032a578260031936011261032a576007546001600160a01b03163303610e9357600880546001600160a01b03191690558280f35b8490346103665781600319360112610366578073765de816845861e75a25fca122bb6898b8b1282a60209252f35b600435906001600160a01b0382168203611b8d57565b600080fd5b906005821015611b9f5752565b634e487b7160e01b600052602160045260246000fd5b90815180825260208080930193019160005b828110611bd5575050505090565b835185529381019392810192600101611bc7565b34611b8d576000366003190112611b8d576020604051670de0b6b3a76400008152f35b600f54811015611c4357600f6000527f8d1108e10bcb7c27dddfc02ed9d693a074039d026cf4ea4240b40f7d581ac8020190600090565b634e487b7160e01b600052603260045260246000fd5b90601f8019910116810190811067ffffffffffffffff821117611c7b57604052565b634e487b7160e01b600052604160045260246000fd5b90816020910312611b8d57518015158103611b8d5790565b81810292918115918404141715611cbc57565b634e487b7160e01b600052601160045260246000fd5b91908203918211611cbc57565b9160018060a01b0380931692600091848352602092600a8452604092611d1f84832096612710611d10855483611ca9565b04908160095401600955611cd2565b9582815464ffffffffff90818160801c168015159081612152575b50612072575b50825490808260801c168015159182612037575b5050611fd6575b5015611f8b575b80549364ffffffffff60801b9060801b16938464ffffffffff60801b1982161790818355600183019586546001600160801b03809b168b8216018b8111611f77578b166001600160801b031991821617885599969588959094909390928c9263ffffffff92808d1c841684841611611ec5575b5050505050805460ff8160a81c1615611e5c575b505050878152600d8652208054958387168015159081611e4e575b50611e14575b5050505050505050565b7f35003c2a88a451cd165f157aa0f4efaa1c78331d1bda2c6bbf1a32e40a07d3989616905554169051908152a23880808080808080611e0a565b905084845416101538611e04565b60ff60a81b1916600160a81b179055600f549192509068010000000000000000811015611eb15790611e9682600188959401600f55611c0c565b819291549060031b918b831b921b1916179055388080611de9565b634e487b7160e01b83526041600452602483fd5b67ffffffff00000000908d1b169174ffffffffff0000000000000000ffffffff00000000191617178084558a1c1689601e82148015611f6d575b8015611f63575b8015611f58575b611f19575b8180611dd5565b611f437fe77c5a722d2d46cdd1852f1811f567c19dadc53da7fc1e0ee6fc979d0335dbac926121a6565b611f4f88518092611b92565ba2893889611f12565b5061016d8214611f0d565b5060b48214611f06565b50605a8214611eff565b634e487b7160e01b88526011600452602488fd5b805463ffffffff908160018183160116918263ffffffff1983161780855560601c16611fb9575b5050611d62565b6fffffffff0000000000000000ffffffff19161781553880611fb2565b60b01c60ff166003811015611d5b57825460ff60b01b191660019190910160b01b60ff60b01b16178255887ff31aa52e228bac5c0fd9b53de3947b96a6b562a29503dea0c7a2784cdc2280448860ff855460b01c168951908152a238611d5b565b620119408201925090828111611f7757620135600180921161205e57871611153880611d54565b634e487b7160e01b87526011600452602487fd5b60b081901c60ff16156120f25750825460ff60b01b19811660b091821c60ff166000190190911b60ff60b01b16178355897fa3cd923e771784f8ab03c4bc813511f007df871c8652c02cd19cc966132b196488855463ffffffff60601b198116875560ff82519163ffffffff8116835260b01c168c820152a25b38611d40565b909150897fc0539bb1c6561e4f713a8725d44795917796a9717ae897fbc6707ef291fac9b089895163ffffffff85168152a26fffffffff0000000000000000ffffffff19811660609190911b63ffffffff60601b161782556001906120ec565b6202a30091500182811161205e5782168288161138611d3a565b63ffffffff16603181101561219f57602381101561219857600e11156121925760015490565b60025490565b5060035490565b5060045490565b63ffffffff1661016d8110156121e65760b48110156121e057605a8110156121da57601e11156121d557600090565b600190565b50600290565b50600390565b50600490565b67ffffffffffffffff8111611c7b5760051b60200190565b9061220e826121ec565b61221b6040519182611c59565b828152809261222c601f19916121ec565b0190602036910137565b8051821015611c435760209160051b01019056fea2646970667358221220302e196bf86856c390f35459118619d3f390b8047749785f75db8a0919d7213464736f6c63430008140033",
  "linkReferences": {},
  "deployedLinkReferences": {}
}