{
  "_format": "hh-sol-artifact-1",
  "contractName": "Kibo",
  "sourceName": "contracts/Kibo.sol",
  "abi": [
    {
      "inputs": [],
      "stateMutability": "nonpayable",
      "type": "constructor"
    },
    {
      "inputs": [],
      "name": "AlreadyClaimed",
      "type": "error"
    },
    {
      "inputs": [],
      "name": "AmountOutOfRange",
      "type": "error"
    },
    {
      "inputs": [],
      "name": "BpsOutOfRange",
      "type": "error"
    },
    {
      "inputs": [],
      "name": "InvalidAddress",
      "type": "error"
    },
    {
      "inputs": [],
      "name": "InvalidTiers",
      "type": "error"
    },
    {
      "inputs": [],
      "name": "NeedMilestone",
      "type": "error"
    },
    {
      "inputs": [],
      "name": "NoStreakToRecover",
      "type": "error"
    },
    {
      "inputs": [],
      "name": "NothingToWithdraw",
      "type": "error"
    },
    {
      "inputs": [],
      "name": "Paused",
      "type": "error"
    },
    {
      "inputs": [],
      "name": "PoolEmpty",
      "type": "error"
    },
    {
      "inputs": [],
      "name": "RecoveryPending",
      "type": "error"
    },
    {
      "inputs": [],
      "name": "TooSoon",
      "type": "error"
    },
    {
      "inputs": [],
      "name": "TransferFailed",
      "type": "error"
    },
    {
      "inputs": [],
      "name": "Unauthorized",
      "type": "error"
    },
    {
      "anonymous": false,
      "inputs": [
        {
          "indexed": true,
          "internalType": "address",
          "name": "user",
          "type": "address"
        },
        {
          "indexed": false,
          "internalType": "enum Kibo.Badge",
          "name": "badge",
          "type": "uint8"
        }
      ],
      "name": "BadgeEarned",
      "type": "event"
    },
    {
      "anonymous": false,
      "inputs": [
        {
          "indexed": true,
          "internalType": "address",
          "name": "user",
          "type": "address"
        },
        {
          "indexed": false,
          "internalType": "uint32",
          "name": "streak",
          "type": "uint32"
        },
        {
          "indexed": false,
          "internalType": "uint40",
          "name": "timestamp",
          "type": "uint40"
        }
      ],
      "name": "Deposited",
      "type": "event"
    },
    {
      "anonymous": false,
      "inputs": [
        {
          "indexed": true,
          "internalType": "address",
          "name": "payer",
          "type": "address"
        },
        {
          "indexed": true,
          "internalType": "address",
          "name": "beneficiary",
          "type": "address"
        },
        {
          "indexed": false,
          "internalType": "uint32",
          "name": "streak",
          "type": "uint32"
        },
        {
          "indexed": false,
          "internalType": "uint40",
          "name": "timestamp",
          "type": "uint40"
        }
      ],
      "name": "DepositedFor",
      "type": "event"
    },
    {
      "anonymous": false,
      "inputs": [
        {
          "indexed": true,
          "internalType": "address",
          "name": "user",
          "type": "address"
        },
        {
          "indexed": false,
          "internalType": "uint128",
          "name": "totalDeposited",
          "type": "uint128"
        }
      ],
      "name": "GoalReached",
      "type": "event"
    },
    {
      "anonymous": false,
      "inputs": [
        {
          "indexed": true,
          "internalType": "address",
          "name": "user",
          "type": "address"
        },
        {
          "indexed": false,
          "internalType": "uint128",
          "name": "target",
          "type": "uint128"
        }
      ],
      "name": "GoalSet",
      "type": "event"
    },
    {
      "anonymous": false,
      "inputs": [
        {
          "indexed": true,
          "internalType": "address",
          "name": "previousOwner",
          "type": "address"
        },
        {
          "indexed": true,
          "internalType": "address",
          "name": "newOwner",
          "type": "address"
        }
      ],
      "name": "OwnershipTransferStarted",
      "type": "event"
    },
    {
      "anonymous": false,
      "inputs": [
        {
          "indexed": true,
          "internalType": "address",
          "name": "previousOwner",
          "type": "address"
        },
        {
          "indexed": true,
          "internalType": "address",
          "name": "newOwner",
          "type": "address"
        }
      ],
      "name": "OwnershipTransferred",
      "type": "event"
    },
    {
      "anonymous": false,
      "inputs": [
        {
          "indexed": true,
          "internalType": "address",
          "name": "funder",
          "type": "address"
        },
        {
          "indexed": false,
          "internalType": "uint256",
          "name": "amount",
          "type": "uint256"
        }
      ],
      "name": "PoolFunded",
      "type": "event"
    },
    {
      "anonymous": false,
      "inputs": [
        {
          "indexed": true,
          "internalType": "address",
          "name": "user",
          "type": "address"
        },
        {
          "indexed": false,
          "internalType": "uint8",
          "name": "shields",
          "type": "uint8"
        }
      ],
      "name": "PrecisionShield",
      "type": "event"
    },
    {
      "anonymous": false,
      "inputs": [
        {
          "indexed": true,
          "internalType": "address",
          "name": "ref",
          "type": "address"
        },
        {
          "indexed": true,
          "internalType": "address",
          "name": "referee",
          "type": "address"
        },
        {
          "indexed": false,
          "internalType": "uint256",
          "name": "amount",
          "type": "uint256"
        }
      ],
      "name": "ReferralRewardAccrued",
      "type": "event"
    },
    {
      "anonymous": false,
      "inputs": [
        {
          "indexed": true,
          "internalType": "address",
          "name": "ref",
          "type": "address"
        },
        {
          "indexed": false,
          "internalType": "uint256",
          "name": "amount",
          "type": "uint256"
        }
      ],
      "name": "ReferralRewardClaimed",
      "type": "event"
    },
    {
      "anonymous": false,
      "inputs": [
        {
          "indexed": true,
          "internalType": "address",
          "name": "user",
          "type": "address"
        },
        {
          "indexed": false,
          "internalType": "uint32",
          "name": "streak",
          "type": "uint32"
        },
        {
          "indexed": false,
          "internalType": "uint256",
          "name": "reward",
          "type": "uint256"
        }
      ],
      "name": "RewardClaimed",
      "type": "event"
    },
    {
      "anonymous": false,
      "inputs": [
        {
          "indexed": false,
          "internalType": "uint256",
          "name": "t1",
          "type": "uint256"
        },
        {
          "indexed": false,
          "internalType": "uint256",
          "name": "t2",
          "type": "uint256"
        },
        {
          "indexed": false,
          "internalType": "uint256",
          "name": "t3",
          "type": "uint256"
        },
        {
          "indexed": false,
          "internalType": "uint256",
          "name": "t4",
          "type": "uint256"
        }
      ],
      "name": "RewardTiersUpdated",
      "type": "event"
    },
    {
      "anonymous": false,
      "inputs": [
        {
          "indexed": true,
          "internalType": "address",
          "name": "user",
          "type": "address"
        },
        {
          "indexed": false,
          "internalType": "uint32",
          "name": "streak",
          "type": "uint32"
        },
        {
          "indexed": false,
          "internalType": "uint8",
          "name": "shieldsLeft",
          "type": "uint8"
        }
      ],
      "name": "ShieldUsed",
      "type": "event"
    },
    {
      "anonymous": false,
      "inputs": [
        {
          "indexed": true,
          "internalType": "address",
          "name": "user",
          "type": "address"
        },
        {
          "indexed": false,
          "internalType": "uint32",
          "name": "oldStreak",
          "type": "uint32"
        }
      ],
      "name": "StreakBroken",
      "type": "event"
    },
    {
      "anonymous": false,
      "inputs": [
        {
          "indexed": true,
          "internalType": "address",
          "name": "user",
          "type": "address"
        },
        {
          "indexed": false,
          "internalType": "uint32",
          "name": "streak",
          "type": "uint32"
        },
        {
          "indexed": false,
          "internalType": "uint256",
          "name": "fee",
          "type": "uint256"
        }
      ],
      "name": "StreakRecovered",
      "type": "event"
    },
    {
      "anonymous": false,
      "inputs": [
        {
          "indexed": true,
          "internalType": "address",
          "name": "user",
          "type": "address"
        },
        {
          "indexed": false,
          "internalType": "uint256",
          "name": "payout",
          "type": "uint256"
        },
        {
          "indexed": false,
          "internalType": "uint256",
          "name": "penalty",
          "type": "uint256"
        }
      ],
      "name": "Withdrawn",
      "type": "event"
    },
    {
      "inputs": [],
      "name": "COOLDOWN",
      "outputs": [
        {
          "internalType": "uint256",
          "name": "",
          "type": "uint256"
        }
      ],
      "stateMutability": "view",
      "type": "function"
    },
    {
      "inputs": [],
      "name": "MAX_DEPOSIT",
      "outputs": [
        {
          "internalType": "uint256",
          "name": "",
          "type": "uint256"
        }
      ],
      "stateMutability": "view",
      "type": "function"
    },
    {
      "inputs": [],
      "name": "MAX_RECOVERY_FEE",
      "outputs": [
        {
          "internalType": "uint256",
          "name": "",
          "type": "uint256"
        }
      ],
      "stateMutability": "view",
      "type": "function"
    },
    {
      "inputs": [],
      "name": "MAX_SHIELDS",
      "outputs": [
        {
          "internalType": "uint8",
          "name": "",
          "type": "uint8"
        }
      ],
      "stateMutability": "view",
      "type": "function"
    },
    {
      "inputs": [],
      "name": "MIN_DEPOSIT",
      "outputs": [
        {
          "internalType": "uint256",
          "name": "",
          "type": "uint256"
        }
      ],
      "stateMutability": "view",
      "type": "function"
    },
    {
      "inputs": [],
      "name": "POOL_FEE_BPS",
      "outputs": [
        {
          "internalType": "uint256",
          "name": "",
          "type": "uint256"
        }
      ],
      "stateMutability": "view",
      "type": "function"
    },
    {
      "inputs": [],
      "name": "PRECISION_WINDOW",
      "outputs": [
        {
          "internalType": "uint256",
          "name": "",
          "type": "uint256"
        }
      ],
      "stateMutability": "view",
      "type": "function"
    },
    {
      "inputs": [],
      "name": "STREAK_THRESHOLD",
      "outputs": [
        {
          "internalType": "uint256",
          "name": "",
          "type": "uint256"
        }
      ],
      "stateMutability": "view",
      "type": "function"
    },
    {
      "inputs": [],
      "name": "acceptOwnership",
      "outputs": [],
      "stateMutability": "nonpayable",
      "type": "function"
    },
    {
      "inputs": [],
      "name": "cUSD",
      "outputs": [
        {
          "internalType": "contract IERC20",
          "name": "",
          "type": "address"
        }
      ],
      "stateMutability": "view",
      "type": "function"
    },
    {
      "inputs": [],
      "name": "claimReferralReward",
      "outputs": [],
      "stateMutability": "nonpayable",
      "type": "function"
    },
    {
      "inputs": [],
      "name": "claimReward",
      "outputs": [],
      "stateMutability": "nonpayable",
      "type": "function"
    },
    {
      "inputs": [
        {
          "internalType": "uint256",
          "name": "amount",
          "type": "uint256"
        },
        {
          "internalType": "address",
          "name": "ref",
          "type": "address"
        }
      ],
      "name": "deposit",
      "outputs": [],
      "stateMutability": "nonpayable",
      "type": "function"
    },
    {
      "inputs": [
        {
          "internalType": "address",
          "name": "beneficiary",
          "type": "address"
        },
        {
          "internalType": "uint256",
          "name": "amount",
          "type": "uint256"
        }
      ],
      "name": "depositFor",
      "outputs": [],
      "stateMutability": "nonpayable",
      "type": "function"
    },
    {
      "inputs": [
        {
          "internalType": "uint256",
          "name": "",
          "type": "uint256"
        }
      ],
      "name": "depositors",
      "outputs": [
        {
          "internalType": "address",
          "name": "",
          "type": "address"
        }
      ],
      "stateMutability": "view",
      "type": "function"
    },
    {
      "inputs": [
        {
          "internalType": "uint256",
          "name": "amount",
          "type": "uint256"
        }
      ],
      "name": "fundPool",
      "outputs": [],
      "stateMutability": "nonpayable",
      "type": "function"
    },
    {
      "inputs": [
        {
          "internalType": "address",
          "name": "user",
          "type": "address"
        }
      ],
      "name": "getBadge",
      "outputs": [
        {
          "internalType": "enum Kibo.Badge",
          "name": "",
          "type": "uint8"
        }
      ],
      "stateMutability": "view",
      "type": "function"
    },
    {
      "inputs": [
        {
          "internalType": "uint256",
          "name": "limit",
          "type": "uint256"
        }
      ],
      "name": "getLeaderboard",
      "outputs": [
        {
          "internalType": "address[]",
          "name": "addrs",
          "type": "address[]"
        },
        {
          "internalType": "uint256[]",
          "name": "streaks",
          "type": "uint256[]"
        },
        {
          "internalType": "uint256[]",
          "name": "totals",
          "type": "uint256[]"
        }
      ],
      "stateMutability": "view",
      "type": "function"
    },
    {
      "inputs": [
        {
          "internalType": "address",
          "name": "user",
          "type": "address"
        }
      ],
      "name": "getUser",
      "outputs": [
        {
          "internalType": "uint256",
          "name": "streak",
          "type": "uint256"
        },
        {
          "internalType": "uint256",
          "name": "lastDeposit",
          "type": "uint256"
        },
        {
          "internalType": "uint256",
          "name": "totalDeposited",
          "type": "uint256"
        },
        {
          "internalType": "uint256",
          "name": "longestStreak",
          "type": "uint256"
        },
        {
          "internalType": "bool",
          "name": "canDeposit",
          "type": "bool"
        },
        {
          "internalType": "uint256",
          "name": "lastClaimedStreak",
          "type": "uint256"
        },
        {
          "internalType": "uint8",
          "name": "shields",
          "type": "uint8"
        },
        {
          "internalType": "uint256",
          "name": "brokenStreak",
          "type": "uint256"
        },
        {
          "internalType": "enum Kibo.Badge",
          "name": "badge",
          "type": "uint8"
        },
        {
          "internalType": "uint256",
          "name": "rewardsClaimed",
          "type": "uint256"
        }
      ],
      "stateMutability": "view",
      "type": "function"
    },
    {
      "inputs": [],
      "name": "owner",
      "outputs": [
        {
          "internalType": "address",
          "name": "",
          "type": "address"
        }
      ],
      "stateMutability": "view",
      "type": "function"
    },
    {
      "inputs": [],
      "name": "pause",
      "outputs": [],
      "stateMutability": "nonpayable",
      "type": "function"
    },
    {
      "inputs": [],
      "name": "paused",
      "outputs": [
        {
          "internalType": "bool",
          "name": "",
          "type": "bool"
        }
      ],
      "stateMutability": "view",
      "type": "function"
    },
    {
      "inputs": [],
      "name": "pendingOwner",
      "outputs": [
        {
          "internalType": "address",
          "name": "",
          "type": "address"
        }
      ],
      "stateMutability": "view",
      "type": "function"
    },
    {
      "inputs": [
        {
          "internalType": "address",
          "name": "",
          "type": "address"
        }
      ],
      "name": "pendingReferralReward",
      "outputs": [
        {
          "internalType": "uint256",
          "name": "",
          "type": "uint256"
        }
      ],
      "stateMutability": "view",
      "type": "function"
    },
    {
      "inputs": [],
      "name": "poolBalance",
      "outputs": [
        {
          "internalType": "uint256",
          "name": "",
          "type": "uint256"
        }
      ],
      "stateMutability": "view",
      "type": "function"
    },
    {
      "inputs": [],
      "name": "poolFunds",
      "outputs": [
        {
          "internalType": "uint256",
          "name": "",
          "type": "uint256"
        }
      ],
      "stateMutability": "view",
      "type": "function"
    },
    {
      "inputs": [],
      "name": "recoverStreak",
      "outputs": [],
      "stateMutability": "nonpayable",
      "type": "function"
    },
    {
      "inputs": [],
      "name": "referralRewardBps",
      "outputs": [
        {
          "internalType": "uint256",
          "name": "",
          "type": "uint256"
        }
      ],
      "stateMutability": "view",
      "type": "function"
    },
    {
      "inputs": [
        {
          "internalType": "address",
          "name": "",
          "type": "address"
        }
      ],
      "name": "referrer",
      "outputs": [
        {
          "internalType": "address",
          "name": "",
          "type": "address"
        }
      ],
      "stateMutability": "view",
      "type": "function"
    },
    {
      "inputs": [],
      "name": "rewardTier1",
      "outputs": [
        {
          "internalType": "uint256",
          "name": "",
          "type": "uint256"
        }
      ],
      "stateMutability": "view",
      "type": "function"
    },
    {
      "inputs": [],
      "name": "rewardTier2",
      "outputs": [
        {
          "internalType": "uint256",
          "name": "",
          "type": "uint256"
        }
      ],
      "stateMutability": "view",
      "type": "function"
    },
    {
      "inputs": [],
      "name": "rewardTier3",
      "outputs": [
        {
          "internalType": "uint256",
          "name": "",
          "type": "uint256"
        }
      ],
      "stateMutability": "view",
      "type": "function"
    },
    {
      "inputs": [],
      "name": "rewardTier4",
      "outputs": [
        {
          "internalType": "uint256",
          "name": "",
          "type": "uint256"
        }
      ],
      "stateMutability": "view",
      "type": "function"
    },
    {
      "inputs": [
        {
          "internalType": "address",
          "name": "",
          "type": "address"
        }
      ],
      "name": "savingsGoal",
      "outputs": [
        {
          "internalType": "uint128",
          "name": "",
          "type": "uint128"
        }
      ],
      "stateMutability": "view",
      "type": "function"
    },
    {
      "inputs": [
        {
          "internalType": "uint128",
          "name": "target",
          "type": "uint128"
        }
      ],
      "name": "setGoal",
      "outputs": [],
      "stateMutability": "nonpayable",
      "type": "function"
    },
    {
      "inputs": [
        {
          "internalType": "uint256",
          "name": "bps",
          "type": "uint256"
        }
      ],
      "name": "setReferralRewardBps",
      "outputs": [],
      "stateMutability": "nonpayable",
      "type": "function"
    },
    {
      "inputs": [
        {
          "internalType": "uint256",
          "name": "t1",
          "type": "uint256"
        },
        {
          "internalType": "uint256",
          "name": "t2",
          "type": "uint256"
        },
        {
          "internalType": "uint256",
          "name": "t3",
          "type": "uint256"
        },
        {
          "internalType": "uint256",
          "name": "t4",
          "type": "uint256"
        }
      ],
      "name": "setRewardTiers",
      "outputs": [],
      "stateMutability": "nonpayable",
      "type": "function"
    },
    {
      "inputs": [
        {
          "internalType": "uint256",
          "name": "bps",
          "type": "uint256"
        }
      ],
      "name": "setWithdrawalPenaltyBps",
      "outputs": [],
      "stateMutability": "nonpayable",
      "type": "function"
    },
    {
      "inputs": [],
      "name": "totalDepositors",
      "outputs": [
        {
          "internalType": "uint256",
          "name": "",
          "type": "uint256"
        }
      ],
      "stateMutability": "view",
      "type": "function"
    },
    {
      "inputs": [
        {
          "internalType": "address",
          "name": "",
          "type": "address"
        }
      ],
      "name": "totalRewardsClaimed",
      "outputs": [
        {
          "internalType": "uint256",
          "name": "",
          "type": "uint256"
        }
      ],
      "stateMutability": "view",
      "type": "function"
    },
    {
      "inputs": [
        {
          "internalType": "address",
          "name": "newOwner",
          "type": "address"
        }
      ],
      "name": "transferOwnership",
      "outputs": [],
      "stateMutability": "nonpayable",
      "type": "function"
    },
    {
      "inputs": [],
      "name": "unpause",
      "outputs": [],
      "stateMutability": "nonpayable",
      "type": "function"
    },
    {
      "inputs": [
        {
          "internalType": "address",
          "name": "",
          "type": "address"
        }
      ],
      "name": "users",
      "outputs": [
        {
          "internalType": "uint32",
          "name": "streak",
          "type": "uint32"
        },
        {
          "internalType": "uint32",
          "name": "longestStreak",
          "type": "uint32"
        },
        {
          "internalType": "uint32",
          "name": "lastClaimedStreak",
          "type": "uint32"
        },
        {
          "internalType": "uint32",
          "name": "brokenStreak",
          "type": "uint32"
        },
        {
          "internalType": "uint40",
          "name": "lastDeposit",
          "type": "uint40"
        },
        {
          "internalType": "bool",
          "name": "isDepositor",
          "type": "bool"
        },
        {
          "internalType": "uint8",
          "name": "shields",
          "type": "uint8"
        },
        {
          "internalType": "uint128",
          "name": "totalDeposited",
          "type": "uint128"
        }
      ],
      "stateMutability": "view",
      "type": "function"
    },
    {
      "inputs": [],
      "name": "withdraw",
      "outputs": [],
      "stateMutability": "nonpayable",
      "type": "function"
    },
    {
      "inputs": [],
      "name": "withdrawalPenaltyBps",
      "outputs": [
        {
          "internalType": "uint256",
          "name": "",
          "type": "uint256"
        }
      ],
      "stateMutability": "view",
      "type": "function"
    }
  ],
  "bytecode": "0x6080806040523461005f576611c37937e08000600055662aa1efb94e00006001556658d15e1762800060025566b1a2bc2ec500006003556101f46004819055600555600680546001600160a01b0319163317905561206090816100658239f35b600080fdfe6080604081815260048036101561001557600080fd5b600092833560e01c9081631fccf6721461195f575080632cf003c2146119245780632f4f21e2146117285780633ccfd60b146115825780633f4ba83a1461154d5780633fbf422f1461152e578063418f31281461150f5780634c8530ce146114f357806351bea8c3146114d65780635264dab0146114b9578063546cea861461149d57806354b1de8f146114645780635c975abb1461143d57806360bd13d91461141e57806366fc0127146113ff5780636e553f651461113e5780636f77926b1461104c5780637289cca614610ea557806375f4c05914610e8857806379ba509714610e1957806382bbf60e14610dd75780638456cb5914610d9c5780638da5cb5b14610d7357806396365d44146105dd5780639b4b2c9c14610c945780639f147d0014610c5c578063a2724a4d14610c3e578063a2c8b36914610bd1578063a34b46fe146108e9578063a87430ba1461084b578063aa0224fd14610828578063b09e603f146107d9578063b88a802f146105fc578063bc2104d2146105dd578063c254de8814610590578063cd6c787314610574578063da3a5f7214610487578063dd5967c314610464578063e1e158a514610443578063e30c39781461041a578063e4b2fb79146103d7578063f2fde38b14610346578063f67ded4e14610327578063f6ce9004146102eb5763ff84a2621461021257600080fd5b346102e75760803660031901126102e757600654813592606435926044359260243591906001600160a01b031633036102da57851580156102d0575b80156102c6575b80156102bc575b6102ae5750916080939185937f7ddff0131937dfb4362682c96132c768e4bce6a574b2c4ebd904636975d99f15968855806001558260025583600355815194855260208501528301526060820152a180f35b825163036899eb60e31b8152fd5b508385111561025c565b5081841115610255565b508582111561024e565b82516282b42960e81b8152fd5b8280fd5b5050346103235760203660031901126103235760209181906001600160a01b0361031361198d565b168152600d845220549051908152f35b5080fd5b5050346103235781600319360112610323576020906002549051908152f35b50346102e75760203660031901126102e75761036061198d565b6006546001600160a01b039081169291338490036103c857169283156103bb575050600780546001600160a01b031916831790557f38d16b8cac22d99fc7c124b9cd0de2d3fa1faef420bfe791d8c362d765e227008380a380f35b5163e6c4247b60e01b8152fd5b84516282b42960e81b81528390fd5b50346102e75760203660031901126102e7573591600e5483101561041757506104016020926119ff565b905491519160018060a01b039160031b1c168152f35b80fd5b50503461032357816003193601126103235760075490516001600160a01b039091168152602090f35b50503461032357816003193601126103235760209051655af3107a40008152f35b50503461032357816003193601126103235760209051670de0b6b3a76400008152f35b5090346102e75760203660031901126102e75780516323b872dd60e01b815233818401908152306020828101919091528435604083018190529492918290819060600103818873765de816845861e75a25fca122bb6898b8b1282a5af190811561056a57859161053c575b501561052e57508160085401600855519081527f32173d8e51cec3a6fe484b7a1c3febe760cdf96e03d4cca36a43563a4333e83860203392a280f35b90516312171d8360e31b8152fd5b61055d915060203d8111610563575b6105558183611a4c565b810190611a84565b386104f2565b503d61054b565b83513d87823e3d90fd5b5050346103235781600319360112610323576020905160328152f35b505034610323576020366003190112610323576105db6105d263ffffffff8360209560018060a01b036105c161198d565b168152600987522054851c16611f86565b915180926119a8565bf35b5050346103235781600319360112610323576020906008549051908152f35b50346102e757826003193601126102e75760ff60075460a01c166107cb5733835260096020528183209182549163ffffffff93848416946007861080156107bf575b6107af5784841c168511156107a05761065685611f4c565b938460085410610790576bffffffff000000000000000019811690841b6bffffffff0000000000000000161780825560b01c60ff16906003821061076b575b505060088054849003905533808652600d6020908152838720805486019055835163a9059cbb60e01b8152838101928352828201869052918290819060400103818973765de816845861e75a25fca122bb6898b8b1282a5af1908115610761578691610743575b501561052e57505163ffffffff9092168252602082015233907f0d26a00dfd91636328b46a49a079c1612a57c89258f2fea78c7469ec0b5f80479080604081015b0390a280f35b61075b915060203d8111610563576105558183611a4c565b386106fc565b83513d88823e3d90fd5b805460ff60b01b191660019290920160b01b60ff60b01b169190911790553880610695565b83516305ce024d60e51b81528390fd5b509051630c8d9eab60e31b8152fd5b8351632e6d9aff60e01b81528390fd5b5060078606151561063e565b90516313d0ff5960e31b8152fd5b50346102e75760203660031901126102e757600654813592906001600160a01b0316330361081c576103e8831161080f57505580f35b5163063941ff60e31b8152fd5b516282b42960e81b8152fd5b5050346103235781600319360112610323576020905167016345785d8a00008152f35b505034610323576020366003190112610323576101009181906001600160a01b0361087461198d565b16815260096020522060ff6001600160801b0360018354930154169183519363ffffffff908183168652818360201c1660208701528183821c16908601528160601c16606085015264ffffffffff8160801c166080850152818160a81c16151560a085015260b01c1660c083015260e0820152f35b50919034610323576020806003193601126102e757833593600e5460c88110600014610bc857945b80861015610bc35750845b61092586611fe4565b9061092f87611fe4565b9661093981611fe4565b93875b86888b8b868510610b5657935050505050875b838110610a5557505081036109c957509490915b8351946060860160608752875180915282608088019801915b8181106109ac578789038489015287806109a8898961099b8e8b6119cb565b91848303908501526119cb565b0390f35b82516001600160a01b03168952978301979183019160010161097c565b6109d881979397949294611fe4565b966109e282611fe4565b936109ec83611fe4565b95885b848110610a00575050505050610963565b6001908b610a22826001600160a01b03610a1a8288612016565b511692612016565b52610a2d8185612016565b51610a38828a612016565b52610a438186612016565b51610a4e828b612016565b52016109ef565b8060019182810192838211610b4357835b868110610b17575050808203610a7e575b505061094f565b610b0f906001600160a01b0380610a95858b612016565b511690610aa2838b612016565b5116610aae858b612016565b52610ab9828a612016565b528c610ae682610ac98684612016565b5192610ad58282612016565b51610ae08883612016565b52612016565b52610af1838a612016565b5192610b08610b00838c612016565b51918b612016565b5288612016565b523880610a77565b8d610b2d85610b268484612016565b5192612016565b5110610b3b575b8101610a66565b925082610b34565b634e487b7160e01b8c526011855260248cfd5b8463ffffffff8194610b9b938c610b89610b6f866119ff565b905460039190911b1c6001600160a01b0316988992612016565b52868152600980985220541692612016565b528a5287526001906001600160801b03828a8c20015416610bbc8289612016565b520161093c565b61091c565b5060c894610911565b50346102e75760203660031901126102e75735906001600160801b0382168092036102e757338352600c602052808320826001600160801b0319825416179055519081527fd576bc64b95e6bbdb657e504fcdadeb74867d950336fd046addd6db94933ab0d60203392a280f35b50503461032357816003193601126103235760209051620119408152f35b5050346103235760203660031901126103235760209181906001600160a01b03610c8461198d565b168152600b845220549051908152f35b5090346102e757826003193601126102e757338352602090600b825280842054928315610d655733808652600b8452828620869055825163a9059cbb60e01b8152828101918252602082018690529084908290819060400103818973765de816845861e75a25fca122bb6898b8b1282a5af1908115610761578691610d48575b501561052e5750907f5be4d22009fea85381595ed91090bc5c0bc92a93fe07ed7472c5888eb1993f8391519283523392a280f35b610d5f9150843d8611610563576105558183611a4c565b38610d14565b9051630686827b60e51b8152fd5b50503461032357816003193601126103235760065490516001600160a01b039091168152602090f35b5090346102e757826003193601126102e7576006546001600160a01b0316330361081c576007805460ff60a01b1916600160a01b1790558280f35b505034610323576020366003190112610323576020916001600160801b039082906001600160a01b03610e0861198d565b168152600c85522054169051908152f35b50346102e757826003193601126102e7576007546001600160a01b0392909190838316330361081c57505060065491339083167f8be0079c531659141344cd1fd0a4f28419497f9722a3daafe3b4186f6b6457e08580a36001600160a01b031991821633176006551660075580f35b50346102e757826003193601126102e75760209250549051908152f35b5090346102e757826003193601126102e75760ff60075460a01c1661103f5733835260096020528083209081549163ffffffff93848460601c169485159081958215611033575b505061102557655af3107a400093848602948686041417156110125767016345785d8a000080851161100a575b5082516323b872dd60e01b8152338282019081523060208281019190915260408201879052908290819060600103818a73765de816845861e75a25fca122bb6898b8b1282a5af1908115611000578791610fe2575b5015610fd4575080546fffffffff0000000000000000ffffffff19168417905560088054830190555163ffffffff9092168252602082015233907fc428c32598bfe7863de948cb3b5ffb667a08521ac39c31a674722457e9800b6e90806040810161073d565b82516312171d8360e31b8152fd5b610ffa915060203d8111610563576105558183611a4c565b38610f6e565b84513d89823e3d90fd5b935038610f19565b634e487b7160e01b865260119052602485fd5b8251631f309d3760e21b8152fd5b16151590503880610eec565b516313d0ff5960e31b8152fd5b508234610417576020366003190112610417576001600160a01b0361106f61198d565b169182825260096020528382209384549164ffffffffff6001600160801b036001828660801c16980154169463ffffffff95868660201c1691620119408a0194858b1161112b57509585610140999589958560209b956111239a8f9c6110d5889a611f86565b9b8152600d8f5220549b85519d8e89891681520152848d015260608c01524216101560808a01521c1660a087015260ff8160b01c1660c087015260601c1660e08501526101008401906119a8565b610120820152f35b634e487b7160e01b825260119052602490fd5b50346102e757816003193601126102e7576001600160a01b03602435818116928035918490036113fb5760ff60075460a01c166113ed57655af3107a4000821080156113dc575b6113ce57338652602091600983528587209364ffffffffff95864216968654908160801c166201194081018091116113bb5788106113ab5760a81c60ff16159081806113a2575b80611398575b80611382575b611361575b5087516323b872dd60e01b8152338582019081523060208201526040810185905286908290819060600103818d73765de816845861e75a25fca122bb6898b8b1282a5af1908115611357578a9161133a575b501561132a57928287959263ffffffff956112707f1091413ac916d6d977ba19245be465e86c3dfd74cc7c9903af6856d3e3668e559a61073d9a9733611ad2565b6112a2575b505050505416935191829133958390929164ffffffffff60209163ffffffff604085019616845216910152565b338b52600a8452898b20541691549082151580611321575b1561127557612710916112cc91611a9c565b04916008549083821061127557837f9e2c5f94b327df7a7ea63d4c940cf9abf3d51452d7a5aca95b6140ce2c823ef29203600855828b52600b8152898b2084815401905589519384523393a338808080611275565b508115156112ba565b87516312171d8360e31b81528490fd5b6113519150863d8811610563576105558183611a4c565b3861122f565b89513d8c823e3d90fd5b338a52600a8652888a2080546001600160a01b0319169091179055386111dd565b50808a52600a865233838a8c20541614156111d8565b50338114156111d2565b508015156111cc565b8851636fed7d8560e01b81528590fd5b634e487b7160e01b8b526011865260248bfd5b845163c64200e960e01b8152fd5b50670de0b6b3a76400008211611185565b84516313d0ff5960e31b8152fd5b8580fd5b5050346103235781600319360112610323576020906005549051908152f35b5050346103235781600319360112610323576020906003549051908152f35b50503461032357816003193601126103235760209060ff60075460a01c1690519015158152f35b50346102e75760203660031901126102e757600654813592906001600160a01b0316330361081c576103e8831161080f57505060055580f35b5050346103235781600319360112610323576020905160038152f35b505034610323578160031936011261032357602091549051908152f35b50503461032357816003193601126103235760209051611c208152f35b5050346103235781600319360112610323576020905160078152f35b505034610323578160031936011261032357602090600e549051908152f35b5050346103235781600319360112610323576020906001549051908152f35b5090346102e757826003193601126102e7576006546001600160a01b0316330361081c576007805460ff60a01b191690558280f35b50919034610323578160031936011261032357338252602090600982528083209160018301908154936001600160801b03851692831561171857338752600d8352848720549082549163ffffffff83881c161515908161170e575b50156116fd576116006127106115f860058054045b88611a9c565b048096611ac5565b6fffffffffffffffffffffffffffffffff199097169055600161ff0160a81b0319169055338552600d8152828520859055816116f0575b825163a9059cbb60e01b8152338782019081526020810186905282908290819060400103818973765de816845861e75a25fca122bb6898b8b1282a5af19081156116e65786916116c9575b50156116b957825193845283015233917f92ccf450a286a957af52509bc1c9939d1a6a481783e142e41e2499f0bb66ebc69190a280f35b82516312171d8360e31b81528690fd5b6116e09150823d8411610563576105558183611a4c565b38611682565b84513d88823e3d90fd5b8160085401600855611637565b6116006127106115f86005546115f2565b90508511386115dd565b8451630686827b60e51b81528890fd5b5090346102e757806003193601126102e75761174261198d565b6024359260ff60075460a01c16611916576001600160a01b03821693841561190757655af3107a4000811080156118f6575b6118e75784865260096020528386209081549363ffffffff93848660601c161515806118dd575b6118cf5764ffffffffff8042169660801c166201194081018091116118bc5786106118ae5786516323b872dd60e01b8152338282019081523060208281019190915260408201869052908290819060600103818d73765de816845861e75a25fca122bb6898b8b1282a5af19081156118a4578a91611886575b501561187857509161184d8561187295937f910fefe8cbd875c2cefeec15c9fce0f7bf2d542d5c42e57b8ed2395127e29b109795611ad2565b549451941663ffffffff16845264ffffffffff16602084015233929081906040820190565b0390a380f35b86516312171d8360e31b8152fd5b61189e915060203d8111610563576105558183611a4c565b38611814565b88513d8c823e3d90fd5b8651636fed7d8560e01b8152fd5b634e487b7160e01b8a526011825260248afd5b8651630916c16b60e11b8152fd5b508486161561179b565b50825163c64200e960e01b8152fd5b50670de0b6b3a76400008111611774565b50825163e6c4247b60e01b8152fd5b82516313d0ff5960e31b8152fd5b505034610323576020366003190112610323576020916001600160a01b039082908261194e61198d565b168152600a85522054169051908152f35b8490346103235781600319360112610323578073765de816845861e75a25fca122bb6898b8b1282a60209252f35b600435906001600160a01b03821682036119a357565b600080fd5b9060058210156119b55752565b634e487b7160e01b600052602160045260246000fd5b90815180825260208080930193019160005b8281106119eb575050505090565b8351855293810193928101926001016119dd565b600e54811015611a3657600e6000527fbb7b4a454dc3493923482f07822329ed19e8244eff582cc204f8554c3620c3fd0190600090565b634e487b7160e01b600052603260045260246000fd5b90601f8019910116810190811067ffffffffffffffff821117611a6e57604052565b634e487b7160e01b600052604160045260246000fd5b908160209103126119a3575180151581036119a35790565b81810292918115918404141715611aaf57565b634e487b7160e01b600052601160045260246000fd5b91908203918211611aaf57565b60018060a01b0316916000838152600960205260408120926032810281810460321482151715611f385790612710611b139204908160085401600855611ac5565b92805464ffffffffff90818160801c168015159081611f1e575b50611e4d575b50815490808260801c168015159182611dfe575b5050611d9b575b50805463ffffffff9081600181831601169464ffffffffff60801b9060801b16808674ffffffffff000000000000000000000000ffffffff198416171795868555600185019687546001600160801b03809a168a8216018a8111611d8757918b9593918b99989795936001600160801b03199c8d91169116178a55848160201c168211611ccf575b505050505050805460ff8160a81c1615611c62575b5050808560409252600c60205220918254928284168015159081611c54575b50611c18575b505050505050565b7f35003c2a88a451cd165f157aa0f4efaa1c78331d1bda2c6bbf1a32e40a07d398946020941690555416604051908152a2388080808080611c10565b905083835416101538611c0a565b60ff60a81b1916600160a81b179055600e5468010000000000000000811015611cbb5790611c9882600160409401600e556119ff565b81546001600160a01b0360039290921b91821b19169088901b1790559038611beb565b634e487b7160e01b82526041600452602482fd5b67ffffffff000000009060201b169274ffffffffff0000000000000000ffffffffffffffff191617171780845560201c16601e81148015611d7d575b8015611d73575b8015611d68575b611d27575b80808080611bd6565b6020611d537fe77c5a722d2d46cdd1852f1811f567c19dadc53da7fc1e0ee6fc979d0335dbac92611f86565b611d6060405180926119a8565ba28538611d1e565b5061016d8114611d19565b5060b48114611d12565b50605a8114611d0b565b634e487b7160e01b89526011600452602489fd5b60b01c60ff166003811015611b4e57815460ff60b01b191660019190910160b01b60ff60b01b16178155847ff31aa52e228bac5c0fd9b53de3947b96a6b562a29503dea0c7a2784cdc228044602060ff845460b01c16604051908152a238611b4e565b620119408201925090828111611e39576201356001809211611e2557851611153880611b47565b634e487b7160e01b85526011600452602485fd5b634e487b7160e01b86526011600452602486fd5b60b081901c60ff1615611ec25750815460ff60b01b19811660b091821c60ff166000190190911b60ff60b01b16178255857fa3cd923e771784f8ab03c4bc813511f007df871c8652c02cd19cc966132b19646040845460ff82519163ffffffff8116835260b01c166020820152a25b38611b33565b867fc0539bb1c6561e4f713a8725d44795917796a9717ae897fbc6707ef291fac9b0602060405163ffffffff85168152a26fffffffff0000000000000000ffffffff19811660609190911b63ffffffff60601b16178255611ebc565b6202a300915001828111611e255782168286161138611b2d565b634e487b7160e01b83526011600452602483fd5b63ffffffff166031811015611f7f576023811015611f7857600e1115611f725760005490565b60015490565b5060025490565b5060035490565b63ffffffff1661016d811015611fc65760b4811015611fc057605a811015611fba57601e1115611fb557600090565b600190565b50600290565b50600390565b50600490565b67ffffffffffffffff8111611a6e5760051b60200190565b90611fee82611fcc565b611ffb6040519182611a4c565b828152809261200c601f1991611fcc565b0190602036910137565b8051821015611a365760209160051b01019056fea26469706673582212206d3978f626bed10563a7d1a40ced1a44f6998a837d0e1462ed54dfc20d17a5a564736f6c63430008140033",
  "linkReferences": {},
  "deployedLinkReferences": {}
}