{
  "_format": "hh-sol-artifact-1",
  "contractName": "Kibo",
  "sourceName": "contracts/Kibo.sol",
  "abi": [
    {
      "inputs": [],
      "name": "AlreadyClaimed",
      "type": "error"
    },
    {
      "inputs": [],
      "name": "AmountOutOfRange",
      "type": "error"
    },
    {
      "inputs": [],
      "name": "NeedMilestone",
      "type": "error"
    },
    {
      "inputs": [],
      "name": "NothingToWithdraw",
      "type": "error"
    },
    {
      "inputs": [],
      "name": "PoolEmpty",
      "type": "error"
    },
    {
      "inputs": [],
      "name": "TooSoon",
      "type": "error"
    },
    {
      "inputs": [],
      "name": "TransferFailed",
      "type": "error"
    },
    {
      "anonymous": false,
      "inputs": [
        {
          "indexed": true,
          "internalType": "address",
          "name": "user",
          "type": "address"
        },
        {
          "indexed": false,
          "internalType": "uint32",
          "name": "streak",
          "type": "uint32"
        },
        {
          "indexed": false,
          "internalType": "uint40",
          "name": "timestamp",
          "type": "uint40"
        }
      ],
      "name": "Deposited",
      "type": "event"
    },
    {
      "anonymous": false,
      "inputs": [
        {
          "indexed": true,
          "internalType": "address",
          "name": "funder",
          "type": "address"
        },
        {
          "indexed": false,
          "internalType": "uint256",
          "name": "amount",
          "type": "uint256"
        }
      ],
      "name": "PoolFunded",
      "type": "event"
    },
    {
      "anonymous": false,
      "inputs": [
        {
          "indexed": true,
          "internalType": "address",
          "name": "user",
          "type": "address"
        },
        {
          "indexed": false,
          "internalType": "uint32",
          "name": "streak",
          "type": "uint32"
        },
        {
          "indexed": false,
          "internalType": "uint256",
          "name": "reward",
          "type": "uint256"
        }
      ],
      "name": "RewardClaimed",
      "type": "event"
    },
    {
      "anonymous": false,
      "inputs": [
        {
          "indexed": true,
          "internalType": "address",
          "name": "user",
          "type": "address"
        },
        {
          "indexed": false,
          "internalType": "uint32",
          "name": "streak",
          "type": "uint32"
        },
        {
          "indexed": false,
          "internalType": "uint8",
          "name": "shieldsLeft",
          "type": "uint8"
        }
      ],
      "name": "ShieldUsed",
      "type": "event"
    },
    {
      "anonymous": false,
      "inputs": [
        {
          "indexed": true,
          "internalType": "address",
          "name": "user",
          "type": "address"
        },
        {
          "indexed": false,
          "internalType": "uint32",
          "name": "oldStreak",
          "type": "uint32"
        }
      ],
      "name": "StreakBroken",
      "type": "event"
    },
    {
      "inputs": [],
      "name": "COOLDOWN",
      "outputs": [
        {
          "internalType": "uint256",
          "name": "",
          "type": "uint256"
        }
      ],
      "stateMutability": "view",
      "type": "function"
    },
    {
      "inputs": [],
      "name": "MAX_DEPOSIT",
      "outputs": [
        {
          "internalType": "uint256",
          "name": "",
          "type": "uint256"
        }
      ],
      "stateMutability": "view",
      "type": "function"
    },
    {
      "inputs": [],
      "name": "MAX_SHIELDS",
      "outputs": [
        {
          "internalType": "uint8",
          "name": "",
          "type": "uint8"
        }
      ],
      "stateMutability": "view",
      "type": "function"
    },
    {
      "inputs": [],
      "name": "MIN_DEPOSIT",
      "outputs": [
        {
          "internalType": "uint256",
          "name": "",
          "type": "uint256"
        }
      ],
      "stateMutability": "view",
      "type": "function"
    },
    {
      "inputs": [],
      "name": "REWARD_TIER1",
      "outputs": [
        {
          "internalType": "uint256",
          "name": "",
          "type": "uint256"
        }
      ],
      "stateMutability": "view",
      "type": "function"
    },
    {
      "inputs": [],
      "name": "REWARD_TIER2",
      "outputs": [
        {
          "internalType": "uint256",
          "name": "",
          "type": "uint256"
        }
      ],
      "stateMutability": "view",
      "type": "function"
    },
    {
      "inputs": [],
      "name": "REWARD_TIER3",
      "outputs": [
        {
          "internalType": "uint256",
          "name": "",
          "type": "uint256"
        }
      ],
      "stateMutability": "view",
      "type": "function"
    },
    {
      "inputs": [],
      "name": "STREAK_THRESHOLD",
      "outputs": [
        {
          "internalType": "uint256",
          "name": "",
          "type": "uint256"
        }
      ],
      "stateMutability": "view",
      "type": "function"
    },
    {
      "inputs": [],
      "name": "cUSD",
      "outputs": [
        {
          "internalType": "contract IERC20",
          "name": "",
          "type": "address"
        }
      ],
      "stateMutability": "view",
      "type": "function"
    },
    {
      "inputs": [],
      "name": "claimReward",
      "outputs": [],
      "stateMutability": "nonpayable",
      "type": "function"
    },
    {
      "inputs": [
        {
          "internalType": "uint256",
          "name": "amount",
          "type": "uint256"
        }
      ],
      "name": "deposit",
      "outputs": [],
      "stateMutability": "nonpayable",
      "type": "function"
    },
    {
      "inputs": [
        {
          "internalType": "uint256",
          "name": "",
          "type": "uint256"
        }
      ],
      "name": "depositors",
      "outputs": [
        {
          "internalType": "address",
          "name": "",
          "type": "address"
        }
      ],
      "stateMutability": "view",
      "type": "function"
    },
    {
      "inputs": [
        {
          "internalType": "uint256",
          "name": "amount",
          "type": "uint256"
        }
      ],
      "name": "fundPool",
      "outputs": [],
      "stateMutability": "nonpayable",
      "type": "function"
    },
    {
      "inputs": [
        {
          "internalType": "uint256",
          "name": "limit",
          "type": "uint256"
        }
      ],
      "name": "getLeaderboard",
      "outputs": [
        {
          "internalType": "address[]",
          "name": "addrs",
          "type": "address[]"
        },
        {
          "internalType": "uint256[]",
          "name": "streaks",
          "type": "uint256[]"
        },
        {
          "internalType": "uint256[]",
          "name": "totals",
          "type": "uint256[]"
        }
      ],
      "stateMutability": "view",
      "type": "function"
    },
    {
      "inputs": [
        {
          "internalType": "address",
          "name": "user",
          "type": "address"
        }
      ],
      "name": "getUser",
      "outputs": [
        {
          "internalType": "uint256",
          "name": "streak",
          "type": "uint256"
        },
        {
          "internalType": "uint256",
          "name": "lastDeposit",
          "type": "uint256"
        },
        {
          "internalType": "uint256",
          "name": "totalDeposited",
          "type": "uint256"
        },
        {
          "internalType": "uint256",
          "name": "longestStreak",
          "type": "uint256"
        },
        {
          "internalType": "bool",
          "name": "canDeposit",
          "type": "bool"
        },
        {
          "internalType": "uint256",
          "name": "lastClaimedStreak",
          "type": "uint256"
        },
        {
          "internalType": "uint8",
          "name": "shields",
          "type": "uint8"
        }
      ],
      "stateMutability": "view",
      "type": "function"
    },
    {
      "inputs": [],
      "name": "poolBalance",
      "outputs": [
        {
          "internalType": "uint256",
          "name": "",
          "type": "uint256"
        }
      ],
      "stateMutability": "view",
      "type": "function"
    },
    {
      "inputs": [],
      "name": "totalDepositors",
      "outputs": [
        {
          "internalType": "uint256",
          "name": "",
          "type": "uint256"
        }
      ],
      "stateMutability": "view",
      "type": "function"
    },
    {
      "inputs": [
        {
          "internalType": "address",
          "name": "",
          "type": "address"
        }
      ],
      "name": "users",
      "outputs": [
        {
          "internalType": "uint32",
          "name": "streak",
          "type": "uint32"
        },
        {
          "internalType": "uint32",
          "name": "longestStreak",
          "type": "uint32"
        },
        {
          "internalType": "uint32",
          "name": "lastClaimedStreak",
          "type": "uint32"
        },
        {
          "internalType": "uint40",
          "name": "lastDeposit",
          "type": "uint40"
        },
        {
          "internalType": "bool",
          "name": "isDepositor",
          "type": "bool"
        },
        {
          "internalType": "uint8",
          "name": "shields",
          "type": "uint8"
        },
        {
          "internalType": "uint128",
          "name": "totalDeposited",
          "type": "uint128"
        }
      ],
      "stateMutability": "view",
      "type": "function"
    },
    {
      "inputs": [],
      "name": "withdraw",
      "outputs": [],
      "stateMutability": "nonpayable",
      "type": "function"
    }
  ],
  "bytecode": "0x608060405234801561001057600080fd5b506114d1806100206000396000f3fe608060405234801561001057600080fd5b50600436106101215760003560e01c8063a4dbf55e116100ad578063da3a5f7211610071578063da3a5f721461031f578063dd5967c314610332578063e1a4ae7b14610341578063e1e158a51461034f578063e4b2fb791461035c57600080fd5b8063a4dbf55e1461021d578063a87430ba1461022b578063b6b55f25146102f6578063b88a802f14610309578063cc0ee5091461031157600080fd5b8063546cea86116100f4578063546cea86146101825780636f77926b1461019c57806396365d44146101e9578063a2724a4d146101f1578063a34b46fe146101fb57600080fd5b80631fccf672146101265780633ccfd60b1461015e578063418f3128146101685780634c8530ce1461017a575b600080fd5b61014173765de816845861e75a25fca122bb6898b8b1282a81565b6040516001600160a01b0390911681526020015b60405180910390f35b61016661036f565b005b6001545b604051908152602001610155565b61016c600781565b61018a600381565b60405160ff9091168152602001610155565b6101af6101aa3660046112a5565b61048b565b6040805197885260208801969096529486019390935260608501919091521515608084015260a083015260ff1660c082015260e001610155565b61016c610540565b61016c6201194081565b61020e6102093660046112d5565b6105bb565b60405161015593929190611329565b61016c6658d15e1762800081565b61029f6102393660046112a5565b6000602081905290815260409020805460019091015463ffffffff808316926401000000008104821692600160401b82049092169164ffffffffff600160601b8304169160ff600160881b8204811692600160901b90920416906001600160801b031687565b6040805163ffffffff98891681529688166020880152949096169385019390935264ffffffffff9190911660608401521515608083015260ff1660a08201526001600160801b0390911660c082015260e001610155565b6101666103043660046112d5565b610b3d565b610166610eef565b61016c6611c37937e0800081565b61016661032d3660046112d5565b61115c565b61016c670de0b6b3a764000081565b61016c662aa1efb94e000081565b61016c655af3107a400081565b61014161036a3660046112d5565b611233565b336000908152602081905260408120600181015490916001600160801b03909116908190036103b157604051630686827b60e51b815260040160405180910390fd5b6001820180546fffffffffffffffffffffffffffffffff19169055815472ff00ffffffffffffffffff00000000ffffffff1916825560405163a9059cbb60e01b81523360048201526001600160801b038216602482015273765de816845861e75a25fca122bb6898b8b1282a9063a9059cbb906044016020604051808303816000875af1158015610446573d6000803e3d6000fd5b505050506040513d601f19601f8201168201806040525081019061046a919061139e565b610487576040516312171d8360e31b815260040160405180910390fd5b5050565b6001600160a01b03811660009081526020819052604081208054600182015483928392839283928392839263ffffffff8083169264ffffffffff600160601b820416926001600160801b031691640100000000909104166104ef62011940846113d6565b945463ffffffff9485169e64ffffffffff9485169e506001600160801b03939093169c509084169a504290921693909310159750600160401b81049091169550600160901b900460ff169350915050565b6040516370a0823160e01b815230600482015260009073765de816845861e75a25fca122bb6898b8b1282a906370a0823190602401602060405180830381865afa158015610592573d6000803e3d6000fd5b505050506040513d601f19601f820116820180604052508101906105b691906113ef565b905090565b60015460609081908190600060c882106105d65760c86105d8565b815b905060008682106105e957866105eb565b815b905060008267ffffffffffffffff81111561060857610608611408565b604051908082528060200260200182016040528015610631578160200160208202803683370190505b50905060008367ffffffffffffffff81111561064f5761064f611408565b604051908082528060200260200182016040528015610678578160200160208202803683370190505b50905060008467ffffffffffffffff81111561069657610696611408565b6040519080825280602002602001820160405280156106bf578160200160208202803683370190505b50905060005b858110156107bb576000600182815481106106e2576106e261141e565b9060005260206000200160009054906101000a90046001600160a01b03169050808583815181106107155761071561141e565b6001600160a01b039283166020918202929092018101919091529082166000908152908190526040902054845163ffffffff9091169085908490811061075d5761075d61141e565b6020908102919091018101919091526001600160a01b038216600090815290819052604090206001015483516001600160801b03909116908490849081106107a7576107a761141e565b6020908102919091010152506001016106c5565b5060005b84811015610991578060006107d58260016113d6565b90505b87811015610826578482815181106107f2576107f261141e565b602002602001015185828151811061080c5761080c61141e565b6020026020010151111561081e578091505b6001016107d8565b50818114610988578481815181106108405761084061141e565b602002602001015185838151811061085a5761085a61141e565b60200260200101518684815181106108745761087461141e565b6020026020010187848151811061088d5761088d61141e565b6001600160a01b0393841660209182029290920101529116905283518490829081106108bb576108bb61141e565b60200260200101518483815181106108d5576108d561141e565b60200260200101518584815181106108ef576108ef61141e565b602002602001018684815181106109085761090861141e565b602002602001018281525082815250505082818151811061092b5761092b61141e565b60200260200101518383815181106109455761094561141e565b602002602001015184848151811061095f5761095f61141e565b602002602001018584815181106109785761097861141e565b6020908102919091010191909152525b506001016107bf565b508367ffffffffffffffff8111156109ab576109ab611408565b6040519080825280602002602001820160405280156109d4578160200160208202803683370190505b5098508367ffffffffffffffff8111156109f0576109f0611408565b604051908082528060200260200182016040528015610a19578160200160208202803683370190505b5097508367ffffffffffffffff811115610a3557610a35611408565b604051908082528060200260200182016040528015610a5e578160200160208202803683370190505b50965060005b84811015610b2f57838181518110610a7e57610a7e61141e565b60200260200101518a8281518110610a9857610a9861141e565b60200260200101906001600160a01b031690816001600160a01b031681525050828181518110610aca57610aca61141e565b6020026020010151898281518110610ae457610ae461141e565b602002602001018181525050818181518110610b0257610b0261141e565b6020026020010151888281518110610b1c57610b1c61141e565b6020908102919091010152600101610a64565b505050505050509193909250565b655af3107a4000811080610b585750670de0b6b3a764000081115b15610b765760405163c64200e960e01b815260040160405180910390fd5b33600090815260208190526040902080544290610ba5906201194090600160601b900464ffffffffff166113d6565b8164ffffffffff161015610bcc57604051636fed7d8560e01b815260040160405180910390fd5b8154600160601b900464ffffffffff1615801590610c1357508154610c0290600160601b900464ffffffffff166202a300611434565b64ffffffffff168164ffffffffff16115b15610cea578154600160901b900460ff1615610ca057815460ff60901b198116600160901b80830460ff90811660001901811682029283178087556040805163ffffffff968716969095169590951784529190910416602082015233917fa3cd923e771784f8ab03c4bc813511f007df871c8652c02cd19cc966132b1964910160405180910390a2610cea565b815460405163ffffffff909116815233907fc0539bb1c6561e4f713a8725d44795917796a9717ae897fbc6707ef291fac9b09060200160405180910390a2815463ffffffff191682555b6040516323b872dd60e01b81523360048201523060248201526044810184905273765de816845861e75a25fca122bb6898b8b1282a906323b872dd906064016020604051808303816000875af1158015610d48573d6000803e3d6000fd5b505050506040513d601f19601f82011682018060405250810190610d6c919061139e565b610d89576040516312171d8360e31b815260040160405180910390fd5b815464ffffffffff8216600160601b0270ffffffffff0000000000000000ffffffff19821663ffffffff92831660019081019093161717835582018054849190600090610de09084906001600160801b0316611459565b82546001600160801b039182166101009390930a928302919092021990911617905550815463ffffffff6401000000008204811691161115610e3d57815464010000000063ffffffff82160267ffffffff00000000199091161782555b8154600160881b900460ff16610ea057815460ff60881b1916600160881b1782556001805480820182556000919091527fb10e2d527612073b26eecdfd717e6a320cf44b4afac2b0732d9fcbe2b7fa0cf60180546001600160a01b031916331790555b81546040805163ffffffff909216825264ffffffffff8316602083015233917f1091413ac916d6d977ba19245be465e86c3dfd74cc7c9903af6856d3e3668e55910160405180910390a2505050565b3360009081526020819052604090208054600763ffffffff9091161080610f2857508054610f259060079063ffffffff16611479565b15155b15610f4657604051632e6d9aff60e01b815260040160405180910390fd5b805463ffffffff600160401b82048116911611610f7657604051630c8d9eab60e31b815260040160405180910390fd5b8054600090610f8a9063ffffffff1661125d565b6040516370a0823160e01b8152306004820152909150819073765de816845861e75a25fca122bb6898b8b1282a906370a0823190602401602060405180830381865afa158015610fde573d6000803e3d6000fd5b505050506040513d601f19601f8201168201806040525081019061100291906113ef565b1015611021576040516305ce024d60e51b815260040160405180910390fd5b8154600160401b63ffffffff8216026bffffffff000000000000000019909116178083556003600160901b90910460ff16101561107b578154600160ff600160901b808404821692909201160260ff60901b199091161782555b60405163a9059cbb60e01b81523360048201526024810182905273765de816845861e75a25fca122bb6898b8b1282a9063a9059cbb906044016020604051808303816000875af11580156110d3573d6000803e3d6000fd5b505050506040513d601f19601f820116820180604052508101906110f7919061139e565b611114576040516312171d8360e31b815260040160405180910390fd5b81546040805163ffffffff90921682526020820183905233917f0d26a00dfd91636328b46a49a079c1612a57c89258f2fea78c7469ec0b5f8047910160405180910390a25050565b6040516323b872dd60e01b81523360048201523060248201526044810182905273765de816845861e75a25fca122bb6898b8b1282a906323b872dd906064016020604051808303816000875af11580156111ba573d6000803e3d6000fd5b505050506040513d601f19601f820116820180604052508101906111de919061139e565b6111fb576040516312171d8360e31b815260040160405180910390fd5b60405181815233907f32173d8e51cec3a6fe484b7a1c3febe760cdf96e03d4cca36a43563a4333e8389060200160405180910390a250565b6001818154811061124357600080fd5b6000918252602090912001546001600160a01b0316905081565b6000601e8263ffffffff161061127b57506658d15e17628000919050565b600e8263ffffffff16106112975750662aa1efb94e0000919050565b506611c37937e08000919050565b6000602082840312156112b757600080fd5b81356001600160a01b03811681146112ce57600080fd5b9392505050565b6000602082840312156112e757600080fd5b5035919050565b600081518084526020808501945080840160005b8381101561131e57815187529582019590820190600101611302565b509495945050505050565b606080825284519082018190526000906020906080840190828801845b8281101561136b5781516001600160a01b031684529284019290840190600101611346565b5050508381038285015261137f81876112ee565b915050828103604084015261139481856112ee565b9695505050505050565b6000602082840312156113b057600080fd5b815180151581146112ce57600080fd5b634e487b7160e01b600052601160045260246000fd5b808201808211156113e9576113e96113c0565b92915050565b60006020828403121561140157600080fd5b5051919050565b634e487b7160e01b600052604160045260246000fd5b634e487b7160e01b600052603260045260246000fd5b64ffffffffff818116838216019080821115611452576114526113c0565b5092915050565b6001600160801b03818116838216019080821115611452576114526113c0565b60008261149657634e487b7160e01b600052601260045260246000fd5b50069056fea26469706673582212203ab428b74478a9d1e149661e792ba893087e1b67ae37b724daeffeb94ae7649464736f6c63430008140033",
  "linkReferences": {},
  "deployedLinkReferences": {}
}