{"contracts/mocks/MockERC20.sol":{"MockERC20":{"abi":[{"inputs":[{"internalType":"address","name":"owner","type":"address"},{"internalType":"address","name":"spender","type":"address"}],"name":"allowance","outputs":[{"internalType":"uint256","name":"","type":"uint256"}],"stateMutability":"view","type":"function"},{"inputs":[{"internalType":"address","name":"spender","type":"address"},{"internalType":"uint256","name":"amount","type":"uint256"}],"name":"approve","outputs":[{"internalType":"bool","name":"","type":"bool"}],"stateMutability":"nonpayable","type":"function"},{"inputs":[{"internalType":"address","name":"account","type":"address"}],"name":"balanceOf","outputs":[{"internalType":"uint256","name":"","type":"uint256"}],"stateMutability":"view","type":"function"},{"inputs":[{"internalType":"address","name":"to","type":"address"},{"internalType":"uint256","name":"amount","type":"uint256"}],"name":"mint","outputs":[],"stateMutability":"nonpayable","type":"function"},{"inputs":[{"internalType":"address","name":"to","type":"address"},{"internalType":"uint256","name":"amount","type":"uint256"}],"name":"transfer","outputs":[{"internalType":"bool","name":"","type":"bool"}],"stateMutability":"nonpayable","type":"function"},{"inputs":[{"internalType":"address","name":"from","type":"address"},{"internalType":"address","name":"to","type":"address"},{"internalType":"uint256","name":"amount","type":"uint256"}],"name":"transferFrom","outputs":[{"internalType":"bool","name":"","type":"bool"}],"stateMutability":"nonpayable","type":"function"}],"devdoc":{"details":"Minimal mintable ERC20 for testing. No access control on mint — test-only.","kind":"dev","methods":{},"version":1},"evm":{"bytecode":{"linkReferences":{},"object":"6080806040523461001657610398908161001c8239f35b600080fdfe60806040818152600436101561001457600080fd5b600091823560e01c908163095ea7b3146102c55750806323b872dd146101b557806340c10f191461017957806370a0823114610143578063a9059cbb146100af5763dd62ed3e1461006457600080fd5b346100ab57806003193601126100ab578060209261008061030e565b610088610329565b6001600160a01b0391821683526001865283832091168252845220549051908152f35b5080fd5b50346100ab57806003193601126100ab576100c861030e565b602435903384528360205281838520541061011057826020946101079233825281875282822085815403905560018060a01b031681522091825461033f565b90555160018152f35b825162461bcd60e51b815260206004820152600c60248201526b1a5b9cdd59999a58da595b9d60a21b6044820152606490fd5b50346100ab5760203660031901126100ab5760209181906001600160a01b0361016a61030e565b16815280845220549051908152f35b50346100ab57806003193601126100ab576001600160a01b0361019a61030e565b1682528160205281206101b0602435825461033f565b905580f35b50346100ab5760603660031901126100ab576101cf61030e565b6101d7610329565b926044359160018060a01b038091169485835260209583875284868520541061028a5780845260018752858420338552875284868520541061024d57918391869361010795528288528383208681540390556001885283832033845288528383208681540390551681528086522091825461033f565b855162461bcd60e51b8152600481018890526016602482015275696e73756666696369656e7420616c6c6f77616e636560501b6044820152606490fd5b855162461bcd60e51b8152600481018890526014602482015273696e73756666696369656e742062616c616e636560601b6044820152606490fd5b9190503461030a578060031936011261030a57916020926102e461030e565b33835260018086528284206001600160a01b039092168452908552912060243590558152f35b8280fd5b600435906001600160a01b038216820361032457565b600080fd5b602435906001600160a01b038216820361032457565b9190820180921161034c57565b634e487b7160e01b600052601160045260246000fdfea2646970667358221220993c8ccc7c11dc597ea62830e3d5e70164b041f2b2a617fa012237c2b96ef08864736f6c63430008140033","opcodes":"PUSH1 0x80 DUP1 PUSH1 0x40 MSTORE CALLVALUE PUSH2 0x16 JUMPI PUSH2 0x398 SWAP1 DUP2 PUSH2 0x1C DUP3 CODECOPY RETURN JUMPDEST PUSH1 0x0 DUP1 REVERT INVALID PUSH1 0x80 PUSH1 0x40 DUP2 DUP2 MSTORE PUSH1 0x4 CALLDATASIZE LT ISZERO PUSH2 0x14 JUMPI PUSH1 0x0 DUP1 REVERT JUMPDEST PUSH1 0x0 SWAP2 DUP3 CALLDATALOAD PUSH1 0xE0 SHR SWAP1 DUP2 PUSH4 0x95EA7B3 EQ PUSH2 0x2C5 JUMPI POP DUP1 PUSH4 0x23B872DD EQ PUSH2 0x1B5 JUMPI DUP1 PUSH4 0x40C10F19 EQ PUSH2 0x179 JUMPI DUP1 PUSH4 0x70A08231 EQ PUSH2 0x143 JUMPI DUP1 PUSH4 0xA9059CBB EQ PUSH2 0xAF JUMPI PUSH4 0xDD62ED3E EQ PUSH2 0x64 JUMPI PUSH1 0x0 DUP1 REVERT JUMPDEST CALLVALUE PUSH2 0xAB JUMPI DUP1 PUSH1 0x3 NOT CALLDATASIZE ADD SLT PUSH2 0xAB JUMPI DUP1 PUSH1 0x20 SWAP3 PUSH2 0x80 PUSH2 0x30E JUMP JUMPDEST PUSH2 0x88 PUSH2 0x329 JUMP JUMPDEST PUSH1 0x1 PUSH1 0x1 PUSH1 0xA0 SHL SUB SWAP2 DUP3 AND DUP4 MSTORE PUSH1 0x1 DUP7 MSTORE DUP4 DUP4 KECCAK256 SWAP2 AND DUP3 MSTORE DUP5 MSTORE KECCAK256 SLOAD SWAP1 MLOAD SWAP1 DUP2 MSTORE RETURN JUMPDEST POP DUP1 REVERT JUMPDEST POP CALLVALUE PUSH2 0xAB JUMPI DUP1 PUSH1 0x3 NOT CALLDATASIZE ADD SLT PUSH2 0xAB JUMPI PUSH2 0xC8 PUSH2 0x30E JUMP JUMPDEST PUSH1 0x24 CALLDATALOAD SWAP1 CALLER DUP5 MSTORE DUP4 PUSH1 0x20 MSTORE DUP2 DUP4 DUP6 KECCAK256 SLOAD LT PUSH2 0x110 JUMPI DUP3 PUSH1 0x20 SWAP5 PUSH2 0x107 SWAP3 CALLER DUP3 MSTORE DUP2 DUP8 MSTORE DUP3 DUP3 KECCAK256 DUP6 DUP2 SLOAD SUB SWAP1 SSTORE PUSH1 0x1 DUP1 PUSH1 0xA0 SHL SUB AND DUP2 MSTORE KECCAK256 SWAP2 DUP3 SLOAD PUSH2 0x33F JUMP JUMPDEST SWAP1 SSTORE MLOAD PUSH1 0x1 DUP2 MSTORE RETURN JUMPDEST DUP3 MLOAD PUSH3 0x461BCD PUSH1 0xE5 SHL DUP2 MSTORE PUSH1 0x20 PUSH1 0x4 DUP3 ADD MSTORE PUSH1 0xC PUSH1 0x24 DUP3 ADD MSTORE PUSH12 0x1A5B9CDD59999A58DA595B9D PUSH1 0xA2 SHL PUSH1 0x44 DUP3 ADD MSTORE PUSH1 0x64 SWAP1 REVERT JUMPDEST POP CALLVALUE PUSH2 0xAB JUMPI PUSH1 0x20 CALLDATASIZE PUSH1 0x3 NOT ADD SLT PUSH2 0xAB JUMPI PUSH1 0x20 SWAP2 DUP2 SWAP1 PUSH1 0x1 PUSH1 0x1 PUSH1 0xA0 SHL SUB PUSH2 0x16A PUSH2 0x30E JUMP JUMPDEST AND DUP2 MSTORE DUP1 DUP5 MSTORE KECCAK256 SLOAD SWAP1 MLOAD SWAP1 DUP2 MSTORE RETURN JUMPDEST POP CALLVALUE PUSH2 0xAB JUMPI DUP1 PUSH1 0x3 NOT CALLDATASIZE ADD SLT PUSH2 0xAB JUMPI PUSH1 0x1 PUSH1 0x1 PUSH1 0xA0 SHL SUB PUSH2 0x19A PUSH2 0x30E JUMP JUMPDEST AND DUP3 MSTORE DUP2 PUSH1 0x20 MSTORE DUP2 KECCAK256 PUSH2 0x1B0 PUSH1 0x24 CALLDATALOAD DUP3 SLOAD PUSH2 0x33F JUMP JUMPDEST SWAP1 SSTORE DUP1 RETURN JUMPDEST POP CALLVALUE PUSH2 0xAB JUMPI PUSH1 0x60 CALLDATASIZE PUSH1 0x3 NOT ADD SLT PUSH2 0xAB JUMPI PUSH2 0x1CF PUSH2 0x30E JUMP JUMPDEST PUSH2 0x1D7 PUSH2 0x329 JUMP JUMPDEST SWAP3 PUSH1 0x44 CALLDATALOAD SWAP2 PUSH1 0x1 DUP1 PUSH1 0xA0 SHL SUB DUP1 SWAP2 AND SWAP5 DUP6 DUP4 MSTORE PUSH1 0x20 SWAP6 DUP4 DUP8 MSTORE DUP5 DUP7 DUP6 KECCAK256 SLOAD LT PUSH2 0x28A JUMPI DUP1 DUP5 MSTORE PUSH1 0x1 DUP8 MSTORE DUP6 DUP5 KECCAK256 CALLER DUP6 MSTORE DUP8 MSTORE DUP5 DUP7 DUP6 KECCAK256 SLOAD LT PUSH2 0x24D JUMPI SWAP2 DUP4 SWAP2 DUP7 SWAP4 PUSH2 0x107 SWAP6 MSTORE DUP3 DUP9 MSTORE DUP4 DUP4 KECCAK256 DUP7 DUP2 SLOAD SUB SWAP1 SSTORE PUSH1 0x1 DUP9 MSTORE DUP4 DUP4 KECCAK256 CALLER DUP5 MSTORE DUP9 MSTORE DUP4 DUP4 KECCAK256 DUP7 DUP2 SLOAD SUB SWAP1 SSTORE AND DUP2 MSTORE DUP1 DUP7 MSTORE KECCAK256 SWAP2 DUP3 SLOAD PUSH2 0x33F JUMP JUMPDEST DUP6 MLOAD PUSH3 0x461BCD PUSH1 0xE5 SHL DUP2 MSTORE PUSH1 0x4 DUP2 ADD DUP9 SWAP1 MSTORE PUSH1 0x16 PUSH1 0x24 DUP3 ADD MSTORE PUSH22 0x696E73756666696369656E7420616C6C6F77616E6365 PUSH1 0x50 SHL PUSH1 0x44 DUP3 ADD MSTORE PUSH1 0x64 SWAP1 REVERT JUMPDEST DUP6 MLOAD PUSH3 0x461BCD PUSH1 0xE5 SHL DUP2 MSTORE PUSH1 0x4 DUP2 ADD DUP9 SWAP1 MSTORE PUSH1 0x14 PUSH1 0x24 DUP3 ADD MSTORE PUSH20 0x696E73756666696369656E742062616C616E6365 PUSH1 0x60 SHL PUSH1 0x44 DUP3 ADD MSTORE PUSH1 0x64 SWAP1 REVERT JUMPDEST SWAP2 SWAP1 POP CALLVALUE PUSH2 0x30A JUMPI DUP1 PUSH1 0x3 NOT CALLDATASIZE ADD SLT PUSH2 0x30A JUMPI SWAP2 PUSH1 0x20 SWAP3 PUSH2 0x2E4 PUSH2 0x30E JUMP JUMPDEST CALLER DUP4 MSTORE PUSH1 0x1 DUP1 DUP7 MSTORE DUP3 DUP5 KECCAK256 PUSH1 0x1 PUSH1 0x1 PUSH1 0xA0 SHL SUB SWAP1 SWAP3 AND DUP5 MSTORE SWAP1 DUP6 MSTORE SWAP2 KECCAK256 PUSH1 0x24 CALLDATALOAD SWAP1 SSTORE DUP2 MSTORE RETURN JUMPDEST DUP3 DUP1 REVERT JUMPDEST PUSH1 0x4 CALLDATALOAD SWAP1 PUSH1 0x1 PUSH1 0x1 PUSH1 0xA0 SHL SUB DUP3 AND DUP3 SUB PUSH2 0x324 JUMPI JUMP JUMPDEST PUSH1 0x0 DUP1 REVERT JUMPDEST PUSH1 0x24 CALLDATALOAD SWAP1 PUSH1 0x1 PUSH1 0x1 PUSH1 0xA0 SHL SUB DUP3 AND DUP3 SUB PUSH2 0x324 JUMPI JUMP JUMPDEST SWAP2 SWAP1 DUP3 ADD DUP1 SWAP3 GT PUSH2 0x34C JUMPI JUMP JUMPDEST PUSH4 0x4E487B71 PUSH1 0xE0 SHL PUSH1 0x0 MSTORE PUSH1 0x11 PUSH1 0x4 MSTORE PUSH1 0x24 PUSH1 0x0 REVERT INVALID LOG2 PUSH5 0x6970667358 0x22 SLT KECCAK256 SWAP10 EXTCODECOPY DUP13 0xCC PUSH29 0x11DC597EA62830E3D5E70164B041F2B2A617FA012237C2B96EF0886473 PUSH16 0x6C634300081400330000000000000000 "},"gasEstimates":{"creation":{"codeDepositCost":"184000","executionCost":"233","totalCost":"184233"},"external":{"allowance(address,address)":"2670","approve(address,uint256)":"22501","balanceOf(address)":"2489","mint(address,uint256)":"24610","transfer(address,uint256)":"51136","transferFrom(address,address,uint256)":"77753"}},"methodIdentifiers":{"allowance(address,address)":"dd62ed3e","approve(address,uint256)":"095ea7b3","balanceOf(address)":"70a08231","mint(address,uint256)":"40c10f19","transfer(address,uint256)":"a9059cbb","transferFrom(address,address,uint256)":"23b872dd"}},"storageLayout":{"storage":[{"astId":6,"contract":"contracts/mocks/MockERC20.sol:MockERC20","label":"_balances","offset":0,"slot":"0","type":"t_mapping(t_address,t_uint256)"},{"astId":12,"contract":"contracts/mocks/MockERC20.sol:MockERC20","label":"_allowances","offset":0,"slot":"1","type":"t_mapping(t_address,t_mapping(t_address,t_uint256))"}],"types":{"t_address":{"encoding":"inplace","label":"address","numberOfBytes":"20"},"t_mapping(t_address,t_mapping(t_address,t_uint256))":{"encoding":"mapping","key":"t_address","label":"mapping(address => mapping(address => uint256))","numberOfBytes":"32","value":"t_mapping(t_address,t_uint256)"},"t_mapping(t_address,t_uint256)":{"encoding":"mapping","key":"t_address","label":"mapping(address => uint256)","numberOfBytes":"32","value":"t_uint256"},"t_uint256":{"encoding":"inplace","label":"uint256","numberOfBytes":"32"}}},"userdoc":{"kind":"user","methods":{},"version":1}}}}