{"contracts/Kibo.sol":{"Kibo":{"abi":[{"inputs":[],"stateMutability":"nonpayable","type":"constructor"},{"inputs":[],"name":"AlreadyClaimed","type":"error"},{"inputs":[],"name":"AmountOutOfRange","type":"error"},{"inputs":[],"name":"BpsOutOfRange","type":"error"},{"inputs":[],"name":"InvalidAddress","type":"error"},{"inputs":[],"name":"InvalidTiers","type":"error"},{"inputs":[],"name":"NeedMilestone","type":"error"},{"inputs":[],"name":"NoStreakToRecover","type":"error"},{"inputs":[],"name":"NothingToWithdraw","type":"error"},{"inputs":[],"name":"Paused","type":"error"},{"inputs":[],"name":"PoolEmpty","type":"error"},{"inputs":[],"name":"RecoveryPending","type":"error"},{"inputs":[],"name":"TooSoon","type":"error"},{"inputs":[],"name":"TransferFailed","type":"error"},{"inputs":[],"name":"Unauthorized","type":"error"},{"anonymous":false,"inputs":[{"indexed":true,"internalType":"address","name":"user","type":"address"},{"indexed":false,"internalType":"enum Kibo.Badge","name":"badge","type":"uint8"}],"name":"BadgeEarned","type":"event"},{"anonymous":false,"inputs":[{"indexed":true,"internalType":"address","name":"by","type":"address"}],"name":"ContractPaused","type":"event"},{"anonymous":false,"inputs":[{"indexed":true,"internalType":"address","name":"by","type":"address"}],"name":"ContractUnpaused","type":"event"},{"anonymous":false,"inputs":[{"indexed":true,"internalType":"address","name":"user","type":"address"},{"indexed":false,"internalType":"uint32","name":"streak","type":"uint32"},{"indexed":false,"internalType":"uint40","name":"timestamp","type":"uint40"}],"name":"Deposited","type":"event"},{"anonymous":false,"inputs":[{"indexed":true,"internalType":"address","name":"payer","type":"address"},{"indexed":true,"internalType":"address","name":"beneficiary","type":"address"},{"indexed":false,"internalType":"uint32","name":"streak","type":"uint32"},{"indexed":false,"internalType":"uint40","name":"timestamp","type":"uint40"}],"name":"DepositedFor","type":"event"},{"anonymous":false,"inputs":[{"indexed":true,"internalType":"address","name":"user","type":"address"},{"indexed":false,"internalType":"uint128","name":"totalDeposited","type":"uint128"}],"name":"GoalReached","type":"event"},{"anonymous":false,"inputs":[{"indexed":true,"internalType":"address","name":"user","type":"address"},{"indexed":false,"internalType":"uint128","name":"target","type":"uint128"}],"name":"GoalSet","type":"event"},{"anonymous":false,"inputs":[{"indexed":true,"internalType":"address","name":"previousOwner","type":"address"},{"indexed":true,"internalType":"address","name":"newOwner","type":"address"}],"name":"OwnershipTransferStarted","type":"event"},{"anonymous":false,"inputs":[{"indexed":true,"internalType":"address","name":"previousOwner","type":"address"},{"indexed":true,"internalType":"address","name":"newOwner","type":"address"}],"name":"OwnershipTransferred","type":"event"},{"anonymous":false,"inputs":[{"indexed":true,"internalType":"address","name":"funder","type":"address"},{"indexed":false,"internalType":"uint256","name":"amount","type":"uint256"}],"name":"PoolFunded","type":"event"},{"anonymous":false,"inputs":[{"indexed":true,"internalType":"address","name":"user","type":"address"},{"indexed":false,"internalType":"uint8","name":"shields","type":"uint8"}],"name":"PrecisionShield","type":"event"},{"anonymous":false,"inputs":[{"indexed":true,"internalType":"address","name":"ref","type":"address"},{"indexed":true,"internalType":"address","name":"referee","type":"address"},{"indexed":false,"internalType":"uint256","name":"amount","type":"uint256"}],"name":"ReferralRewardAccrued","type":"event"},{"anonymous":false,"inputs":[{"indexed":false,"internalType":"uint256","name":"oldBps","type":"uint256"},{"indexed":false,"internalType":"uint256","name":"newBps","type":"uint256"}],"name":"ReferralRewardBpsUpdated","type":"event"},{"anonymous":false,"inputs":[{"indexed":true,"internalType":"address","name":"ref","type":"address"},{"indexed":false,"internalType":"uint256","name":"amount","type":"uint256"}],"name":"ReferralRewardClaimed","type":"event"},{"anonymous":false,"inputs":[{"indexed":true,"internalType":"address","name":"ref","type":"address"},{"indexed":true,"internalType":"address","name":"referee","type":"address"},{"indexed":false,"internalType":"uint256","name":"amount","type":"uint256"}],"name":"ReferralRewardSkipped","type":"event"},{"anonymous":false,"inputs":[{"indexed":true,"internalType":"address","name":"user","type":"address"},{"indexed":false,"internalType":"uint32","name":"streak","type":"uint32"},{"indexed":false,"internalType":"uint256","name":"reward","type":"uint256"}],"name":"RewardClaimed","type":"event"},{"anonymous":false,"inputs":[{"indexed":false,"internalType":"uint256","name":"t1","type":"uint256"},{"indexed":false,"internalType":"uint256","name":"t2","type":"uint256"},{"indexed":false,"internalType":"uint256","name":"t3","type":"uint256"},{"indexed":false,"internalType":"uint256","name":"t4","type":"uint256"}],"name":"RewardTiersUpdated","type":"event"},{"anonymous":false,"inputs":[{"indexed":true,"internalType":"address","name":"user","type":"address"},{"indexed":false,"internalType":"uint32","name":"streak","type":"uint32"},{"indexed":false,"internalType":"uint8","name":"shieldsLeft","type":"uint8"}],"name":"ShieldUsed","type":"event"},{"anonymous":false,"inputs":[{"indexed":true,"internalType":"address","name":"user","type":"address"},{"indexed":false,"internalType":"uint32","name":"oldStreak","type":"uint32"}],"name":"StreakBroken","type":"event"},{"anonymous":false,"inputs":[{"indexed":true,"internalType":"address","name":"user","type":"address"},{"indexed":false,"internalType":"uint32","name":"streak","type":"uint32"},{"indexed":false,"internalType":"uint256","name":"fee","type":"uint256"}],"name":"StreakRecovered","type":"event"},{"anonymous":false,"inputs":[{"indexed":true,"internalType":"address","name":"user","type":"address"},{"indexed":false,"internalType":"uint256","name":"payout","type":"uint256"},{"indexed":false,"internalType":"uint256","name":"penalty","type":"uint256"}],"name":"Withdrawn","type":"event"},{"inputs":[],"name":"COOLDOWN","outputs":[{"internalType":"uint256","name":"","type":"uint256"}],"stateMutability":"view","type":"function"},{"inputs":[],"name":"MAX_DEPOSIT","outputs":[{"internalType":"uint256","name":"","type":"uint256"}],"stateMutability":"view","type":"function"},{"inputs":[],"name":"MAX_RECOVERY_FEE","outputs":[{"internalType":"uint256","name":"","type":"uint256"}],"stateMutability":"view","type":"function"},{"inputs":[],"name":"MAX_REWARD_TIER","outputs":[{"internalType":"uint256","name":"","type":"uint256"}],"stateMutability":"view","type":"function"},{"inputs":[],"name":"MAX_SHIELDS","outputs":[{"internalType":"uint8","name":"","type":"uint8"}],"stateMutability":"view","type":"function"},{"inputs":[],"name":"MIN_DEPOSIT","outputs":[{"internalType":"uint256","name":"","type":"uint256"}],"stateMutability":"view","type":"function"},{"inputs":[],"name":"POOL_FEE_BPS","outputs":[{"internalType":"uint256","name":"","type":"uint256"}],"stateMutability":"view","type":"function"},{"inputs":[],"name":"PRECISION_WINDOW","outputs":[{"internalType":"uint256","name":"","type":"uint256"}],"stateMutability":"view","type":"function"},{"inputs":[],"name":"STREAK_THRESHOLD","outputs":[{"internalType":"uint256","name":"","type":"uint256"}],"stateMutability":"view","type":"function"},{"inputs":[],"name":"acceptOwnership","outputs":[],"stateMutability":"nonpayable","type":"function"},{"inputs":[],"name":"cUSD","outputs":[{"internalType":"contract IERC20","name":"","type":"address"}],"stateMutability":"view","type":"function"},{"inputs":[],"name":"claimReferralReward","outputs":[],"stateMutability":"nonpayable","type":"function"},{"inputs":[],"name":"claimReward","outputs":[],"stateMutability":"nonpayable","type":"function"},{"inputs":[{"internalType":"uint256","name":"amount","type":"uint256"},{"internalType":"address","name":"ref","type":"address"}],"name":"deposit","outputs":[],"stateMutability":"nonpayable","type":"function"},{"inputs":[{"internalType":"address","name":"beneficiary","type":"address"},{"internalType":"uint256","name":"amount","type":"uint256"}],"name":"depositFor","outputs":[],"stateMutability":"nonpayable","type":"function"},{"inputs":[{"internalType":"uint256","name":"","type":"uint256"}],"name":"depositors","outputs":[{"internalType":"address","name":"","type":"address"}],"stateMutability":"view","type":"function"},{"inputs":[{"internalType":"uint256","name":"amount","type":"uint256"}],"name":"fundPool","outputs":[],"stateMutability":"nonpayable","type":"function"},{"inputs":[{"internalType":"address","name":"user","type":"address"}],"name":"getBadge","outputs":[{"internalType":"enum Kibo.Badge","name":"","type":"uint8"}],"stateMutability":"view","type":"function"},{"inputs":[{"internalType":"uint256","name":"limit","type":"uint256"}],"name":"getLeaderboard","outputs":[{"internalType":"address[]","name":"addrs","type":"address[]"},{"internalType":"uint256[]","name":"streaks","type":"uint256[]"},{"internalType":"uint256[]","name":"totals","type":"uint256[]"}],"stateMutability":"view","type":"function"},{"inputs":[{"internalType":"address","name":"user","type":"address"}],"name":"getUser","outputs":[{"internalType":"uint256","name":"streak","type":"uint256"},{"internalType":"uint256","name":"lastDeposit","type":"uint256"},{"internalType":"uint256","name":"totalDeposited","type":"uint256"},{"internalType":"uint256","name":"longestStreak","type":"uint256"},{"internalType":"bool","name":"canDeposit","type":"bool"},{"internalType":"uint256","name":"lastClaimedStreak","type":"uint256"},{"internalType":"uint8","name":"shields","type":"uint8"},{"internalType":"uint256","name":"brokenStreak","type":"uint256"},{"internalType":"enum Kibo.Badge","name":"badge","type":"uint8"},{"internalType":"uint256","name":"rewardsClaimed","type":"uint256"}],"stateMutability":"view","type":"function"},{"inputs":[],"name":"owner","outputs":[{"internalType":"address","name":"","type":"address"}],"stateMutability":"view","type":"function"},{"inputs":[],"name":"pause","outputs":[],"stateMutability":"nonpayable","type":"function"},{"inputs":[],"name":"paused","outputs":[{"internalType":"bool","name":"","type":"bool"}],"stateMutability":"view","type":"function"},{"inputs":[],"name":"pendingOwner","outputs":[{"internalType":"address","name":"","type":"address"}],"stateMutability":"view","type":"function"},{"inputs":[{"internalType":"address","name":"","type":"address"}],"name":"pendingReferralReward","outputs":[{"internalType":"uint256","name":"","type":"uint256"}],"stateMutability":"view","type":"function"},{"inputs":[],"name":"poolBalance","outputs":[{"internalType":"uint256","name":"","type":"uint256"}],"stateMutability":"view","type":"function"},{"inputs":[],"name":"poolFunds","outputs":[{"internalType":"uint256","name":"","type":"uint256"}],"stateMutability":"view","type":"function"},{"inputs":[],"name":"recoverStreak","outputs":[],"stateMutability":"nonpayable","type":"function"},{"inputs":[],"name":"referralRewardBps","outputs":[{"internalType":"uint256","name":"","type":"uint256"}],"stateMutability":"view","type":"function"},{"inputs":[{"internalType":"address","name":"","type":"address"}],"name":"referrer","outputs":[{"internalType":"address","name":"","type":"address"}],"stateMutability":"view","type":"function"},{"inputs":[],"name":"rewardTier1","outputs":[{"internalType":"uint256","name":"","type":"uint256"}],"stateMutability":"view","type":"function"},{"inputs":[],"name":"rewardTier2","outputs":[{"internalType":"uint256","name":"","type":"uint256"}],"stateMutability":"view","type":"function"},{"inputs":[],"name":"rewardTier3","outputs":[{"internalType":"uint256","name":"","type":"uint256"}],"stateMutability":"view","type":"function"},{"inputs":[],"name":"rewardTier4","outputs":[{"internalType":"uint256","name":"","type":"uint256"}],"stateMutability":"view","type":"function"},{"inputs":[{"internalType":"address","name":"","type":"address"}],"name":"savingsGoal","outputs":[{"internalType":"uint128","name":"","type":"uint128"}],"stateMutability":"view","type":"function"},{"inputs":[{"internalType":"uint128","name":"target","type":"uint128"}],"name":"setGoal","outputs":[],"stateMutability":"nonpayable","type":"function"},{"inputs":[{"internalType":"uint256","name":"bps","type":"uint256"}],"name":"setReferralRewardBps","outputs":[],"stateMutability":"nonpayable","type":"function"},{"inputs":[{"internalType":"uint256","name":"t1","type":"uint256"},{"internalType":"uint256","name":"t2","type":"uint256"},{"internalType":"uint256","name":"t3","type":"uint256"},{"internalType":"uint256","name":"t4","type":"uint256"}],"name":"setRewardTiers","outputs":[],"stateMutability":"nonpayable","type":"function"},{"inputs":[{"internalType":"uint256","name":"bps","type":"uint256"}],"name":"setWithdrawalPenaltyBps","outputs":[],"stateMutability":"nonpayable","type":"function"},{"inputs":[],"name":"totalDepositors","outputs":[{"internalType":"uint256","name":"","type":"uint256"}],"stateMutability":"view","type":"function"},{"inputs":[{"internalType":"address","name":"","type":"address"}],"name":"totalRewardsClaimed","outputs":[{"internalType":"uint256","name":"","type":"uint256"}],"stateMutability":"view","type":"function"},{"inputs":[{"internalType":"address","name":"newOwner","type":"address"}],"name":"transferOwnership","outputs":[],"stateMutability":"nonpayable","type":"function"},{"inputs":[],"name":"unpause","outputs":[],"stateMutability":"nonpayable","type":"function"},{"inputs":[{"internalType":"address","name":"","type":"address"}],"name":"users","outputs":[{"internalType":"uint32","name":"streak","type":"uint32"},{"internalType":"uint32","name":"longestStreak","type":"uint32"},{"internalType":"uint32","name":"lastClaimedStreak","type":"uint32"},{"internalType":"uint32","name":"brokenStreak","type":"uint32"},{"internalType":"uint40","name":"lastDeposit","type":"uint40"},{"internalType":"bool","name":"isDepositor","type":"bool"},{"internalType":"uint8","name":"shields","type":"uint8"},{"internalType":"uint128","name":"totalDeposited","type":"uint128"}],"stateMutability":"view","type":"function"},{"inputs":[],"name":"withdraw","outputs":[],"stateMutability":"nonpayable","type":"function"},{"inputs":[],"name":"withdrawalPenaltyBps","outputs":[{"internalType":"uint256","name":"","type":"uint256"}],"stateMutability":"view","type":"function"}],"devdoc":{"kind":"dev","methods":{},"version":1},"evm":{"bytecode":{"linkReferences":{},"object":"6080806040523461005f576611c37937e08000600055662aa1efb94e00006001556658d15e1762800060025566b1a2bc2ec500006003556101f46004819055600555600680546001600160a01b0319163317905561214d90816100658239f35b600080fdfe6080604081815260048036101561001557600080fd5b600092833560e01c9081631fccf67214611a1c575080632cf003c2146119e15780632f4f21e2146117e55780633ccfd60b146116405780633f4ba83a146115e65780633fbf422f146115c7578063418f3128146115a85780634c8530ce1461158c57806351bea8c31461156f5780635264dab014611552578063546cea861461153657806354b1de8f146114fd5780635c975abb146114d657806360bd13d9146114b757806366fc0127146114985780636e553f65146111a45780636f77926b146110b25780637289cca614610f0b57806375f4c05914610eee57806379ba509714610e7f57806382bbf60e14610e3d5780638456cb5914610ddd5780638da5cb5b14610db457806396365d44146105e25780639b4b2c9c14610cd55780639f147d0014610c9d578063a2724a4d14610c7f578063a2c8b36914610c12578063a34b46fe1461091c578063a87430ba1461087e578063aa0224fd1461085b578063af10bbcd14610487578063b09e603f146107de578063b88a802f14610601578063bc2104d2146105e2578063c254de8814610595578063cd6c787314610579578063da3a5f721461048c578063dd5967c314610487578063e1e158a514610466578063e30c39781461043d578063e4b2fb79146103fa578063f2fde38b14610369578063f67ded4e1461034a578063f6ce90041461030e5763ff84a2621461021d57600080fd5b3461030a57608036600319011261030a57600654813592606435926044359260243591906001600160a01b031633036102fd57851580156102f3575b80156102e9575b80156102df575b80156102ce575b6102c05750916080939185937f7ddff0131937dfb4362682c96132c768e4bce6a574b2c4ebd904636975d99f15968855806001558260025583600355815194855260208501528301526060820152a180f35b825163036899eb60e31b8152fd5b50670de0b6b3a7640000851161026e565b5083851115610267565b5081841115610260565b5085821115610259565b82516282b42960e81b8152fd5b8280fd5b5050346103465760203660031901126103465760209181906001600160a01b03610336611a4a565b168152600d845220549051908152f35b5080fd5b5050346103465781600319360112610346576020906002549051908152f35b503461030a57602036600319011261030a57610383611a4a565b6006546001600160a01b039081169291338490036103eb57169283156103de575050600780546001600160a01b031916831790557f38d16b8cac22d99fc7c124b9cd0de2d3fa1faef420bfe791d8c362d765e227008380a380f35b5163e6c4247b60e01b8152fd5b84516282b42960e81b81528390fd5b503461030a57602036600319011261030a573591600e5483101561043a5750610424602092611adf565b905491519160018060a01b039160031b1c168152f35b80fd5b50503461034657816003193601126103465760075490516001600160a01b039091168152602090f35b50503461034657816003193601126103465760209051655af3107a40008152f35b611abc565b50903461030a57602036600319011261030a5780516323b872dd60e01b815233818401908152306020828101919091528435604083018190529492918290819060600103818873765de816845861e75a25fca122bb6898b8b1282a5af190811561056f578591610541575b501561053357508160085401600855519081527f32173d8e51cec3a6fe484b7a1c3febe760cdf96e03d4cca36a43563a4333e83860203392a280f35b90516312171d8360e31b8152fd5b610562915060203d8111610568575b61055a8183611b2c565b810190611b64565b386104f7565b503d610550565b83513d87823e3d90fd5b5050346103465781600319360112610346576020905160328152f35b505034610346576020366003190112610346576105e06105d763ffffffff8360209560018060a01b036105c6611a4a565b168152600987522054851c16612073565b91518092611a65565bf35b5050346103465781600319360112610346576020906008549051908152f35b503461030a578260031936011261030a5760ff60075460a01c166107d05733835260096020528183209182549163ffffffff93848416946007861080156107c4575b6107b45784841c168511156107a55761065b85612039565b938460085410610795576bffffffff000000000000000019811690841b6bffffffff0000000000000000161780825560b01c60ff169060038210610770575b505060088054849003905533808652600d6020908152838720805486019055835163a9059cbb60e01b8152838101928352828201869052918290819060400103818973765de816845861e75a25fca122bb6898b8b1282a5af1908115610766578691610748575b501561053357505163ffffffff9092168252602082015233907f0d26a00dfd91636328b46a49a079c1612a57c89258f2fea78c7469ec0b5f80479080604081015b0390a280f35b610760915060203d81116105685761055a8183611b2c565b38610701565b83513d88823e3d90fd5b805460ff60b01b191660019290920160b01b60ff60b01b16919091179055388061069a565b83516305ce024d60e51b81528390fd5b509051630c8d9eab60e31b8152fd5b8351632e6d9aff60e01b81528390fd5b50600786061515610643565b90516313d0ff5960e31b8152fd5b503461030a57602036600319011261030a57600654813592906001600160a01b0316330361084f576103e88311610842577e6d2ab5e2e5f0fd1d9bf29d6f60ae957400958ebae002a5f2d361a417993cd49082548151908152846020820152a15580f35b5163063941ff60e31b8152fd5b516282b42960e81b8152fd5b5050346103465781600319360112610346576020905167016345785d8a00008152f35b505034610346576020366003190112610346576101009181906001600160a01b036108a7611a4a565b16815260096020522060ff6001600160801b0360018354930154169183519363ffffffff908183168652818360201c1660208701528183821c16908601528160601c16606085015264ffffffffff8160801c166080850152818160a81c16151560a085015260b01c1660c083015260e0820152f35b509190346103465760208060031936011261030a57833593600e5460c88110600014610c0957945b80861015610c045750845b610958866120d1565b90610962876120d1565b9661096c816120d1565b9386885b878a8c88878510610b8b5750509250505050875b838110610a8a57505081036109fe57509490915b8351946060860160608752875180915282608088019801915b8181106109e1578789038489015287806109dd89896109d08e8b611a88565b9184830390850152611a88565b0390f35b82516001600160a01b0316895297830197918301916001016109b1565b610a0d819793979492946120d1565b96610a17826120d1565b93610a21836120d1565b95885b848110610a35575050505050610998565b6001908b610a57826001600160a01b03610a4f8288612103565b511692612103565b52610a628185612103565b51610a6d828a612103565b52610a788186612103565b51610a83828b612103565b5201610a24565b8060019182810192838211610b7857835b868110610b4c575050808203610ab3575b5050610984565b610b44906001600160a01b0380610aca858b612103565b511690610ad7838b612103565b5116610ae3858b612103565b52610aee828a612103565b528c610b1b82610afe8684612103565b5192610b0a8282612103565b51610b158883612103565b52612103565b52610b26838a612103565b5192610b3d610b35838c612103565b51918b612103565b5288612103565b523880610aac565b8d610b6285610b5b8484612103565b5192612103565b5110610b70575b8101610a9b565b925082610b69565b634e487b7160e01b8c526011855260248cfd5b8463ffffffff600197610b9d83611adf565b8a8060a01b0391549060031b1c169586815260098098522054169283610bcc575b505050505050018790610970565b84610b1583610bda95612103565b528b5288526001600160801b03828a8c20015416610bf88289612103565b5238808088848f610bbe565b61094f565b5060c894610944565b503461030a57602036600319011261030a5735906001600160801b03821680920361030a57338352600c602052808320826001600160801b0319825416179055519081527fd576bc64b95e6bbdb657e504fcdadeb74867d950336fd046addd6db94933ab0d60203392a280f35b50503461034657816003193601126103465760209051620119408152f35b5050346103465760203660031901126103465760209181906001600160a01b03610cc5611a4a565b168152600b845220549051908152f35b50903461030a578260031936011261030a57338352602090600b825280842054928315610da65733808652600b8452828620869055825163a9059cbb60e01b8152828101918252602082018690529084908290819060400103818973765de816845861e75a25fca122bb6898b8b1282a5af1908115610766578691610d89575b50156105335750907f5be4d22009fea85381595ed91090bc5c0bc92a93fe07ed7472c5888eb1993f8391519283523392a280f35b610da09150843d86116105685761055a8183611b2c565b38610d55565b9051630686827b60e51b8152fd5b50503461034657816003193601126103465760065490516001600160a01b039091168152602090f35b50903461030a578260031936011261030a576006546001600160a01b0316330361084f576007805460ff60a01b1916600160a01b17905582337f81990fd9a5c552b8e3677917d8a03c07678f0d2cb68f88b634aca2022e9bd19f8280a280f35b505034610346576020366003190112610346576020916001600160801b039082906001600160a01b03610e6e611a4a565b168152600c85522054169051908152f35b503461030a578260031936011261030a576007546001600160a01b0392909190838316330361084f57505060065491339083167f8be0079c531659141344cd1fd0a4f28419497f9722a3daafe3b4186f6b6457e08580a36001600160a01b031991821633176006551660075580f35b503461030a578260031936011261030a5760209250549051908152f35b50903461030a578260031936011261030a5760ff60075460a01c166110a55733835260096020528083209081549163ffffffff93848460601c169485159081958215611099575b505061108b57655af3107a400093848602948686041417156110785767016345785d8a0000808511611070575b5082516323b872dd60e01b8152338282019081523060208281019190915260408201879052908290819060600103818a73765de816845861e75a25fca122bb6898b8b1282a5af1908115611066578791611048575b501561103a575080546fffffffff0000000000000000ffffffff19168417905560088054830190555163ffffffff9092168252602082015233907fc428c32598bfe7863de948cb3b5ffb667a08521ac39c31a674722457e9800b6e908060408101610742565b82516312171d8360e31b8152fd5b611060915060203d81116105685761055a8183611b2c565b38610fd4565b84513d89823e3d90fd5b935038610f7f565b634e487b7160e01b865260119052602485fd5b8251631f309d3760e21b8152fd5b16151590503880610f52565b516313d0ff5960e31b8152fd5b50823461043a57602036600319011261043a576001600160a01b036110d5611a4a565b169182825260096020528382209384549164ffffffffff6001600160801b036001828660801c16980154169463ffffffff95868660201c1691620119408a0194858b1161119157509585610140999589958560209b956111899a8f9c61113b889a612073565b9b8152600d8f5220549b85519d8e89891681520152848d015260608c01524216101560808a01521c1660a087015260ff8160b01c1660c087015260601c1660e0850152610100840190611a65565b610120820152f35b634e487b7160e01b825260119052602490fd5b503461030a578160031936011261030a576001600160a01b03602435818116928035918490036114945760ff60075460a01c1661148657655af3107a400082108015611475575b61146757338652602091600983528587209364ffffffffff95864216968654908160801c166201194081018091116114545788106114445760a81c60ff161590818061143b575b80611431575b8061141b575b6113fa575b5087516323b872dd60e01b8152338582019081523060208201526040810185905286908290819060600103818d73765de816845861e75a25fca122bb6898b8b1282a5af19081156113f0578a916113d3575b50156113c357928287959263ffffffff956112d67f1091413ac916d6d977ba19245be465e86c3dfd74cc7c9903af6856d3e3668e559a6107429a9733611bb2565b611308575b505050505416935191829133958390929164ffffffffff60209163ffffffff604085019616845216910152565b338b52600a8452898b205416915490821515806113ba575b156112db576127109161133291611b7c565b6008549190049283808310611389577f9e2c5f94b327df7a7ea63d4c940cf9abf3d51452d7a5aca95b6140ce2c823ef29203600855828b52600b8152898b2084815401905589519384523393a35b388080806112db565b507fdf599ad211fa168884e13fd826c0ffce9953e8779d95c69096d14abe8e041f6b915089519384523393a3611380565b50811515611320565b87516312171d8360e31b81528490fd5b6113ea9150863d88116105685761055a8183611b2c565b38611295565b89513d8c823e3d90fd5b338a52600a8652888a2080546001600160a01b031916909117905538611243565b50808a52600a865233838a8c205416141561123e565b5033811415611238565b50801515611232565b8851636fed7d8560e01b81528590fd5b634e487b7160e01b8b526011865260248bfd5b845163c64200e960e01b8152fd5b50670de0b6b3a764000082116111eb565b84516313d0ff5960e31b8152fd5b8580fd5b5050346103465781600319360112610346576020906005549051908152f35b5050346103465781600319360112610346576020906003549051908152f35b50503461034657816003193601126103465760209060ff60075460a01c1690519015158152f35b503461030a57602036600319011261030a57600654813592906001600160a01b0316330361084f576103e8831161084257505060055580f35b5050346103465781600319360112610346576020905160038152f35b505034610346578160031936011261034657602091549051908152f35b50503461034657816003193601126103465760209051611c208152f35b5050346103465781600319360112610346576020905160078152f35b505034610346578160031936011261034657602090600e549051908152f35b5050346103465781600319360112610346576020906001549051908152f35b50903461030a578260031936011261030a576006546001600160a01b0316330361084f576007805460ff60a01b1916905582337f5b65b0c1363b3003db9bcc5e1fd8805a6d6bf5bf6dc9d3431ee4494cd7d117668280a280f35b50919034610346578160031936011261034657338252602090600982528083209160018301908154936001600160801b0385169283156117d557338752600d8352848720549082549163ffffffff83881c16151590816117cb575b50156117ba576116be6127106116b660058054045b88611b7c565b048096611ba5565b6fffffffffffffffffffffffffffffffff1990971690556001600160b81b0319169055338552600d8152828520859055816117ad575b825163a9059cbb60e01b8152338782019081526020810186905282908290819060400103818973765de816845861e75a25fca122bb6898b8b1282a5af19081156117a3578691611786575b501561177657825193845283015233917f92ccf450a286a957af52509bc1c9939d1a6a481783e142e41e2499f0bb66ebc69190a280f35b82516312171d8360e31b81528690fd5b61179d9150823d84116105685761055a8183611b2c565b3861173f565b84513d88823e3d90fd5b81600854016008556116f4565b6116be6127106116b66005546116b0565b905085113861169b565b8451630686827b60e51b81528890fd5b50903461030a578060031936011261030a576117ff611a4a565b6024359260ff60075460a01c166119d3576001600160a01b0382169384156119c457655af3107a4000811080156119b3575b6119a45784865260096020528386209081549363ffffffff93848660601c1615158061199a575b61198c5764ffffffffff8042169660801c1662011940810180911161197957861061196b5786516323b872dd60e01b8152338282019081523060208281019190915260408201869052908290819060600103818d73765de816845861e75a25fca122bb6898b8b1282a5af1908115611961578a91611943575b501561193557509161190a8561192f95937f910fefe8cbd875c2cefeec15c9fce0f7bf2d542d5c42e57b8ed2395127e29b109795611bb2565b549451941663ffffffff16845264ffffffffff16602084015233929081906040820190565b0390a380f35b86516312171d8360e31b8152fd5b61195b915060203d81116105685761055a8183611b2c565b386118d1565b88513d8c823e3d90fd5b8651636fed7d8560e01b8152fd5b634e487b7160e01b8a526011825260248afd5b8651630916c16b60e11b8152fd5b5084861615611858565b50825163c64200e960e01b8152fd5b50670de0b6b3a76400008111611831565b50825163e6c4247b60e01b8152fd5b82516313d0ff5960e31b8152fd5b505034610346576020366003190112610346576020916001600160a01b0390829082611a0b611a4a565b168152600a85522054169051908152f35b8490346103465781600319360112610346578073765de816845861e75a25fca122bb6898b8b1282a60209252f35b600435906001600160a01b0382168203611a6057565b600080fd5b906005821015611a725752565b634e487b7160e01b600052602160045260246000fd5b90815180825260208080930193019160005b828110611aa8575050505090565b835185529381019392810192600101611a9a565b34611a60576000366003190112611a60576020604051670de0b6b3a76400008152f35b600e54811015611b1657600e6000527fbb7b4a454dc3493923482f07822329ed19e8244eff582cc204f8554c3620c3fd0190600090565b634e487b7160e01b600052603260045260246000fd5b90601f8019910116810190811067ffffffffffffffff821117611b4e57604052565b634e487b7160e01b600052604160045260246000fd5b90816020910312611a6057518015158103611a605790565b81810292918115918404141715611b8f57565b634e487b7160e01b600052601160045260246000fd5b91908203918211611b8f57565b60018060a01b03169160008381526009602052604081209260328102818104603214821517156120255790612710611bf39204908160085401600855611ba5565b92805464ffffffffff90818160801c16801515908161200b575b50611f2d575b50815490808260801c168015159182611ede575b5050611e7b575b50805463ffffffff9081600181831601169464ffffffffff60801b9060801b16808674ffffffffff000000000000000000000000ffffffff198416171795868555600185019687546001600160801b03809a168a8216018a8111611e6757918b9593918b99989795936001600160801b03199c8d91169116178a55848160201c168211611daf575b505050505050805460ff8160a81c1615611d42575b5050808560409252600c60205220918254928284168015159081611d34575b50611cf8575b505050505050565b7f35003c2a88a451cd165f157aa0f4efaa1c78331d1bda2c6bbf1a32e40a07d398946020941690555416604051908152a2388080808080611cf0565b905083835416101538611cea565b60ff60a81b1916600160a81b179055600e5468010000000000000000811015611d9b5790611d7882600160409401600e55611adf565b81546001600160a01b0360039290921b91821b19169088901b1790559038611ccb565b634e487b7160e01b82526041600452602482fd5b67ffffffff000000009060201b169274ffffffffff0000000000000000ffffffffffffffff191617171780845560201c16601e81148015611e5d575b8015611e53575b8015611e48575b611e07575b80808080611cb6565b6020611e337fe77c5a722d2d46cdd1852f1811f567c19dadc53da7fc1e0ee6fc979d0335dbac92612073565b611e406040518092611a65565ba28538611dfe565b5061016d8114611df9565b5060b48114611df2565b50605a8114611deb565b634e487b7160e01b89526011600452602489fd5b60b01c60ff166003811015611c2e57815460ff60b01b191660019190910160b01b60ff60b01b16178155847ff31aa52e228bac5c0fd9b53de3947b96a6b562a29503dea0c7a2784cdc228044602060ff845460b01c16604051908152a238611c2e565b620119408201925090828111611f19576201356001809211611f0557851611153880611c27565b634e487b7160e01b85526011600452602485fd5b634e487b7160e01b86526011600452602486fd5b60b081901c60ff1615611faf5750815460ff60b01b19811660b091821c60ff166000190190911b60ff60b01b16178255857fa3cd923e771784f8ab03c4bc813511f007df871c8652c02cd19cc966132b19646040845463ffffffff60601b198116865560ff82519163ffffffff8116835260b01c166020820152a25b38611c13565b867fc0539bb1c6561e4f713a8725d44795917796a9717ae897fbc6707ef291fac9b0602060405163ffffffff85168152a26fffffffff0000000000000000ffffffff19811660609190911b63ffffffff60601b16178255611fa9565b6202a300915001828111611f055782168286161138611c0d565b634e487b7160e01b83526011600452602483fd5b63ffffffff16603181101561206c57602381101561206557600e111561205f5760005490565b60015490565b5060025490565b5060035490565b63ffffffff1661016d8110156120b35760b48110156120ad57605a8110156120a757601e11156120a257600090565b600190565b50600290565b50600390565b50600490565b67ffffffffffffffff8111611b4e5760051b60200190565b906120db826120b9565b6120e86040519182611b2c565b82815280926120f9601f19916120b9565b0190602036910137565b8051821015611b165760209160051b01019056fea2646970667358221220d308d0cb15df1bca8a6a4789a857b4a90aba76bae9c96750b035acbb45fb615f64736f6c63430008140033","opcodes":"PUSH1 0x80 DUP1 PUSH1 0x40 MSTORE CALLVALUE PUSH2 0x5F JUMPI PUSH7 0x11C37937E08000 PUSH1 0x0 SSTORE PUSH7 0x2AA1EFB94E0000 PUSH1 0x1 SSTORE PUSH7 0x58D15E17628000 PUSH1 0x2 SSTORE PUSH7 0xB1A2BC2EC50000 PUSH1 0x3 SSTORE PUSH2 0x1F4 PUSH1 0x4 DUP2 SWAP1 SSTORE PUSH1 0x5 SSTORE PUSH1 0x6 DUP1 SLOAD PUSH1 0x1 PUSH1 0x1 PUSH1 0xA0 SHL SUB NOT AND CALLER OR SWAP1 SSTORE PUSH2 0x214D SWAP1 DUP2 PUSH2 0x65 DUP3 CODECOPY RETURN JUMPDEST PUSH1 0x0 DUP1 REVERT INVALID PUSH1 0x80 PUSH1 0x40 DUP2 DUP2 MSTORE PUSH1 0x4 DUP1 CALLDATASIZE LT ISZERO PUSH2 0x15 JUMPI PUSH1 0x0 DUP1 REVERT JUMPDEST PUSH1 0x0 SWAP3 DUP4 CALLDATALOAD PUSH1 0xE0 SHR SWAP1 DUP2 PUSH4 0x1FCCF672 EQ PUSH2 0x1A1C JUMPI POP DUP1 PUSH4 0x2CF003C2 EQ PUSH2 0x19E1 JUMPI DUP1 PUSH4 0x2F4F21E2 EQ PUSH2 0x17E5 JUMPI DUP1 PUSH4 0x3CCFD60B EQ PUSH2 0x1640 JUMPI DUP1 PUSH4 0x3F4BA83A EQ PUSH2 0x15E6 JUMPI DUP1 PUSH4 0x3FBF422F EQ PUSH2 0x15C7 JUMPI DUP1 PUSH4 0x418F3128 EQ PUSH2 0x15A8 JUMPI DUP1 PUSH4 0x4C8530CE EQ PUSH2 0x158C JUMPI DUP1 PUSH4 0x51BEA8C3 EQ PUSH2 0x156F JUMPI DUP1 PUSH4 0x5264DAB0 EQ PUSH2 0x1552 JUMPI DUP1 PUSH4 0x546CEA86 EQ PUSH2 0x1536 JUMPI DUP1 PUSH4 0x54B1DE8F EQ PUSH2 0x14FD JUMPI DUP1 PUSH4 0x5C975ABB EQ PUSH2 0x14D6 JUMPI DUP1 PUSH4 0x60BD13D9 EQ PUSH2 0x14B7 JUMPI DUP1 PUSH4 0x66FC0127 EQ PUSH2 0x1498 JUMPI DUP1 PUSH4 0x6E553F65 EQ PUSH2 0x11A4 JUMPI DUP1 PUSH4 0x6F77926B EQ PUSH2 0x10B2 JUMPI DUP1 PUSH4 0x7289CCA6 EQ PUSH2 0xF0B JUMPI DUP1 PUSH4 0x75F4C059 EQ PUSH2 0xEEE JUMPI DUP1 PUSH4 0x79BA5097 EQ PUSH2 0xE7F JUMPI DUP1 PUSH4 0x82BBF60E EQ PUSH2 0xE3D JUMPI DUP1 PUSH4 0x8456CB59 EQ PUSH2 0xDDD JUMPI DUP1 PUSH4 0x8DA5CB5B EQ PUSH2 0xDB4 JUMPI DUP1 PUSH4 0x96365D44 EQ PUSH2 0x5E2 JUMPI DUP1 PUSH4 0x9B4B2C9C EQ PUSH2 0xCD5 JUMPI DUP1 PUSH4 0x9F147D00 EQ PUSH2 0xC9D JUMPI DUP1 PUSH4 0xA2724A4D EQ PUSH2 0xC7F JUMPI DUP1 PUSH4 0xA2C8B369 EQ PUSH2 0xC12 JUMPI DUP1 PUSH4 0xA34B46FE EQ PUSH2 0x91C JUMPI DUP1 PUSH4 0xA87430BA EQ PUSH2 0x87E JUMPI DUP1 PUSH4 0xAA0224FD EQ PUSH2 0x85B JUMPI DUP1 PUSH4 0xAF10BBCD EQ PUSH2 0x487 JUMPI DUP1 PUSH4 0xB09E603F EQ PUSH2 0x7DE JUMPI DUP1 PUSH4 0xB88A802F EQ PUSH2 0x601 JUMPI DUP1 PUSH4 0xBC2104D2 EQ PUSH2 0x5E2 JUMPI DUP1 PUSH4 0xC254DE88 EQ PUSH2 0x595 JUMPI DUP1 PUSH4 0xCD6C7873 EQ PUSH2 0x579 JUMPI DUP1 PUSH4 0xDA3A5F72 EQ PUSH2 0x48C JUMPI DUP1 PUSH4 0xDD5967C3 EQ PUSH2 0x487 JUMPI DUP1 PUSH4 0xE1E158A5 EQ PUSH2 0x466 JUMPI DUP1 PUSH4 0xE30C3978 EQ PUSH2 0x43D JUMPI DUP1 PUSH4 0xE4B2FB79 EQ PUSH2 0x3FA JUMPI DUP1 PUSH4 0xF2FDE38B EQ PUSH2 0x369 JUMPI DUP1 PUSH4 0xF67DED4E EQ PUSH2 0x34A JUMPI DUP1 PUSH4 0xF6CE9004 EQ PUSH2 0x30E JUMPI PUSH4 0xFF84A262 EQ PUSH2 0x21D JUMPI PUSH1 0x0 DUP1 REVERT JUMPDEST CALLVALUE PUSH2 0x30A JUMPI PUSH1 0x80 CALLDATASIZE PUSH1 0x3 NOT ADD SLT PUSH2 0x30A JUMPI PUSH1 0x6 SLOAD DUP2 CALLDATALOAD SWAP3 PUSH1 0x64 CALLDATALOAD SWAP3 PUSH1 0x44 CALLDATALOAD SWAP3 PUSH1 0x24 CALLDATALOAD SWAP2 SWAP1 PUSH1 0x1 PUSH1 0x1 PUSH1 0xA0 SHL SUB AND CALLER SUB PUSH2 0x2FD JUMPI DUP6 ISZERO DUP1 ISZERO PUSH2 0x2F3 JUMPI JUMPDEST DUP1 ISZERO PUSH2 0x2E9 JUMPI JUMPDEST DUP1 ISZERO PUSH2 0x2DF JUMPI JUMPDEST DUP1 ISZERO PUSH2 0x2CE JUMPI JUMPDEST PUSH2 0x2C0 JUMPI POP SWAP2 PUSH1 0x80 SWAP4 SWAP2 DUP6 SWAP4 PUSH32 0x7DDFF0131937DFB4362682C96132C768E4BCE6A574B2C4EBD904636975D99F15 SWAP7 DUP9 SSTORE DUP1 PUSH1 0x1 SSTORE DUP3 PUSH1 0x2 SSTORE DUP4 PUSH1 0x3 SSTORE DUP2 MLOAD SWAP5 DUP6 MSTORE PUSH1 0x20 DUP6 ADD MSTORE DUP4 ADD MSTORE PUSH1 0x60 DUP3 ADD MSTORE LOG1 DUP1 RETURN JUMPDEST DUP3 MLOAD PUSH4 0x36899EB PUSH1 0xE3 SHL DUP2 MSTORE REVERT JUMPDEST POP PUSH8 0xDE0B6B3A7640000 DUP6 GT PUSH2 0x26E JUMP JUMPDEST POP DUP4 DUP6 GT ISZERO PUSH2 0x267 JUMP JUMPDEST POP DUP2 DUP5 GT ISZERO PUSH2 0x260 JUMP JUMPDEST POP DUP6 DUP3 GT ISZERO PUSH2 0x259 JUMP JUMPDEST DUP3 MLOAD PUSH3 0x82B429 PUSH1 0xE8 SHL DUP2 MSTORE REVERT JUMPDEST DUP3 DUP1 REVERT JUMPDEST POP POP CALLVALUE PUSH2 0x346 JUMPI PUSH1 0x20 CALLDATASIZE PUSH1 0x3 NOT ADD SLT PUSH2 0x346 JUMPI PUSH1 0x20 SWAP2 DUP2 SWAP1 PUSH1 0x1 PUSH1 0x1 PUSH1 0xA0 SHL SUB PUSH2 0x336 PUSH2 0x1A4A JUMP JUMPDEST AND DUP2 MSTORE PUSH1 0xD DUP5 MSTORE KECCAK256 SLOAD SWAP1 MLOAD SWAP1 DUP2 MSTORE RETURN JUMPDEST POP DUP1 REVERT JUMPDEST POP POP CALLVALUE PUSH2 0x346 JUMPI DUP2 PUSH1 0x3 NOT CALLDATASIZE ADD SLT PUSH2 0x346 JUMPI PUSH1 0x20 SWAP1 PUSH1 0x2 SLOAD SWAP1 MLOAD SWAP1 DUP2 MSTORE RETURN JUMPDEST POP CALLVALUE PUSH2 0x30A JUMPI PUSH1 0x20 CALLDATASIZE PUSH1 0x3 NOT ADD SLT PUSH2 0x30A JUMPI PUSH2 0x383 PUSH2 0x1A4A JUMP JUMPDEST PUSH1 0x6 SLOAD PUSH1 0x1 PUSH1 0x1 PUSH1 0xA0 SHL SUB SWAP1 DUP2 AND SWAP3 SWAP2 CALLER DUP5 SWAP1 SUB PUSH2 0x3EB JUMPI AND SWAP3 DUP4 ISZERO PUSH2 0x3DE JUMPI POP POP PUSH1 0x7 DUP1 SLOAD PUSH1 0x1 PUSH1 0x1 PUSH1 0xA0 SHL SUB NOT AND DUP4 OR SWAP1 SSTORE PUSH32 0x38D16B8CAC22D99FC7C124B9CD0DE2D3FA1FAEF420BFE791D8C362D765E22700 DUP4 DUP1 LOG3 DUP1 RETURN JUMPDEST MLOAD PUSH4 0xE6C4247B PUSH1 0xE0 SHL DUP2 MSTORE REVERT JUMPDEST DUP5 MLOAD PUSH3 0x82B429 PUSH1 0xE8 SHL DUP2 MSTORE DUP4 SWAP1 REVERT JUMPDEST POP CALLVALUE PUSH2 0x30A JUMPI PUSH1 0x20 CALLDATASIZE PUSH1 0x3 NOT ADD SLT PUSH2 0x30A JUMPI CALLDATALOAD SWAP2 PUSH1 0xE SLOAD DUP4 LT ISZERO PUSH2 0x43A JUMPI POP PUSH2 0x424 PUSH1 0x20 SWAP3 PUSH2 0x1ADF JUMP JUMPDEST SWAP1 SLOAD SWAP2 MLOAD SWAP2 PUSH1 0x1 DUP1 PUSH1 0xA0 SHL SUB SWAP2 PUSH1 0x3 SHL SHR AND DUP2 MSTORE RETURN JUMPDEST DUP1 REVERT JUMPDEST POP POP CALLVALUE PUSH2 0x346 JUMPI DUP2 PUSH1 0x3 NOT CALLDATASIZE ADD SLT PUSH2 0x346 JUMPI PUSH1 0x7 SLOAD SWAP1 MLOAD PUSH1 0x1 PUSH1 0x1 PUSH1 0xA0 SHL SUB SWAP1 SWAP2 AND DUP2 MSTORE PUSH1 0x20 SWAP1 RETURN JUMPDEST POP POP CALLVALUE PUSH2 0x346 JUMPI DUP2 PUSH1 0x3 NOT CALLDATASIZE ADD SLT PUSH2 0x346 JUMPI PUSH1 0x20 SWAP1 MLOAD PUSH6 0x5AF3107A4000 DUP2 MSTORE RETURN JUMPDEST PUSH2 0x1ABC JUMP JUMPDEST POP SWAP1 CALLVALUE PUSH2 0x30A JUMPI PUSH1 0x20 CALLDATASIZE PUSH1 0x3 NOT ADD SLT PUSH2 0x30A JUMPI DUP1 MLOAD PUSH4 0x23B872DD PUSH1 0xE0 SHL DUP2 MSTORE CALLER DUP2 DUP5 ADD SWAP1 DUP2 MSTORE ADDRESS PUSH1 0x20 DUP3 DUP2 ADD SWAP2 SWAP1 SWAP2 MSTORE DUP5 CALLDATALOAD PUSH1 0x40 DUP4 ADD DUP2 SWAP1 MSTORE SWAP5 SWAP3 SWAP2 DUP3 SWAP1 DUP2 SWAP1 PUSH1 0x60 ADD SUB DUP2 DUP9 PUSH20 0x765DE816845861E75A25FCA122BB6898B8B1282A GAS CALL SWAP1 DUP2 ISZERO PUSH2 0x56F JUMPI DUP6 SWAP2 PUSH2 0x541 JUMPI JUMPDEST POP ISZERO PUSH2 0x533 JUMPI POP DUP2 PUSH1 0x8 SLOAD ADD PUSH1 0x8 SSTORE MLOAD SWAP1 DUP2 MSTORE PUSH32 0x32173D8E51CEC3A6FE484B7A1C3FEBE760CDF96E03D4CCA36A43563A4333E838 PUSH1 0x20 CALLER SWAP3 LOG2 DUP1 RETURN JUMPDEST SWAP1 MLOAD PUSH4 0x12171D83 PUSH1 0xE3 SHL DUP2 MSTORE REVERT JUMPDEST PUSH2 0x562 SWAP2 POP PUSH1 0x20 RETURNDATASIZE DUP2 GT PUSH2 0x568 JUMPI JUMPDEST PUSH2 0x55A DUP2 DUP4 PUSH2 0x1B2C JUMP JUMPDEST DUP2 ADD SWAP1 PUSH2 0x1B64 JUMP JUMPDEST CODESIZE PUSH2 0x4F7 JUMP JUMPDEST POP RETURNDATASIZE PUSH2 0x550 JUMP JUMPDEST DUP4 MLOAD RETURNDATASIZE DUP8 DUP3 RETURNDATACOPY RETURNDATASIZE SWAP1 REVERT JUMPDEST POP POP CALLVALUE PUSH2 0x346 JUMPI DUP2 PUSH1 0x3 NOT CALLDATASIZE ADD SLT PUSH2 0x346 JUMPI PUSH1 0x20 SWAP1 MLOAD PUSH1 0x32 DUP2 MSTORE RETURN JUMPDEST POP POP CALLVALUE PUSH2 0x346 JUMPI PUSH1 0x20 CALLDATASIZE PUSH1 0x3 NOT ADD SLT PUSH2 0x346 JUMPI PUSH2 0x5E0 PUSH2 0x5D7 PUSH4 0xFFFFFFFF DUP4 PUSH1 0x20 SWAP6 PUSH1 0x1 DUP1 PUSH1 0xA0 SHL SUB PUSH2 0x5C6 PUSH2 0x1A4A JUMP JUMPDEST AND DUP2 MSTORE PUSH1 0x9 DUP8 MSTORE KECCAK256 SLOAD DUP6 SHR AND PUSH2 0x2073 JUMP JUMPDEST SWAP2 MLOAD DUP1 SWAP3 PUSH2 0x1A65 JUMP JUMPDEST RETURN JUMPDEST POP POP CALLVALUE PUSH2 0x346 JUMPI DUP2 PUSH1 0x3 NOT CALLDATASIZE ADD SLT PUSH2 0x346 JUMPI PUSH1 0x20 SWAP1 PUSH1 0x8 SLOAD SWAP1 MLOAD SWAP1 DUP2 MSTORE RETURN JUMPDEST POP CALLVALUE PUSH2 0x30A JUMPI DUP3 PUSH1 0x3 NOT CALLDATASIZE ADD SLT PUSH2 0x30A JUMPI PUSH1 0xFF PUSH1 0x7 SLOAD PUSH1 0xA0 SHR AND PUSH2 0x7D0 JUMPI CALLER DUP4 MSTORE PUSH1 0x9 PUSH1 0x20 MSTORE DUP2 DUP4 KECCAK256 SWAP2 DUP3 SLOAD SWAP2 PUSH4 0xFFFFFFFF SWAP4 DUP5 DUP5 AND SWAP5 PUSH1 0x7 DUP7 LT DUP1 ISZERO PUSH2 0x7C4 JUMPI JUMPDEST PUSH2 0x7B4 JUMPI DUP5 DUP5 SHR AND DUP6 GT ISZERO PUSH2 0x7A5 JUMPI PUSH2 0x65B DUP6 PUSH2 0x2039 JUMP JUMPDEST SWAP4 DUP5 PUSH1 0x8 SLOAD LT PUSH2 0x795 JUMPI PUSH12 0xFFFFFFFF0000000000000000 NOT DUP2 AND SWAP1 DUP5 SHL PUSH12 0xFFFFFFFF0000000000000000 AND OR DUP1 DUP3 SSTORE PUSH1 0xB0 SHR PUSH1 0xFF AND SWAP1 PUSH1 0x3 DUP3 LT PUSH2 0x770 JUMPI JUMPDEST POP POP PUSH1 0x8 DUP1 SLOAD DUP5 SWAP1 SUB SWAP1 SSTORE CALLER DUP1 DUP7 MSTORE PUSH1 0xD PUSH1 0x20 SWAP1 DUP2 MSTORE DUP4 DUP8 KECCAK256 DUP1 SLOAD DUP7 ADD SWAP1 SSTORE DUP4 MLOAD PUSH4 0xA9059CBB PUSH1 0xE0 SHL DUP2 MSTORE DUP4 DUP2 ADD SWAP3 DUP4 MSTORE DUP3 DUP3 ADD DUP7 SWAP1 MSTORE SWAP2 DUP3 SWAP1 DUP2 SWAP1 PUSH1 0x40 ADD SUB DUP2 DUP10 PUSH20 0x765DE816845861E75A25FCA122BB6898B8B1282A GAS CALL SWAP1 DUP2 ISZERO PUSH2 0x766 JUMPI DUP7 SWAP2 PUSH2 0x748 JUMPI JUMPDEST POP ISZERO PUSH2 0x533 JUMPI POP MLOAD PUSH4 0xFFFFFFFF SWAP1 SWAP3 AND DUP3 MSTORE PUSH1 0x20 DUP3 ADD MSTORE CALLER SWAP1 PUSH32 0xD26A00DFD91636328B46A49A079C1612A57C89258F2FEA78C7469EC0B5F8047 SWAP1 DUP1 PUSH1 0x40 DUP2 ADD JUMPDEST SUB SWAP1 LOG2 DUP1 RETURN JUMPDEST PUSH2 0x760 SWAP2 POP PUSH1 0x20 RETURNDATASIZE DUP2 GT PUSH2 0x568 JUMPI PUSH2 0x55A DUP2 DUP4 PUSH2 0x1B2C JUMP JUMPDEST CODESIZE PUSH2 0x701 JUMP JUMPDEST DUP4 MLOAD RETURNDATASIZE DUP9 DUP3 RETURNDATACOPY RETURNDATASIZE SWAP1 REVERT JUMPDEST DUP1 SLOAD PUSH1 0xFF PUSH1 0xB0 SHL NOT AND PUSH1 0x1 SWAP3 SWAP1 SWAP3 ADD PUSH1 0xB0 SHL PUSH1 0xFF PUSH1 0xB0 SHL AND SWAP2 SWAP1 SWAP2 OR SWAP1 SSTORE CODESIZE DUP1 PUSH2 0x69A JUMP JUMPDEST DUP4 MLOAD PUSH4 0x5CE024D PUSH1 0xE5 SHL DUP2 MSTORE DUP4 SWAP1 REVERT JUMPDEST POP SWAP1 MLOAD PUSH4 0xC8D9EAB PUSH1 0xE3 SHL DUP2 MSTORE REVERT JUMPDEST DUP4 MLOAD PUSH4 0x2E6D9AFF PUSH1 0xE0 SHL DUP2 MSTORE DUP4 SWAP1 REVERT JUMPDEST POP PUSH1 0x7 DUP7 MOD ISZERO ISZERO PUSH2 0x643 JUMP JUMPDEST SWAP1 MLOAD PUSH4 0x13D0FF59 PUSH1 0xE3 SHL DUP2 MSTORE REVERT JUMPDEST POP CALLVALUE PUSH2 0x30A JUMPI PUSH1 0x20 CALLDATASIZE PUSH1 0x3 NOT ADD SLT PUSH2 0x30A JUMPI PUSH1 0x6 SLOAD DUP2 CALLDATALOAD SWAP3 SWAP1 PUSH1 0x1 PUSH1 0x1 PUSH1 0xA0 SHL SUB AND CALLER SUB PUSH2 0x84F JUMPI PUSH2 0x3E8 DUP4 GT PUSH2 0x842 JUMPI PUSH31 0x6D2AB5E2E5F0FD1D9BF29D6F60AE957400958EBAE002A5F2D361A417993CD4 SWAP1 DUP3 SLOAD DUP2 MLOAD SWAP1 DUP2 MSTORE DUP5 PUSH1 0x20 DUP3 ADD MSTORE LOG1 SSTORE DUP1 RETURN JUMPDEST MLOAD PUSH4 0x63941FF PUSH1 0xE3 SHL DUP2 MSTORE REVERT JUMPDEST MLOAD PUSH3 0x82B429 PUSH1 0xE8 SHL DUP2 MSTORE REVERT JUMPDEST POP POP CALLVALUE PUSH2 0x346 JUMPI DUP2 PUSH1 0x3 NOT CALLDATASIZE ADD SLT PUSH2 0x346 JUMPI PUSH1 0x20 SWAP1 MLOAD PUSH8 0x16345785D8A0000 DUP2 MSTORE RETURN JUMPDEST POP POP CALLVALUE PUSH2 0x346 JUMPI PUSH1 0x20 CALLDATASIZE PUSH1 0x3 NOT ADD SLT PUSH2 0x346 JUMPI PUSH2 0x100 SWAP2 DUP2 SWAP1 PUSH1 0x1 PUSH1 0x1 PUSH1 0xA0 SHL SUB PUSH2 0x8A7 PUSH2 0x1A4A JUMP JUMPDEST AND DUP2 MSTORE PUSH1 0x9 PUSH1 0x20 MSTORE KECCAK256 PUSH1 0xFF PUSH1 0x1 PUSH1 0x1 PUSH1 0x80 SHL SUB PUSH1 0x1 DUP4 SLOAD SWAP4 ADD SLOAD AND SWAP2 DUP4 MLOAD SWAP4 PUSH4 0xFFFFFFFF SWAP1 DUP2 DUP4 AND DUP7 MSTORE DUP2 DUP4 PUSH1 0x20 SHR AND PUSH1 0x20 DUP8 ADD MSTORE DUP2 DUP4 DUP3 SHR AND SWAP1 DUP7 ADD MSTORE DUP2 PUSH1 0x60 SHR AND PUSH1 0x60 DUP6 ADD MSTORE PUSH5 0xFFFFFFFFFF DUP2 PUSH1 0x80 SHR AND PUSH1 0x80 DUP6 ADD MSTORE DUP2 DUP2 PUSH1 0xA8 SHR AND ISZERO ISZERO PUSH1 0xA0 DUP6 ADD MSTORE PUSH1 0xB0 SHR AND PUSH1 0xC0 DUP4 ADD MSTORE PUSH1 0xE0 DUP3 ADD MSTORE RETURN JUMPDEST POP SWAP2 SWAP1 CALLVALUE PUSH2 0x346 JUMPI PUSH1 0x20 DUP1 PUSH1 0x3 NOT CALLDATASIZE ADD SLT PUSH2 0x30A JUMPI DUP4 CALLDATALOAD SWAP4 PUSH1 0xE SLOAD PUSH1 0xC8 DUP2 LT PUSH1 0x0 EQ PUSH2 0xC09 JUMPI SWAP5 JUMPDEST DUP1 DUP7 LT ISZERO PUSH2 0xC04 JUMPI POP DUP5 JUMPDEST PUSH2 0x958 DUP7 PUSH2 0x20D1 JUMP JUMPDEST SWAP1 PUSH2 0x962 DUP8 PUSH2 0x20D1 JUMP JUMPDEST SWAP7 PUSH2 0x96C DUP2 PUSH2 0x20D1 JUMP JUMPDEST SWAP4 DUP7 DUP9 JUMPDEST DUP8 DUP11 DUP13 DUP9 DUP8 DUP6 LT PUSH2 0xB8B JUMPI POP POP SWAP3 POP POP POP POP DUP8 JUMPDEST DUP4 DUP2 LT PUSH2 0xA8A JUMPI POP POP DUP2 SUB PUSH2 0x9FE JUMPI POP SWAP5 SWAP1 SWAP2 JUMPDEST DUP4 MLOAD SWAP5 PUSH1 0x60 DUP7 ADD PUSH1 0x60 DUP8 MSTORE DUP8 MLOAD DUP1 SWAP2 MSTORE DUP3 PUSH1 0x80 DUP9 ADD SWAP9 ADD SWAP2 JUMPDEST DUP2 DUP2 LT PUSH2 0x9E1 JUMPI DUP8 DUP10 SUB DUP5 DUP10 ADD MSTORE DUP8 DUP1 PUSH2 0x9DD DUP10 DUP10 PUSH2 0x9D0 DUP15 DUP12 PUSH2 0x1A88 JUMP JUMPDEST SWAP2 DUP5 DUP4 SUB SWAP1 DUP6 ADD MSTORE PUSH2 0x1A88 JUMP JUMPDEST SUB SWAP1 RETURN JUMPDEST DUP3 MLOAD PUSH1 0x1 PUSH1 0x1 PUSH1 0xA0 SHL SUB AND DUP10 MSTORE SWAP8 DUP4 ADD SWAP8 SWAP2 DUP4 ADD SWAP2 PUSH1 0x1 ADD PUSH2 0x9B1 JUMP JUMPDEST PUSH2 0xA0D DUP2 SWAP8 SWAP4 SWAP8 SWAP5 SWAP3 SWAP5 PUSH2 0x20D1 JUMP JUMPDEST SWAP7 PUSH2 0xA17 DUP3 PUSH2 0x20D1 JUMP JUMPDEST SWAP4 PUSH2 0xA21 DUP4 PUSH2 0x20D1 JUMP JUMPDEST SWAP6 DUP9 JUMPDEST DUP5 DUP2 LT PUSH2 0xA35 JUMPI POP POP POP POP POP PUSH2 0x998 JUMP JUMPDEST PUSH1 0x1 SWAP1 DUP12 PUSH2 0xA57 DUP3 PUSH1 0x1 PUSH1 0x1 PUSH1 0xA0 SHL SUB PUSH2 0xA4F DUP3 DUP9 PUSH2 0x2103 JUMP JUMPDEST MLOAD AND SWAP3 PUSH2 0x2103 JUMP JUMPDEST MSTORE PUSH2 0xA62 DUP2 DUP6 PUSH2 0x2103 JUMP JUMPDEST MLOAD PUSH2 0xA6D DUP3 DUP11 PUSH2 0x2103 JUMP JUMPDEST MSTORE PUSH2 0xA78 DUP2 DUP7 PUSH2 0x2103 JUMP JUMPDEST MLOAD PUSH2 0xA83 DUP3 DUP12 PUSH2 0x2103 JUMP JUMPDEST MSTORE ADD PUSH2 0xA24 JUMP JUMPDEST DUP1 PUSH1 0x1 SWAP2 DUP3 DUP2 ADD SWAP3 DUP4 DUP3 GT PUSH2 0xB78 JUMPI DUP4 JUMPDEST DUP7 DUP2 LT PUSH2 0xB4C JUMPI POP POP DUP1 DUP3 SUB PUSH2 0xAB3 JUMPI JUMPDEST POP POP PUSH2 0x984 JUMP JUMPDEST PUSH2 0xB44 SWAP1 PUSH1 0x1 PUSH1 0x1 PUSH1 0xA0 SHL SUB DUP1 PUSH2 0xACA DUP6 DUP12 PUSH2 0x2103 JUMP JUMPDEST MLOAD AND SWAP1 PUSH2 0xAD7 DUP4 DUP12 PUSH2 0x2103 JUMP JUMPDEST MLOAD AND PUSH2 0xAE3 DUP6 DUP12 PUSH2 0x2103 JUMP JUMPDEST MSTORE PUSH2 0xAEE DUP3 DUP11 PUSH2 0x2103 JUMP JUMPDEST MSTORE DUP13 PUSH2 0xB1B DUP3 PUSH2 0xAFE DUP7 DUP5 PUSH2 0x2103 JUMP JUMPDEST MLOAD SWAP3 PUSH2 0xB0A DUP3 DUP3 PUSH2 0x2103 JUMP JUMPDEST MLOAD PUSH2 0xB15 DUP9 DUP4 PUSH2 0x2103 JUMP JUMPDEST MSTORE PUSH2 0x2103 JUMP JUMPDEST MSTORE PUSH2 0xB26 DUP4 DUP11 PUSH2 0x2103 JUMP JUMPDEST MLOAD SWAP3 PUSH2 0xB3D PUSH2 0xB35 DUP4 DUP13 PUSH2 0x2103 JUMP JUMPDEST MLOAD SWAP2 DUP12 PUSH2 0x2103 JUMP JUMPDEST MSTORE DUP9 PUSH2 0x2103 JUMP JUMPDEST MSTORE CODESIZE DUP1 PUSH2 0xAAC JUMP JUMPDEST DUP14 PUSH2 0xB62 DUP6 PUSH2 0xB5B DUP5 DUP5 PUSH2 0x2103 JUMP JUMPDEST MLOAD SWAP3 PUSH2 0x2103 JUMP JUMPDEST MLOAD LT PUSH2 0xB70 JUMPI JUMPDEST DUP2 ADD PUSH2 0xA9B JUMP JUMPDEST SWAP3 POP DUP3 PUSH2 0xB69 JUMP JUMPDEST PUSH4 0x4E487B71 PUSH1 0xE0 SHL DUP13 MSTORE PUSH1 0x11 DUP6 MSTORE PUSH1 0x24 DUP13 REVERT JUMPDEST DUP5 PUSH4 0xFFFFFFFF PUSH1 0x1 SWAP8 PUSH2 0xB9D DUP4 PUSH2 0x1ADF JUMP JUMPDEST DUP11 DUP1 PUSH1 0xA0 SHL SUB SWAP2 SLOAD SWAP1 PUSH1 0x3 SHL SHR AND SWAP6 DUP7 DUP2 MSTORE PUSH1 0x9 DUP1 SWAP9 MSTORE KECCAK256 SLOAD AND SWAP3 DUP4 PUSH2 0xBCC JUMPI JUMPDEST POP POP POP POP POP POP ADD DUP8 SWAP1 PUSH2 0x970 JUMP JUMPDEST DUP5 PUSH2 0xB15 DUP4 PUSH2 0xBDA SWAP6 PUSH2 0x2103 JUMP JUMPDEST MSTORE DUP12 MSTORE DUP9 MSTORE PUSH1 0x1 PUSH1 0x1 PUSH1 0x80 SHL SUB DUP3 DUP11 DUP13 KECCAK256 ADD SLOAD AND PUSH2 0xBF8 DUP3 DUP10 PUSH2 0x2103 JUMP JUMPDEST MSTORE CODESIZE DUP1 DUP1 DUP9 DUP5 DUP16 PUSH2 0xBBE JUMP JUMPDEST PUSH2 0x94F JUMP JUMPDEST POP PUSH1 0xC8 SWAP5 PUSH2 0x944 JUMP JUMPDEST POP CALLVALUE PUSH2 0x30A JUMPI PUSH1 0x20 CALLDATASIZE PUSH1 0x3 NOT ADD SLT PUSH2 0x30A JUMPI CALLDATALOAD SWAP1 PUSH1 0x1 PUSH1 0x1 PUSH1 0x80 SHL SUB DUP3 AND DUP1 SWAP3 SUB PUSH2 0x30A JUMPI CALLER DUP4 MSTORE PUSH1 0xC PUSH1 0x20 MSTORE DUP1 DUP4 KECCAK256 DUP3 PUSH1 0x1 PUSH1 0x1 PUSH1 0x80 SHL SUB NOT DUP3 SLOAD AND OR SWAP1 SSTORE MLOAD SWAP1 DUP2 MSTORE PUSH32 0xD576BC64B95E6BBDB657E504FCDADEB74867D950336FD046ADDD6DB94933AB0D PUSH1 0x20 CALLER SWAP3 LOG2 DUP1 RETURN JUMPDEST POP POP CALLVALUE PUSH2 0x346 JUMPI DUP2 PUSH1 0x3 NOT CALLDATASIZE ADD SLT PUSH2 0x346 JUMPI PUSH1 0x20 SWAP1 MLOAD PUSH3 0x11940 DUP2 MSTORE RETURN JUMPDEST POP POP CALLVALUE PUSH2 0x346 JUMPI PUSH1 0x20 CALLDATASIZE PUSH1 0x3 NOT ADD SLT PUSH2 0x346 JUMPI PUSH1 0x20 SWAP2 DUP2 SWAP1 PUSH1 0x1 PUSH1 0x1 PUSH1 0xA0 SHL SUB PUSH2 0xCC5 PUSH2 0x1A4A JUMP JUMPDEST AND DUP2 MSTORE PUSH1 0xB DUP5 MSTORE KECCAK256 SLOAD SWAP1 MLOAD SWAP1 DUP2 MSTORE RETURN JUMPDEST POP SWAP1 CALLVALUE PUSH2 0x30A JUMPI DUP3 PUSH1 0x3 NOT CALLDATASIZE ADD SLT PUSH2 0x30A JUMPI CALLER DUP4 MSTORE PUSH1 0x20 SWAP1 PUSH1 0xB DUP3 MSTORE DUP1 DUP5 KECCAK256 SLOAD SWAP3 DUP4 ISZERO PUSH2 0xDA6 JUMPI CALLER DUP1 DUP7 MSTORE PUSH1 0xB DUP5 MSTORE DUP3 DUP7 KECCAK256 DUP7 SWAP1 SSTORE DUP3 MLOAD PUSH4 0xA9059CBB PUSH1 0xE0 SHL DUP2 MSTORE DUP3 DUP2 ADD SWAP2 DUP3 MSTORE PUSH1 0x20 DUP3 ADD DUP7 SWAP1 MSTORE SWAP1 DUP5 SWAP1 DUP3 SWAP1 DUP2 SWAP1 PUSH1 0x40 ADD SUB DUP2 DUP10 PUSH20 0x765DE816845861E75A25FCA122BB6898B8B1282A GAS CALL SWAP1 DUP2 ISZERO PUSH2 0x766 JUMPI DUP7 SWAP2 PUSH2 0xD89 JUMPI JUMPDEST POP ISZERO PUSH2 0x533 JUMPI POP SWAP1 PUSH32 0x5BE4D22009FEA85381595ED91090BC5C0BC92A93FE07ED7472C5888EB1993F83 SWAP2 MLOAD SWAP3 DUP4 MSTORE CALLER SWAP3 LOG2 DUP1 RETURN JUMPDEST PUSH2 0xDA0 SWAP2 POP DUP5 RETURNDATASIZE DUP7 GT PUSH2 0x568 JUMPI PUSH2 0x55A DUP2 DUP4 PUSH2 0x1B2C JUMP JUMPDEST CODESIZE PUSH2 0xD55 JUMP JUMPDEST SWAP1 MLOAD PUSH4 0x686827B PUSH1 0xE5 SHL DUP2 MSTORE REVERT JUMPDEST POP POP CALLVALUE PUSH2 0x346 JUMPI DUP2 PUSH1 0x3 NOT CALLDATASIZE ADD SLT PUSH2 0x346 JUMPI PUSH1 0x6 SLOAD SWAP1 MLOAD PUSH1 0x1 PUSH1 0x1 PUSH1 0xA0 SHL SUB SWAP1 SWAP2 AND DUP2 MSTORE PUSH1 0x20 SWAP1 RETURN JUMPDEST POP SWAP1 CALLVALUE PUSH2 0x30A JUMPI DUP3 PUSH1 0x3 NOT CALLDATASIZE ADD SLT PUSH2 0x30A JUMPI PUSH1 0x6 SLOAD PUSH1 0x1 PUSH1 0x1 PUSH1 0xA0 SHL SUB AND CALLER SUB PUSH2 0x84F JUMPI PUSH1 0x7 DUP1 SLOAD PUSH1 0xFF PUSH1 0xA0 SHL NOT AND PUSH1 0x1 PUSH1 0xA0 SHL OR SWAP1 SSTORE DUP3 CALLER PUSH32 0x81990FD9A5C552B8E3677917D8A03C07678F0D2CB68F88B634ACA2022E9BD19F DUP3 DUP1 LOG2 DUP1 RETURN JUMPDEST POP POP CALLVALUE PUSH2 0x346 JUMPI PUSH1 0x20 CALLDATASIZE PUSH1 0x3 NOT ADD SLT PUSH2 0x346 JUMPI PUSH1 0x20 SWAP2 PUSH1 0x1 PUSH1 0x1 PUSH1 0x80 SHL SUB SWAP1 DUP3 SWAP1 PUSH1 0x1 PUSH1 0x1 PUSH1 0xA0 SHL SUB PUSH2 0xE6E PUSH2 0x1A4A JUMP JUMPDEST AND DUP2 MSTORE PUSH1 0xC DUP6 MSTORE KECCAK256 SLOAD AND SWAP1 MLOAD SWAP1 DUP2 MSTORE RETURN JUMPDEST POP CALLVALUE PUSH2 0x30A JUMPI DUP3 PUSH1 0x3 NOT CALLDATASIZE ADD SLT PUSH2 0x30A JUMPI PUSH1 0x7 SLOAD PUSH1 0x1 PUSH1 0x1 PUSH1 0xA0 SHL SUB SWAP3 SWAP1 SWAP2 SWAP1 DUP4 DUP4 AND CALLER SUB PUSH2 0x84F JUMPI POP POP PUSH1 0x6 SLOAD SWAP2 CALLER SWAP1 DUP4 AND PUSH32 0x8BE0079C531659141344CD1FD0A4F28419497F9722A3DAAFE3B4186F6B6457E0 DUP6 DUP1 LOG3 PUSH1 0x1 PUSH1 0x1 PUSH1 0xA0 SHL SUB NOT SWAP2 DUP3 AND CALLER OR PUSH1 0x6 SSTORE AND PUSH1 0x7 SSTORE DUP1 RETURN JUMPDEST POP CALLVALUE PUSH2 0x30A JUMPI DUP3 PUSH1 0x3 NOT CALLDATASIZE ADD SLT PUSH2 0x30A JUMPI PUSH1 0x20 SWAP3 POP SLOAD SWAP1 MLOAD SWAP1 DUP2 MSTORE RETURN JUMPDEST POP SWAP1 CALLVALUE PUSH2 0x30A JUMPI DUP3 PUSH1 0x3 NOT CALLDATASIZE ADD SLT PUSH2 0x30A JUMPI PUSH1 0xFF PUSH1 0x7 SLOAD PUSH1 0xA0 SHR AND PUSH2 0x10A5 JUMPI CALLER DUP4 MSTORE PUSH1 0x9 PUSH1 0x20 MSTORE DUP1 DUP4 KECCAK256 SWAP1 DUP2 SLOAD SWAP2 PUSH4 0xFFFFFFFF SWAP4 DUP5 DUP5 PUSH1 0x60 SHR AND SWAP5 DUP6 ISZERO SWAP1 DUP2 SWAP6 DUP3 ISZERO PUSH2 0x1099 JUMPI JUMPDEST POP POP PUSH2 0x108B JUMPI PUSH6 0x5AF3107A4000 SWAP4 DUP5 DUP7 MUL SWAP5 DUP7 DUP7 DIV EQ OR ISZERO PUSH2 0x1078 JUMPI PUSH8 0x16345785D8A0000 DUP1 DUP6 GT PUSH2 0x1070 JUMPI JUMPDEST POP DUP3 MLOAD PUSH4 0x23B872DD PUSH1 0xE0 SHL DUP2 MSTORE CALLER DUP3 DUP3 ADD SWAP1 DUP2 MSTORE ADDRESS PUSH1 0x20 DUP3 DUP2 ADD SWAP2 SWAP1 SWAP2 MSTORE PUSH1 0x40 DUP3 ADD DUP8 SWAP1 MSTORE SWAP1 DUP3 SWAP1 DUP2 SWAP1 PUSH1 0x60 ADD SUB DUP2 DUP11 PUSH20 0x765DE816845861E75A25FCA122BB6898B8B1282A GAS CALL SWAP1 DUP2 ISZERO PUSH2 0x1066 JUMPI DUP8 SWAP2 PUSH2 0x1048 JUMPI JUMPDEST POP ISZERO PUSH2 0x103A JUMPI POP DUP1 SLOAD PUSH16 0xFFFFFFFF0000000000000000FFFFFFFF NOT AND DUP5 OR SWAP1 SSTORE PUSH1 0x8 DUP1 SLOAD DUP4 ADD SWAP1 SSTORE MLOAD PUSH4 0xFFFFFFFF SWAP1 SWAP3 AND DUP3 MSTORE PUSH1 0x20 DUP3 ADD MSTORE CALLER SWAP1 PUSH32 0xC428C32598BFE7863DE948CB3B5FFB667A08521AC39C31A674722457E9800B6E SWAP1 DUP1 PUSH1 0x40 DUP2 ADD PUSH2 0x742 JUMP JUMPDEST DUP3 MLOAD PUSH4 0x12171D83 PUSH1 0xE3 SHL DUP2 MSTORE REVERT JUMPDEST PUSH2 0x1060 SWAP2 POP PUSH1 0x20 RETURNDATASIZE DUP2 GT PUSH2 0x568 JUMPI PUSH2 0x55A DUP2 DUP4 PUSH2 0x1B2C JUMP JUMPDEST CODESIZE PUSH2 0xFD4 JUMP JUMPDEST DUP5 MLOAD RETURNDATASIZE DUP10 DUP3 RETURNDATACOPY RETURNDATASIZE SWAP1 REVERT JUMPDEST SWAP4 POP CODESIZE PUSH2 0xF7F JUMP JUMPDEST PUSH4 0x4E487B71 PUSH1 0xE0 SHL DUP7 MSTORE PUSH1 0x11 SWAP1 MSTORE PUSH1 0x24 DUP6 REVERT JUMPDEST DUP3 MLOAD PUSH4 0x1F309D37 PUSH1 0xE2 SHL DUP2 MSTORE REVERT JUMPDEST AND ISZERO ISZERO SWAP1 POP CODESIZE DUP1 PUSH2 0xF52 JUMP JUMPDEST MLOAD PUSH4 0x13D0FF59 PUSH1 0xE3 SHL DUP2 MSTORE REVERT JUMPDEST POP DUP3 CALLVALUE PUSH2 0x43A JUMPI PUSH1 0x20 CALLDATASIZE PUSH1 0x3 NOT ADD SLT PUSH2 0x43A JUMPI PUSH1 0x1 PUSH1 0x1 PUSH1 0xA0 SHL SUB PUSH2 0x10D5 PUSH2 0x1A4A JUMP JUMPDEST AND SWAP2 DUP3 DUP3 MSTORE PUSH1 0x9 PUSH1 0x20 MSTORE DUP4 DUP3 KECCAK256 SWAP4 DUP5 SLOAD SWAP2 PUSH5 0xFFFFFFFFFF PUSH1 0x1 PUSH1 0x1 PUSH1 0x80 SHL SUB PUSH1 0x1 DUP3 DUP7 PUSH1 0x80 SHR AND SWAP9 ADD SLOAD AND SWAP5 PUSH4 0xFFFFFFFF SWAP6 DUP7 DUP7 PUSH1 0x20 SHR AND SWAP2 PUSH3 0x11940 DUP11 ADD SWAP5 DUP6 DUP12 GT PUSH2 0x1191 JUMPI POP SWAP6 DUP6 PUSH2 0x140 SWAP10 SWAP6 DUP10 SWAP6 DUP6 PUSH1 0x20 SWAP12 SWAP6 PUSH2 0x1189 SWAP11 DUP16 SWAP13 PUSH2 0x113B DUP9 SWAP11 PUSH2 0x2073 JUMP JUMPDEST SWAP12 DUP2 MSTORE PUSH1 0xD DUP16 MSTORE KECCAK256 SLOAD SWAP12 DUP6 MLOAD SWAP14 DUP15 DUP10 DUP10 AND DUP2 MSTORE ADD MSTORE DUP5 DUP14 ADD MSTORE PUSH1 0x60 DUP13 ADD MSTORE TIMESTAMP AND LT ISZERO PUSH1 0x80 DUP11 ADD MSTORE SHR AND PUSH1 0xA0 DUP8 ADD MSTORE PUSH1 0xFF DUP2 PUSH1 0xB0 SHR AND PUSH1 0xC0 DUP8 ADD MSTORE PUSH1 0x60 SHR AND PUSH1 0xE0 DUP6 ADD MSTORE PUSH2 0x100 DUP5 ADD SWAP1 PUSH2 0x1A65 JUMP JUMPDEST PUSH2 0x120 DUP3 ADD MSTORE RETURN JUMPDEST PUSH4 0x4E487B71 PUSH1 0xE0 SHL DUP3 MSTORE PUSH1 0x11 SWAP1 MSTORE PUSH1 0x24 SWAP1 REVERT JUMPDEST POP CALLVALUE PUSH2 0x30A JUMPI DUP2 PUSH1 0x3 NOT CALLDATASIZE ADD SLT PUSH2 0x30A JUMPI PUSH1 0x1 PUSH1 0x1 PUSH1 0xA0 SHL SUB PUSH1 0x24 CALLDATALOAD DUP2 DUP2 AND SWAP3 DUP1 CALLDATALOAD SWAP2 DUP5 SWAP1 SUB PUSH2 0x1494 JUMPI PUSH1 0xFF PUSH1 0x7 SLOAD PUSH1 0xA0 SHR AND PUSH2 0x1486 JUMPI PUSH6 0x5AF3107A4000 DUP3 LT DUP1 ISZERO PUSH2 0x1475 JUMPI JUMPDEST PUSH2 0x1467 JUMPI CALLER DUP7 MSTORE PUSH1 0x20 SWAP2 PUSH1 0x9 DUP4 MSTORE DUP6 DUP8 KECCAK256 SWAP4 PUSH5 0xFFFFFFFFFF SWAP6 DUP7 TIMESTAMP AND SWAP7 DUP7 SLOAD SWAP1 DUP2 PUSH1 0x80 SHR AND PUSH3 0x11940 DUP2 ADD DUP1 SWAP2 GT PUSH2 0x1454 JUMPI DUP9 LT PUSH2 0x1444 JUMPI PUSH1 0xA8 SHR PUSH1 0xFF AND ISZERO SWAP1 DUP2 DUP1 PUSH2 0x143B JUMPI JUMPDEST DUP1 PUSH2 0x1431 JUMPI JUMPDEST DUP1 PUSH2 0x141B JUMPI JUMPDEST PUSH2 0x13FA JUMPI JUMPDEST POP DUP8 MLOAD PUSH4 0x23B872DD PUSH1 0xE0 SHL DUP2 MSTORE CALLER DUP6 DUP3 ADD SWAP1 DUP2 MSTORE ADDRESS PUSH1 0x20 DUP3 ADD MSTORE PUSH1 0x40 DUP2 ADD DUP6 SWAP1 MSTORE DUP7 SWAP1 DUP3 SWAP1 DUP2 SWAP1 PUSH1 0x60 ADD SUB DUP2 DUP14 PUSH20 0x765DE816845861E75A25FCA122BB6898B8B1282A GAS CALL SWAP1 DUP2 ISZERO PUSH2 0x13F0 JUMPI DUP11 SWAP2 PUSH2 0x13D3 JUMPI JUMPDEST POP ISZERO PUSH2 0x13C3 JUMPI SWAP3 DUP3 DUP8 SWAP6 SWAP3 PUSH4 0xFFFFFFFF SWAP6 PUSH2 0x12D6 PUSH32 0x1091413AC916D6D977BA19245BE465E86C3DFD74CC7C9903AF6856D3E3668E55 SWAP11 PUSH2 0x742 SWAP11 SWAP8 CALLER PUSH2 0x1BB2 JUMP JUMPDEST PUSH2 0x1308 JUMPI JUMPDEST POP POP POP POP SLOAD AND SWAP4 MLOAD SWAP2 DUP3 SWAP2 CALLER SWAP6 DUP4 SWAP1 SWAP3 SWAP2 PUSH5 0xFFFFFFFFFF PUSH1 0x20 SWAP2 PUSH4 0xFFFFFFFF PUSH1 0x40 DUP6 ADD SWAP7 AND DUP5 MSTORE AND SWAP2 ADD MSTORE JUMP JUMPDEST CALLER DUP12 MSTORE PUSH1 0xA DUP5 MSTORE DUP10 DUP12 KECCAK256 SLOAD AND SWAP2 SLOAD SWAP1 DUP3 ISZERO ISZERO DUP1 PUSH2 0x13BA JUMPI JUMPDEST ISZERO PUSH2 0x12DB JUMPI PUSH2 0x2710 SWAP2 PUSH2 0x1332 SWAP2 PUSH2 0x1B7C JUMP JUMPDEST PUSH1 0x8 SLOAD SWAP2 SWAP1 DIV SWAP3 DUP4 DUP1 DUP4 LT PUSH2 0x1389 JUMPI PUSH32 0x9E2C5F94B327DF7A7EA63D4C940CF9ABF3D51452D7A5ACA95B6140CE2C823EF2 SWAP3 SUB PUSH1 0x8 SSTORE DUP3 DUP12 MSTORE PUSH1 0xB DUP2 MSTORE DUP10 DUP12 KECCAK256 DUP5 DUP2 SLOAD ADD SWAP1 SSTORE DUP10 MLOAD SWAP4 DUP5 MSTORE CALLER SWAP4 LOG3 JUMPDEST CODESIZE DUP1 DUP1 DUP1 PUSH2 0x12DB JUMP JUMPDEST POP PUSH32 0xDF599AD211FA168884E13FD826C0FFCE9953E8779D95C69096D14ABE8E041F6B SWAP2 POP DUP10 MLOAD SWAP4 DUP5 MSTORE CALLER SWAP4 LOG3 PUSH2 0x1380 JUMP JUMPDEST POP DUP2 ISZERO ISZERO PUSH2 0x1320 JUMP JUMPDEST DUP8 MLOAD PUSH4 0x12171D83 PUSH1 0xE3 SHL DUP2 MSTORE DUP5 SWAP1 REVERT JUMPDEST PUSH2 0x13EA SWAP2 POP DUP7 RETURNDATASIZE DUP9 GT PUSH2 0x568 JUMPI PUSH2 0x55A DUP2 DUP4 PUSH2 0x1B2C JUMP JUMPDEST CODESIZE PUSH2 0x1295 JUMP JUMPDEST DUP10 MLOAD RETURNDATASIZE DUP13 DUP3 RETURNDATACOPY RETURNDATASIZE SWAP1 REVERT JUMPDEST CALLER DUP11 MSTORE PUSH1 0xA DUP7 MSTORE DUP9 DUP11 KECCAK256 DUP1 SLOAD PUSH1 0x1 PUSH1 0x1 PUSH1 0xA0 SHL SUB NOT AND SWAP1 SWAP2 OR SWAP1 SSTORE CODESIZE PUSH2 0x1243 JUMP JUMPDEST POP DUP1 DUP11 MSTORE PUSH1 0xA DUP7 MSTORE CALLER DUP4 DUP11 DUP13 KECCAK256 SLOAD AND EQ ISZERO PUSH2 0x123E JUMP JUMPDEST POP CALLER DUP2 EQ ISZERO PUSH2 0x1238 JUMP JUMPDEST POP DUP1 ISZERO ISZERO PUSH2 0x1232 JUMP JUMPDEST DUP9 MLOAD PUSH4 0x6FED7D85 PUSH1 0xE0 SHL DUP2 MSTORE DUP6 SWAP1 REVERT JUMPDEST PUSH4 0x4E487B71 PUSH1 0xE0 SHL DUP12 MSTORE PUSH1 0x11 DUP7 MSTORE PUSH1 0x24 DUP12 REVERT JUMPDEST DUP5 MLOAD PUSH4 0xC64200E9 PUSH1 0xE0 SHL DUP2 MSTORE REVERT JUMPDEST POP PUSH8 0xDE0B6B3A7640000 DUP3 GT PUSH2 0x11EB JUMP JUMPDEST DUP5 MLOAD PUSH4 0x13D0FF59 PUSH1 0xE3 SHL DUP2 MSTORE REVERT JUMPDEST DUP6 DUP1 REVERT JUMPDEST POP POP CALLVALUE PUSH2 0x346 JUMPI DUP2 PUSH1 0x3 NOT CALLDATASIZE ADD SLT PUSH2 0x346 JUMPI PUSH1 0x20 SWAP1 PUSH1 0x5 SLOAD SWAP1 MLOAD SWAP1 DUP2 MSTORE RETURN JUMPDEST POP POP CALLVALUE PUSH2 0x346 JUMPI DUP2 PUSH1 0x3 NOT CALLDATASIZE ADD SLT PUSH2 0x346 JUMPI PUSH1 0x20 SWAP1 PUSH1 0x3 SLOAD SWAP1 MLOAD SWAP1 DUP2 MSTORE RETURN JUMPDEST POP POP CALLVALUE PUSH2 0x346 JUMPI DUP2 PUSH1 0x3 NOT CALLDATASIZE ADD SLT PUSH2 0x346 JUMPI PUSH1 0x20 SWAP1 PUSH1 0xFF PUSH1 0x7 SLOAD PUSH1 0xA0 SHR AND SWAP1 MLOAD SWAP1 ISZERO ISZERO DUP2 MSTORE RETURN JUMPDEST POP CALLVALUE PUSH2 0x30A JUMPI PUSH1 0x20 CALLDATASIZE PUSH1 0x3 NOT ADD SLT PUSH2 0x30A JUMPI PUSH1 0x6 SLOAD DUP2 CALLDATALOAD SWAP3 SWAP1 PUSH1 0x1 PUSH1 0x1 PUSH1 0xA0 SHL SUB AND CALLER SUB PUSH2 0x84F JUMPI PUSH2 0x3E8 DUP4 GT PUSH2 0x842 JUMPI POP POP PUSH1 0x5 SSTORE DUP1 RETURN JUMPDEST POP POP CALLVALUE PUSH2 0x346 JUMPI DUP2 PUSH1 0x3 NOT CALLDATASIZE ADD SLT PUSH2 0x346 JUMPI PUSH1 0x20 SWAP1 MLOAD PUSH1 0x3 DUP2 MSTORE RETURN JUMPDEST POP POP CALLVALUE PUSH2 0x346 JUMPI DUP2 PUSH1 0x3 NOT CALLDATASIZE ADD SLT PUSH2 0x346 JUMPI PUSH1 0x20 SWAP2 SLOAD SWAP1 MLOAD SWAP1 DUP2 MSTORE RETURN JUMPDEST POP POP CALLVALUE PUSH2 0x346 JUMPI DUP2 PUSH1 0x3 NOT CALLDATASIZE ADD SLT PUSH2 0x346 JUMPI PUSH1 0x20 SWAP1 MLOAD PUSH2 0x1C20 DUP2 MSTORE RETURN JUMPDEST POP POP CALLVALUE PUSH2 0x346 JUMPI DUP2 PUSH1 0x3 NOT CALLDATASIZE ADD SLT PUSH2 0x346 JUMPI PUSH1 0x20 SWAP1 MLOAD PUSH1 0x7 DUP2 MSTORE RETURN JUMPDEST POP POP CALLVALUE PUSH2 0x346 JUMPI DUP2 PUSH1 0x3 NOT CALLDATASIZE ADD SLT PUSH2 0x346 JUMPI PUSH1 0x20 SWAP1 PUSH1 0xE SLOAD SWAP1 MLOAD SWAP1 DUP2 MSTORE RETURN JUMPDEST POP POP CALLVALUE PUSH2 0x346 JUMPI DUP2 PUSH1 0x3 NOT CALLDATASIZE ADD SLT PUSH2 0x346 JUMPI PUSH1 0x20 SWAP1 PUSH1 0x1 SLOAD SWAP1 MLOAD SWAP1 DUP2 MSTORE RETURN JUMPDEST POP SWAP1 CALLVALUE PUSH2 0x30A JUMPI DUP3 PUSH1 0x3 NOT CALLDATASIZE ADD SLT PUSH2 0x30A JUMPI PUSH1 0x6 SLOAD PUSH1 0x1 PUSH1 0x1 PUSH1 0xA0 SHL SUB AND CALLER SUB PUSH2 0x84F JUMPI PUSH1 0x7 DUP1 SLOAD PUSH1 0xFF PUSH1 0xA0 SHL NOT AND SWAP1 SSTORE DUP3 CALLER PUSH32 0x5B65B0C1363B3003DB9BCC5E1FD8805A6D6BF5BF6DC9D3431EE4494CD7D11766 DUP3 DUP1 LOG2 DUP1 RETURN JUMPDEST POP SWAP2 SWAP1 CALLVALUE PUSH2 0x346 JUMPI DUP2 PUSH1 0x3 NOT CALLDATASIZE ADD SLT PUSH2 0x346 JUMPI CALLER DUP3 MSTORE PUSH1 0x20 SWAP1 PUSH1 0x9 DUP3 MSTORE DUP1 DUP4 KECCAK256 SWAP2 PUSH1 0x1 DUP4 ADD SWAP1 DUP2 SLOAD SWAP4 PUSH1 0x1 PUSH1 0x1 PUSH1 0x80 SHL SUB DUP6 AND SWAP3 DUP4 ISZERO PUSH2 0x17D5 JUMPI CALLER DUP8 MSTORE PUSH1 0xD DUP4 MSTORE DUP5 DUP8 KECCAK256 SLOAD SWAP1 DUP3 SLOAD SWAP2 PUSH4 0xFFFFFFFF DUP4 DUP9 SHR AND ISZERO ISZERO SWAP1 DUP2 PUSH2 0x17CB JUMPI JUMPDEST POP ISZERO PUSH2 0x17BA JUMPI PUSH2 0x16BE PUSH2 0x2710 PUSH2 0x16B6 PUSH1 0x5 DUP1 SLOAD DIV JUMPDEST DUP9 PUSH2 0x1B7C JUMP JUMPDEST DIV DUP1 SWAP7 PUSH2 0x1BA5 JUMP JUMPDEST PUSH16 0xFFFFFFFFFFFFFFFFFFFFFFFFFFFFFFFF NOT SWAP1 SWAP8 AND SWAP1 SSTORE PUSH1 0x1 PUSH1 0x1 PUSH1 0xB8 SHL SUB NOT AND SWAP1 SSTORE CALLER DUP6 MSTORE PUSH1 0xD DUP2 MSTORE DUP3 DUP6 KECCAK256 DUP6 SWAP1 SSTORE DUP2 PUSH2 0x17AD JUMPI JUMPDEST DUP3 MLOAD PUSH4 0xA9059CBB PUSH1 0xE0 SHL DUP2 MSTORE CALLER DUP8 DUP3 ADD SWAP1 DUP2 MSTORE PUSH1 0x20 DUP2 ADD DUP7 SWAP1 MSTORE DUP3 SWAP1 DUP3 SWAP1 DUP2 SWAP1 PUSH1 0x40 ADD SUB DUP2 DUP10 PUSH20 0x765DE816845861E75A25FCA122BB6898B8B1282A GAS CALL SWAP1 DUP2 ISZERO PUSH2 0x17A3 JUMPI DUP7 SWAP2 PUSH2 0x1786 JUMPI JUMPDEST POP ISZERO PUSH2 0x1776 JUMPI DUP3 MLOAD SWAP4 DUP5 MSTORE DUP4 ADD MSTORE CALLER SWAP2 PUSH32 0x92CCF450A286A957AF52509BC1C9939D1A6A481783E142E41E2499F0BB66EBC6 SWAP2 SWAP1 LOG2 DUP1 RETURN JUMPDEST DUP3 MLOAD PUSH4 0x12171D83 PUSH1 0xE3 SHL DUP2 MSTORE DUP7 SWAP1 REVERT JUMPDEST PUSH2 0x179D SWAP2 POP DUP3 RETURNDATASIZE DUP5 GT PUSH2 0x568 JUMPI PUSH2 0x55A DUP2 DUP4 PUSH2 0x1B2C JUMP JUMPDEST CODESIZE PUSH2 0x173F JUMP JUMPDEST DUP5 MLOAD RETURNDATASIZE DUP9 DUP3 RETURNDATACOPY RETURNDATASIZE SWAP1 REVERT JUMPDEST DUP2 PUSH1 0x8 SLOAD ADD PUSH1 0x8 SSTORE PUSH2 0x16F4 JUMP JUMPDEST PUSH2 0x16BE PUSH2 0x2710 PUSH2 0x16B6 PUSH1 0x5 SLOAD PUSH2 0x16B0 JUMP JUMPDEST SWAP1 POP DUP6 GT CODESIZE PUSH2 0x169B JUMP JUMPDEST DUP5 MLOAD PUSH4 0x686827B PUSH1 0xE5 SHL DUP2 MSTORE DUP9 SWAP1 REVERT JUMPDEST POP SWAP1 CALLVALUE PUSH2 0x30A JUMPI DUP1 PUSH1 0x3 NOT CALLDATASIZE ADD SLT PUSH2 0x30A JUMPI PUSH2 0x17FF PUSH2 0x1A4A JUMP JUMPDEST PUSH1 0x24 CALLDATALOAD SWAP3 PUSH1 0xFF PUSH1 0x7 SLOAD PUSH1 0xA0 SHR AND PUSH2 0x19D3 JUMPI PUSH1 0x1 PUSH1 0x1 PUSH1 0xA0 SHL SUB DUP3 AND SWAP4 DUP5 ISZERO PUSH2 0x19C4 JUMPI PUSH6 0x5AF3107A4000 DUP2 LT DUP1 ISZERO PUSH2 0x19B3 JUMPI JUMPDEST PUSH2 0x19A4 JUMPI DUP5 DUP7 MSTORE PUSH1 0x9 PUSH1 0x20 MSTORE DUP4 DUP7 KECCAK256 SWAP1 DUP2 SLOAD SWAP4 PUSH4 0xFFFFFFFF SWAP4 DUP5 DUP7 PUSH1 0x60 SHR AND ISZERO ISZERO DUP1 PUSH2 0x199A JUMPI JUMPDEST PUSH2 0x198C JUMPI PUSH5 0xFFFFFFFFFF DUP1 TIMESTAMP AND SWAP7 PUSH1 0x80 SHR AND PUSH3 0x11940 DUP2 ADD DUP1 SWAP2 GT PUSH2 0x1979 JUMPI DUP7 LT PUSH2 0x196B JUMPI DUP7 MLOAD PUSH4 0x23B872DD PUSH1 0xE0 SHL DUP2 MSTORE CALLER DUP3 DUP3 ADD SWAP1 DUP2 MSTORE ADDRESS PUSH1 0x20 DUP3 DUP2 ADD SWAP2 SWAP1 SWAP2 MSTORE PUSH1 0x40 DUP3 ADD DUP7 SWAP1 MSTORE SWAP1 DUP3 SWAP1 DUP2 SWAP1 PUSH1 0x60 ADD SUB DUP2 DUP14 PUSH20 0x765DE816845861E75A25FCA122BB6898B8B1282A GAS CALL SWAP1 DUP2 ISZERO PUSH2 0x1961 JUMPI DUP11 SWAP2 PUSH2 0x1943 JUMPI JUMPDEST POP ISZERO PUSH2 0x1935 JUMPI POP SWAP2 PUSH2 0x190A DUP6 PUSH2 0x192F SWAP6 SWAP4 PUSH32 0x910FEFE8CBD875C2CEFEEC15C9FCE0F7BF2D542D5C42E57B8ED2395127E29B10 SWAP8 SWAP6 PUSH2 0x1BB2 JUMP JUMPDEST SLOAD SWAP5 MLOAD SWAP5 AND PUSH4 0xFFFFFFFF AND DUP5 MSTORE PUSH5 0xFFFFFFFFFF AND PUSH1 0x20 DUP5 ADD MSTORE CALLER SWAP3 SWAP1 DUP2 SWAP1 PUSH1 0x40 DUP3 ADD SWAP1 JUMP JUMPDEST SUB SWAP1 LOG3 DUP1 RETURN JUMPDEST DUP7 MLOAD PUSH4 0x12171D83 PUSH1 0xE3 SHL DUP2 MSTORE REVERT JUMPDEST PUSH2 0x195B SWAP2 POP PUSH1 0x20 RETURNDATASIZE DUP2 GT PUSH2 0x568 JUMPI PUSH2 0x55A DUP2 DUP4 PUSH2 0x1B2C JUMP JUMPDEST CODESIZE PUSH2 0x18D1 JUMP JUMPDEST DUP9 MLOAD RETURNDATASIZE DUP13 DUP3 RETURNDATACOPY RETURNDATASIZE SWAP1 REVERT JUMPDEST DUP7 MLOAD PUSH4 0x6FED7D85 PUSH1 0xE0 SHL DUP2 MSTORE REVERT JUMPDEST PUSH4 0x4E487B71 PUSH1 0xE0 SHL DUP11 MSTORE PUSH1 0x11 DUP3 MSTORE PUSH1 0x24 DUP11 REVERT JUMPDEST DUP7 MLOAD PUSH4 0x916C16B PUSH1 0xE1 SHL DUP2 MSTORE REVERT JUMPDEST POP DUP5 DUP7 AND ISZERO PUSH2 0x1858 JUMP JUMPDEST POP DUP3 MLOAD PUSH4 0xC64200E9 PUSH1 0xE0 SHL DUP2 MSTORE REVERT JUMPDEST POP PUSH8 0xDE0B6B3A7640000 DUP2 GT PUSH2 0x1831 JUMP JUMPDEST POP DUP3 MLOAD PUSH4 0xE6C4247B PUSH1 0xE0 SHL DUP2 MSTORE REVERT JUMPDEST DUP3 MLOAD PUSH4 0x13D0FF59 PUSH1 0xE3 SHL DUP2 MSTORE REVERT JUMPDEST POP POP CALLVALUE PUSH2 0x346 JUMPI PUSH1 0x20 CALLDATASIZE PUSH1 0x3 NOT ADD SLT PUSH2 0x346 JUMPI PUSH1 0x20 SWAP2 PUSH1 0x1 PUSH1 0x1 PUSH1 0xA0 SHL SUB SWAP1 DUP3 SWAP1 DUP3 PUSH2 0x1A0B PUSH2 0x1A4A JUMP JUMPDEST AND DUP2 MSTORE PUSH1 0xA DUP6 MSTORE KECCAK256 SLOAD AND SWAP1 MLOAD SWAP1 DUP2 MSTORE RETURN JUMPDEST DUP5 SWAP1 CALLVALUE PUSH2 0x346 JUMPI DUP2 PUSH1 0x3 NOT CALLDATASIZE ADD SLT PUSH2 0x346 JUMPI DUP1 PUSH20 0x765DE816845861E75A25FCA122BB6898B8B1282A PUSH1 0x20 SWAP3 MSTORE RETURN JUMPDEST PUSH1 0x4 CALLDATALOAD SWAP1 PUSH1 0x1 PUSH1 0x1 PUSH1 0xA0 SHL SUB DUP3 AND DUP3 SUB PUSH2 0x1A60 JUMPI JUMP JUMPDEST PUSH1 0x0 DUP1 REVERT JUMPDEST SWAP1 PUSH1 0x5 DUP3 LT ISZERO PUSH2 0x1A72 JUMPI MSTORE JUMP JUMPDEST PUSH4 0x4E487B71 PUSH1 0xE0 SHL PUSH1 0x0 MSTORE PUSH1 0x21 PUSH1 0x4 MSTORE PUSH1 0x24 PUSH1 0x0 REVERT JUMPDEST SWAP1 DUP2 MLOAD DUP1 DUP3 MSTORE PUSH1 0x20 DUP1 DUP1 SWAP4 ADD SWAP4 ADD SWAP2 PUSH1 0x0 JUMPDEST DUP3 DUP2 LT PUSH2 0x1AA8 JUMPI POP POP POP POP SWAP1 JUMP JUMPDEST DUP4 MLOAD DUP6 MSTORE SWAP4 DUP2 ADD SWAP4 SWAP3 DUP2 ADD SWAP3 PUSH1 0x1 ADD PUSH2 0x1A9A JUMP JUMPDEST CALLVALUE PUSH2 0x1A60 JUMPI PUSH1 0x0 CALLDATASIZE PUSH1 0x3 NOT ADD SLT PUSH2 0x1A60 JUMPI PUSH1 0x20 PUSH1 0x40 MLOAD PUSH8 0xDE0B6B3A7640000 DUP2 MSTORE RETURN JUMPDEST PUSH1 0xE SLOAD DUP2 LT ISZERO PUSH2 0x1B16 JUMPI PUSH1 0xE PUSH1 0x0 MSTORE PUSH32 0xBB7B4A454DC3493923482F07822329ED19E8244EFF582CC204F8554C3620C3FD ADD SWAP1 PUSH1 0x0 SWAP1 JUMP JUMPDEST PUSH4 0x4E487B71 PUSH1 0xE0 SHL PUSH1 0x0 MSTORE PUSH1 0x32 PUSH1 0x4 MSTORE PUSH1 0x24 PUSH1 0x0 REVERT JUMPDEST SWAP1 PUSH1 0x1F DUP1 NOT SWAP2 ADD AND DUP2 ADD SWAP1 DUP2 LT PUSH8 0xFFFFFFFFFFFFFFFF DUP3 GT OR PUSH2 0x1B4E JUMPI PUSH1 0x40 MSTORE JUMP JUMPDEST PUSH4 0x4E487B71 PUSH1 0xE0 SHL PUSH1 0x0 MSTORE PUSH1 0x41 PUSH1 0x4 MSTORE PUSH1 0x24 PUSH1 0x0 REVERT JUMPDEST SWAP1 DUP2 PUSH1 0x20 SWAP2 SUB SLT PUSH2 0x1A60 JUMPI MLOAD DUP1 ISZERO ISZERO DUP2 SUB PUSH2 0x1A60 JUMPI SWAP1 JUMP JUMPDEST DUP2 DUP2 MUL SWAP3 SWAP2 DUP2 ISZERO SWAP2 DUP5 DIV EQ OR ISZERO PUSH2 0x1B8F JUMPI JUMP JUMPDEST PUSH4 0x4E487B71 PUSH1 0xE0 SHL PUSH1 0x0 MSTORE PUSH1 0x11 PUSH1 0x4 MSTORE PUSH1 0x24 PUSH1 0x0 REVERT JUMPDEST SWAP2 SWAP1 DUP3 SUB SWAP2 DUP3 GT PUSH2 0x1B8F JUMPI JUMP JUMPDEST PUSH1 0x1 DUP1 PUSH1 0xA0 SHL SUB AND SWAP2 PUSH1 0x0 DUP4 DUP2 MSTORE PUSH1 0x9 PUSH1 0x20 MSTORE PUSH1 0x40 DUP2 KECCAK256 SWAP3 PUSH1 0x32 DUP2 MUL DUP2 DUP2 DIV PUSH1 0x32 EQ DUP3 ISZERO OR ISZERO PUSH2 0x2025 JUMPI SWAP1 PUSH2 0x2710 PUSH2 0x1BF3 SWAP3 DIV SWAP1 DUP2 PUSH1 0x8 SLOAD ADD PUSH1 0x8 SSTORE PUSH2 0x1BA5 JUMP JUMPDEST SWAP3 DUP1 SLOAD PUSH5 0xFFFFFFFFFF SWAP1 DUP2 DUP2 PUSH1 0x80 SHR AND DUP1 ISZERO ISZERO SWAP1 DUP2 PUSH2 0x200B JUMPI JUMPDEST POP PUSH2 0x1F2D JUMPI JUMPDEST POP DUP2 SLOAD SWAP1 DUP1 DUP3 PUSH1 0x80 SHR AND DUP1 ISZERO ISZERO SWAP2 DUP3 PUSH2 0x1EDE JUMPI JUMPDEST POP POP PUSH2 0x1E7B JUMPI JUMPDEST POP DUP1 SLOAD PUSH4 0xFFFFFFFF SWAP1 DUP2 PUSH1 0x1 DUP2 DUP4 AND ADD AND SWAP5 PUSH5 0xFFFFFFFFFF PUSH1 0x80 SHL SWAP1 PUSH1 0x80 SHL AND DUP1 DUP7 PUSH21 0xFFFFFFFFFF000000000000000000000000FFFFFFFF NOT DUP5 AND OR OR SWAP6 DUP7 DUP6 SSTORE PUSH1 0x1 DUP6 ADD SWAP7 DUP8 SLOAD PUSH1 0x1 PUSH1 0x1 PUSH1 0x80 SHL SUB DUP1 SWAP11 AND DUP11 DUP3 AND ADD DUP11 DUP2 GT PUSH2 0x1E67 JUMPI SWAP2 DUP12 SWAP6 SWAP4 SWAP2 DUP12 SWAP10 SWAP9 SWAP8 SWAP6 SWAP4 PUSH1 0x1 PUSH1 0x1 PUSH1 0x80 SHL SUB NOT SWAP13 DUP14 SWAP2 AND SWAP2 AND OR DUP11 SSTORE DUP5 DUP2 PUSH1 0x20 SHR AND DUP3 GT PUSH2 0x1DAF JUMPI JUMPDEST POP POP POP POP POP POP DUP1 SLOAD PUSH1 0xFF DUP2 PUSH1 0xA8 SHR AND ISZERO PUSH2 0x1D42 JUMPI JUMPDEST POP POP DUP1 DUP6 PUSH1 0x40 SWAP3 MSTORE PUSH1 0xC PUSH1 0x20 MSTORE KECCAK256 SWAP2 DUP3 SLOAD SWAP3 DUP3 DUP5 AND DUP1 ISZERO ISZERO SWAP1 DUP2 PUSH2 0x1D34 JUMPI JUMPDEST POP PUSH2 0x1CF8 JUMPI JUMPDEST POP POP POP POP POP POP JUMP JUMPDEST PUSH32 0x35003C2A88A451CD165F157AA0F4EFAA1C78331D1BDA2C6BBF1A32E40A07D398 SWAP5 PUSH1 0x20 SWAP5 AND SWAP1 SSTORE SLOAD AND PUSH1 0x40 MLOAD SWAP1 DUP2 MSTORE LOG2 CODESIZE DUP1 DUP1 DUP1 DUP1 DUP1 PUSH2 0x1CF0 JUMP JUMPDEST SWAP1 POP DUP4 DUP4 SLOAD AND LT ISZERO CODESIZE PUSH2 0x1CEA JUMP JUMPDEST PUSH1 0xFF PUSH1 0xA8 SHL NOT AND PUSH1 0x1 PUSH1 0xA8 SHL OR SWAP1 SSTORE PUSH1 0xE SLOAD PUSH9 0x10000000000000000 DUP2 LT ISZERO PUSH2 0x1D9B JUMPI SWAP1 PUSH2 0x1D78 DUP3 PUSH1 0x1 PUSH1 0x40 SWAP5 ADD PUSH1 0xE SSTORE PUSH2 0x1ADF JUMP JUMPDEST DUP2 SLOAD PUSH1 0x1 PUSH1 0x1 PUSH1 0xA0 SHL SUB PUSH1 0x3 SWAP3 SWAP1 SWAP3 SHL SWAP2 DUP3 SHL NOT AND SWAP1 DUP9 SWAP1 SHL OR SWAP1 SSTORE SWAP1 CODESIZE PUSH2 0x1CCB JUMP JUMPDEST PUSH4 0x4E487B71 PUSH1 0xE0 SHL DUP3 MSTORE PUSH1 0x41 PUSH1 0x4 MSTORE PUSH1 0x24 DUP3 REVERT JUMPDEST PUSH8 0xFFFFFFFF00000000 SWAP1 PUSH1 0x20 SHL AND SWAP3 PUSH21 0xFFFFFFFFFF0000000000000000FFFFFFFFFFFFFFFF NOT AND OR OR OR DUP1 DUP5 SSTORE PUSH1 0x20 SHR AND PUSH1 0x1E DUP2 EQ DUP1 ISZERO PUSH2 0x1E5D JUMPI JUMPDEST DUP1 ISZERO PUSH2 0x1E53 JUMPI JUMPDEST DUP1 ISZERO PUSH2 0x1E48 JUMPI JUMPDEST PUSH2 0x1E07 JUMPI JUMPDEST DUP1 DUP1 DUP1 DUP1 PUSH2 0x1CB6 JUMP JUMPDEST PUSH1 0x20 PUSH2 0x1E33 PUSH32 0xE77C5A722D2D46CDD1852F1811F567C19DADC53DA7FC1E0EE6FC979D0335DBAC SWAP3 PUSH2 0x2073 JUMP JUMPDEST PUSH2 0x1E40 PUSH1 0x40 MLOAD DUP1 SWAP3 PUSH2 0x1A65 JUMP JUMPDEST LOG2 DUP6 CODESIZE PUSH2 0x1DFE JUMP JUMPDEST POP PUSH2 0x16D DUP2 EQ PUSH2 0x1DF9 JUMP JUMPDEST POP PUSH1 0xB4 DUP2 EQ PUSH2 0x1DF2 JUMP JUMPDEST POP PUSH1 0x5A DUP2 EQ PUSH2 0x1DEB JUMP JUMPDEST PUSH4 0x4E487B71 PUSH1 0xE0 SHL DUP10 MSTORE PUSH1 0x11 PUSH1 0x4 MSTORE PUSH1 0x24 DUP10 REVERT JUMPDEST PUSH1 0xB0 SHR PUSH1 0xFF AND PUSH1 0x3 DUP2 LT ISZERO PUSH2 0x1C2E JUMPI DUP2 SLOAD PUSH1 0xFF PUSH1 0xB0 SHL NOT AND PUSH1 0x1 SWAP2 SWAP1 SWAP2 ADD PUSH1 0xB0 SHL PUSH1 0xFF PUSH1 0xB0 SHL AND OR DUP2 SSTORE DUP5 PUSH32 0xF31AA52E228BAC5C0FD9B53DE3947B96A6B562A29503DEA0C7A2784CDC228044 PUSH1 0x20 PUSH1 0xFF DUP5 SLOAD PUSH1 0xB0 SHR AND PUSH1 0x40 MLOAD SWAP1 DUP2 MSTORE LOG2 CODESIZE PUSH2 0x1C2E JUMP JUMPDEST PUSH3 0x11940 DUP3 ADD SWAP3 POP SWAP1 DUP3 DUP2 GT PUSH2 0x1F19 JUMPI PUSH3 0x13560 ADD DUP1 SWAP3 GT PUSH2 0x1F05 JUMPI DUP6 AND GT ISZERO CODESIZE DUP1 PUSH2 0x1C27 JUMP JUMPDEST PUSH4 0x4E487B71 PUSH1 0xE0 SHL DUP6 MSTORE PUSH1 0x11 PUSH1 0x4 MSTORE PUSH1 0x24 DUP6 REVERT JUMPDEST PUSH4 0x4E487B71 PUSH1 0xE0 SHL DUP7 MSTORE PUSH1 0x11 PUSH1 0x4 MSTORE PUSH1 0x24 DUP7 REVERT JUMPDEST PUSH1 0xB0 DUP2 SWAP1 SHR PUSH1 0xFF AND ISZERO PUSH2 0x1FAF JUMPI POP DUP2 SLOAD PUSH1 0xFF PUSH1 0xB0 SHL NOT DUP2 AND PUSH1 0xB0 SWAP2 DUP3 SHR PUSH1 0xFF AND PUSH1 0x0 NOT ADD SWAP1 SWAP2 SHL PUSH1 0xFF PUSH1 0xB0 SHL AND OR DUP3 SSTORE DUP6 PUSH32 0xA3CD923E771784F8AB03C4BC813511F007DF871C8652C02CD19CC966132B1964 PUSH1 0x40 DUP5 SLOAD PUSH4 0xFFFFFFFF PUSH1 0x60 SHL NOT DUP2 AND DUP7 SSTORE PUSH1 0xFF DUP3 MLOAD SWAP2 PUSH4 0xFFFFFFFF DUP2 AND DUP4 MSTORE PUSH1 0xB0 SHR AND PUSH1 0x20 DUP3 ADD MSTORE LOG2 JUMPDEST CODESIZE PUSH2 0x1C13 JUMP JUMPDEST DUP7 PUSH32 0xC0539BB1C6561E4F713A8725D44795917796A9717AE897FBC6707EF291FAC9B0 PUSH1 0x20 PUSH1 0x40 MLOAD PUSH4 0xFFFFFFFF DUP6 AND DUP2 MSTORE LOG2 PUSH16 0xFFFFFFFF0000000000000000FFFFFFFF NOT DUP2 AND PUSH1 0x60 SWAP2 SWAP1 SWAP2 SHL PUSH4 0xFFFFFFFF PUSH1 0x60 SHL AND OR DUP3 SSTORE PUSH2 0x1FA9 JUMP JUMPDEST PUSH3 0x2A300 SWAP2 POP ADD DUP3 DUP2 GT PUSH2 0x1F05 JUMPI DUP3 AND DUP3 DUP7 AND GT CODESIZE PUSH2 0x1C0D JUMP JUMPDEST PUSH4 0x4E487B71 PUSH1 0xE0 SHL DUP4 MSTORE PUSH1 0x11 PUSH1 0x4 MSTORE PUSH1 0x24 DUP4 REVERT JUMPDEST PUSH4 0xFFFFFFFF AND PUSH1 0x31 DUP2 LT ISZERO PUSH2 0x206C JUMPI PUSH1 0x23 DUP2 LT ISZERO PUSH2 0x2065 JUMPI PUSH1 0xE GT ISZERO PUSH2 0x205F JUMPI PUSH1 0x0 SLOAD SWAP1 JUMP JUMPDEST PUSH1 0x1 SLOAD SWAP1 JUMP JUMPDEST POP PUSH1 0x2 SLOAD SWAP1 JUMP JUMPDEST POP PUSH1 0x3 SLOAD SWAP1 JUMP JUMPDEST PUSH4 0xFFFFFFFF AND PUSH2 0x16D DUP2 LT ISZERO PUSH2 0x20B3 JUMPI PUSH1 0xB4 DUP2 LT ISZERO PUSH2 0x20AD JUMPI PUSH1 0x5A DUP2 LT ISZERO PUSH2 0x20A7 JUMPI PUSH1 0x1E GT ISZERO PUSH2 0x20A2 JUMPI PUSH1 0x0 SWAP1 JUMP JUMPDEST PUSH1 0x1 SWAP1 JUMP JUMPDEST POP PUSH1 0x2 SWAP1 JUMP JUMPDEST POP PUSH1 0x3 SWAP1 JUMP JUMPDEST POP PUSH1 0x4 SWAP1 JUMP JUMPDEST PUSH8 0xFFFFFFFFFFFFFFFF DUP2 GT PUSH2 0x1B4E JUMPI PUSH1 0x5 SHL PUSH1 0x20 ADD SWAP1 JUMP JUMPDEST SWAP1 PUSH2 0x20DB DUP3 PUSH2 0x20B9 JUMP JUMPDEST PUSH2 0x20E8 PUSH1 0x40 MLOAD SWAP2 DUP3 PUSH2 0x1B2C JUMP JUMPDEST DUP3 DUP2 MSTORE DUP1 SWAP3 PUSH2 0x20F9 PUSH1 0x1F NOT SWAP2 PUSH2 0x20B9 JUMP JUMPDEST ADD SWAP1 PUSH1 0x20 CALLDATASIZE SWAP2 ADD CALLDATACOPY JUMP JUMPDEST DUP1 MLOAD DUP3 LT ISZERO PUSH2 0x1B16 JUMPI PUSH1 0x20 SWAP2 PUSH1 0x5 SHL ADD ADD SWAP1 JUMP INVALID LOG2 PUSH5 0x6970667358 0x22 SLT KECCAK256 0xD3 ADDMOD 0xD0 0xCB ISZERO 0xDF SHL 0xCA DUP11 PUSH11 0x4789A857B4A90ABA76BAE9 0xC9 PUSH8 0x50B035ACBB45FB61 PUSH0 PUSH5 0x736F6C6343 STOP ADDMOD EQ STOP CALLER "},"gasEstimates":{"creation":{"codeDepositCost":"1705000","executionCost":"158676","totalCost":"1863676"},"external":{"COOLDOWN()":"743","MAX_DEPOSIT()":"1015","MAX_RECOVERY_FEE()":"831","MAX_REWARD_TIER()":"861","MAX_SHIELDS()":"391","MIN_DEPOSIT()":"1029","POOL_FEE_BPS()":"963","PRECISION_WINDOW()":"347","STREAK_THRESHOLD()":"325","acceptOwnership()":"50594","cUSD()":"168","claimReferralReward()":"infinite","claimReward()":"infinite","deposit(uint256,address)":"infinite","depositFor(address,uint256)":"infinite","depositors(uint256)":"7513","fundPool(uint256)":"infinite","getBadge(address)":"3393","getLeaderboard(uint256)":"infinite","getUser(address)":"7580","owner()":"2782","pause()":"28127","paused()":"2559","pendingOwner()":"3178","pendingReferralReward(address)":"2978","poolBalance()":"2783","poolFunds()":"3025","recoverStreak()":"infinite","referralRewardBps()":"2670","referrer(address)":"2459","rewardTier1()":"2472","rewardTier2()":"2387","rewardTier3()":"3223","rewardTier4()":"2563","savingsGoal(address)":"2889","setGoal(uint128)":"26499","setReferralRewardBps(uint256)":"28535","setRewardTiers(uint256,uint256,uint256,uint256)":"93795","setWithdrawalPenaltyBps(uint256)":"24670","totalDepositors()":"2409","totalRewardsClaimed(address)":"3396","transferOwnership(address)":"29076","unpause()":"27741","users(address)":"5409","withdraw()":"infinite","withdrawalPenaltyBps()":"2585"},"internal":{"_checkBadge(address,uint32)":"infinite","_getBadge(uint32)":"119","_processDeposit(address,uint256,uint40)":"infinite","_rewardAmount(uint32)":"2194"}},"methodIdentifiers":{"COOLDOWN()":"a2724a4d","MAX_DEPOSIT()":"dd5967c3","MAX_RECOVERY_FEE()":"aa0224fd","MAX_REWARD_TIER()":"af10bbcd","MAX_SHIELDS()":"546cea86","MIN_DEPOSIT()":"e1e158a5","POOL_FEE_BPS()":"cd6c7873","PRECISION_WINDOW()":"51bea8c3","STREAK_THRESHOLD()":"4c8530ce","acceptOwnership()":"79ba5097","cUSD()":"1fccf672","claimReferralReward()":"9b4b2c9c","claimReward()":"b88a802f","deposit(uint256,address)":"6e553f65","depositFor(address,uint256)":"2f4f21e2","depositors(uint256)":"e4b2fb79","fundPool(uint256)":"da3a5f72","getBadge(address)":"c254de88","getLeaderboard(uint256)":"a34b46fe","getUser(address)":"6f77926b","owner()":"8da5cb5b","pause()":"8456cb59","paused()":"5c975abb","pendingOwner()":"e30c3978","pendingReferralReward(address)":"9f147d00","poolBalance()":"96365d44","poolFunds()":"bc2104d2","recoverStreak()":"7289cca6","referralRewardBps()":"75f4c059","referrer(address)":"2cf003c2","rewardTier1()":"5264dab0","rewardTier2()":"3fbf422f","rewardTier3()":"f67ded4e","rewardTier4()":"60bd13d9","savingsGoal(address)":"82bbf60e","setGoal(uint128)":"a2c8b369","setReferralRewardBps(uint256)":"b09e603f","setRewardTiers(uint256,uint256,uint256,uint256)":"ff84a262","setWithdrawalPenaltyBps(uint256)":"54b1de8f","totalDepositors()":"418f3128","totalRewardsClaimed(address)":"f6ce9004","transferOwnership(address)":"f2fde38b","unpause()":"3f4ba83a","users(address)":"a87430ba","withdraw()":"3ccfd60b","withdrawalPenaltyBps()":"66fc0127"}},"storageLayout":{"storage":[{"astId":65,"contract":"contracts/Kibo.sol:Kibo","label":"rewardTier1","offset":0,"slot":"0","type":"t_uint256"},{"astId":68,"contract":"contracts/Kibo.sol:Kibo","label":"rewardTier2","offset":0,"slot":"1","type":"t_uint256"},{"astId":71,"contract":"contracts/Kibo.sol:Kibo","label":"rewardTier3","offset":0,"slot":"2","type":"t_uint256"},{"astId":74,"contract":"contracts/Kibo.sol:Kibo","label":"rewardTier4","offset":0,"slot":"3","type":"t_uint256"},{"astId":77,"contract":"contracts/Kibo.sol:Kibo","label":"referralRewardBps","offset":0,"slot":"4","type":"t_uint256"},{"astId":80,"contract":"contracts/Kibo.sol:Kibo","label":"withdrawalPenaltyBps","offset":0,"slot":"5","type":"t_uint256"},{"astId":82,"contract":"contracts/Kibo.sol:Kibo","label":"owner","offset":0,"slot":"6","type":"t_address"},{"astId":84,"contract":"contracts/Kibo.sol:Kibo","label":"pendingOwner","offset":0,"slot":"7","type":"t_address"},{"astId":86,"contract":"contracts/Kibo.sol:Kibo","label":"paused","offset":20,"slot":"7","type":"t_bool"},{"astId":88,"contract":"contracts/Kibo.sol:Kibo","label":"poolFunds","offset":0,"slot":"8","type":"t_uint256"},{"astId":144,"contract":"contracts/Kibo.sol:Kibo","label":"users","offset":0,"slot":"9","type":"t_mapping(t_address,t_struct(UserData)133_storage)"},{"astId":148,"contract":"contracts/Kibo.sol:Kibo","label":"referrer","offset":0,"slot":"10","type":"t_mapping(t_address,t_address)"},{"astId":152,"contract":"contracts/Kibo.sol:Kibo","label":"pendingReferralReward","offset":0,"slot":"11","type":"t_mapping(t_address,t_uint256)"},{"astId":156,"contract":"contracts/Kibo.sol:Kibo","label":"savingsGoal","offset":0,"slot":"12","type":"t_mapping(t_address,t_uint128)"},{"astId":160,"contract":"contracts/Kibo.sol:Kibo","label":"totalRewardsClaimed","offset":0,"slot":"13","type":"t_mapping(t_address,t_uint256)"},{"astId":163,"contract":"contracts/Kibo.sol:Kibo","label":"depositors","offset":0,"slot":"14","type":"t_array(t_address)dyn_storage"}],"types":{"t_address":{"encoding":"inplace","label":"address","numberOfBytes":"20"},"t_array(t_address)dyn_storage":{"base":"t_address","encoding":"dynamic_array","label":"address[]","numberOfBytes":"32"},"t_bool":{"encoding":"inplace","label":"bool","numberOfBytes":"1"},"t_mapping(t_address,t_address)":{"encoding":"mapping","key":"t_address","label":"mapping(address => address)","numberOfBytes":"32","value":"t_address"},"t_mapping(t_address,t_struct(UserData)133_storage)":{"encoding":"mapping","key":"t_address","label":"mapping(address => struct Kibo.UserData)","numberOfBytes":"32","value":"t_struct(UserData)133_storage"},"t_mapping(t_address,t_uint128)":{"encoding":"mapping","key":"t_address","label":"mapping(address => uint128)","numberOfBytes":"32","value":"t_uint128"},"t_mapping(t_address,t_uint256)":{"encoding":"mapping","key":"t_address","label":"mapping(address => uint256)","numberOfBytes":"32","value":"t_uint256"},"t_struct(UserData)133_storage":{"encoding":"inplace","label":"struct Kibo.UserData","members":[{"astId":118,"contract":"contracts/Kibo.sol:Kibo","label":"streak","offset":0,"slot":"0","type":"t_uint32"},{"astId":120,"contract":"contracts/Kibo.sol:Kibo","label":"longestStreak","offset":4,"slot":"0","type":"t_uint32"},{"astId":122,"contract":"contracts/Kibo.sol:Kibo","label":"lastClaimedStreak","offset":8,"slot":"0","type":"t_uint32"},{"astId":124,"contract":"contracts/Kibo.sol:Kibo","label":"brokenStreak","offset":12,"slot":"0","type":"t_uint32"},{"astId":126,"contract":"contracts/Kibo.sol:Kibo","label":"lastDeposit","offset":16,"slot":"0","type":"t_uint40"},{"astId":128,"contract":"contracts/Kibo.sol:Kibo","label":"isDepositor","offset":21,"slot":"0","type":"t_bool"},{"astId":130,"contract":"contracts/Kibo.sol:Kibo","label":"shields","offset":22,"slot":"0","type":"t_uint8"},{"astId":132,"contract":"contracts/Kibo.sol:Kibo","label":"totalDeposited","offset":0,"slot":"1","type":"t_uint128"}],"numberOfBytes":"64"},"t_uint128":{"encoding":"inplace","label":"uint128","numberOfBytes":"16"},"t_uint256":{"encoding":"inplace","label":"uint256","numberOfBytes":"32"},"t_uint32":{"encoding":"inplace","label":"uint32","numberOfBytes":"4"},"t_uint40":{"encoding":"inplace","label":"uint40","numberOfBytes":"5"},"t_uint8":{"encoding":"inplace","label":"uint8","numberOfBytes":"1"}}},"userdoc":{"kind":"user","methods":{},"version":1}}}}