{"contracts/Kibo.sol":{"Kibo":{"abi":[{"inputs":[],"name":"AlreadyClaimed","type":"error"},{"inputs":[],"name":"AmountOutOfRange","type":"error"},{"inputs":[],"name":"NeedMilestone","type":"error"},{"inputs":[],"name":"NothingToWithdraw","type":"error"},{"inputs":[],"name":"PoolEmpty","type":"error"},{"inputs":[],"name":"TooSoon","type":"error"},{"inputs":[],"name":"TransferFailed","type":"error"},{"anonymous":false,"inputs":[{"indexed":true,"internalType":"address","name":"user","type":"address"},{"indexed":false,"internalType":"uint32","name":"streak","type":"uint32"},{"indexed":false,"internalType":"uint40","name":"timestamp","type":"uint40"}],"name":"Deposited","type":"event"},{"anonymous":false,"inputs":[{"indexed":true,"internalType":"address","name":"funder","type":"address"},{"indexed":false,"internalType":"uint256","name":"amount","type":"uint256"}],"name":"PoolFunded","type":"event"},{"anonymous":false,"inputs":[{"indexed":true,"internalType":"address","name":"user","type":"address"},{"indexed":false,"internalType":"uint32","name":"streak","type":"uint32"},{"indexed":false,"internalType":"uint256","name":"reward","type":"uint256"}],"name":"RewardClaimed","type":"event"},{"anonymous":false,"inputs":[{"indexed":true,"internalType":"address","name":"user","type":"address"},{"indexed":false,"internalType":"uint32","name":"streak","type":"uint32"},{"indexed":false,"internalType":"uint8","name":"shieldsLeft","type":"uint8"}],"name":"ShieldUsed","type":"event"},{"anonymous":false,"inputs":[{"indexed":true,"internalType":"address","name":"user","type":"address"},{"indexed":false,"internalType":"uint32","name":"oldStreak","type":"uint32"}],"name":"StreakBroken","type":"event"},{"inputs":[],"name":"COOLDOWN","outputs":[{"internalType":"uint256","name":"","type":"uint256"}],"stateMutability":"view","type":"function"},{"inputs":[],"name":"MAX_DEPOSIT","outputs":[{"internalType":"uint256","name":"","type":"uint256"}],"stateMutability":"view","type":"function"},{"inputs":[],"name":"MAX_SHIELDS","outputs":[{"internalType":"uint8","name":"","type":"uint8"}],"stateMutability":"view","type":"function"},{"inputs":[],"name":"MIN_DEPOSIT","outputs":[{"internalType":"uint256","name":"","type":"uint256"}],"stateMutability":"view","type":"function"},{"inputs":[],"name":"REWARD_TIER1","outputs":[{"internalType":"uint256","name":"","type":"uint256"}],"stateMutability":"view","type":"function"},{"inputs":[],"name":"REWARD_TIER2","outputs":[{"internalType":"uint256","name":"","type":"uint256"}],"stateMutability":"view","type":"function"},{"inputs":[],"name":"REWARD_TIER3","outputs":[{"internalType":"uint256","name":"","type":"uint256"}],"stateMutability":"view","type":"function"},{"inputs":[],"name":"STREAK_THRESHOLD","outputs":[{"internalType":"uint256","name":"","type":"uint256"}],"stateMutability":"view","type":"function"},{"inputs":[],"name":"cUSD","outputs":[{"internalType":"contract IERC20","name":"","type":"address"}],"stateMutability":"view","type":"function"},{"inputs":[],"name":"claimReward","outputs":[],"stateMutability":"nonpayable","type":"function"},{"inputs":[{"internalType":"uint256","name":"amount","type":"uint256"}],"name":"deposit","outputs":[],"stateMutability":"nonpayable","type":"function"},{"inputs":[{"internalType":"uint256","name":"","type":"uint256"}],"name":"depositors","outputs":[{"internalType":"address","name":"","type":"address"}],"stateMutability":"view","type":"function"},{"inputs":[{"internalType":"uint256","name":"amount","type":"uint256"}],"name":"fundPool","outputs":[],"stateMutability":"nonpayable","type":"function"},{"inputs":[{"internalType":"uint256","name":"limit","type":"uint256"}],"name":"getLeaderboard","outputs":[{"internalType":"address[]","name":"addrs","type":"address[]"},{"internalType":"uint256[]","name":"streaks","type":"uint256[]"},{"internalType":"uint256[]","name":"totals","type":"uint256[]"}],"stateMutability":"view","type":"function"},{"inputs":[{"internalType":"address","name":"user","type":"address"}],"name":"getUser","outputs":[{"internalType":"uint256","name":"streak","type":"uint256"},{"internalType":"uint256","name":"lastDeposit","type":"uint256"},{"internalType":"uint256","name":"totalDeposited","type":"uint256"},{"internalType":"uint256","name":"longestStreak","type":"uint256"},{"internalType":"bool","name":"canDeposit","type":"bool"},{"internalType":"uint256","name":"lastClaimedStreak","type":"uint256"},{"internalType":"uint8","name":"shields","type":"uint8"}],"stateMutability":"view","type":"function"},{"inputs":[],"name":"poolBalance","outputs":[{"internalType":"uint256","name":"","type":"uint256"}],"stateMutability":"view","type":"function"},{"inputs":[],"name":"totalDepositors","outputs":[{"internalType":"uint256","name":"","type":"uint256"}],"stateMutability":"view","type":"function"},{"inputs":[{"internalType":"address","name":"","type":"address"}],"name":"users","outputs":[{"internalType":"uint32","name":"streak","type":"uint32"},{"internalType":"uint32","name":"longestStreak","type":"uint32"},{"internalType":"uint32","name":"lastClaimedStreak","type":"uint32"},{"internalType":"uint40","name":"lastDeposit","type":"uint40"},{"internalType":"bool","name":"isDepositor","type":"bool"},{"internalType":"uint8","name":"shields","type":"uint8"},{"internalType":"uint128","name":"totalDeposited","type":"uint128"}],"stateMutability":"view","type":"function"},{"inputs":[],"name":"withdraw","outputs":[],"stateMutability":"nonpayable","type":"function"}],"devdoc":{"kind":"dev","methods":{},"version":1},"evm":{"bytecode":{"linkReferences":{},"object":"608060405234801561001057600080fd5b506114d1806100206000396000f3fe608060405234801561001057600080fd5b50600436106101215760003560e01c8063a4dbf55e116100ad578063da3a5f7211610071578063da3a5f721461031f578063dd5967c314610332578063e1a4ae7b14610341578063e1e158a51461034f578063e4b2fb791461035c57600080fd5b8063a4dbf55e1461021d578063a87430ba1461022b578063b6b55f25146102f6578063b88a802f14610309578063cc0ee5091461031157600080fd5b8063546cea86116100f4578063546cea86146101825780636f77926b1461019c57806396365d44146101e9578063a2724a4d146101f1578063a34b46fe146101fb57600080fd5b80631fccf672146101265780633ccfd60b1461015e578063418f3128146101685780634c8530ce1461017a575b600080fd5b61014173765de816845861e75a25fca122bb6898b8b1282a81565b6040516001600160a01b0390911681526020015b60405180910390f35b61016661036f565b005b6001545b604051908152602001610155565b61016c600781565b61018a600381565b60405160ff9091168152602001610155565b6101af6101aa3660046112a5565b61048b565b6040805197885260208801969096529486019390935260608501919091521515608084015260a083015260ff1660c082015260e001610155565b61016c610540565b61016c6201194081565b61020e6102093660046112d5565b6105bb565b60405161015593929190611329565b61016c6658d15e1762800081565b61029f6102393660046112a5565b6000602081905290815260409020805460019091015463ffffffff808316926401000000008104821692600160401b82049092169164ffffffffff600160601b8304169160ff600160881b8204811692600160901b90920416906001600160801b031687565b6040805163ffffffff98891681529688166020880152949096169385019390935264ffffffffff9190911660608401521515608083015260ff1660a08201526001600160801b0390911660c082015260e001610155565b6101666103043660046112d5565b610b3d565b610166610eef565b61016c6611c37937e0800081565b61016661032d3660046112d5565b61115c565b61016c670de0b6b3a764000081565b61016c662aa1efb94e000081565b61016c655af3107a400081565b61014161036a3660046112d5565b611233565b336000908152602081905260408120600181015490916001600160801b03909116908190036103b157604051630686827b60e51b815260040160405180910390fd5b6001820180546fffffffffffffffffffffffffffffffff19169055815472ff00ffffffffffffffffff00000000ffffffff1916825560405163a9059cbb60e01b81523360048201526001600160801b038216602482015273765de816845861e75a25fca122bb6898b8b1282a9063a9059cbb906044016020604051808303816000875af1158015610446573d6000803e3d6000fd5b505050506040513d601f19601f8201168201806040525081019061046a919061139e565b610487576040516312171d8360e31b815260040160405180910390fd5b5050565b6001600160a01b03811660009081526020819052604081208054600182015483928392839283928392839263ffffffff8083169264ffffffffff600160601b820416926001600160801b031691640100000000909104166104ef62011940846113d6565b945463ffffffff9485169e64ffffffffff9485169e506001600160801b03939093169c509084169a504290921693909310159750600160401b81049091169550600160901b900460ff169350915050565b6040516370a0823160e01b815230600482015260009073765de816845861e75a25fca122bb6898b8b1282a906370a0823190602401602060405180830381865afa158015610592573d6000803e3d6000fd5b505050506040513d601f19601f820116820180604052508101906105b691906113ef565b905090565b60015460609081908190600060c882106105d65760c86105d8565b815b905060008682106105e957866105eb565b815b905060008267ffffffffffffffff81111561060857610608611408565b604051908082528060200260200182016040528015610631578160200160208202803683370190505b50905060008367ffffffffffffffff81111561064f5761064f611408565b604051908082528060200260200182016040528015610678578160200160208202803683370190505b50905060008467ffffffffffffffff81111561069657610696611408565b6040519080825280602002602001820160405280156106bf578160200160208202803683370190505b50905060005b858110156107bb576000600182815481106106e2576106e261141e565b9060005260206000200160009054906101000a90046001600160a01b03169050808583815181106107155761071561141e565b6001600160a01b039283166020918202929092018101919091529082166000908152908190526040902054845163ffffffff9091169085908490811061075d5761075d61141e565b6020908102919091018101919091526001600160a01b038216600090815290819052604090206001015483516001600160801b03909116908490849081106107a7576107a761141e565b6020908102919091010152506001016106c5565b5060005b84811015610991578060006107d58260016113d6565b90505b87811015610826578482815181106107f2576107f261141e565b602002602001015185828151811061080c5761080c61141e565b6020026020010151111561081e578091505b6001016107d8565b50818114610988578481815181106108405761084061141e565b602002602001015185838151811061085a5761085a61141e565b60200260200101518684815181106108745761087461141e565b6020026020010187848151811061088d5761088d61141e565b6001600160a01b0393841660209182029290920101529116905283518490829081106108bb576108bb61141e565b60200260200101518483815181106108d5576108d561141e565b60200260200101518584815181106108ef576108ef61141e565b602002602001018684815181106109085761090861141e565b602002602001018281525082815250505082818151811061092b5761092b61141e565b60200260200101518383815181106109455761094561141e565b602002602001015184848151811061095f5761095f61141e565b602002602001018584815181106109785761097861141e565b6020908102919091010191909152525b506001016107bf565b508367ffffffffffffffff8111156109ab576109ab611408565b6040519080825280602002602001820160405280156109d4578160200160208202803683370190505b5098508367ffffffffffffffff8111156109f0576109f0611408565b604051908082528060200260200182016040528015610a19578160200160208202803683370190505b5097508367ffffffffffffffff811115610a3557610a35611408565b604051908082528060200260200182016040528015610a5e578160200160208202803683370190505b50965060005b84811015610b2f57838181518110610a7e57610a7e61141e565b60200260200101518a8281518110610a9857610a9861141e565b60200260200101906001600160a01b031690816001600160a01b031681525050828181518110610aca57610aca61141e565b6020026020010151898281518110610ae457610ae461141e565b602002602001018181525050818181518110610b0257610b0261141e565b6020026020010151888281518110610b1c57610b1c61141e565b6020908102919091010152600101610a64565b505050505050509193909250565b655af3107a4000811080610b585750670de0b6b3a764000081115b15610b765760405163c64200e960e01b815260040160405180910390fd5b33600090815260208190526040902080544290610ba5906201194090600160601b900464ffffffffff166113d6565b8164ffffffffff161015610bcc57604051636fed7d8560e01b815260040160405180910390fd5b8154600160601b900464ffffffffff1615801590610c1357508154610c0290600160601b900464ffffffffff166202a300611434565b64ffffffffff168164ffffffffff16115b15610cea578154600160901b900460ff1615610ca057815460ff60901b198116600160901b80830460ff90811660001901811682029283178087556040805163ffffffff968716969095169590951784529190910416602082015233917fa3cd923e771784f8ab03c4bc813511f007df871c8652c02cd19cc966132b1964910160405180910390a2610cea565b815460405163ffffffff909116815233907fc0539bb1c6561e4f713a8725d44795917796a9717ae897fbc6707ef291fac9b09060200160405180910390a2815463ffffffff191682555b6040516323b872dd60e01b81523360048201523060248201526044810184905273765de816845861e75a25fca122bb6898b8b1282a906323b872dd906064016020604051808303816000875af1158015610d48573d6000803e3d6000fd5b505050506040513d601f19601f82011682018060405250810190610d6c919061139e565b610d89576040516312171d8360e31b815260040160405180910390fd5b815464ffffffffff8216600160601b0270ffffffffff0000000000000000ffffffff19821663ffffffff92831660019081019093161717835582018054849190600090610de09084906001600160801b0316611459565b82546001600160801b039182166101009390930a928302919092021990911617905550815463ffffffff6401000000008204811691161115610e3d57815464010000000063ffffffff82160267ffffffff00000000199091161782555b8154600160881b900460ff16610ea057815460ff60881b1916600160881b1782556001805480820182556000919091527fb10e2d527612073b26eecdfd717e6a320cf44b4afac2b0732d9fcbe2b7fa0cf60180546001600160a01b031916331790555b81546040805163ffffffff909216825264ffffffffff8316602083015233917f1091413ac916d6d977ba19245be465e86c3dfd74cc7c9903af6856d3e3668e55910160405180910390a2505050565b3360009081526020819052604090208054600763ffffffff9091161080610f2857508054610f259060079063ffffffff16611479565b15155b15610f4657604051632e6d9aff60e01b815260040160405180910390fd5b805463ffffffff600160401b82048116911611610f7657604051630c8d9eab60e31b815260040160405180910390fd5b8054600090610f8a9063ffffffff1661125d565b6040516370a0823160e01b8152306004820152909150819073765de816845861e75a25fca122bb6898b8b1282a906370a0823190602401602060405180830381865afa158015610fde573d6000803e3d6000fd5b505050506040513d601f19601f8201168201806040525081019061100291906113ef565b1015611021576040516305ce024d60e51b815260040160405180910390fd5b8154600160401b63ffffffff8216026bffffffff000000000000000019909116178083556003600160901b90910460ff16101561107b578154600160ff600160901b808404821692909201160260ff60901b199091161782555b60405163a9059cbb60e01b81523360048201526024810182905273765de816845861e75a25fca122bb6898b8b1282a9063a9059cbb906044016020604051808303816000875af11580156110d3573d6000803e3d6000fd5b505050506040513d601f19601f820116820180604052508101906110f7919061139e565b611114576040516312171d8360e31b815260040160405180910390fd5b81546040805163ffffffff90921682526020820183905233917f0d26a00dfd91636328b46a49a079c1612a57c89258f2fea78c7469ec0b5f8047910160405180910390a25050565b6040516323b872dd60e01b81523360048201523060248201526044810182905273765de816845861e75a25fca122bb6898b8b1282a906323b872dd906064016020604051808303816000875af11580156111ba573d6000803e3d6000fd5b505050506040513d601f19601f820116820180604052508101906111de919061139e565b6111fb576040516312171d8360e31b815260040160405180910390fd5b60405181815233907f32173d8e51cec3a6fe484b7a1c3febe760cdf96e03d4cca36a43563a4333e8389060200160405180910390a250565b6001818154811061124357600080fd5b6000918252602090912001546001600160a01b0316905081565b6000601e8263ffffffff161061127b57506658d15e17628000919050565b600e8263ffffffff16106112975750662aa1efb94e0000919050565b506611c37937e08000919050565b6000602082840312156112b757600080fd5b81356001600160a01b03811681146112ce57600080fd5b9392505050565b6000602082840312156112e757600080fd5b5035919050565b600081518084526020808501945080840160005b8381101561131e57815187529582019590820190600101611302565b509495945050505050565b606080825284519082018190526000906020906080840190828801845b8281101561136b5781516001600160a01b031684529284019290840190600101611346565b5050508381038285015261137f81876112ee565b915050828103604084015261139481856112ee565b9695505050505050565b6000602082840312156113b057600080fd5b815180151581146112ce57600080fd5b634e487b7160e01b600052601160045260246000fd5b808201808211156113e9576113e96113c0565b92915050565b60006020828403121561140157600080fd5b5051919050565b634e487b7160e01b600052604160045260246000fd5b634e487b7160e01b600052603260045260246000fd5b64ffffffffff818116838216019080821115611452576114526113c0565b5092915050565b6001600160801b03818116838216019080821115611452576114526113c0565b60008261149657634e487b7160e01b600052601260045260246000fd5b50069056fea26469706673582212203ab428b74478a9d1e149661e792ba893087e1b67ae37b724daeffeb94ae7649464736f6c63430008140033","opcodes":"PUSH1 0x80 PUSH1 0x40 MSTORE CALLVALUE DUP1 ISZERO PUSH2 0x10 JUMPI PUSH1 0x0 DUP1 REVERT JUMPDEST POP PUSH2 0x14D1 DUP1 PUSH2 0x20 PUSH1 0x0 CODECOPY PUSH1 0x0 RETURN INVALID PUSH1 0x80 PUSH1 0x40 MSTORE CALLVALUE DUP1 ISZERO PUSH2 0x10 JUMPI PUSH1 0x0 DUP1 REVERT JUMPDEST POP PUSH1 0x4 CALLDATASIZE LT PUSH2 0x121 JUMPI PUSH1 0x0 CALLDATALOAD PUSH1 0xE0 SHR DUP1 PUSH4 0xA4DBF55E GT PUSH2 0xAD JUMPI DUP1 PUSH4 0xDA3A5F72 GT PUSH2 0x71 JUMPI DUP1 PUSH4 0xDA3A5F72 EQ PUSH2 0x31F JUMPI DUP1 PUSH4 0xDD5967C3 EQ PUSH2 0x332 JUMPI DUP1 PUSH4 0xE1A4AE7B EQ PUSH2 0x341 JUMPI DUP1 PUSH4 0xE1E158A5 EQ PUSH2 0x34F JUMPI DUP1 PUSH4 0xE4B2FB79 EQ PUSH2 0x35C JUMPI PUSH1 0x0 DUP1 REVERT JUMPDEST DUP1 PUSH4 0xA4DBF55E EQ PUSH2 0x21D JUMPI DUP1 PUSH4 0xA87430BA EQ PUSH2 0x22B JUMPI DUP1 PUSH4 0xB6B55F25 EQ PUSH2 0x2F6 JUMPI DUP1 PUSH4 0xB88A802F EQ PUSH2 0x309 JUMPI DUP1 PUSH4 0xCC0EE509 EQ PUSH2 0x311 JUMPI PUSH1 0x0 DUP1 REVERT JUMPDEST DUP1 PUSH4 0x546CEA86 GT PUSH2 0xF4 JUMPI DUP1 PUSH4 0x546CEA86 EQ PUSH2 0x182 JUMPI DUP1 PUSH4 0x6F77926B EQ PUSH2 0x19C JUMPI DUP1 PUSH4 0x96365D44 EQ PUSH2 0x1E9 JUMPI DUP1 PUSH4 0xA2724A4D EQ PUSH2 0x1F1 JUMPI DUP1 PUSH4 0xA34B46FE EQ PUSH2 0x1FB JUMPI PUSH1 0x0 DUP1 REVERT JUMPDEST DUP1 PUSH4 0x1FCCF672 EQ PUSH2 0x126 JUMPI DUP1 PUSH4 0x3CCFD60B EQ PUSH2 0x15E JUMPI DUP1 PUSH4 0x418F3128 EQ PUSH2 0x168 JUMPI DUP1 PUSH4 0x4C8530CE EQ PUSH2 0x17A JUMPI JUMPDEST PUSH1 0x0 DUP1 REVERT JUMPDEST PUSH2 0x141 PUSH20 0x765DE816845861E75A25FCA122BB6898B8B1282A DUP2 JUMP JUMPDEST PUSH1 0x40 MLOAD PUSH1 0x1 PUSH1 0x1 PUSH1 0xA0 SHL SUB SWAP1 SWAP2 AND DUP2 MSTORE PUSH1 0x20 ADD JUMPDEST PUSH1 0x40 MLOAD DUP1 SWAP2 SUB SWAP1 RETURN JUMPDEST PUSH2 0x166 PUSH2 0x36F JUMP JUMPDEST STOP JUMPDEST PUSH1 0x1 SLOAD JUMPDEST PUSH1 0x40 MLOAD SWAP1 DUP2 MSTORE PUSH1 0x20 ADD PUSH2 0x155 JUMP JUMPDEST PUSH2 0x16C PUSH1 0x7 DUP2 JUMP JUMPDEST PUSH2 0x18A PUSH1 0x3 DUP2 JUMP JUMPDEST PUSH1 0x40 MLOAD PUSH1 0xFF SWAP1 SWAP2 AND DUP2 MSTORE PUSH1 0x20 ADD PUSH2 0x155 JUMP JUMPDEST PUSH2 0x1AF PUSH2 0x1AA CALLDATASIZE PUSH1 0x4 PUSH2 0x12A5 JUMP JUMPDEST PUSH2 0x48B JUMP JUMPDEST PUSH1 0x40 DUP1 MLOAD SWAP8 DUP9 MSTORE PUSH1 0x20 DUP9 ADD SWAP7 SWAP1 SWAP7 MSTORE SWAP5 DUP7 ADD SWAP4 SWAP1 SWAP4 MSTORE PUSH1 0x60 DUP6 ADD SWAP2 SWAP1 SWAP2 MSTORE ISZERO ISZERO PUSH1 0x80 DUP5 ADD MSTORE PUSH1 0xA0 DUP4 ADD MSTORE PUSH1 0xFF AND PUSH1 0xC0 DUP3 ADD MSTORE PUSH1 0xE0 ADD PUSH2 0x155 JUMP JUMPDEST PUSH2 0x16C PUSH2 0x540 JUMP JUMPDEST PUSH2 0x16C PUSH3 0x11940 DUP2 JUMP JUMPDEST PUSH2 0x20E PUSH2 0x209 CALLDATASIZE PUSH1 0x4 PUSH2 0x12D5 JUMP JUMPDEST PUSH2 0x5BB JUMP JUMPDEST PUSH1 0x40 MLOAD PUSH2 0x155 SWAP4 SWAP3 SWAP2 SWAP1 PUSH2 0x1329 JUMP JUMPDEST PUSH2 0x16C PUSH7 0x58D15E17628000 DUP2 JUMP JUMPDEST PUSH2 0x29F PUSH2 0x239 CALLDATASIZE PUSH1 0x4 PUSH2 0x12A5 JUMP JUMPDEST PUSH1 0x0 PUSH1 0x20 DUP2 SWAP1 MSTORE SWAP1 DUP2 MSTORE PUSH1 0x40 SWAP1 KECCAK256 DUP1 SLOAD PUSH1 0x1 SWAP1 SWAP2 ADD SLOAD PUSH4 0xFFFFFFFF DUP1 DUP4 AND SWAP3 PUSH5 0x100000000 DUP2 DIV DUP3 AND SWAP3 PUSH1 0x1 PUSH1 0x40 SHL DUP3 DIV SWAP1 SWAP3 AND SWAP2 PUSH5 0xFFFFFFFFFF PUSH1 0x1 PUSH1 0x60 SHL DUP4 DIV AND SWAP2 PUSH1 0xFF PUSH1 0x1 PUSH1 0x88 SHL DUP3 DIV DUP2 AND SWAP3 PUSH1 0x1 PUSH1 0x90 SHL SWAP1 SWAP3 DIV AND SWAP1 PUSH1 0x1 PUSH1 0x1 PUSH1 0x80 SHL SUB AND DUP8 JUMP JUMPDEST PUSH1 0x40 DUP1 MLOAD PUSH4 0xFFFFFFFF SWAP9 DUP10 AND DUP2 MSTORE SWAP7 DUP9 AND PUSH1 0x20 DUP9 ADD MSTORE SWAP5 SWAP1 SWAP7 AND SWAP4 DUP6 ADD SWAP4 SWAP1 SWAP4 MSTORE PUSH5 0xFFFFFFFFFF SWAP2 SWAP1 SWAP2 AND PUSH1 0x60 DUP5 ADD MSTORE ISZERO ISZERO PUSH1 0x80 DUP4 ADD MSTORE PUSH1 0xFF AND PUSH1 0xA0 DUP3 ADD MSTORE PUSH1 0x1 PUSH1 0x1 PUSH1 0x80 SHL SUB SWAP1 SWAP2 AND PUSH1 0xC0 DUP3 ADD MSTORE PUSH1 0xE0 ADD PUSH2 0x155 JUMP JUMPDEST PUSH2 0x166 PUSH2 0x304 CALLDATASIZE PUSH1 0x4 PUSH2 0x12D5 JUMP JUMPDEST PUSH2 0xB3D JUMP JUMPDEST PUSH2 0x166 PUSH2 0xEEF JUMP JUMPDEST PUSH2 0x16C PUSH7 0x11C37937E08000 DUP2 JUMP JUMPDEST PUSH2 0x166 PUSH2 0x32D CALLDATASIZE PUSH1 0x4 PUSH2 0x12D5 JUMP JUMPDEST PUSH2 0x115C JUMP JUMPDEST PUSH2 0x16C PUSH8 0xDE0B6B3A7640000 DUP2 JUMP JUMPDEST PUSH2 0x16C PUSH7 0x2AA1EFB94E0000 DUP2 JUMP JUMPDEST PUSH2 0x16C PUSH6 0x5AF3107A4000 DUP2 JUMP JUMPDEST PUSH2 0x141 PUSH2 0x36A CALLDATASIZE PUSH1 0x4 PUSH2 0x12D5 JUMP JUMPDEST PUSH2 0x1233 JUMP JUMPDEST CALLER PUSH1 0x0 SWAP1 DUP2 MSTORE PUSH1 0x20 DUP2 SWAP1 MSTORE PUSH1 0x40 DUP2 KECCAK256 PUSH1 0x1 DUP2 ADD SLOAD SWAP1 SWAP2 PUSH1 0x1 PUSH1 0x1 PUSH1 0x80 SHL SUB SWAP1 SWAP2 AND SWAP1 DUP2 SWAP1 SUB PUSH2 0x3B1 JUMPI PUSH1 0x40 MLOAD PUSH4 0x686827B PUSH1 0xE5 SHL DUP2 MSTORE PUSH1 0x4 ADD PUSH1 0x40 MLOAD DUP1 SWAP2 SUB SWAP1 REVERT JUMPDEST PUSH1 0x1 DUP3 ADD DUP1 SLOAD PUSH16 0xFFFFFFFFFFFFFFFFFFFFFFFFFFFFFFFF NOT AND SWAP1 SSTORE DUP2 SLOAD PUSH19 0xFF00FFFFFFFFFFFFFFFFFF00000000FFFFFFFF NOT AND DUP3 SSTORE PUSH1 0x40 MLOAD PUSH4 0xA9059CBB PUSH1 0xE0 SHL DUP2 MSTORE CALLER PUSH1 0x4 DUP3 ADD MSTORE PUSH1 0x1 PUSH1 0x1 PUSH1 0x80 SHL SUB DUP3 AND PUSH1 0x24 DUP3 ADD MSTORE PUSH20 0x765DE816845861E75A25FCA122BB6898B8B1282A SWAP1 PUSH4 0xA9059CBB SWAP1 PUSH1 0x44 ADD PUSH1 0x20 PUSH1 0x40 MLOAD DUP1 DUP4 SUB DUP2 PUSH1 0x0 DUP8 GAS CALL ISZERO DUP1 ISZERO PUSH2 0x446 JUMPI RETURNDATASIZE PUSH1 0x0 DUP1 RETURNDATACOPY RETURNDATASIZE PUSH1 0x0 REVERT JUMPDEST POP POP POP POP PUSH1 0x40 MLOAD RETURNDATASIZE PUSH1 0x1F NOT PUSH1 0x1F DUP3 ADD AND DUP3 ADD DUP1 PUSH1 0x40 MSTORE POP DUP2 ADD SWAP1 PUSH2 0x46A SWAP2 SWAP1 PUSH2 0x139E JUMP JUMPDEST PUSH2 0x487 JUMPI PUSH1 0x40 MLOAD PUSH4 0x12171D83 PUSH1 0xE3 SHL DUP2 MSTORE PUSH1 0x4 ADD PUSH1 0x40 MLOAD DUP1 SWAP2 SUB SWAP1 REVERT JUMPDEST POP POP JUMP JUMPDEST PUSH1 0x1 PUSH1 0x1 PUSH1 0xA0 SHL SUB DUP2 AND PUSH1 0x0 SWAP1 DUP2 MSTORE PUSH1 0x20 DUP2 SWAP1 MSTORE PUSH1 0x40 DUP2 KECCAK256 DUP1 SLOAD PUSH1 0x1 DUP3 ADD SLOAD DUP4 SWAP3 DUP4 SWAP3 DUP4 SWAP3 DUP4 SWAP3 DUP4 SWAP3 DUP4 SWAP3 PUSH4 0xFFFFFFFF DUP1 DUP4 AND SWAP3 PUSH5 0xFFFFFFFFFF PUSH1 0x1 PUSH1 0x60 SHL DUP3 DIV AND SWAP3 PUSH1 0x1 PUSH1 0x1 PUSH1 0x80 SHL SUB AND SWAP2 PUSH5 0x100000000 SWAP1 SWAP2 DIV AND PUSH2 0x4EF PUSH3 0x11940 DUP5 PUSH2 0x13D6 JUMP JUMPDEST SWAP5 SLOAD PUSH4 0xFFFFFFFF SWAP5 DUP6 AND SWAP15 PUSH5 0xFFFFFFFFFF SWAP5 DUP6 AND SWAP15 POP PUSH1 0x1 PUSH1 0x1 PUSH1 0x80 SHL SUB SWAP4 SWAP1 SWAP4 AND SWAP13 POP SWAP1 DUP5 AND SWAP11 POP TIMESTAMP SWAP1 SWAP3 AND SWAP4 SWAP1 SWAP4 LT ISZERO SWAP8 POP PUSH1 0x1 PUSH1 0x40 SHL DUP2 DIV SWAP1 SWAP2 AND SWAP6 POP PUSH1 0x1 PUSH1 0x90 SHL SWAP1 DIV PUSH1 0xFF AND SWAP4 POP SWAP2 POP POP JUMP JUMPDEST PUSH1 0x40 MLOAD PUSH4 0x70A08231 PUSH1 0xE0 SHL DUP2 MSTORE ADDRESS PUSH1 0x4 DUP3 ADD MSTORE PUSH1 0x0 SWAP1 PUSH20 0x765DE816845861E75A25FCA122BB6898B8B1282A SWAP1 PUSH4 0x70A08231 SWAP1 PUSH1 0x24 ADD PUSH1 0x20 PUSH1 0x40 MLOAD DUP1 DUP4 SUB DUP2 DUP7 GAS STATICCALL ISZERO DUP1 ISZERO PUSH2 0x592 JUMPI RETURNDATASIZE PUSH1 0x0 DUP1 RETURNDATACOPY RETURNDATASIZE PUSH1 0x0 REVERT JUMPDEST POP POP POP POP PUSH1 0x40 MLOAD RETURNDATASIZE PUSH1 0x1F NOT PUSH1 0x1F DUP3 ADD AND DUP3 ADD DUP1 PUSH1 0x40 MSTORE POP DUP2 ADD SWAP1 PUSH2 0x5B6 SWAP2 SWAP1 PUSH2 0x13EF JUMP JUMPDEST SWAP1 POP SWAP1 JUMP JUMPDEST PUSH1 0x1 SLOAD PUSH1 0x60 SWAP1 DUP2 SWAP1 DUP2 SWAP1 PUSH1 0x0 PUSH1 0xC8 DUP3 LT PUSH2 0x5D6 JUMPI PUSH1 0xC8 PUSH2 0x5D8 JUMP JUMPDEST DUP2 JUMPDEST SWAP1 POP PUSH1 0x0 DUP7 DUP3 LT PUSH2 0x5E9 JUMPI DUP7 PUSH2 0x5EB JUMP JUMPDEST DUP2 JUMPDEST SWAP1 POP PUSH1 0x0 DUP3 PUSH8 0xFFFFFFFFFFFFFFFF DUP2 GT ISZERO PUSH2 0x608 JUMPI PUSH2 0x608 PUSH2 0x1408 JUMP JUMPDEST PUSH1 0x40 MLOAD SWAP1 DUP1 DUP3 MSTORE DUP1 PUSH1 0x20 MUL PUSH1 0x20 ADD DUP3 ADD PUSH1 0x40 MSTORE DUP1 ISZERO PUSH2 0x631 JUMPI DUP2 PUSH1 0x20 ADD PUSH1 0x20 DUP3 MUL DUP1 CALLDATASIZE DUP4 CALLDATACOPY ADD SWAP1 POP JUMPDEST POP SWAP1 POP PUSH1 0x0 DUP4 PUSH8 0xFFFFFFFFFFFFFFFF DUP2 GT ISZERO PUSH2 0x64F JUMPI PUSH2 0x64F PUSH2 0x1408 JUMP JUMPDEST PUSH1 0x40 MLOAD SWAP1 DUP1 DUP3 MSTORE DUP1 PUSH1 0x20 MUL PUSH1 0x20 ADD DUP3 ADD PUSH1 0x40 MSTORE DUP1 ISZERO PUSH2 0x678 JUMPI DUP2 PUSH1 0x20 ADD PUSH1 0x20 DUP3 MUL DUP1 CALLDATASIZE DUP4 CALLDATACOPY ADD SWAP1 POP JUMPDEST POP SWAP1 POP PUSH1 0x0 DUP5 PUSH8 0xFFFFFFFFFFFFFFFF DUP2 GT ISZERO PUSH2 0x696 JUMPI PUSH2 0x696 PUSH2 0x1408 JUMP JUMPDEST PUSH1 0x40 MLOAD SWAP1 DUP1 DUP3 MSTORE DUP1 PUSH1 0x20 MUL PUSH1 0x20 ADD DUP3 ADD PUSH1 0x40 MSTORE DUP1 ISZERO PUSH2 0x6BF JUMPI DUP2 PUSH1 0x20 ADD PUSH1 0x20 DUP3 MUL DUP1 CALLDATASIZE DUP4 CALLDATACOPY ADD SWAP1 POP JUMPDEST POP SWAP1 POP PUSH1 0x0 JUMPDEST DUP6 DUP2 LT ISZERO PUSH2 0x7BB JUMPI PUSH1 0x0 PUSH1 0x1 DUP3 DUP2 SLOAD DUP2 LT PUSH2 0x6E2 JUMPI PUSH2 0x6E2 PUSH2 0x141E JUMP JUMPDEST SWAP1 PUSH1 0x0 MSTORE PUSH1 0x20 PUSH1 0x0 KECCAK256 ADD PUSH1 0x0 SWAP1 SLOAD SWAP1 PUSH2 0x100 EXP SWAP1 DIV PUSH1 0x1 PUSH1 0x1 PUSH1 0xA0 SHL SUB AND SWAP1 POP DUP1 DUP6 DUP4 DUP2 MLOAD DUP2 LT PUSH2 0x715 JUMPI PUSH2 0x715 PUSH2 0x141E JUMP JUMPDEST PUSH1 0x1 PUSH1 0x1 PUSH1 0xA0 SHL SUB SWAP3 DUP4 AND PUSH1 0x20 SWAP2 DUP3 MUL SWAP3 SWAP1 SWAP3 ADD DUP2 ADD SWAP2 SWAP1 SWAP2 MSTORE SWAP1 DUP3 AND PUSH1 0x0 SWAP1 DUP2 MSTORE SWAP1 DUP2 SWAP1 MSTORE PUSH1 0x40 SWAP1 KECCAK256 SLOAD DUP5 MLOAD PUSH4 0xFFFFFFFF SWAP1 SWAP2 AND SWAP1 DUP6 SWAP1 DUP5 SWAP1 DUP2 LT PUSH2 0x75D JUMPI PUSH2 0x75D PUSH2 0x141E JUMP JUMPDEST PUSH1 0x20 SWAP1 DUP2 MUL SWAP2 SWAP1 SWAP2 ADD DUP2 ADD SWAP2 SWAP1 SWAP2 MSTORE PUSH1 0x1 PUSH1 0x1 PUSH1 0xA0 SHL SUB DUP3 AND PUSH1 0x0 SWAP1 DUP2 MSTORE SWAP1 DUP2 SWAP1 MSTORE PUSH1 0x40 SWAP1 KECCAK256 PUSH1 0x1 ADD SLOAD DUP4 MLOAD PUSH1 0x1 PUSH1 0x1 PUSH1 0x80 SHL SUB SWAP1 SWAP2 AND SWAP1 DUP5 SWAP1 DUP5 SWAP1 DUP2 LT PUSH2 0x7A7 JUMPI PUSH2 0x7A7 PUSH2 0x141E JUMP JUMPDEST PUSH1 0x20 SWAP1 DUP2 MUL SWAP2 SWAP1 SWAP2 ADD ADD MSTORE POP PUSH1 0x1 ADD PUSH2 0x6C5 JUMP JUMPDEST POP PUSH1 0x0 JUMPDEST DUP5 DUP2 LT ISZERO PUSH2 0x991 JUMPI DUP1 PUSH1 0x0 PUSH2 0x7D5 DUP3 PUSH1 0x1 PUSH2 0x13D6 JUMP JUMPDEST SWAP1 POP JUMPDEST DUP8 DUP2 LT ISZERO PUSH2 0x826 JUMPI DUP5 DUP3 DUP2 MLOAD DUP2 LT PUSH2 0x7F2 JUMPI PUSH2 0x7F2 PUSH2 0x141E JUMP JUMPDEST PUSH1 0x20 MUL PUSH1 0x20 ADD ADD MLOAD DUP6 DUP3 DUP2 MLOAD DUP2 LT PUSH2 0x80C JUMPI PUSH2 0x80C PUSH2 0x141E JUMP JUMPDEST PUSH1 0x20 MUL PUSH1 0x20 ADD ADD MLOAD GT ISZERO PUSH2 0x81E JUMPI DUP1 SWAP2 POP JUMPDEST PUSH1 0x1 ADD PUSH2 0x7D8 JUMP JUMPDEST POP DUP2 DUP2 EQ PUSH2 0x988 JUMPI DUP5 DUP2 DUP2 MLOAD DUP2 LT PUSH2 0x840 JUMPI PUSH2 0x840 PUSH2 0x141E JUMP JUMPDEST PUSH1 0x20 MUL PUSH1 0x20 ADD ADD MLOAD DUP6 DUP4 DUP2 MLOAD DUP2 LT PUSH2 0x85A JUMPI PUSH2 0x85A PUSH2 0x141E JUMP JUMPDEST PUSH1 0x20 MUL PUSH1 0x20 ADD ADD MLOAD DUP7 DUP5 DUP2 MLOAD DUP2 LT PUSH2 0x874 JUMPI PUSH2 0x874 PUSH2 0x141E JUMP JUMPDEST PUSH1 0x20 MUL PUSH1 0x20 ADD ADD DUP8 DUP5 DUP2 MLOAD DUP2 LT PUSH2 0x88D JUMPI PUSH2 0x88D PUSH2 0x141E JUMP JUMPDEST PUSH1 0x1 PUSH1 0x1 PUSH1 0xA0 SHL SUB SWAP4 DUP5 AND PUSH1 0x20 SWAP2 DUP3 MUL SWAP3 SWAP1 SWAP3 ADD ADD MSTORE SWAP2 AND SWAP1 MSTORE DUP4 MLOAD DUP5 SWAP1 DUP3 SWAP1 DUP2 LT PUSH2 0x8BB JUMPI PUSH2 0x8BB PUSH2 0x141E JUMP JUMPDEST PUSH1 0x20 MUL PUSH1 0x20 ADD ADD MLOAD DUP5 DUP4 DUP2 MLOAD DUP2 LT PUSH2 0x8D5 JUMPI PUSH2 0x8D5 PUSH2 0x141E JUMP JUMPDEST PUSH1 0x20 MUL PUSH1 0x20 ADD ADD MLOAD DUP6 DUP5 DUP2 MLOAD DUP2 LT PUSH2 0x8EF JUMPI PUSH2 0x8EF PUSH2 0x141E JUMP JUMPDEST PUSH1 0x20 MUL PUSH1 0x20 ADD ADD DUP7 DUP5 DUP2 MLOAD DUP2 LT PUSH2 0x908 JUMPI PUSH2 0x908 PUSH2 0x141E JUMP JUMPDEST PUSH1 0x20 MUL PUSH1 0x20 ADD ADD DUP3 DUP2 MSTORE POP DUP3 DUP2 MSTORE POP POP POP DUP3 DUP2 DUP2 MLOAD DUP2 LT PUSH2 0x92B JUMPI PUSH2 0x92B PUSH2 0x141E JUMP JUMPDEST PUSH1 0x20 MUL PUSH1 0x20 ADD ADD MLOAD DUP4 DUP4 DUP2 MLOAD DUP2 LT PUSH2 0x945 JUMPI PUSH2 0x945 PUSH2 0x141E JUMP JUMPDEST PUSH1 0x20 MUL PUSH1 0x20 ADD ADD MLOAD DUP5 DUP5 DUP2 MLOAD DUP2 LT PUSH2 0x95F JUMPI PUSH2 0x95F PUSH2 0x141E JUMP JUMPDEST PUSH1 0x20 MUL PUSH1 0x20 ADD ADD DUP6 DUP5 DUP2 MLOAD DUP2 LT PUSH2 0x978 JUMPI PUSH2 0x978 PUSH2 0x141E JUMP JUMPDEST PUSH1 0x20 SWAP1 DUP2 MUL SWAP2 SWAP1 SWAP2 ADD ADD SWAP2 SWAP1 SWAP2 MSTORE MSTORE JUMPDEST POP PUSH1 0x1 ADD PUSH2 0x7BF JUMP JUMPDEST POP DUP4 PUSH8 0xFFFFFFFFFFFFFFFF DUP2 GT ISZERO PUSH2 0x9AB JUMPI PUSH2 0x9AB PUSH2 0x1408 JUMP JUMPDEST PUSH1 0x40 MLOAD SWAP1 DUP1 DUP3 MSTORE DUP1 PUSH1 0x20 MUL PUSH1 0x20 ADD DUP3 ADD PUSH1 0x40 MSTORE DUP1 ISZERO PUSH2 0x9D4 JUMPI DUP2 PUSH1 0x20 ADD PUSH1 0x20 DUP3 MUL DUP1 CALLDATASIZE DUP4 CALLDATACOPY ADD SWAP1 POP JUMPDEST POP SWAP9 POP DUP4 PUSH8 0xFFFFFFFFFFFFFFFF DUP2 GT ISZERO PUSH2 0x9F0 JUMPI PUSH2 0x9F0 PUSH2 0x1408 JUMP JUMPDEST PUSH1 0x40 MLOAD SWAP1 DUP1 DUP3 MSTORE DUP1 PUSH1 0x20 MUL PUSH1 0x20 ADD DUP3 ADD PUSH1 0x40 MSTORE DUP1 ISZERO PUSH2 0xA19 JUMPI DUP2 PUSH1 0x20 ADD PUSH1 0x20 DUP3 MUL DUP1 CALLDATASIZE DUP4 CALLDATACOPY ADD SWAP1 POP JUMPDEST POP SWAP8 POP DUP4 PUSH8 0xFFFFFFFFFFFFFFFF DUP2 GT ISZERO PUSH2 0xA35 JUMPI PUSH2 0xA35 PUSH2 0x1408 JUMP JUMPDEST PUSH1 0x40 MLOAD SWAP1 DUP1 DUP3 MSTORE DUP1 PUSH1 0x20 MUL PUSH1 0x20 ADD DUP3 ADD PUSH1 0x40 MSTORE DUP1 ISZERO PUSH2 0xA5E JUMPI DUP2 PUSH1 0x20 ADD PUSH1 0x20 DUP3 MUL DUP1 CALLDATASIZE DUP4 CALLDATACOPY ADD SWAP1 POP JUMPDEST POP SWAP7 POP PUSH1 0x0 JUMPDEST DUP5 DUP2 LT ISZERO PUSH2 0xB2F JUMPI DUP4 DUP2 DUP2 MLOAD DUP2 LT PUSH2 0xA7E JUMPI PUSH2 0xA7E PUSH2 0x141E JUMP JUMPDEST PUSH1 0x20 MUL PUSH1 0x20 ADD ADD MLOAD DUP11 DUP3 DUP2 MLOAD DUP2 LT PUSH2 0xA98 JUMPI PUSH2 0xA98 PUSH2 0x141E JUMP JUMPDEST PUSH1 0x20 MUL PUSH1 0x20 ADD ADD SWAP1 PUSH1 0x1 PUSH1 0x1 PUSH1 0xA0 SHL SUB AND SWAP1 DUP2 PUSH1 0x1 PUSH1 0x1 PUSH1 0xA0 SHL SUB AND DUP2 MSTORE POP POP DUP3 DUP2 DUP2 MLOAD DUP2 LT PUSH2 0xACA JUMPI PUSH2 0xACA PUSH2 0x141E JUMP JUMPDEST PUSH1 0x20 MUL PUSH1 0x20 ADD ADD MLOAD DUP10 DUP3 DUP2 MLOAD DUP2 LT PUSH2 0xAE4 JUMPI PUSH2 0xAE4 PUSH2 0x141E JUMP JUMPDEST PUSH1 0x20 MUL PUSH1 0x20 ADD ADD DUP2 DUP2 MSTORE POP POP DUP2 DUP2 DUP2 MLOAD DUP2 LT PUSH2 0xB02 JUMPI PUSH2 0xB02 PUSH2 0x141E JUMP JUMPDEST PUSH1 0x20 MUL PUSH1 0x20 ADD ADD MLOAD DUP9 DUP3 DUP2 MLOAD DUP2 LT PUSH2 0xB1C JUMPI PUSH2 0xB1C PUSH2 0x141E JUMP JUMPDEST PUSH1 0x20 SWAP1 DUP2 MUL SWAP2 SWAP1 SWAP2 ADD ADD MSTORE PUSH1 0x1 ADD PUSH2 0xA64 JUMP JUMPDEST POP POP POP POP POP POP POP SWAP2 SWAP4 SWAP1 SWAP3 POP JUMP JUMPDEST PUSH6 0x5AF3107A4000 DUP2 LT DUP1 PUSH2 0xB58 JUMPI POP PUSH8 0xDE0B6B3A7640000 DUP2 GT JUMPDEST ISZERO PUSH2 0xB76 JUMPI PUSH1 0x40 MLOAD PUSH4 0xC64200E9 PUSH1 0xE0 SHL DUP2 MSTORE PUSH1 0x4 ADD PUSH1 0x40 MLOAD DUP1 SWAP2 SUB SWAP1 REVERT JUMPDEST CALLER PUSH1 0x0 SWAP1 DUP2 MSTORE PUSH1 0x20 DUP2 SWAP1 MSTORE PUSH1 0x40 SWAP1 KECCAK256 DUP1 SLOAD TIMESTAMP SWAP1 PUSH2 0xBA5 SWAP1 PUSH3 0x11940 SWAP1 PUSH1 0x1 PUSH1 0x60 SHL SWAP1 DIV PUSH5 0xFFFFFFFFFF AND PUSH2 0x13D6 JUMP JUMPDEST DUP2 PUSH5 0xFFFFFFFFFF AND LT ISZERO PUSH2 0xBCC JUMPI PUSH1 0x40 MLOAD PUSH4 0x6FED7D85 PUSH1 0xE0 SHL DUP2 MSTORE PUSH1 0x4 ADD PUSH1 0x40 MLOAD DUP1 SWAP2 SUB SWAP1 REVERT JUMPDEST DUP2 SLOAD PUSH1 0x1 PUSH1 0x60 SHL SWAP1 DIV PUSH5 0xFFFFFFFFFF AND ISZERO DUP1 ISZERO SWAP1 PUSH2 0xC13 JUMPI POP DUP2 SLOAD PUSH2 0xC02 SWAP1 PUSH1 0x1 PUSH1 0x60 SHL SWAP1 DIV PUSH5 0xFFFFFFFFFF AND PUSH3 0x2A300 PUSH2 0x1434 JUMP JUMPDEST PUSH5 0xFFFFFFFFFF AND DUP2 PUSH5 0xFFFFFFFFFF AND GT JUMPDEST ISZERO PUSH2 0xCEA JUMPI DUP2 SLOAD PUSH1 0x1 PUSH1 0x90 SHL SWAP1 DIV PUSH1 0xFF AND ISZERO PUSH2 0xCA0 JUMPI DUP2 SLOAD PUSH1 0xFF PUSH1 0x90 SHL NOT DUP2 AND PUSH1 0x1 PUSH1 0x90 SHL DUP1 DUP4 DIV PUSH1 0xFF SWAP1 DUP2 AND PUSH1 0x0 NOT ADD DUP2 AND DUP3 MUL SWAP3 DUP4 OR DUP1 DUP8 SSTORE PUSH1 0x40 DUP1 MLOAD PUSH4 0xFFFFFFFF SWAP7 DUP8 AND SWAP7 SWAP1 SWAP6 AND SWAP6 SWAP1 SWAP6 OR DUP5 MSTORE SWAP2 SWAP1 SWAP2 DIV AND PUSH1 0x20 DUP3 ADD MSTORE CALLER SWAP2 PUSH32 0xA3CD923E771784F8AB03C4BC813511F007DF871C8652C02CD19CC966132B1964 SWAP2 ADD PUSH1 0x40 MLOAD DUP1 SWAP2 SUB SWAP1 LOG2 PUSH2 0xCEA JUMP JUMPDEST DUP2 SLOAD PUSH1 0x40 MLOAD PUSH4 0xFFFFFFFF SWAP1 SWAP2 AND DUP2 MSTORE CALLER SWAP1 PUSH32 0xC0539BB1C6561E4F713A8725D44795917796A9717AE897FBC6707EF291FAC9B0 SWAP1 PUSH1 0x20 ADD PUSH1 0x40 MLOAD DUP1 SWAP2 SUB SWAP1 LOG2 DUP2 SLOAD PUSH4 0xFFFFFFFF NOT AND DUP3 SSTORE JUMPDEST PUSH1 0x40 MLOAD PUSH4 0x23B872DD PUSH1 0xE0 SHL DUP2 MSTORE CALLER PUSH1 0x4 DUP3 ADD MSTORE ADDRESS PUSH1 0x24 DUP3 ADD MSTORE PUSH1 0x44 DUP2 ADD DUP5 SWAP1 MSTORE PUSH20 0x765DE816845861E75A25FCA122BB6898B8B1282A SWAP1 PUSH4 0x23B872DD SWAP1 PUSH1 0x64 ADD PUSH1 0x20 PUSH1 0x40 MLOAD DUP1 DUP4 SUB DUP2 PUSH1 0x0 DUP8 GAS CALL ISZERO DUP1 ISZERO PUSH2 0xD48 JUMPI RETURNDATASIZE PUSH1 0x0 DUP1 RETURNDATACOPY RETURNDATASIZE PUSH1 0x0 REVERT JUMPDEST POP POP POP POP PUSH1 0x40 MLOAD RETURNDATASIZE PUSH1 0x1F NOT PUSH1 0x1F DUP3 ADD AND DUP3 ADD DUP1 PUSH1 0x40 MSTORE POP DUP2 ADD SWAP1 PUSH2 0xD6C SWAP2 SWAP1 PUSH2 0x139E JUMP JUMPDEST PUSH2 0xD89 JUMPI PUSH1 0x40 MLOAD PUSH4 0x12171D83 PUSH1 0xE3 SHL DUP2 MSTORE PUSH1 0x4 ADD PUSH1 0x40 MLOAD DUP1 SWAP2 SUB SWAP1 REVERT JUMPDEST DUP2 SLOAD PUSH5 0xFFFFFFFFFF DUP3 AND PUSH1 0x1 PUSH1 0x60 SHL MUL PUSH17 0xFFFFFFFFFF0000000000000000FFFFFFFF NOT DUP3 AND PUSH4 0xFFFFFFFF SWAP3 DUP4 AND PUSH1 0x1 SWAP1 DUP2 ADD SWAP1 SWAP4 AND OR OR DUP4 SSTORE DUP3 ADD DUP1 SLOAD DUP5 SWAP2 SWAP1 PUSH1 0x0 SWAP1 PUSH2 0xDE0 SWAP1 DUP5 SWAP1 PUSH1 0x1 PUSH1 0x1 PUSH1 0x80 SHL SUB AND PUSH2 0x1459 JUMP JUMPDEST DUP3 SLOAD PUSH1 0x1 PUSH1 0x1 PUSH1 0x80 SHL SUB SWAP2 DUP3 AND PUSH2 0x100 SWAP4 SWAP1 SWAP4 EXP SWAP3 DUP4 MUL SWAP2 SWAP1 SWAP3 MUL NOT SWAP1 SWAP2 AND OR SWAP1 SSTORE POP DUP2 SLOAD PUSH4 0xFFFFFFFF PUSH5 0x100000000 DUP3 DIV DUP2 AND SWAP2 AND GT ISZERO PUSH2 0xE3D JUMPI DUP2 SLOAD PUSH5 0x100000000 PUSH4 0xFFFFFFFF DUP3 AND MUL PUSH8 0xFFFFFFFF00000000 NOT SWAP1 SWAP2 AND OR DUP3 SSTORE JUMPDEST DUP2 SLOAD PUSH1 0x1 PUSH1 0x88 SHL SWAP1 DIV PUSH1 0xFF AND PUSH2 0xEA0 JUMPI DUP2 SLOAD PUSH1 0xFF PUSH1 0x88 SHL NOT AND PUSH1 0x1 PUSH1 0x88 SHL OR DUP3 SSTORE PUSH1 0x1 DUP1 SLOAD DUP1 DUP3 ADD DUP3 SSTORE PUSH1 0x0 SWAP2 SWAP1 SWAP2 MSTORE PUSH32 0xB10E2D527612073B26EECDFD717E6A320CF44B4AFAC2B0732D9FCBE2B7FA0CF6 ADD DUP1 SLOAD PUSH1 0x1 PUSH1 0x1 PUSH1 0xA0 SHL SUB NOT AND CALLER OR SWAP1 SSTORE JUMPDEST DUP2 SLOAD PUSH1 0x40 DUP1 MLOAD PUSH4 0xFFFFFFFF SWAP1 SWAP3 AND DUP3 MSTORE PUSH5 0xFFFFFFFFFF DUP4 AND PUSH1 0x20 DUP4 ADD MSTORE CALLER SWAP2 PUSH32 0x1091413AC916D6D977BA19245BE465E86C3DFD74CC7C9903AF6856D3E3668E55 SWAP2 ADD PUSH1 0x40 MLOAD DUP1 SWAP2 SUB SWAP1 LOG2 POP POP POP JUMP JUMPDEST CALLER PUSH1 0x0 SWAP1 DUP2 MSTORE PUSH1 0x20 DUP2 SWAP1 MSTORE PUSH1 0x40 SWAP1 KECCAK256 DUP1 SLOAD PUSH1 0x7 PUSH4 0xFFFFFFFF SWAP1 SWAP2 AND LT DUP1 PUSH2 0xF28 JUMPI POP DUP1 SLOAD PUSH2 0xF25 SWAP1 PUSH1 0x7 SWAP1 PUSH4 0xFFFFFFFF AND PUSH2 0x1479 JUMP JUMPDEST ISZERO ISZERO JUMPDEST ISZERO PUSH2 0xF46 JUMPI PUSH1 0x40 MLOAD PUSH4 0x2E6D9AFF PUSH1 0xE0 SHL DUP2 MSTORE PUSH1 0x4 ADD PUSH1 0x40 MLOAD DUP1 SWAP2 SUB SWAP1 REVERT JUMPDEST DUP1 SLOAD PUSH4 0xFFFFFFFF PUSH1 0x1 PUSH1 0x40 SHL DUP3 DIV DUP2 AND SWAP2 AND GT PUSH2 0xF76 JUMPI PUSH1 0x40 MLOAD PUSH4 0xC8D9EAB PUSH1 0xE3 SHL DUP2 MSTORE PUSH1 0x4 ADD PUSH1 0x40 MLOAD DUP1 SWAP2 SUB SWAP1 REVERT JUMPDEST DUP1 SLOAD PUSH1 0x0 SWAP1 PUSH2 0xF8A SWAP1 PUSH4 0xFFFFFFFF AND PUSH2 0x125D JUMP JUMPDEST PUSH1 0x40 MLOAD PUSH4 0x70A08231 PUSH1 0xE0 SHL DUP2 MSTORE ADDRESS PUSH1 0x4 DUP3 ADD MSTORE SWAP1 SWAP2 POP DUP2 SWAP1 PUSH20 0x765DE816845861E75A25FCA122BB6898B8B1282A SWAP1 PUSH4 0x70A08231 SWAP1 PUSH1 0x24 ADD PUSH1 0x20 PUSH1 0x40 MLOAD DUP1 DUP4 SUB DUP2 DUP7 GAS STATICCALL ISZERO DUP1 ISZERO PUSH2 0xFDE JUMPI RETURNDATASIZE PUSH1 0x0 DUP1 RETURNDATACOPY RETURNDATASIZE PUSH1 0x0 REVERT JUMPDEST POP POP POP POP PUSH1 0x40 MLOAD RETURNDATASIZE PUSH1 0x1F NOT PUSH1 0x1F DUP3 ADD AND DUP3 ADD DUP1 PUSH1 0x40 MSTORE POP DUP2 ADD SWAP1 PUSH2 0x1002 SWAP2 SWAP1 PUSH2 0x13EF JUMP JUMPDEST LT ISZERO PUSH2 0x1021 JUMPI PUSH1 0x40 MLOAD PUSH4 0x5CE024D PUSH1 0xE5 SHL DUP2 MSTORE PUSH1 0x4 ADD PUSH1 0x40 MLOAD DUP1 SWAP2 SUB SWAP1 REVERT JUMPDEST DUP2 SLOAD PUSH1 0x1 PUSH1 0x40 SHL PUSH4 0xFFFFFFFF DUP3 AND MUL PUSH12 0xFFFFFFFF0000000000000000 NOT SWAP1 SWAP2 AND OR DUP1 DUP4 SSTORE PUSH1 0x3 PUSH1 0x1 PUSH1 0x90 SHL SWAP1 SWAP2 DIV PUSH1 0xFF AND LT ISZERO PUSH2 0x107B JUMPI DUP2 SLOAD PUSH1 0x1 PUSH1 0xFF PUSH1 0x1 PUSH1 0x90 SHL DUP1 DUP5 DIV DUP3 AND SWAP3 SWAP1 SWAP3 ADD AND MUL PUSH1 0xFF PUSH1 0x90 SHL NOT SWAP1 SWAP2 AND OR DUP3 SSTORE JUMPDEST PUSH1 0x40 MLOAD PUSH4 0xA9059CBB PUSH1 0xE0 SHL DUP2 MSTORE CALLER PUSH1 0x4 DUP3 ADD MSTORE PUSH1 0x24 DUP2 ADD DUP3 SWAP1 MSTORE PUSH20 0x765DE816845861E75A25FCA122BB6898B8B1282A SWAP1 PUSH4 0xA9059CBB SWAP1 PUSH1 0x44 ADD PUSH1 0x20 PUSH1 0x40 MLOAD DUP1 DUP4 SUB DUP2 PUSH1 0x0 DUP8 GAS CALL ISZERO DUP1 ISZERO PUSH2 0x10D3 JUMPI RETURNDATASIZE PUSH1 0x0 DUP1 RETURNDATACOPY RETURNDATASIZE PUSH1 0x0 REVERT JUMPDEST POP POP POP POP PUSH1 0x40 MLOAD RETURNDATASIZE PUSH1 0x1F NOT PUSH1 0x1F DUP3 ADD AND DUP3 ADD DUP1 PUSH1 0x40 MSTORE POP DUP2 ADD SWAP1 PUSH2 0x10F7 SWAP2 SWAP1 PUSH2 0x139E JUMP JUMPDEST PUSH2 0x1114 JUMPI PUSH1 0x40 MLOAD PUSH4 0x12171D83 PUSH1 0xE3 SHL DUP2 MSTORE PUSH1 0x4 ADD PUSH1 0x40 MLOAD DUP1 SWAP2 SUB SWAP1 REVERT JUMPDEST DUP2 SLOAD PUSH1 0x40 DUP1 MLOAD PUSH4 0xFFFFFFFF SWAP1 SWAP3 AND DUP3 MSTORE PUSH1 0x20 DUP3 ADD DUP4 SWAP1 MSTORE CALLER SWAP2 PUSH32 0xD26A00DFD91636328B46A49A079C1612A57C89258F2FEA78C7469EC0B5F8047 SWAP2 ADD PUSH1 0x40 MLOAD DUP1 SWAP2 SUB SWAP1 LOG2 POP POP JUMP JUMPDEST PUSH1 0x40 MLOAD PUSH4 0x23B872DD PUSH1 0xE0 SHL DUP2 MSTORE CALLER PUSH1 0x4 DUP3 ADD MSTORE ADDRESS PUSH1 0x24 DUP3 ADD MSTORE PUSH1 0x44 DUP2 ADD DUP3 SWAP1 MSTORE PUSH20 0x765DE816845861E75A25FCA122BB6898B8B1282A SWAP1 PUSH4 0x23B872DD SWAP1 PUSH1 0x64 ADD PUSH1 0x20 PUSH1 0x40 MLOAD DUP1 DUP4 SUB DUP2 PUSH1 0x0 DUP8 GAS CALL ISZERO DUP1 ISZERO PUSH2 0x11BA JUMPI RETURNDATASIZE PUSH1 0x0 DUP1 RETURNDATACOPY RETURNDATASIZE PUSH1 0x0 REVERT JUMPDEST POP POP POP POP PUSH1 0x40 MLOAD RETURNDATASIZE PUSH1 0x1F NOT PUSH1 0x1F DUP3 ADD AND DUP3 ADD DUP1 PUSH1 0x40 MSTORE POP DUP2 ADD SWAP1 PUSH2 0x11DE SWAP2 SWAP1 PUSH2 0x139E JUMP JUMPDEST PUSH2 0x11FB JUMPI PUSH1 0x40 MLOAD PUSH4 0x12171D83 PUSH1 0xE3 SHL DUP2 MSTORE PUSH1 0x4 ADD PUSH1 0x40 MLOAD DUP1 SWAP2 SUB SWAP1 REVERT JUMPDEST PUSH1 0x40 MLOAD DUP2 DUP2 MSTORE CALLER SWAP1 PUSH32 0x32173D8E51CEC3A6FE484B7A1C3FEBE760CDF96E03D4CCA36A43563A4333E838 SWAP1 PUSH1 0x20 ADD PUSH1 0x40 MLOAD DUP1 SWAP2 SUB SWAP1 LOG2 POP JUMP JUMPDEST PUSH1 0x1 DUP2 DUP2 SLOAD DUP2 LT PUSH2 0x1243 JUMPI PUSH1 0x0 DUP1 REVERT JUMPDEST PUSH1 0x0 SWAP2 DUP3 MSTORE PUSH1 0x20 SWAP1 SWAP2 KECCAK256 ADD SLOAD PUSH1 0x1 PUSH1 0x1 PUSH1 0xA0 SHL SUB AND SWAP1 POP DUP2 JUMP JUMPDEST PUSH1 0x0 PUSH1 0x1E DUP3 PUSH4 0xFFFFFFFF AND LT PUSH2 0x127B JUMPI POP PUSH7 0x58D15E17628000 SWAP2 SWAP1 POP JUMP JUMPDEST PUSH1 0xE DUP3 PUSH4 0xFFFFFFFF AND LT PUSH2 0x1297 JUMPI POP PUSH7 0x2AA1EFB94E0000 SWAP2 SWAP1 POP JUMP JUMPDEST POP PUSH7 0x11C37937E08000 SWAP2 SWAP1 POP JUMP JUMPDEST PUSH1 0x0 PUSH1 0x20 DUP3 DUP5 SUB SLT ISZERO PUSH2 0x12B7 JUMPI PUSH1 0x0 DUP1 REVERT JUMPDEST DUP2 CALLDATALOAD PUSH1 0x1 PUSH1 0x1 PUSH1 0xA0 SHL SUB DUP2 AND DUP2 EQ PUSH2 0x12CE JUMPI PUSH1 0x0 DUP1 REVERT JUMPDEST SWAP4 SWAP3 POP POP POP JUMP JUMPDEST PUSH1 0x0 PUSH1 0x20 DUP3 DUP5 SUB SLT ISZERO PUSH2 0x12E7 JUMPI PUSH1 0x0 DUP1 REVERT JUMPDEST POP CALLDATALOAD SWAP2 SWAP1 POP JUMP JUMPDEST PUSH1 0x0 DUP2 MLOAD DUP1 DUP5 MSTORE PUSH1 0x20 DUP1 DUP6 ADD SWAP5 POP DUP1 DUP5 ADD PUSH1 0x0 JUMPDEST DUP4 DUP2 LT ISZERO PUSH2 0x131E JUMPI DUP2 MLOAD DUP8 MSTORE SWAP6 DUP3 ADD SWAP6 SWAP1 DUP3 ADD SWAP1 PUSH1 0x1 ADD PUSH2 0x1302 JUMP JUMPDEST POP SWAP5 SWAP6 SWAP5 POP POP POP POP POP JUMP JUMPDEST PUSH1 0x60 DUP1 DUP3 MSTORE DUP5 MLOAD SWAP1 DUP3 ADD DUP2 SWAP1 MSTORE PUSH1 0x0 SWAP1 PUSH1 0x20 SWAP1 PUSH1 0x80 DUP5 ADD SWAP1 DUP3 DUP9 ADD DUP5 JUMPDEST DUP3 DUP2 LT ISZERO PUSH2 0x136B JUMPI DUP2 MLOAD PUSH1 0x1 PUSH1 0x1 PUSH1 0xA0 SHL SUB AND DUP5 MSTORE SWAP3 DUP5 ADD SWAP3 SWAP1 DUP5 ADD SWAP1 PUSH1 0x1 ADD PUSH2 0x1346 JUMP JUMPDEST POP POP POP DUP4 DUP2 SUB DUP3 DUP6 ADD MSTORE PUSH2 0x137F DUP2 DUP8 PUSH2 0x12EE JUMP JUMPDEST SWAP2 POP POP DUP3 DUP2 SUB PUSH1 0x40 DUP5 ADD MSTORE PUSH2 0x1394 DUP2 DUP6 PUSH2 0x12EE JUMP JUMPDEST SWAP7 SWAP6 POP POP POP POP POP POP JUMP JUMPDEST PUSH1 0x0 PUSH1 0x20 DUP3 DUP5 SUB SLT ISZERO PUSH2 0x13B0 JUMPI PUSH1 0x0 DUP1 REVERT JUMPDEST DUP2 MLOAD DUP1 ISZERO ISZERO DUP2 EQ PUSH2 0x12CE JUMPI PUSH1 0x0 DUP1 REVERT JUMPDEST PUSH4 0x4E487B71 PUSH1 0xE0 SHL PUSH1 0x0 MSTORE PUSH1 0x11 PUSH1 0x4 MSTORE PUSH1 0x24 PUSH1 0x0 REVERT JUMPDEST DUP1 DUP3 ADD DUP1 DUP3 GT ISZERO PUSH2 0x13E9 JUMPI PUSH2 0x13E9 PUSH2 0x13C0 JUMP JUMPDEST SWAP3 SWAP2 POP POP JUMP JUMPDEST PUSH1 0x0 PUSH1 0x20 DUP3 DUP5 SUB SLT ISZERO PUSH2 0x1401 JUMPI PUSH1 0x0 DUP1 REVERT JUMPDEST POP MLOAD SWAP2 SWAP1 POP JUMP JUMPDEST PUSH4 0x4E487B71 PUSH1 0xE0 SHL PUSH1 0x0 MSTORE PUSH1 0x41 PUSH1 0x4 MSTORE PUSH1 0x24 PUSH1 0x0 REVERT JUMPDEST PUSH4 0x4E487B71 PUSH1 0xE0 SHL PUSH1 0x0 MSTORE PUSH1 0x32 PUSH1 0x4 MSTORE PUSH1 0x24 PUSH1 0x0 REVERT JUMPDEST PUSH5 0xFFFFFFFFFF DUP2 DUP2 AND DUP4 DUP3 AND ADD SWAP1 DUP1 DUP3 GT ISZERO PUSH2 0x1452 JUMPI PUSH2 0x1452 PUSH2 0x13C0 JUMP JUMPDEST POP SWAP3 SWAP2 POP POP JUMP JUMPDEST PUSH1 0x1 PUSH1 0x1 PUSH1 0x80 SHL SUB DUP2 DUP2 AND DUP4 DUP3 AND ADD SWAP1 DUP1 DUP3 GT ISZERO PUSH2 0x1452 JUMPI PUSH2 0x1452 PUSH2 0x13C0 JUMP JUMPDEST PUSH1 0x0 DUP3 PUSH2 0x1496 JUMPI PUSH4 0x4E487B71 PUSH1 0xE0 SHL PUSH1 0x0 MSTORE PUSH1 0x12 PUSH1 0x4 MSTORE PUSH1 0x24 PUSH1 0x0 REVERT JUMPDEST POP MOD SWAP1 JUMP INVALID LOG2 PUSH5 0x6970667358 0x22 SLT KECCAK256 GASPRICE 0xB4 0x28 0xB7 PREVRANDAO PUSH25 0xA9D1E149661E792BA893087E1B67AE37B724DAEFFEB94AE764 SWAP5 PUSH5 0x736F6C6343 STOP ADDMOD EQ STOP CALLER "},"gasEstimates":{"creation":{"codeDepositCost":"1065800","executionCost":"1107","totalCost":"1066907"},"external":{"COOLDOWN()":"284","MAX_DEPOSIT()":"239","MAX_SHIELDS()":"227","MIN_DEPOSIT()":"283","REWARD_TIER1()":"306","REWARD_TIER2()":"261","REWARD_TIER3()":"218","STREAK_THRESHOLD()":"285","cUSD()":"229","claimReward()":"infinite","deposit(uint256)":"infinite","depositors(uint256)":"4713","fundPool(uint256)":"infinite","getLeaderboard(uint256)":"infinite","getUser(address)":"7274","poolBalance()":"infinite","totalDepositors()":"2349","users(address)":"4993","withdraw()":"infinite"},"internal":{"_rewardAmount(uint32)":"83"}},"methodIdentifiers":{"COOLDOWN()":"a2724a4d","MAX_DEPOSIT()":"dd5967c3","MAX_SHIELDS()":"546cea86","MIN_DEPOSIT()":"e1e158a5","REWARD_TIER1()":"cc0ee509","REWARD_TIER2()":"e1a4ae7b","REWARD_TIER3()":"a4dbf55e","STREAK_THRESHOLD()":"4c8530ce","cUSD()":"1fccf672","claimReward()":"b88a802f","deposit(uint256)":"b6b55f25","depositors(uint256)":"e4b2fb79","fundPool(uint256)":"da3a5f72","getLeaderboard(uint256)":"a34b46fe","getUser(address)":"6f77926b","poolBalance()":"96365d44","totalDepositors()":"418f3128","users(address)":"a87430ba","withdraw()":"3ccfd60b"}},"storageLayout":{"storage":[{"astId":93,"contract":"contracts/Kibo.sol:Kibo","label":"users","offset":0,"slot":"0","type":"t_mapping(t_address,t_struct(UserData)88_storage)"},{"astId":96,"contract":"contracts/Kibo.sol:Kibo","label":"depositors","offset":0,"slot":"1","type":"t_array(t_address)dyn_storage"}],"types":{"t_address":{"encoding":"inplace","label":"address","numberOfBytes":"20"},"t_array(t_address)dyn_storage":{"base":"t_address","encoding":"dynamic_array","label":"address[]","numberOfBytes":"32"},"t_bool":{"encoding":"inplace","label":"bool","numberOfBytes":"1"},"t_mapping(t_address,t_struct(UserData)88_storage)":{"encoding":"mapping","key":"t_address","label":"mapping(address => struct Kibo.UserData)","numberOfBytes":"32","value":"t_struct(UserData)88_storage"},"t_struct(UserData)88_storage":{"encoding":"inplace","label":"struct Kibo.UserData","members":[{"astId":75,"contract":"contracts/Kibo.sol:Kibo","label":"streak","offset":0,"slot":"0","type":"t_uint32"},{"astId":77,"contract":"contracts/Kibo.sol:Kibo","label":"longestStreak","offset":4,"slot":"0","type":"t_uint32"},{"astId":79,"contract":"contracts/Kibo.sol:Kibo","label":"lastClaimedStreak","offset":8,"slot":"0","type":"t_uint32"},{"astId":81,"contract":"contracts/Kibo.sol:Kibo","label":"lastDeposit","offset":12,"slot":"0","type":"t_uint40"},{"astId":83,"contract":"contracts/Kibo.sol:Kibo","label":"isDepositor","offset":17,"slot":"0","type":"t_bool"},{"astId":85,"contract":"contracts/Kibo.sol:Kibo","label":"shields","offset":18,"slot":"0","type":"t_uint8"},{"astId":87,"contract":"contracts/Kibo.sol:Kibo","label":"totalDeposited","offset":0,"slot":"1","type":"t_uint128"}],"numberOfBytes":"64"},"t_uint128":{"encoding":"inplace","label":"uint128","numberOfBytes":"16"},"t_uint32":{"encoding":"inplace","label":"uint32","numberOfBytes":"4"},"t_uint40":{"encoding":"inplace","label":"uint40","numberOfBytes":"5"},"t_uint8":{"encoding":"inplace","label":"uint8","numberOfBytes":"1"}}},"userdoc":{"kind":"user","methods":{},"version":1}}}}