{"contracts/Kibo.sol":{"Kibo":{"abi":[{"inputs":[],"stateMutability":"nonpayable","type":"constructor"},{"inputs":[],"name":"AlreadyClaimed","type":"error"},{"inputs":[],"name":"AmountOutOfRange","type":"error"},{"inputs":[],"name":"BpsOutOfRange","type":"error"},{"inputs":[],"name":"InvalidAddress","type":"error"},{"inputs":[],"name":"InvalidTiers","type":"error"},{"inputs":[],"name":"NeedMilestone","type":"error"},{"inputs":[],"name":"NoStreakToRecover","type":"error"},{"inputs":[],"name":"NothingToWithdraw","type":"error"},{"inputs":[],"name":"Paused","type":"error"},{"inputs":[],"name":"PoolEmpty","type":"error"},{"inputs":[],"name":"RecoveryPending","type":"error"},{"inputs":[],"name":"TooSoon","type":"error"},{"inputs":[],"name":"TransferFailed","type":"error"},{"inputs":[],"name":"Unauthorized","type":"error"},{"anonymous":false,"inputs":[{"indexed":true,"internalType":"address","name":"user","type":"address"},{"indexed":false,"internalType":"enum Kibo.Badge","name":"badge","type":"uint8"}],"name":"BadgeEarned","type":"event"},{"anonymous":false,"inputs":[{"indexed":true,"internalType":"address","name":"user","type":"address"},{"indexed":false,"internalType":"uint32","name":"streak","type":"uint32"},{"indexed":false,"internalType":"uint40","name":"timestamp","type":"uint40"}],"name":"Deposited","type":"event"},{"anonymous":false,"inputs":[{"indexed":true,"internalType":"address","name":"payer","type":"address"},{"indexed":true,"internalType":"address","name":"beneficiary","type":"address"},{"indexed":false,"internalType":"uint32","name":"streak","type":"uint32"},{"indexed":false,"internalType":"uint40","name":"timestamp","type":"uint40"}],"name":"DepositedFor","type":"event"},{"anonymous":false,"inputs":[{"indexed":true,"internalType":"address","name":"user","type":"address"},{"indexed":false,"internalType":"uint128","name":"totalDeposited","type":"uint128"}],"name":"GoalReached","type":"event"},{"anonymous":false,"inputs":[{"indexed":true,"internalType":"address","name":"user","type":"address"},{"indexed":false,"internalType":"uint128","name":"target","type":"uint128"}],"name":"GoalSet","type":"event"},{"anonymous":false,"inputs":[{"indexed":true,"internalType":"address","name":"previousOwner","type":"address"},{"indexed":true,"internalType":"address","name":"newOwner","type":"address"}],"name":"OwnershipTransferStarted","type":"event"},{"anonymous":false,"inputs":[{"indexed":true,"internalType":"address","name":"previousOwner","type":"address"},{"indexed":true,"internalType":"address","name":"newOwner","type":"address"}],"name":"OwnershipTransferred","type":"event"},{"anonymous":false,"inputs":[{"indexed":true,"internalType":"address","name":"funder","type":"address"},{"indexed":false,"internalType":"uint256","name":"amount","type":"uint256"}],"name":"PoolFunded","type":"event"},{"anonymous":false,"inputs":[{"indexed":true,"internalType":"address","name":"user","type":"address"},{"indexed":false,"internalType":"uint8","name":"shields","type":"uint8"}],"name":"PrecisionShield","type":"event"},{"anonymous":false,"inputs":[{"indexed":true,"internalType":"address","name":"ref","type":"address"},{"indexed":true,"internalType":"address","name":"referee","type":"address"},{"indexed":false,"internalType":"uint256","name":"amount","type":"uint256"}],"name":"ReferralRewardAccrued","type":"event"},{"anonymous":false,"inputs":[{"indexed":true,"internalType":"address","name":"ref","type":"address"},{"indexed":false,"internalType":"uint256","name":"amount","type":"uint256"}],"name":"ReferralRewardClaimed","type":"event"},{"anonymous":false,"inputs":[{"indexed":true,"internalType":"address","name":"user","type":"address"},{"indexed":false,"internalType":"uint32","name":"streak","type":"uint32"},{"indexed":false,"internalType":"uint256","name":"reward","type":"uint256"}],"name":"RewardClaimed","type":"event"},{"anonymous":false,"inputs":[{"indexed":false,"internalType":"uint256","name":"t1","type":"uint256"},{"indexed":false,"internalType":"uint256","name":"t2","type":"uint256"},{"indexed":false,"internalType":"uint256","name":"t3","type":"uint256"},{"indexed":false,"internalType":"uint256","name":"t4","type":"uint256"}],"name":"RewardTiersUpdated","type":"event"},{"anonymous":false,"inputs":[{"indexed":true,"internalType":"address","name":"user","type":"address"},{"indexed":false,"internalType":"uint32","name":"streak","type":"uint32"},{"indexed":false,"internalType":"uint8","name":"shieldsLeft","type":"uint8"}],"name":"ShieldUsed","type":"event"},{"anonymous":false,"inputs":[{"indexed":true,"internalType":"address","name":"user","type":"address"},{"indexed":false,"internalType":"uint32","name":"oldStreak","type":"uint32"}],"name":"StreakBroken","type":"event"},{"anonymous":false,"inputs":[{"indexed":true,"internalType":"address","name":"user","type":"address"},{"indexed":false,"internalType":"uint32","name":"streak","type":"uint32"},{"indexed":false,"internalType":"uint256","name":"fee","type":"uint256"}],"name":"StreakRecovered","type":"event"},{"anonymous":false,"inputs":[{"indexed":true,"internalType":"address","name":"user","type":"address"},{"indexed":false,"internalType":"uint256","name":"payout","type":"uint256"},{"indexed":false,"internalType":"uint256","name":"penalty","type":"uint256"}],"name":"Withdrawn","type":"event"},{"inputs":[],"name":"COOLDOWN","outputs":[{"internalType":"uint256","name":"","type":"uint256"}],"stateMutability":"view","type":"function"},{"inputs":[],"name":"MAX_DEPOSIT","outputs":[{"internalType":"uint256","name":"","type":"uint256"}],"stateMutability":"view","type":"function"},{"inputs":[],"name":"MAX_RECOVERY_FEE","outputs":[{"internalType":"uint256","name":"","type":"uint256"}],"stateMutability":"view","type":"function"},{"inputs":[],"name":"MAX_SHIELDS","outputs":[{"internalType":"uint8","name":"","type":"uint8"}],"stateMutability":"view","type":"function"},{"inputs":[],"name":"MIN_DEPOSIT","outputs":[{"internalType":"uint256","name":"","type":"uint256"}],"stateMutability":"view","type":"function"},{"inputs":[],"name":"POOL_FEE_BPS","outputs":[{"internalType":"uint256","name":"","type":"uint256"}],"stateMutability":"view","type":"function"},{"inputs":[],"name":"PRECISION_WINDOW","outputs":[{"internalType":"uint256","name":"","type":"uint256"}],"stateMutability":"view","type":"function"},{"inputs":[],"name":"STREAK_THRESHOLD","outputs":[{"internalType":"uint256","name":"","type":"uint256"}],"stateMutability":"view","type":"function"},{"inputs":[],"name":"acceptOwnership","outputs":[],"stateMutability":"nonpayable","type":"function"},{"inputs":[],"name":"cUSD","outputs":[{"internalType":"contract IERC20","name":"","type":"address"}],"stateMutability":"view","type":"function"},{"inputs":[],"name":"claimReferralReward","outputs":[],"stateMutability":"nonpayable","type":"function"},{"inputs":[],"name":"claimReward","outputs":[],"stateMutability":"nonpayable","type":"function"},{"inputs":[{"internalType":"uint256","name":"amount","type":"uint256"},{"internalType":"address","name":"ref","type":"address"}],"name":"deposit","outputs":[],"stateMutability":"nonpayable","type":"function"},{"inputs":[{"internalType":"address","name":"beneficiary","type":"address"},{"internalType":"uint256","name":"amount","type":"uint256"}],"name":"depositFor","outputs":[],"stateMutability":"nonpayable","type":"function"},{"inputs":[{"internalType":"uint256","name":"","type":"uint256"}],"name":"depositors","outputs":[{"internalType":"address","name":"","type":"address"}],"stateMutability":"view","type":"function"},{"inputs":[{"internalType":"uint256","name":"amount","type":"uint256"}],"name":"fundPool","outputs":[],"stateMutability":"nonpayable","type":"function"},{"inputs":[{"internalType":"address","name":"user","type":"address"}],"name":"getBadge","outputs":[{"internalType":"enum Kibo.Badge","name":"","type":"uint8"}],"stateMutability":"view","type":"function"},{"inputs":[{"internalType":"uint256","name":"limit","type":"uint256"}],"name":"getLeaderboard","outputs":[{"internalType":"address[]","name":"addrs","type":"address[]"},{"internalType":"uint256[]","name":"streaks","type":"uint256[]"},{"internalType":"uint256[]","name":"totals","type":"uint256[]"}],"stateMutability":"view","type":"function"},{"inputs":[{"internalType":"address","name":"user","type":"address"}],"name":"getUser","outputs":[{"internalType":"uint256","name":"streak","type":"uint256"},{"internalType":"uint256","name":"lastDeposit","type":"uint256"},{"internalType":"uint256","name":"totalDeposited","type":"uint256"},{"internalType":"uint256","name":"longestStreak","type":"uint256"},{"internalType":"bool","name":"canDeposit","type":"bool"},{"internalType":"uint256","name":"lastClaimedStreak","type":"uint256"},{"internalType":"uint8","name":"shields","type":"uint8"},{"internalType":"uint256","name":"brokenStreak","type":"uint256"},{"internalType":"enum Kibo.Badge","name":"badge","type":"uint8"},{"internalType":"uint256","name":"rewardsClaimed","type":"uint256"}],"stateMutability":"view","type":"function"},{"inputs":[],"name":"owner","outputs":[{"internalType":"address","name":"","type":"address"}],"stateMutability":"view","type":"function"},{"inputs":[],"name":"pause","outputs":[],"stateMutability":"nonpayable","type":"function"},{"inputs":[],"name":"paused","outputs":[{"internalType":"bool","name":"","type":"bool"}],"stateMutability":"view","type":"function"},{"inputs":[],"name":"pendingOwner","outputs":[{"internalType":"address","name":"","type":"address"}],"stateMutability":"view","type":"function"},{"inputs":[{"internalType":"address","name":"","type":"address"}],"name":"pendingReferralReward","outputs":[{"internalType":"uint256","name":"","type":"uint256"}],"stateMutability":"view","type":"function"},{"inputs":[],"name":"poolBalance","outputs":[{"internalType":"uint256","name":"","type":"uint256"}],"stateMutability":"view","type":"function"},{"inputs":[],"name":"poolFunds","outputs":[{"internalType":"uint256","name":"","type":"uint256"}],"stateMutability":"view","type":"function"},{"inputs":[],"name":"recoverStreak","outputs":[],"stateMutability":"nonpayable","type":"function"},{"inputs":[],"name":"referralRewardBps","outputs":[{"internalType":"uint256","name":"","type":"uint256"}],"stateMutability":"view","type":"function"},{"inputs":[{"internalType":"address","name":"","type":"address"}],"name":"referrer","outputs":[{"internalType":"address","name":"","type":"address"}],"stateMutability":"view","type":"function"},{"inputs":[],"name":"rewardTier1","outputs":[{"internalType":"uint256","name":"","type":"uint256"}],"stateMutability":"view","type":"function"},{"inputs":[],"name":"rewardTier2","outputs":[{"internalType":"uint256","name":"","type":"uint256"}],"stateMutability":"view","type":"function"},{"inputs":[],"name":"rewardTier3","outputs":[{"internalType":"uint256","name":"","type":"uint256"}],"stateMutability":"view","type":"function"},{"inputs":[],"name":"rewardTier4","outputs":[{"internalType":"uint256","name":"","type":"uint256"}],"stateMutability":"view","type":"function"},{"inputs":[{"internalType":"address","name":"","type":"address"}],"name":"savingsGoal","outputs":[{"internalType":"uint128","name":"","type":"uint128"}],"stateMutability":"view","type":"function"},{"inputs":[{"internalType":"uint128","name":"target","type":"uint128"}],"name":"setGoal","outputs":[],"stateMutability":"nonpayable","type":"function"},{"inputs":[{"internalType":"uint256","name":"bps","type":"uint256"}],"name":"setReferralRewardBps","outputs":[],"stateMutability":"nonpayable","type":"function"},{"inputs":[{"internalType":"uint256","name":"t1","type":"uint256"},{"internalType":"uint256","name":"t2","type":"uint256"},{"internalType":"uint256","name":"t3","type":"uint256"},{"internalType":"uint256","name":"t4","type":"uint256"}],"name":"setRewardTiers","outputs":[],"stateMutability":"nonpayable","type":"function"},{"inputs":[{"internalType":"uint256","name":"bps","type":"uint256"}],"name":"setWithdrawalPenaltyBps","outputs":[],"stateMutability":"nonpayable","type":"function"},{"inputs":[],"name":"totalDepositors","outputs":[{"internalType":"uint256","name":"","type":"uint256"}],"stateMutability":"view","type":"function"},{"inputs":[{"internalType":"address","name":"","type":"address"}],"name":"totalRewardsClaimed","outputs":[{"internalType":"uint256","name":"","type":"uint256"}],"stateMutability":"view","type":"function"},{"inputs":[{"internalType":"address","name":"newOwner","type":"address"}],"name":"transferOwnership","outputs":[],"stateMutability":"nonpayable","type":"function"},{"inputs":[],"name":"unpause","outputs":[],"stateMutability":"nonpayable","type":"function"},{"inputs":[{"internalType":"address","name":"","type":"address"}],"name":"users","outputs":[{"internalType":"uint32","name":"streak","type":"uint32"},{"internalType":"uint32","name":"longestStreak","type":"uint32"},{"internalType":"uint32","name":"lastClaimedStreak","type":"uint32"},{"internalType":"uint32","name":"brokenStreak","type":"uint32"},{"internalType":"uint40","name":"lastDeposit","type":"uint40"},{"internalType":"bool","name":"isDepositor","type":"bool"},{"internalType":"uint8","name":"shields","type":"uint8"},{"internalType":"uint128","name":"totalDeposited","type":"uint128"}],"stateMutability":"view","type":"function"},{"inputs":[],"name":"withdraw","outputs":[],"stateMutability":"nonpayable","type":"function"},{"inputs":[],"name":"withdrawalPenaltyBps","outputs":[{"internalType":"uint256","name":"","type":"uint256"}],"stateMutability":"view","type":"function"}],"devdoc":{"kind":"dev","methods":{},"version":1},"evm":{"bytecode":{"linkReferences":{},"object":"6080806040523461005f576611c37937e08000600055662aa1efb94e00006001556658d15e1762800060025566b1a2bc2ec500006003556101f46004819055600555600680546001600160a01b0319163317905561206090816100658239f35b600080fdfe6080604081815260048036101561001557600080fd5b600092833560e01c9081631fccf6721461195f575080632cf003c2146119245780632f4f21e2146117285780633ccfd60b146115825780633f4ba83a1461154d5780633fbf422f1461152e578063418f31281461150f5780634c8530ce146114f357806351bea8c3146114d65780635264dab0146114b9578063546cea861461149d57806354b1de8f146114645780635c975abb1461143d57806360bd13d91461141e57806366fc0127146113ff5780636e553f651461113e5780636f77926b1461104c5780637289cca614610ea557806375f4c05914610e8857806379ba509714610e1957806382bbf60e14610dd75780638456cb5914610d9c5780638da5cb5b14610d7357806396365d44146105dd5780639b4b2c9c14610c945780639f147d0014610c5c578063a2724a4d14610c3e578063a2c8b36914610bd1578063a34b46fe146108e9578063a87430ba1461084b578063aa0224fd14610828578063b09e603f146107d9578063b88a802f146105fc578063bc2104d2146105dd578063c254de8814610590578063cd6c787314610574578063da3a5f7214610487578063dd5967c314610464578063e1e158a514610443578063e30c39781461041a578063e4b2fb79146103d7578063f2fde38b14610346578063f67ded4e14610327578063f6ce9004146102eb5763ff84a2621461021257600080fd5b346102e75760803660031901126102e757600654813592606435926044359260243591906001600160a01b031633036102da57851580156102d0575b80156102c6575b80156102bc575b6102ae5750916080939185937f7ddff0131937dfb4362682c96132c768e4bce6a574b2c4ebd904636975d99f15968855806001558260025583600355815194855260208501528301526060820152a180f35b825163036899eb60e31b8152fd5b508385111561025c565b5081841115610255565b508582111561024e565b82516282b42960e81b8152fd5b8280fd5b5050346103235760203660031901126103235760209181906001600160a01b0361031361198d565b168152600d845220549051908152f35b5080fd5b5050346103235781600319360112610323576020906002549051908152f35b50346102e75760203660031901126102e75761036061198d565b6006546001600160a01b039081169291338490036103c857169283156103bb575050600780546001600160a01b031916831790557f38d16b8cac22d99fc7c124b9cd0de2d3fa1faef420bfe791d8c362d765e227008380a380f35b5163e6c4247b60e01b8152fd5b84516282b42960e81b81528390fd5b50346102e75760203660031901126102e7573591600e5483101561041757506104016020926119ff565b905491519160018060a01b039160031b1c168152f35b80fd5b50503461032357816003193601126103235760075490516001600160a01b039091168152602090f35b50503461032357816003193601126103235760209051655af3107a40008152f35b50503461032357816003193601126103235760209051670de0b6b3a76400008152f35b5090346102e75760203660031901126102e75780516323b872dd60e01b815233818401908152306020828101919091528435604083018190529492918290819060600103818873765de816845861e75a25fca122bb6898b8b1282a5af190811561056a57859161053c575b501561052e57508160085401600855519081527f32173d8e51cec3a6fe484b7a1c3febe760cdf96e03d4cca36a43563a4333e83860203392a280f35b90516312171d8360e31b8152fd5b61055d915060203d8111610563575b6105558183611a4c565b810190611a84565b386104f2565b503d61054b565b83513d87823e3d90fd5b5050346103235781600319360112610323576020905160328152f35b505034610323576020366003190112610323576105db6105d263ffffffff8360209560018060a01b036105c161198d565b168152600987522054851c16611f86565b915180926119a8565bf35b5050346103235781600319360112610323576020906008549051908152f35b50346102e757826003193601126102e75760ff60075460a01c166107cb5733835260096020528183209182549163ffffffff93848416946007861080156107bf575b6107af5784841c168511156107a05761065685611f4c565b938460085410610790576bffffffff000000000000000019811690841b6bffffffff0000000000000000161780825560b01c60ff16906003821061076b575b505060088054849003905533808652600d6020908152838720805486019055835163a9059cbb60e01b8152838101928352828201869052918290819060400103818973765de816845861e75a25fca122bb6898b8b1282a5af1908115610761578691610743575b501561052e57505163ffffffff9092168252602082015233907f0d26a00dfd91636328b46a49a079c1612a57c89258f2fea78c7469ec0b5f80479080604081015b0390a280f35b61075b915060203d8111610563576105558183611a4c565b386106fc565b83513d88823e3d90fd5b805460ff60b01b191660019290920160b01b60ff60b01b169190911790553880610695565b83516305ce024d60e51b81528390fd5b509051630c8d9eab60e31b8152fd5b8351632e6d9aff60e01b81528390fd5b5060078606151561063e565b90516313d0ff5960e31b8152fd5b50346102e75760203660031901126102e757600654813592906001600160a01b0316330361081c576103e8831161080f57505580f35b5163063941ff60e31b8152fd5b516282b42960e81b8152fd5b5050346103235781600319360112610323576020905167016345785d8a00008152f35b505034610323576020366003190112610323576101009181906001600160a01b0361087461198d565b16815260096020522060ff6001600160801b0360018354930154169183519363ffffffff908183168652818360201c1660208701528183821c16908601528160601c16606085015264ffffffffff8160801c166080850152818160a81c16151560a085015260b01c1660c083015260e0820152f35b50919034610323576020806003193601126102e757833593600e5460c88110600014610bc857945b80861015610bc35750845b61092586611fe4565b9061092f87611fe4565b9661093981611fe4565b93875b86888b8b868510610b5657935050505050875b838110610a5557505081036109c957509490915b8351946060860160608752875180915282608088019801915b8181106109ac578789038489015287806109a8898961099b8e8b6119cb565b91848303908501526119cb565b0390f35b82516001600160a01b03168952978301979183019160010161097c565b6109d881979397949294611fe4565b966109e282611fe4565b936109ec83611fe4565b95885b848110610a00575050505050610963565b6001908b610a22826001600160a01b03610a1a8288612016565b511692612016565b52610a2d8185612016565b51610a38828a612016565b52610a438186612016565b51610a4e828b612016565b52016109ef565b8060019182810192838211610b4357835b868110610b17575050808203610a7e575b505061094f565b610b0f906001600160a01b0380610a95858b612016565b511690610aa2838b612016565b5116610aae858b612016565b52610ab9828a612016565b528c610ae682610ac98684612016565b5192610ad58282612016565b51610ae08883612016565b52612016565b52610af1838a612016565b5192610b08610b00838c612016565b51918b612016565b5288612016565b523880610a77565b8d610b2d85610b268484612016565b5192612016565b5110610b3b575b8101610a66565b925082610b34565b634e487b7160e01b8c526011855260248cfd5b8463ffffffff8194610b9b938c610b89610b6f866119ff565b905460039190911b1c6001600160a01b0316988992612016565b52868152600980985220541692612016565b528a5287526001906001600160801b03828a8c20015416610bbc8289612016565b520161093c565b61091c565b5060c894610911565b50346102e75760203660031901126102e75735906001600160801b0382168092036102e757338352600c602052808320826001600160801b0319825416179055519081527fd576bc64b95e6bbdb657e504fcdadeb74867d950336fd046addd6db94933ab0d60203392a280f35b50503461032357816003193601126103235760209051620119408152f35b5050346103235760203660031901126103235760209181906001600160a01b03610c8461198d565b168152600b845220549051908152f35b5090346102e757826003193601126102e757338352602090600b825280842054928315610d655733808652600b8452828620869055825163a9059cbb60e01b8152828101918252602082018690529084908290819060400103818973765de816845861e75a25fca122bb6898b8b1282a5af1908115610761578691610d48575b501561052e5750907f5be4d22009fea85381595ed91090bc5c0bc92a93fe07ed7472c5888eb1993f8391519283523392a280f35b610d5f9150843d8611610563576105558183611a4c565b38610d14565b9051630686827b60e51b8152fd5b50503461032357816003193601126103235760065490516001600160a01b039091168152602090f35b5090346102e757826003193601126102e7576006546001600160a01b0316330361081c576007805460ff60a01b1916600160a01b1790558280f35b505034610323576020366003190112610323576020916001600160801b039082906001600160a01b03610e0861198d565b168152600c85522054169051908152f35b50346102e757826003193601126102e7576007546001600160a01b0392909190838316330361081c57505060065491339083167f8be0079c531659141344cd1fd0a4f28419497f9722a3daafe3b4186f6b6457e08580a36001600160a01b031991821633176006551660075580f35b50346102e757826003193601126102e75760209250549051908152f35b5090346102e757826003193601126102e75760ff60075460a01c1661103f5733835260096020528083209081549163ffffffff93848460601c169485159081958215611033575b505061102557655af3107a400093848602948686041417156110125767016345785d8a000080851161100a575b5082516323b872dd60e01b8152338282019081523060208281019190915260408201879052908290819060600103818a73765de816845861e75a25fca122bb6898b8b1282a5af1908115611000578791610fe2575b5015610fd4575080546fffffffff0000000000000000ffffffff19168417905560088054830190555163ffffffff9092168252602082015233907fc428c32598bfe7863de948cb3b5ffb667a08521ac39c31a674722457e9800b6e90806040810161073d565b82516312171d8360e31b8152fd5b610ffa915060203d8111610563576105558183611a4c565b38610f6e565b84513d89823e3d90fd5b935038610f19565b634e487b7160e01b865260119052602485fd5b8251631f309d3760e21b8152fd5b16151590503880610eec565b516313d0ff5960e31b8152fd5b508234610417576020366003190112610417576001600160a01b0361106f61198d565b169182825260096020528382209384549164ffffffffff6001600160801b036001828660801c16980154169463ffffffff95868660201c1691620119408a0194858b1161112b57509585610140999589958560209b956111239a8f9c6110d5889a611f86565b9b8152600d8f5220549b85519d8e89891681520152848d015260608c01524216101560808a01521c1660a087015260ff8160b01c1660c087015260601c1660e08501526101008401906119a8565b610120820152f35b634e487b7160e01b825260119052602490fd5b50346102e757816003193601126102e7576001600160a01b03602435818116928035918490036113fb5760ff60075460a01c166113ed57655af3107a4000821080156113dc575b6113ce57338652602091600983528587209364ffffffffff95864216968654908160801c166201194081018091116113bb5788106113ab5760a81c60ff16159081806113a2575b80611398575b80611382575b611361575b5087516323b872dd60e01b8152338582019081523060208201526040810185905286908290819060600103818d73765de816845861e75a25fca122bb6898b8b1282a5af1908115611357578a9161133a575b501561132a57928287959263ffffffff956112707f1091413ac916d6d977ba19245be465e86c3dfd74cc7c9903af6856d3e3668e559a61073d9a9733611ad2565b6112a2575b505050505416935191829133958390929164ffffffffff60209163ffffffff604085019616845216910152565b338b52600a8452898b20541691549082151580611321575b1561127557612710916112cc91611a9c565b04916008549083821061127557837f9e2c5f94b327df7a7ea63d4c940cf9abf3d51452d7a5aca95b6140ce2c823ef29203600855828b52600b8152898b2084815401905589519384523393a338808080611275565b508115156112ba565b87516312171d8360e31b81528490fd5b6113519150863d8811610563576105558183611a4c565b3861122f565b89513d8c823e3d90fd5b338a52600a8652888a2080546001600160a01b0319169091179055386111dd565b50808a52600a865233838a8c20541614156111d8565b50338114156111d2565b508015156111cc565b8851636fed7d8560e01b81528590fd5b634e487b7160e01b8b526011865260248bfd5b845163c64200e960e01b8152fd5b50670de0b6b3a76400008211611185565b84516313d0ff5960e31b8152fd5b8580fd5b5050346103235781600319360112610323576020906005549051908152f35b5050346103235781600319360112610323576020906003549051908152f35b50503461032357816003193601126103235760209060ff60075460a01c1690519015158152f35b50346102e75760203660031901126102e757600654813592906001600160a01b0316330361081c576103e8831161080f57505060055580f35b5050346103235781600319360112610323576020905160038152f35b505034610323578160031936011261032357602091549051908152f35b50503461032357816003193601126103235760209051611c208152f35b5050346103235781600319360112610323576020905160078152f35b505034610323578160031936011261032357602090600e549051908152f35b5050346103235781600319360112610323576020906001549051908152f35b5090346102e757826003193601126102e7576006546001600160a01b0316330361081c576007805460ff60a01b191690558280f35b50919034610323578160031936011261032357338252602090600982528083209160018301908154936001600160801b03851692831561171857338752600d8352848720549082549163ffffffff83881c161515908161170e575b50156116fd576116006127106115f860058054045b88611a9c565b048096611ac5565b6fffffffffffffffffffffffffffffffff199097169055600161ff0160a81b0319169055338552600d8152828520859055816116f0575b825163a9059cbb60e01b8152338782019081526020810186905282908290819060400103818973765de816845861e75a25fca122bb6898b8b1282a5af19081156116e65786916116c9575b50156116b957825193845283015233917f92ccf450a286a957af52509bc1c9939d1a6a481783e142e41e2499f0bb66ebc69190a280f35b82516312171d8360e31b81528690fd5b6116e09150823d8411610563576105558183611a4c565b38611682565b84513d88823e3d90fd5b8160085401600855611637565b6116006127106115f86005546115f2565b90508511386115dd565b8451630686827b60e51b81528890fd5b5090346102e757806003193601126102e75761174261198d565b6024359260ff60075460a01c16611916576001600160a01b03821693841561190757655af3107a4000811080156118f6575b6118e75784865260096020528386209081549363ffffffff93848660601c161515806118dd575b6118cf5764ffffffffff8042169660801c166201194081018091116118bc5786106118ae5786516323b872dd60e01b8152338282019081523060208281019190915260408201869052908290819060600103818d73765de816845861e75a25fca122bb6898b8b1282a5af19081156118a4578a91611886575b501561187857509161184d8561187295937f910fefe8cbd875c2cefeec15c9fce0f7bf2d542d5c42e57b8ed2395127e29b109795611ad2565b549451941663ffffffff16845264ffffffffff16602084015233929081906040820190565b0390a380f35b86516312171d8360e31b8152fd5b61189e915060203d8111610563576105558183611a4c565b38611814565b88513d8c823e3d90fd5b8651636fed7d8560e01b8152fd5b634e487b7160e01b8a526011825260248afd5b8651630916c16b60e11b8152fd5b508486161561179b565b50825163c64200e960e01b8152fd5b50670de0b6b3a76400008111611774565b50825163e6c4247b60e01b8152fd5b82516313d0ff5960e31b8152fd5b505034610323576020366003190112610323576020916001600160a01b039082908261194e61198d565b168152600a85522054169051908152f35b8490346103235781600319360112610323578073765de816845861e75a25fca122bb6898b8b1282a60209252f35b600435906001600160a01b03821682036119a357565b600080fd5b9060058210156119b55752565b634e487b7160e01b600052602160045260246000fd5b90815180825260208080930193019160005b8281106119eb575050505090565b8351855293810193928101926001016119dd565b600e54811015611a3657600e6000527fbb7b4a454dc3493923482f07822329ed19e8244eff582cc204f8554c3620c3fd0190600090565b634e487b7160e01b600052603260045260246000fd5b90601f8019910116810190811067ffffffffffffffff821117611a6e57604052565b634e487b7160e01b600052604160045260246000fd5b908160209103126119a3575180151581036119a35790565b81810292918115918404141715611aaf57565b634e487b7160e01b600052601160045260246000fd5b91908203918211611aaf57565b60018060a01b0316916000838152600960205260408120926032810281810460321482151715611f385790612710611b139204908160085401600855611ac5565b92805464ffffffffff90818160801c168015159081611f1e575b50611e4d575b50815490808260801c168015159182611dfe575b5050611d9b575b50805463ffffffff9081600181831601169464ffffffffff60801b9060801b16808674ffffffffff000000000000000000000000ffffffff198416171795868555600185019687546001600160801b03809a168a8216018a8111611d8757918b9593918b99989795936001600160801b03199c8d91169116178a55848160201c168211611ccf575b505050505050805460ff8160a81c1615611c62575b5050808560409252600c60205220918254928284168015159081611c54575b50611c18575b505050505050565b7f35003c2a88a451cd165f157aa0f4efaa1c78331d1bda2c6bbf1a32e40a07d398946020941690555416604051908152a2388080808080611c10565b905083835416101538611c0a565b60ff60a81b1916600160a81b179055600e5468010000000000000000811015611cbb5790611c9882600160409401600e556119ff565b81546001600160a01b0360039290921b91821b19169088901b1790559038611beb565b634e487b7160e01b82526041600452602482fd5b67ffffffff000000009060201b169274ffffffffff0000000000000000ffffffffffffffff191617171780845560201c16601e81148015611d7d575b8015611d73575b8015611d68575b611d27575b80808080611bd6565b6020611d537fe77c5a722d2d46cdd1852f1811f567c19dadc53da7fc1e0ee6fc979d0335dbac92611f86565b611d6060405180926119a8565ba28538611d1e565b5061016d8114611d19565b5060b48114611d12565b50605a8114611d0b565b634e487b7160e01b89526011600452602489fd5b60b01c60ff166003811015611b4e57815460ff60b01b191660019190910160b01b60ff60b01b16178155847ff31aa52e228bac5c0fd9b53de3947b96a6b562a29503dea0c7a2784cdc228044602060ff845460b01c16604051908152a238611b4e565b620119408201925090828111611e39576201356001809211611e2557851611153880611b47565b634e487b7160e01b85526011600452602485fd5b634e487b7160e01b86526011600452602486fd5b60b081901c60ff1615611ec25750815460ff60b01b19811660b091821c60ff166000190190911b60ff60b01b16178255857fa3cd923e771784f8ab03c4bc813511f007df871c8652c02cd19cc966132b19646040845460ff82519163ffffffff8116835260b01c166020820152a25b38611b33565b867fc0539bb1c6561e4f713a8725d44795917796a9717ae897fbc6707ef291fac9b0602060405163ffffffff85168152a26fffffffff0000000000000000ffffffff19811660609190911b63ffffffff60601b16178255611ebc565b6202a300915001828111611e255782168286161138611b2d565b634e487b7160e01b83526011600452602483fd5b63ffffffff166031811015611f7f576023811015611f7857600e1115611f725760005490565b60015490565b5060025490565b5060035490565b63ffffffff1661016d811015611fc65760b4811015611fc057605a811015611fba57601e1115611fb557600090565b600190565b50600290565b50600390565b50600490565b67ffffffffffffffff8111611a6e5760051b60200190565b90611fee82611fcc565b611ffb6040519182611a4c565b828152809261200c601f1991611fcc565b0190602036910137565b8051821015611a365760209160051b01019056fea26469706673582212206d3978f626bed10563a7d1a40ced1a44f6998a837d0e1462ed54dfc20d17a5a564736f6c63430008140033","opcodes":"PUSH1 0x80 DUP1 PUSH1 0x40 MSTORE CALLVALUE PUSH2 0x5F JUMPI PUSH7 0x11C37937E08000 PUSH1 0x0 SSTORE PUSH7 0x2AA1EFB94E0000 PUSH1 0x1 SSTORE PUSH7 0x58D15E17628000 PUSH1 0x2 SSTORE PUSH7 0xB1A2BC2EC50000 PUSH1 0x3 SSTORE PUSH2 0x1F4 PUSH1 0x4 DUP2 SWAP1 SSTORE PUSH1 0x5 SSTORE PUSH1 0x6 DUP1 SLOAD PUSH1 0x1 PUSH1 0x1 PUSH1 0xA0 SHL SUB NOT AND CALLER OR SWAP1 SSTORE PUSH2 0x2060 SWAP1 DUP2 PUSH2 0x65 DUP3 CODECOPY RETURN JUMPDEST PUSH1 0x0 DUP1 REVERT INVALID PUSH1 0x80 PUSH1 0x40 DUP2 DUP2 MSTORE PUSH1 0x4 DUP1 CALLDATASIZE LT ISZERO PUSH2 0x15 JUMPI PUSH1 0x0 DUP1 REVERT JUMPDEST PUSH1 0x0 SWAP3 DUP4 CALLDATALOAD PUSH1 0xE0 SHR SWAP1 DUP2 PUSH4 0x1FCCF672 EQ PUSH2 0x195F JUMPI POP DUP1 PUSH4 0x2CF003C2 EQ PUSH2 0x1924 JUMPI DUP1 PUSH4 0x2F4F21E2 EQ PUSH2 0x1728 JUMPI DUP1 PUSH4 0x3CCFD60B EQ PUSH2 0x1582 JUMPI DUP1 PUSH4 0x3F4BA83A EQ PUSH2 0x154D JUMPI DUP1 PUSH4 0x3FBF422F EQ PUSH2 0x152E JUMPI DUP1 PUSH4 0x418F3128 EQ PUSH2 0x150F JUMPI DUP1 PUSH4 0x4C8530CE EQ PUSH2 0x14F3 JUMPI DUP1 PUSH4 0x51BEA8C3 EQ PUSH2 0x14D6 JUMPI DUP1 PUSH4 0x5264DAB0 EQ PUSH2 0x14B9 JUMPI DUP1 PUSH4 0x546CEA86 EQ PUSH2 0x149D JUMPI DUP1 PUSH4 0x54B1DE8F EQ PUSH2 0x1464 JUMPI DUP1 PUSH4 0x5C975ABB EQ PUSH2 0x143D JUMPI DUP1 PUSH4 0x60BD13D9 EQ PUSH2 0x141E JUMPI DUP1 PUSH4 0x66FC0127 EQ PUSH2 0x13FF JUMPI DUP1 PUSH4 0x6E553F65 EQ PUSH2 0x113E JUMPI DUP1 PUSH4 0x6F77926B EQ PUSH2 0x104C JUMPI DUP1 PUSH4 0x7289CCA6 EQ PUSH2 0xEA5 JUMPI DUP1 PUSH4 0x75F4C059 EQ PUSH2 0xE88 JUMPI DUP1 PUSH4 0x79BA5097 EQ PUSH2 0xE19 JUMPI DUP1 PUSH4 0x82BBF60E EQ PUSH2 0xDD7 JUMPI DUP1 PUSH4 0x8456CB59 EQ PUSH2 0xD9C JUMPI DUP1 PUSH4 0x8DA5CB5B EQ PUSH2 0xD73 JUMPI DUP1 PUSH4 0x96365D44 EQ PUSH2 0x5DD JUMPI DUP1 PUSH4 0x9B4B2C9C EQ PUSH2 0xC94 JUMPI DUP1 PUSH4 0x9F147D00 EQ PUSH2 0xC5C JUMPI DUP1 PUSH4 0xA2724A4D EQ PUSH2 0xC3E JUMPI DUP1 PUSH4 0xA2C8B369 EQ PUSH2 0xBD1 JUMPI DUP1 PUSH4 0xA34B46FE EQ PUSH2 0x8E9 JUMPI DUP1 PUSH4 0xA87430BA EQ PUSH2 0x84B JUMPI DUP1 PUSH4 0xAA0224FD EQ PUSH2 0x828 JUMPI DUP1 PUSH4 0xB09E603F EQ PUSH2 0x7D9 JUMPI DUP1 PUSH4 0xB88A802F EQ PUSH2 0x5FC JUMPI DUP1 PUSH4 0xBC2104D2 EQ PUSH2 0x5DD JUMPI DUP1 PUSH4 0xC254DE88 EQ PUSH2 0x590 JUMPI DUP1 PUSH4 0xCD6C7873 EQ PUSH2 0x574 JUMPI DUP1 PUSH4 0xDA3A5F72 EQ PUSH2 0x487 JUMPI DUP1 PUSH4 0xDD5967C3 EQ PUSH2 0x464 JUMPI DUP1 PUSH4 0xE1E158A5 EQ PUSH2 0x443 JUMPI DUP1 PUSH4 0xE30C3978 EQ PUSH2 0x41A JUMPI DUP1 PUSH4 0xE4B2FB79 EQ PUSH2 0x3D7 JUMPI DUP1 PUSH4 0xF2FDE38B EQ PUSH2 0x346 JUMPI DUP1 PUSH4 0xF67DED4E EQ PUSH2 0x327 JUMPI DUP1 PUSH4 0xF6CE9004 EQ PUSH2 0x2EB JUMPI PUSH4 0xFF84A262 EQ PUSH2 0x212 JUMPI PUSH1 0x0 DUP1 REVERT JUMPDEST CALLVALUE PUSH2 0x2E7 JUMPI PUSH1 0x80 CALLDATASIZE PUSH1 0x3 NOT ADD SLT PUSH2 0x2E7 JUMPI PUSH1 0x6 SLOAD DUP2 CALLDATALOAD SWAP3 PUSH1 0x64 CALLDATALOAD SWAP3 PUSH1 0x44 CALLDATALOAD SWAP3 PUSH1 0x24 CALLDATALOAD SWAP2 SWAP1 PUSH1 0x1 PUSH1 0x1 PUSH1 0xA0 SHL SUB AND CALLER SUB PUSH2 0x2DA JUMPI DUP6 ISZERO DUP1 ISZERO PUSH2 0x2D0 JUMPI JUMPDEST DUP1 ISZERO PUSH2 0x2C6 JUMPI JUMPDEST DUP1 ISZERO PUSH2 0x2BC JUMPI JUMPDEST PUSH2 0x2AE JUMPI POP SWAP2 PUSH1 0x80 SWAP4 SWAP2 DUP6 SWAP4 PUSH32 0x7DDFF0131937DFB4362682C96132C768E4BCE6A574B2C4EBD904636975D99F15 SWAP7 DUP9 SSTORE DUP1 PUSH1 0x1 SSTORE DUP3 PUSH1 0x2 SSTORE DUP4 PUSH1 0x3 SSTORE DUP2 MLOAD SWAP5 DUP6 MSTORE PUSH1 0x20 DUP6 ADD MSTORE DUP4 ADD MSTORE PUSH1 0x60 DUP3 ADD MSTORE LOG1 DUP1 RETURN JUMPDEST DUP3 MLOAD PUSH4 0x36899EB PUSH1 0xE3 SHL DUP2 MSTORE REVERT JUMPDEST POP DUP4 DUP6 GT ISZERO PUSH2 0x25C JUMP JUMPDEST POP DUP2 DUP5 GT ISZERO PUSH2 0x255 JUMP JUMPDEST POP DUP6 DUP3 GT ISZERO PUSH2 0x24E JUMP JUMPDEST DUP3 MLOAD PUSH3 0x82B429 PUSH1 0xE8 SHL DUP2 MSTORE REVERT JUMPDEST DUP3 DUP1 REVERT JUMPDEST POP POP CALLVALUE PUSH2 0x323 JUMPI PUSH1 0x20 CALLDATASIZE PUSH1 0x3 NOT ADD SLT PUSH2 0x323 JUMPI PUSH1 0x20 SWAP2 DUP2 SWAP1 PUSH1 0x1 PUSH1 0x1 PUSH1 0xA0 SHL SUB PUSH2 0x313 PUSH2 0x198D JUMP JUMPDEST AND DUP2 MSTORE PUSH1 0xD DUP5 MSTORE KECCAK256 SLOAD SWAP1 MLOAD SWAP1 DUP2 MSTORE RETURN JUMPDEST POP DUP1 REVERT JUMPDEST POP POP CALLVALUE PUSH2 0x323 JUMPI DUP2 PUSH1 0x3 NOT CALLDATASIZE ADD SLT PUSH2 0x323 JUMPI PUSH1 0x20 SWAP1 PUSH1 0x2 SLOAD SWAP1 MLOAD SWAP1 DUP2 MSTORE RETURN JUMPDEST POP CALLVALUE PUSH2 0x2E7 JUMPI PUSH1 0x20 CALLDATASIZE PUSH1 0x3 NOT ADD SLT PUSH2 0x2E7 JUMPI PUSH2 0x360 PUSH2 0x198D JUMP JUMPDEST PUSH1 0x6 SLOAD PUSH1 0x1 PUSH1 0x1 PUSH1 0xA0 SHL SUB SWAP1 DUP2 AND SWAP3 SWAP2 CALLER DUP5 SWAP1 SUB PUSH2 0x3C8 JUMPI AND SWAP3 DUP4 ISZERO PUSH2 0x3BB JUMPI POP POP PUSH1 0x7 DUP1 SLOAD PUSH1 0x1 PUSH1 0x1 PUSH1 0xA0 SHL SUB NOT AND DUP4 OR SWAP1 SSTORE PUSH32 0x38D16B8CAC22D99FC7C124B9CD0DE2D3FA1FAEF420BFE791D8C362D765E22700 DUP4 DUP1 LOG3 DUP1 RETURN JUMPDEST MLOAD PUSH4 0xE6C4247B PUSH1 0xE0 SHL DUP2 MSTORE REVERT JUMPDEST DUP5 MLOAD PUSH3 0x82B429 PUSH1 0xE8 SHL DUP2 MSTORE DUP4 SWAP1 REVERT JUMPDEST POP CALLVALUE PUSH2 0x2E7 JUMPI PUSH1 0x20 CALLDATASIZE PUSH1 0x3 NOT ADD SLT PUSH2 0x2E7 JUMPI CALLDATALOAD SWAP2 PUSH1 0xE SLOAD DUP4 LT ISZERO PUSH2 0x417 JUMPI POP PUSH2 0x401 PUSH1 0x20 SWAP3 PUSH2 0x19FF JUMP JUMPDEST SWAP1 SLOAD SWAP2 MLOAD SWAP2 PUSH1 0x1 DUP1 PUSH1 0xA0 SHL SUB SWAP2 PUSH1 0x3 SHL SHR AND DUP2 MSTORE RETURN JUMPDEST DUP1 REVERT JUMPDEST POP POP CALLVALUE PUSH2 0x323 JUMPI DUP2 PUSH1 0x3 NOT CALLDATASIZE ADD SLT PUSH2 0x323 JUMPI PUSH1 0x7 SLOAD SWAP1 MLOAD PUSH1 0x1 PUSH1 0x1 PUSH1 0xA0 SHL SUB SWAP1 SWAP2 AND DUP2 MSTORE PUSH1 0x20 SWAP1 RETURN JUMPDEST POP POP CALLVALUE PUSH2 0x323 JUMPI DUP2 PUSH1 0x3 NOT CALLDATASIZE ADD SLT PUSH2 0x323 JUMPI PUSH1 0x20 SWAP1 MLOAD PUSH6 0x5AF3107A4000 DUP2 MSTORE RETURN JUMPDEST POP POP CALLVALUE PUSH2 0x323 JUMPI DUP2 PUSH1 0x3 NOT CALLDATASIZE ADD SLT PUSH2 0x323 JUMPI PUSH1 0x20 SWAP1 MLOAD PUSH8 0xDE0B6B3A7640000 DUP2 MSTORE RETURN JUMPDEST POP SWAP1 CALLVALUE PUSH2 0x2E7 JUMPI PUSH1 0x20 CALLDATASIZE PUSH1 0x3 NOT ADD SLT PUSH2 0x2E7 JUMPI DUP1 MLOAD PUSH4 0x23B872DD PUSH1 0xE0 SHL DUP2 MSTORE CALLER DUP2 DUP5 ADD SWAP1 DUP2 MSTORE ADDRESS PUSH1 0x20 DUP3 DUP2 ADD SWAP2 SWAP1 SWAP2 MSTORE DUP5 CALLDATALOAD PUSH1 0x40 DUP4 ADD DUP2 SWAP1 MSTORE SWAP5 SWAP3 SWAP2 DUP3 SWAP1 DUP2 SWAP1 PUSH1 0x60 ADD SUB DUP2 DUP9 PUSH20 0x765DE816845861E75A25FCA122BB6898B8B1282A GAS CALL SWAP1 DUP2 ISZERO PUSH2 0x56A JUMPI DUP6 SWAP2 PUSH2 0x53C JUMPI JUMPDEST POP ISZERO PUSH2 0x52E JUMPI POP DUP2 PUSH1 0x8 SLOAD ADD PUSH1 0x8 SSTORE MLOAD SWAP1 DUP2 MSTORE PUSH32 0x32173D8E51CEC3A6FE484B7A1C3FEBE760CDF96E03D4CCA36A43563A4333E838 PUSH1 0x20 CALLER SWAP3 LOG2 DUP1 RETURN JUMPDEST SWAP1 MLOAD PUSH4 0x12171D83 PUSH1 0xE3 SHL DUP2 MSTORE REVERT JUMPDEST PUSH2 0x55D SWAP2 POP PUSH1 0x20 RETURNDATASIZE DUP2 GT PUSH2 0x563 JUMPI JUMPDEST PUSH2 0x555 DUP2 DUP4 PUSH2 0x1A4C JUMP JUMPDEST DUP2 ADD SWAP1 PUSH2 0x1A84 JUMP JUMPDEST CODESIZE PUSH2 0x4F2 JUMP JUMPDEST POP RETURNDATASIZE PUSH2 0x54B JUMP JUMPDEST DUP4 MLOAD RETURNDATASIZE DUP8 DUP3 RETURNDATACOPY RETURNDATASIZE SWAP1 REVERT JUMPDEST POP POP CALLVALUE PUSH2 0x323 JUMPI DUP2 PUSH1 0x3 NOT CALLDATASIZE ADD SLT PUSH2 0x323 JUMPI PUSH1 0x20 SWAP1 MLOAD PUSH1 0x32 DUP2 MSTORE RETURN JUMPDEST POP POP CALLVALUE PUSH2 0x323 JUMPI PUSH1 0x20 CALLDATASIZE PUSH1 0x3 NOT ADD SLT PUSH2 0x323 JUMPI PUSH2 0x5DB PUSH2 0x5D2 PUSH4 0xFFFFFFFF DUP4 PUSH1 0x20 SWAP6 PUSH1 0x1 DUP1 PUSH1 0xA0 SHL SUB PUSH2 0x5C1 PUSH2 0x198D JUMP JUMPDEST AND DUP2 MSTORE PUSH1 0x9 DUP8 MSTORE KECCAK256 SLOAD DUP6 SHR AND PUSH2 0x1F86 JUMP JUMPDEST SWAP2 MLOAD DUP1 SWAP3 PUSH2 0x19A8 JUMP JUMPDEST RETURN JUMPDEST POP POP CALLVALUE PUSH2 0x323 JUMPI DUP2 PUSH1 0x3 NOT CALLDATASIZE ADD SLT PUSH2 0x323 JUMPI PUSH1 0x20 SWAP1 PUSH1 0x8 SLOAD SWAP1 MLOAD SWAP1 DUP2 MSTORE RETURN JUMPDEST POP CALLVALUE PUSH2 0x2E7 JUMPI DUP3 PUSH1 0x3 NOT CALLDATASIZE ADD SLT PUSH2 0x2E7 JUMPI PUSH1 0xFF PUSH1 0x7 SLOAD PUSH1 0xA0 SHR AND PUSH2 0x7CB JUMPI CALLER DUP4 MSTORE PUSH1 0x9 PUSH1 0x20 MSTORE DUP2 DUP4 KECCAK256 SWAP2 DUP3 SLOAD SWAP2 PUSH4 0xFFFFFFFF SWAP4 DUP5 DUP5 AND SWAP5 PUSH1 0x7 DUP7 LT DUP1 ISZERO PUSH2 0x7BF JUMPI JUMPDEST PUSH2 0x7AF JUMPI DUP5 DUP5 SHR AND DUP6 GT ISZERO PUSH2 0x7A0 JUMPI PUSH2 0x656 DUP6 PUSH2 0x1F4C JUMP JUMPDEST SWAP4 DUP5 PUSH1 0x8 SLOAD LT PUSH2 0x790 JUMPI PUSH12 0xFFFFFFFF0000000000000000 NOT DUP2 AND SWAP1 DUP5 SHL PUSH12 0xFFFFFFFF0000000000000000 AND OR DUP1 DUP3 SSTORE PUSH1 0xB0 SHR PUSH1 0xFF AND SWAP1 PUSH1 0x3 DUP3 LT PUSH2 0x76B JUMPI JUMPDEST POP POP PUSH1 0x8 DUP1 SLOAD DUP5 SWAP1 SUB SWAP1 SSTORE CALLER DUP1 DUP7 MSTORE PUSH1 0xD PUSH1 0x20 SWAP1 DUP2 MSTORE DUP4 DUP8 KECCAK256 DUP1 SLOAD DUP7 ADD SWAP1 SSTORE DUP4 MLOAD PUSH4 0xA9059CBB PUSH1 0xE0 SHL DUP2 MSTORE DUP4 DUP2 ADD SWAP3 DUP4 MSTORE DUP3 DUP3 ADD DUP7 SWAP1 MSTORE SWAP2 DUP3 SWAP1 DUP2 SWAP1 PUSH1 0x40 ADD SUB DUP2 DUP10 PUSH20 0x765DE816845861E75A25FCA122BB6898B8B1282A GAS CALL SWAP1 DUP2 ISZERO PUSH2 0x761 JUMPI DUP7 SWAP2 PUSH2 0x743 JUMPI JUMPDEST POP ISZERO PUSH2 0x52E JUMPI POP MLOAD PUSH4 0xFFFFFFFF SWAP1 SWAP3 AND DUP3 MSTORE PUSH1 0x20 DUP3 ADD MSTORE CALLER SWAP1 PUSH32 0xD26A00DFD91636328B46A49A079C1612A57C89258F2FEA78C7469EC0B5F8047 SWAP1 DUP1 PUSH1 0x40 DUP2 ADD JUMPDEST SUB SWAP1 LOG2 DUP1 RETURN JUMPDEST PUSH2 0x75B SWAP2 POP PUSH1 0x20 RETURNDATASIZE DUP2 GT PUSH2 0x563 JUMPI PUSH2 0x555 DUP2 DUP4 PUSH2 0x1A4C JUMP JUMPDEST CODESIZE PUSH2 0x6FC JUMP JUMPDEST DUP4 MLOAD RETURNDATASIZE DUP9 DUP3 RETURNDATACOPY RETURNDATASIZE SWAP1 REVERT JUMPDEST DUP1 SLOAD PUSH1 0xFF PUSH1 0xB0 SHL NOT AND PUSH1 0x1 SWAP3 SWAP1 SWAP3 ADD PUSH1 0xB0 SHL PUSH1 0xFF PUSH1 0xB0 SHL AND SWAP2 SWAP1 SWAP2 OR SWAP1 SSTORE CODESIZE DUP1 PUSH2 0x695 JUMP JUMPDEST DUP4 MLOAD PUSH4 0x5CE024D PUSH1 0xE5 SHL DUP2 MSTORE DUP4 SWAP1 REVERT JUMPDEST POP SWAP1 MLOAD PUSH4 0xC8D9EAB PUSH1 0xE3 SHL DUP2 MSTORE REVERT JUMPDEST DUP4 MLOAD PUSH4 0x2E6D9AFF PUSH1 0xE0 SHL DUP2 MSTORE DUP4 SWAP1 REVERT JUMPDEST POP PUSH1 0x7 DUP7 MOD ISZERO ISZERO PUSH2 0x63E JUMP JUMPDEST SWAP1 MLOAD PUSH4 0x13D0FF59 PUSH1 0xE3 SHL DUP2 MSTORE REVERT JUMPDEST POP CALLVALUE PUSH2 0x2E7 JUMPI PUSH1 0x20 CALLDATASIZE PUSH1 0x3 NOT ADD SLT PUSH2 0x2E7 JUMPI PUSH1 0x6 SLOAD DUP2 CALLDATALOAD SWAP3 SWAP1 PUSH1 0x1 PUSH1 0x1 PUSH1 0xA0 SHL SUB AND CALLER SUB PUSH2 0x81C JUMPI PUSH2 0x3E8 DUP4 GT PUSH2 0x80F JUMPI POP SSTORE DUP1 RETURN JUMPDEST MLOAD PUSH4 0x63941FF PUSH1 0xE3 SHL DUP2 MSTORE REVERT JUMPDEST MLOAD PUSH3 0x82B429 PUSH1 0xE8 SHL DUP2 MSTORE REVERT JUMPDEST POP POP CALLVALUE PUSH2 0x323 JUMPI DUP2 PUSH1 0x3 NOT CALLDATASIZE ADD SLT PUSH2 0x323 JUMPI PUSH1 0x20 SWAP1 MLOAD PUSH8 0x16345785D8A0000 DUP2 MSTORE RETURN JUMPDEST POP POP CALLVALUE PUSH2 0x323 JUMPI PUSH1 0x20 CALLDATASIZE PUSH1 0x3 NOT ADD SLT PUSH2 0x323 JUMPI PUSH2 0x100 SWAP2 DUP2 SWAP1 PUSH1 0x1 PUSH1 0x1 PUSH1 0xA0 SHL SUB PUSH2 0x874 PUSH2 0x198D JUMP JUMPDEST AND DUP2 MSTORE PUSH1 0x9 PUSH1 0x20 MSTORE KECCAK256 PUSH1 0xFF PUSH1 0x1 PUSH1 0x1 PUSH1 0x80 SHL SUB PUSH1 0x1 DUP4 SLOAD SWAP4 ADD SLOAD AND SWAP2 DUP4 MLOAD SWAP4 PUSH4 0xFFFFFFFF SWAP1 DUP2 DUP4 AND DUP7 MSTORE DUP2 DUP4 PUSH1 0x20 SHR AND PUSH1 0x20 DUP8 ADD MSTORE DUP2 DUP4 DUP3 SHR AND SWAP1 DUP7 ADD MSTORE DUP2 PUSH1 0x60 SHR AND PUSH1 0x60 DUP6 ADD MSTORE PUSH5 0xFFFFFFFFFF DUP2 PUSH1 0x80 SHR AND PUSH1 0x80 DUP6 ADD MSTORE DUP2 DUP2 PUSH1 0xA8 SHR AND ISZERO ISZERO PUSH1 0xA0 DUP6 ADD MSTORE PUSH1 0xB0 SHR AND PUSH1 0xC0 DUP4 ADD MSTORE PUSH1 0xE0 DUP3 ADD MSTORE RETURN JUMPDEST POP SWAP2 SWAP1 CALLVALUE PUSH2 0x323 JUMPI PUSH1 0x20 DUP1 PUSH1 0x3 NOT CALLDATASIZE ADD SLT PUSH2 0x2E7 JUMPI DUP4 CALLDATALOAD SWAP4 PUSH1 0xE SLOAD PUSH1 0xC8 DUP2 LT PUSH1 0x0 EQ PUSH2 0xBC8 JUMPI SWAP5 JUMPDEST DUP1 DUP7 LT ISZERO PUSH2 0xBC3 JUMPI POP DUP5 JUMPDEST PUSH2 0x925 DUP7 PUSH2 0x1FE4 JUMP JUMPDEST SWAP1 PUSH2 0x92F DUP8 PUSH2 0x1FE4 JUMP JUMPDEST SWAP7 PUSH2 0x939 DUP2 PUSH2 0x1FE4 JUMP JUMPDEST SWAP4 DUP8 JUMPDEST DUP7 DUP9 DUP12 DUP12 DUP7 DUP6 LT PUSH2 0xB56 JUMPI SWAP4 POP POP POP POP POP DUP8 JUMPDEST DUP4 DUP2 LT PUSH2 0xA55 JUMPI POP POP DUP2 SUB PUSH2 0x9C9 JUMPI POP SWAP5 SWAP1 SWAP2 JUMPDEST DUP4 MLOAD SWAP5 PUSH1 0x60 DUP7 ADD PUSH1 0x60 DUP8 MSTORE DUP8 MLOAD DUP1 SWAP2 MSTORE DUP3 PUSH1 0x80 DUP9 ADD SWAP9 ADD SWAP2 JUMPDEST DUP2 DUP2 LT PUSH2 0x9AC JUMPI DUP8 DUP10 SUB DUP5 DUP10 ADD MSTORE DUP8 DUP1 PUSH2 0x9A8 DUP10 DUP10 PUSH2 0x99B DUP15 DUP12 PUSH2 0x19CB JUMP JUMPDEST SWAP2 DUP5 DUP4 SUB SWAP1 DUP6 ADD MSTORE PUSH2 0x19CB JUMP JUMPDEST SUB SWAP1 RETURN JUMPDEST DUP3 MLOAD PUSH1 0x1 PUSH1 0x1 PUSH1 0xA0 SHL SUB AND DUP10 MSTORE SWAP8 DUP4 ADD SWAP8 SWAP2 DUP4 ADD SWAP2 PUSH1 0x1 ADD PUSH2 0x97C JUMP JUMPDEST PUSH2 0x9D8 DUP2 SWAP8 SWAP4 SWAP8 SWAP5 SWAP3 SWAP5 PUSH2 0x1FE4 JUMP JUMPDEST SWAP7 PUSH2 0x9E2 DUP3 PUSH2 0x1FE4 JUMP JUMPDEST SWAP4 PUSH2 0x9EC DUP4 PUSH2 0x1FE4 JUMP JUMPDEST SWAP6 DUP9 JUMPDEST DUP5 DUP2 LT PUSH2 0xA00 JUMPI POP POP POP POP POP PUSH2 0x963 JUMP JUMPDEST PUSH1 0x1 SWAP1 DUP12 PUSH2 0xA22 DUP3 PUSH1 0x1 PUSH1 0x1 PUSH1 0xA0 SHL SUB PUSH2 0xA1A DUP3 DUP9 PUSH2 0x2016 JUMP JUMPDEST MLOAD AND SWAP3 PUSH2 0x2016 JUMP JUMPDEST MSTORE PUSH2 0xA2D DUP2 DUP6 PUSH2 0x2016 JUMP JUMPDEST MLOAD PUSH2 0xA38 DUP3 DUP11 PUSH2 0x2016 JUMP JUMPDEST MSTORE PUSH2 0xA43 DUP2 DUP7 PUSH2 0x2016 JUMP JUMPDEST MLOAD PUSH2 0xA4E DUP3 DUP12 PUSH2 0x2016 JUMP JUMPDEST MSTORE ADD PUSH2 0x9EF JUMP JUMPDEST DUP1 PUSH1 0x1 SWAP2 DUP3 DUP2 ADD SWAP3 DUP4 DUP3 GT PUSH2 0xB43 JUMPI DUP4 JUMPDEST DUP7 DUP2 LT PUSH2 0xB17 JUMPI POP POP DUP1 DUP3 SUB PUSH2 0xA7E JUMPI JUMPDEST POP POP PUSH2 0x94F JUMP JUMPDEST PUSH2 0xB0F SWAP1 PUSH1 0x1 PUSH1 0x1 PUSH1 0xA0 SHL SUB DUP1 PUSH2 0xA95 DUP6 DUP12 PUSH2 0x2016 JUMP JUMPDEST MLOAD AND SWAP1 PUSH2 0xAA2 DUP4 DUP12 PUSH2 0x2016 JUMP JUMPDEST MLOAD AND PUSH2 0xAAE DUP6 DUP12 PUSH2 0x2016 JUMP JUMPDEST MSTORE PUSH2 0xAB9 DUP3 DUP11 PUSH2 0x2016 JUMP JUMPDEST MSTORE DUP13 PUSH2 0xAE6 DUP3 PUSH2 0xAC9 DUP7 DUP5 PUSH2 0x2016 JUMP JUMPDEST MLOAD SWAP3 PUSH2 0xAD5 DUP3 DUP3 PUSH2 0x2016 JUMP JUMPDEST MLOAD PUSH2 0xAE0 DUP9 DUP4 PUSH2 0x2016 JUMP JUMPDEST MSTORE PUSH2 0x2016 JUMP JUMPDEST MSTORE PUSH2 0xAF1 DUP4 DUP11 PUSH2 0x2016 JUMP JUMPDEST MLOAD SWAP3 PUSH2 0xB08 PUSH2 0xB00 DUP4 DUP13 PUSH2 0x2016 JUMP JUMPDEST MLOAD SWAP2 DUP12 PUSH2 0x2016 JUMP JUMPDEST MSTORE DUP9 PUSH2 0x2016 JUMP JUMPDEST MSTORE CODESIZE DUP1 PUSH2 0xA77 JUMP JUMPDEST DUP14 PUSH2 0xB2D DUP6 PUSH2 0xB26 DUP5 DUP5 PUSH2 0x2016 JUMP JUMPDEST MLOAD SWAP3 PUSH2 0x2016 JUMP JUMPDEST MLOAD LT PUSH2 0xB3B JUMPI JUMPDEST DUP2 ADD PUSH2 0xA66 JUMP JUMPDEST SWAP3 POP DUP3 PUSH2 0xB34 JUMP JUMPDEST PUSH4 0x4E487B71 PUSH1 0xE0 SHL DUP13 MSTORE PUSH1 0x11 DUP6 MSTORE PUSH1 0x24 DUP13 REVERT JUMPDEST DUP5 PUSH4 0xFFFFFFFF DUP2 SWAP5 PUSH2 0xB9B SWAP4 DUP13 PUSH2 0xB89 PUSH2 0xB6F DUP7 PUSH2 0x19FF JUMP JUMPDEST SWAP1 SLOAD PUSH1 0x3 SWAP2 SWAP1 SWAP2 SHL SHR PUSH1 0x1 PUSH1 0x1 PUSH1 0xA0 SHL SUB AND SWAP9 DUP10 SWAP3 PUSH2 0x2016 JUMP JUMPDEST MSTORE DUP7 DUP2 MSTORE PUSH1 0x9 DUP1 SWAP9 MSTORE KECCAK256 SLOAD AND SWAP3 PUSH2 0x2016 JUMP JUMPDEST MSTORE DUP11 MSTORE DUP8 MSTORE PUSH1 0x1 SWAP1 PUSH1 0x1 PUSH1 0x1 PUSH1 0x80 SHL SUB DUP3 DUP11 DUP13 KECCAK256 ADD SLOAD AND PUSH2 0xBBC DUP3 DUP10 PUSH2 0x2016 JUMP JUMPDEST MSTORE ADD PUSH2 0x93C JUMP JUMPDEST PUSH2 0x91C JUMP JUMPDEST POP PUSH1 0xC8 SWAP5 PUSH2 0x911 JUMP JUMPDEST POP CALLVALUE PUSH2 0x2E7 JUMPI PUSH1 0x20 CALLDATASIZE PUSH1 0x3 NOT ADD SLT PUSH2 0x2E7 JUMPI CALLDATALOAD SWAP1 PUSH1 0x1 PUSH1 0x1 PUSH1 0x80 SHL SUB DUP3 AND DUP1 SWAP3 SUB PUSH2 0x2E7 JUMPI CALLER DUP4 MSTORE PUSH1 0xC PUSH1 0x20 MSTORE DUP1 DUP4 KECCAK256 DUP3 PUSH1 0x1 PUSH1 0x1 PUSH1 0x80 SHL SUB NOT DUP3 SLOAD AND OR SWAP1 SSTORE MLOAD SWAP1 DUP2 MSTORE PUSH32 0xD576BC64B95E6BBDB657E504FCDADEB74867D950336FD046ADDD6DB94933AB0D PUSH1 0x20 CALLER SWAP3 LOG2 DUP1 RETURN JUMPDEST POP POP CALLVALUE PUSH2 0x323 JUMPI DUP2 PUSH1 0x3 NOT CALLDATASIZE ADD SLT PUSH2 0x323 JUMPI PUSH1 0x20 SWAP1 MLOAD PUSH3 0x11940 DUP2 MSTORE RETURN JUMPDEST POP POP CALLVALUE PUSH2 0x323 JUMPI PUSH1 0x20 CALLDATASIZE PUSH1 0x3 NOT ADD SLT PUSH2 0x323 JUMPI PUSH1 0x20 SWAP2 DUP2 SWAP1 PUSH1 0x1 PUSH1 0x1 PUSH1 0xA0 SHL SUB PUSH2 0xC84 PUSH2 0x198D JUMP JUMPDEST AND DUP2 MSTORE PUSH1 0xB DUP5 MSTORE KECCAK256 SLOAD SWAP1 MLOAD SWAP1 DUP2 MSTORE RETURN JUMPDEST POP SWAP1 CALLVALUE PUSH2 0x2E7 JUMPI DUP3 PUSH1 0x3 NOT CALLDATASIZE ADD SLT PUSH2 0x2E7 JUMPI CALLER DUP4 MSTORE PUSH1 0x20 SWAP1 PUSH1 0xB DUP3 MSTORE DUP1 DUP5 KECCAK256 SLOAD SWAP3 DUP4 ISZERO PUSH2 0xD65 JUMPI CALLER DUP1 DUP7 MSTORE PUSH1 0xB DUP5 MSTORE DUP3 DUP7 KECCAK256 DUP7 SWAP1 SSTORE DUP3 MLOAD PUSH4 0xA9059CBB PUSH1 0xE0 SHL DUP2 MSTORE DUP3 DUP2 ADD SWAP2 DUP3 MSTORE PUSH1 0x20 DUP3 ADD DUP7 SWAP1 MSTORE SWAP1 DUP5 SWAP1 DUP3 SWAP1 DUP2 SWAP1 PUSH1 0x40 ADD SUB DUP2 DUP10 PUSH20 0x765DE816845861E75A25FCA122BB6898B8B1282A GAS CALL SWAP1 DUP2 ISZERO PUSH2 0x761 JUMPI DUP7 SWAP2 PUSH2 0xD48 JUMPI JUMPDEST POP ISZERO PUSH2 0x52E JUMPI POP SWAP1 PUSH32 0x5BE4D22009FEA85381595ED91090BC5C0BC92A93FE07ED7472C5888EB1993F83 SWAP2 MLOAD SWAP3 DUP4 MSTORE CALLER SWAP3 LOG2 DUP1 RETURN JUMPDEST PUSH2 0xD5F SWAP2 POP DUP5 RETURNDATASIZE DUP7 GT PUSH2 0x563 JUMPI PUSH2 0x555 DUP2 DUP4 PUSH2 0x1A4C JUMP JUMPDEST CODESIZE PUSH2 0xD14 JUMP JUMPDEST SWAP1 MLOAD PUSH4 0x686827B PUSH1 0xE5 SHL DUP2 MSTORE REVERT JUMPDEST POP POP CALLVALUE PUSH2 0x323 JUMPI DUP2 PUSH1 0x3 NOT CALLDATASIZE ADD SLT PUSH2 0x323 JUMPI PUSH1 0x6 SLOAD SWAP1 MLOAD PUSH1 0x1 PUSH1 0x1 PUSH1 0xA0 SHL SUB SWAP1 SWAP2 AND DUP2 MSTORE PUSH1 0x20 SWAP1 RETURN JUMPDEST POP SWAP1 CALLVALUE PUSH2 0x2E7 JUMPI DUP3 PUSH1 0x3 NOT CALLDATASIZE ADD SLT PUSH2 0x2E7 JUMPI PUSH1 0x6 SLOAD PUSH1 0x1 PUSH1 0x1 PUSH1 0xA0 SHL SUB AND CALLER SUB PUSH2 0x81C JUMPI PUSH1 0x7 DUP1 SLOAD PUSH1 0xFF PUSH1 0xA0 SHL NOT AND PUSH1 0x1 PUSH1 0xA0 SHL OR SWAP1 SSTORE DUP3 DUP1 RETURN JUMPDEST POP POP CALLVALUE PUSH2 0x323 JUMPI PUSH1 0x20 CALLDATASIZE PUSH1 0x3 NOT ADD SLT PUSH2 0x323 JUMPI PUSH1 0x20 SWAP2 PUSH1 0x1 PUSH1 0x1 PUSH1 0x80 SHL SUB SWAP1 DUP3 SWAP1 PUSH1 0x1 PUSH1 0x1 PUSH1 0xA0 SHL SUB PUSH2 0xE08 PUSH2 0x198D JUMP JUMPDEST AND DUP2 MSTORE PUSH1 0xC DUP6 MSTORE KECCAK256 SLOAD AND SWAP1 MLOAD SWAP1 DUP2 MSTORE RETURN JUMPDEST POP CALLVALUE PUSH2 0x2E7 JUMPI DUP3 PUSH1 0x3 NOT CALLDATASIZE ADD SLT PUSH2 0x2E7 JUMPI PUSH1 0x7 SLOAD PUSH1 0x1 PUSH1 0x1 PUSH1 0xA0 SHL SUB SWAP3 SWAP1 SWAP2 SWAP1 DUP4 DUP4 AND CALLER SUB PUSH2 0x81C JUMPI POP POP PUSH1 0x6 SLOAD SWAP2 CALLER SWAP1 DUP4 AND PUSH32 0x8BE0079C531659141344CD1FD0A4F28419497F9722A3DAAFE3B4186F6B6457E0 DUP6 DUP1 LOG3 PUSH1 0x1 PUSH1 0x1 PUSH1 0xA0 SHL SUB NOT SWAP2 DUP3 AND CALLER OR PUSH1 0x6 SSTORE AND PUSH1 0x7 SSTORE DUP1 RETURN JUMPDEST POP CALLVALUE PUSH2 0x2E7 JUMPI DUP3 PUSH1 0x3 NOT CALLDATASIZE ADD SLT PUSH2 0x2E7 JUMPI PUSH1 0x20 SWAP3 POP SLOAD SWAP1 MLOAD SWAP1 DUP2 MSTORE RETURN JUMPDEST POP SWAP1 CALLVALUE PUSH2 0x2E7 JUMPI DUP3 PUSH1 0x3 NOT CALLDATASIZE ADD SLT PUSH2 0x2E7 JUMPI PUSH1 0xFF PUSH1 0x7 SLOAD PUSH1 0xA0 SHR AND PUSH2 0x103F JUMPI CALLER DUP4 MSTORE PUSH1 0x9 PUSH1 0x20 MSTORE DUP1 DUP4 KECCAK256 SWAP1 DUP2 SLOAD SWAP2 PUSH4 0xFFFFFFFF SWAP4 DUP5 DUP5 PUSH1 0x60 SHR AND SWAP5 DUP6 ISZERO SWAP1 DUP2 SWAP6 DUP3 ISZERO PUSH2 0x1033 JUMPI JUMPDEST POP POP PUSH2 0x1025 JUMPI PUSH6 0x5AF3107A4000 SWAP4 DUP5 DUP7 MUL SWAP5 DUP7 DUP7 DIV EQ OR ISZERO PUSH2 0x1012 JUMPI PUSH8 0x16345785D8A0000 DUP1 DUP6 GT PUSH2 0x100A JUMPI JUMPDEST POP DUP3 MLOAD PUSH4 0x23B872DD PUSH1 0xE0 SHL DUP2 MSTORE CALLER DUP3 DUP3 ADD SWAP1 DUP2 MSTORE ADDRESS PUSH1 0x20 DUP3 DUP2 ADD SWAP2 SWAP1 SWAP2 MSTORE PUSH1 0x40 DUP3 ADD DUP8 SWAP1 MSTORE SWAP1 DUP3 SWAP1 DUP2 SWAP1 PUSH1 0x60 ADD SUB DUP2 DUP11 PUSH20 0x765DE816845861E75A25FCA122BB6898B8B1282A GAS CALL SWAP1 DUP2 ISZERO PUSH2 0x1000 JUMPI DUP8 SWAP2 PUSH2 0xFE2 JUMPI JUMPDEST POP ISZERO PUSH2 0xFD4 JUMPI POP DUP1 SLOAD PUSH16 0xFFFFFFFF0000000000000000FFFFFFFF NOT AND DUP5 OR SWAP1 SSTORE PUSH1 0x8 DUP1 SLOAD DUP4 ADD SWAP1 SSTORE MLOAD PUSH4 0xFFFFFFFF SWAP1 SWAP3 AND DUP3 MSTORE PUSH1 0x20 DUP3 ADD MSTORE CALLER SWAP1 PUSH32 0xC428C32598BFE7863DE948CB3B5FFB667A08521AC39C31A674722457E9800B6E SWAP1 DUP1 PUSH1 0x40 DUP2 ADD PUSH2 0x73D JUMP JUMPDEST DUP3 MLOAD PUSH4 0x12171D83 PUSH1 0xE3 SHL DUP2 MSTORE REVERT JUMPDEST PUSH2 0xFFA SWAP2 POP PUSH1 0x20 RETURNDATASIZE DUP2 GT PUSH2 0x563 JUMPI PUSH2 0x555 DUP2 DUP4 PUSH2 0x1A4C JUMP JUMPDEST CODESIZE PUSH2 0xF6E JUMP JUMPDEST DUP5 MLOAD RETURNDATASIZE DUP10 DUP3 RETURNDATACOPY RETURNDATASIZE SWAP1 REVERT JUMPDEST SWAP4 POP CODESIZE PUSH2 0xF19 JUMP JUMPDEST PUSH4 0x4E487B71 PUSH1 0xE0 SHL DUP7 MSTORE PUSH1 0x11 SWAP1 MSTORE PUSH1 0x24 DUP6 REVERT JUMPDEST DUP3 MLOAD PUSH4 0x1F309D37 PUSH1 0xE2 SHL DUP2 MSTORE REVERT JUMPDEST AND ISZERO ISZERO SWAP1 POP CODESIZE DUP1 PUSH2 0xEEC JUMP JUMPDEST MLOAD PUSH4 0x13D0FF59 PUSH1 0xE3 SHL DUP2 MSTORE REVERT JUMPDEST POP DUP3 CALLVALUE PUSH2 0x417 JUMPI PUSH1 0x20 CALLDATASIZE PUSH1 0x3 NOT ADD SLT PUSH2 0x417 JUMPI PUSH1 0x1 PUSH1 0x1 PUSH1 0xA0 SHL SUB PUSH2 0x106F PUSH2 0x198D JUMP JUMPDEST AND SWAP2 DUP3 DUP3 MSTORE PUSH1 0x9 PUSH1 0x20 MSTORE DUP4 DUP3 KECCAK256 SWAP4 DUP5 SLOAD SWAP2 PUSH5 0xFFFFFFFFFF PUSH1 0x1 PUSH1 0x1 PUSH1 0x80 SHL SUB PUSH1 0x1 DUP3 DUP7 PUSH1 0x80 SHR AND SWAP9 ADD SLOAD AND SWAP5 PUSH4 0xFFFFFFFF SWAP6 DUP7 DUP7 PUSH1 0x20 SHR AND SWAP2 PUSH3 0x11940 DUP11 ADD SWAP5 DUP6 DUP12 GT PUSH2 0x112B JUMPI POP SWAP6 DUP6 PUSH2 0x140 SWAP10 SWAP6 DUP10 SWAP6 DUP6 PUSH1 0x20 SWAP12 SWAP6 PUSH2 0x1123 SWAP11 DUP16 SWAP13 PUSH2 0x10D5 DUP9 SWAP11 PUSH2 0x1F86 JUMP JUMPDEST SWAP12 DUP2 MSTORE PUSH1 0xD DUP16 MSTORE KECCAK256 SLOAD SWAP12 DUP6 MLOAD SWAP14 DUP15 DUP10 DUP10 AND DUP2 MSTORE ADD MSTORE DUP5 DUP14 ADD MSTORE PUSH1 0x60 DUP13 ADD MSTORE TIMESTAMP AND LT ISZERO PUSH1 0x80 DUP11 ADD MSTORE SHR AND PUSH1 0xA0 DUP8 ADD MSTORE PUSH1 0xFF DUP2 PUSH1 0xB0 SHR AND PUSH1 0xC0 DUP8 ADD MSTORE PUSH1 0x60 SHR AND PUSH1 0xE0 DUP6 ADD MSTORE PUSH2 0x100 DUP5 ADD SWAP1 PUSH2 0x19A8 JUMP JUMPDEST PUSH2 0x120 DUP3 ADD MSTORE RETURN JUMPDEST PUSH4 0x4E487B71 PUSH1 0xE0 SHL DUP3 MSTORE PUSH1 0x11 SWAP1 MSTORE PUSH1 0x24 SWAP1 REVERT JUMPDEST POP CALLVALUE PUSH2 0x2E7 JUMPI DUP2 PUSH1 0x3 NOT CALLDATASIZE ADD SLT PUSH2 0x2E7 JUMPI PUSH1 0x1 PUSH1 0x1 PUSH1 0xA0 SHL SUB PUSH1 0x24 CALLDATALOAD DUP2 DUP2 AND SWAP3 DUP1 CALLDATALOAD SWAP2 DUP5 SWAP1 SUB PUSH2 0x13FB JUMPI PUSH1 0xFF PUSH1 0x7 SLOAD PUSH1 0xA0 SHR AND PUSH2 0x13ED JUMPI PUSH6 0x5AF3107A4000 DUP3 LT DUP1 ISZERO PUSH2 0x13DC JUMPI JUMPDEST PUSH2 0x13CE JUMPI CALLER DUP7 MSTORE PUSH1 0x20 SWAP2 PUSH1 0x9 DUP4 MSTORE DUP6 DUP8 KECCAK256 SWAP4 PUSH5 0xFFFFFFFFFF SWAP6 DUP7 TIMESTAMP AND SWAP7 DUP7 SLOAD SWAP1 DUP2 PUSH1 0x80 SHR AND PUSH3 0x11940 DUP2 ADD DUP1 SWAP2 GT PUSH2 0x13BB JUMPI DUP9 LT PUSH2 0x13AB JUMPI PUSH1 0xA8 SHR PUSH1 0xFF AND ISZERO SWAP1 DUP2 DUP1 PUSH2 0x13A2 JUMPI JUMPDEST DUP1 PUSH2 0x1398 JUMPI JUMPDEST DUP1 PUSH2 0x1382 JUMPI JUMPDEST PUSH2 0x1361 JUMPI JUMPDEST POP DUP8 MLOAD PUSH4 0x23B872DD PUSH1 0xE0 SHL DUP2 MSTORE CALLER DUP6 DUP3 ADD SWAP1 DUP2 MSTORE ADDRESS PUSH1 0x20 DUP3 ADD MSTORE PUSH1 0x40 DUP2 ADD DUP6 SWAP1 MSTORE DUP7 SWAP1 DUP3 SWAP1 DUP2 SWAP1 PUSH1 0x60 ADD SUB DUP2 DUP14 PUSH20 0x765DE816845861E75A25FCA122BB6898B8B1282A GAS CALL SWAP1 DUP2 ISZERO PUSH2 0x1357 JUMPI DUP11 SWAP2 PUSH2 0x133A JUMPI JUMPDEST POP ISZERO PUSH2 0x132A JUMPI SWAP3 DUP3 DUP8 SWAP6 SWAP3 PUSH4 0xFFFFFFFF SWAP6 PUSH2 0x1270 PUSH32 0x1091413AC916D6D977BA19245BE465E86C3DFD74CC7C9903AF6856D3E3668E55 SWAP11 PUSH2 0x73D SWAP11 SWAP8 CALLER PUSH2 0x1AD2 JUMP JUMPDEST PUSH2 0x12A2 JUMPI JUMPDEST POP POP POP POP SLOAD AND SWAP4 MLOAD SWAP2 DUP3 SWAP2 CALLER SWAP6 DUP4 SWAP1 SWAP3 SWAP2 PUSH5 0xFFFFFFFFFF PUSH1 0x20 SWAP2 PUSH4 0xFFFFFFFF PUSH1 0x40 DUP6 ADD SWAP7 AND DUP5 MSTORE AND SWAP2 ADD MSTORE JUMP JUMPDEST CALLER DUP12 MSTORE PUSH1 0xA DUP5 MSTORE DUP10 DUP12 KECCAK256 SLOAD AND SWAP2 SLOAD SWAP1 DUP3 ISZERO ISZERO DUP1 PUSH2 0x1321 JUMPI JUMPDEST ISZERO PUSH2 0x1275 JUMPI PUSH2 0x2710 SWAP2 PUSH2 0x12CC SWAP2 PUSH2 0x1A9C JUMP JUMPDEST DIV SWAP2 PUSH1 0x8 SLOAD SWAP1 DUP4 DUP3 LT PUSH2 0x1275 JUMPI DUP4 PUSH32 0x9E2C5F94B327DF7A7EA63D4C940CF9ABF3D51452D7A5ACA95B6140CE2C823EF2 SWAP3 SUB PUSH1 0x8 SSTORE DUP3 DUP12 MSTORE PUSH1 0xB DUP2 MSTORE DUP10 DUP12 KECCAK256 DUP5 DUP2 SLOAD ADD SWAP1 SSTORE DUP10 MLOAD SWAP4 DUP5 MSTORE CALLER SWAP4 LOG3 CODESIZE DUP1 DUP1 DUP1 PUSH2 0x1275 JUMP JUMPDEST POP DUP2 ISZERO ISZERO PUSH2 0x12BA JUMP JUMPDEST DUP8 MLOAD PUSH4 0x12171D83 PUSH1 0xE3 SHL DUP2 MSTORE DUP5 SWAP1 REVERT JUMPDEST PUSH2 0x1351 SWAP2 POP DUP7 RETURNDATASIZE DUP9 GT PUSH2 0x563 JUMPI PUSH2 0x555 DUP2 DUP4 PUSH2 0x1A4C JUMP JUMPDEST CODESIZE PUSH2 0x122F JUMP JUMPDEST DUP10 MLOAD RETURNDATASIZE DUP13 DUP3 RETURNDATACOPY RETURNDATASIZE SWAP1 REVERT JUMPDEST CALLER DUP11 MSTORE PUSH1 0xA DUP7 MSTORE DUP9 DUP11 KECCAK256 DUP1 SLOAD PUSH1 0x1 PUSH1 0x1 PUSH1 0xA0 SHL SUB NOT AND SWAP1 SWAP2 OR SWAP1 SSTORE CODESIZE PUSH2 0x11DD JUMP JUMPDEST POP DUP1 DUP11 MSTORE PUSH1 0xA DUP7 MSTORE CALLER DUP4 DUP11 DUP13 KECCAK256 SLOAD AND EQ ISZERO PUSH2 0x11D8 JUMP JUMPDEST POP CALLER DUP2 EQ ISZERO PUSH2 0x11D2 JUMP JUMPDEST POP DUP1 ISZERO ISZERO PUSH2 0x11CC JUMP JUMPDEST DUP9 MLOAD PUSH4 0x6FED7D85 PUSH1 0xE0 SHL DUP2 MSTORE DUP6 SWAP1 REVERT JUMPDEST PUSH4 0x4E487B71 PUSH1 0xE0 SHL DUP12 MSTORE PUSH1 0x11 DUP7 MSTORE PUSH1 0x24 DUP12 REVERT JUMPDEST DUP5 MLOAD PUSH4 0xC64200E9 PUSH1 0xE0 SHL DUP2 MSTORE REVERT JUMPDEST POP PUSH8 0xDE0B6B3A7640000 DUP3 GT PUSH2 0x1185 JUMP JUMPDEST DUP5 MLOAD PUSH4 0x13D0FF59 PUSH1 0xE3 SHL DUP2 MSTORE REVERT JUMPDEST DUP6 DUP1 REVERT JUMPDEST POP POP CALLVALUE PUSH2 0x323 JUMPI DUP2 PUSH1 0x3 NOT CALLDATASIZE ADD SLT PUSH2 0x323 JUMPI PUSH1 0x20 SWAP1 PUSH1 0x5 SLOAD SWAP1 MLOAD SWAP1 DUP2 MSTORE RETURN JUMPDEST POP POP CALLVALUE PUSH2 0x323 JUMPI DUP2 PUSH1 0x3 NOT CALLDATASIZE ADD SLT PUSH2 0x323 JUMPI PUSH1 0x20 SWAP1 PUSH1 0x3 SLOAD SWAP1 MLOAD SWAP1 DUP2 MSTORE RETURN JUMPDEST POP POP CALLVALUE PUSH2 0x323 JUMPI DUP2 PUSH1 0x3 NOT CALLDATASIZE ADD SLT PUSH2 0x323 JUMPI PUSH1 0x20 SWAP1 PUSH1 0xFF PUSH1 0x7 SLOAD PUSH1 0xA0 SHR AND SWAP1 MLOAD SWAP1 ISZERO ISZERO DUP2 MSTORE RETURN JUMPDEST POP CALLVALUE PUSH2 0x2E7 JUMPI PUSH1 0x20 CALLDATASIZE PUSH1 0x3 NOT ADD SLT PUSH2 0x2E7 JUMPI PUSH1 0x6 SLOAD DUP2 CALLDATALOAD SWAP3 SWAP1 PUSH1 0x1 PUSH1 0x1 PUSH1 0xA0 SHL SUB AND CALLER SUB PUSH2 0x81C JUMPI PUSH2 0x3E8 DUP4 GT PUSH2 0x80F JUMPI POP POP PUSH1 0x5 SSTORE DUP1 RETURN JUMPDEST POP POP CALLVALUE PUSH2 0x323 JUMPI DUP2 PUSH1 0x3 NOT CALLDATASIZE ADD SLT PUSH2 0x323 JUMPI PUSH1 0x20 SWAP1 MLOAD PUSH1 0x3 DUP2 MSTORE RETURN JUMPDEST POP POP CALLVALUE PUSH2 0x323 JUMPI DUP2 PUSH1 0x3 NOT CALLDATASIZE ADD SLT PUSH2 0x323 JUMPI PUSH1 0x20 SWAP2 SLOAD SWAP1 MLOAD SWAP1 DUP2 MSTORE RETURN JUMPDEST POP POP CALLVALUE PUSH2 0x323 JUMPI DUP2 PUSH1 0x3 NOT CALLDATASIZE ADD SLT PUSH2 0x323 JUMPI PUSH1 0x20 SWAP1 MLOAD PUSH2 0x1C20 DUP2 MSTORE RETURN JUMPDEST POP POP CALLVALUE PUSH2 0x323 JUMPI DUP2 PUSH1 0x3 NOT CALLDATASIZE ADD SLT PUSH2 0x323 JUMPI PUSH1 0x20 SWAP1 MLOAD PUSH1 0x7 DUP2 MSTORE RETURN JUMPDEST POP POP CALLVALUE PUSH2 0x323 JUMPI DUP2 PUSH1 0x3 NOT CALLDATASIZE ADD SLT PUSH2 0x323 JUMPI PUSH1 0x20 SWAP1 PUSH1 0xE SLOAD SWAP1 MLOAD SWAP1 DUP2 MSTORE RETURN JUMPDEST POP POP CALLVALUE PUSH2 0x323 JUMPI DUP2 PUSH1 0x3 NOT CALLDATASIZE ADD SLT PUSH2 0x323 JUMPI PUSH1 0x20 SWAP1 PUSH1 0x1 SLOAD SWAP1 MLOAD SWAP1 DUP2 MSTORE RETURN JUMPDEST POP SWAP1 CALLVALUE PUSH2 0x2E7 JUMPI DUP3 PUSH1 0x3 NOT CALLDATASIZE ADD SLT PUSH2 0x2E7 JUMPI PUSH1 0x6 SLOAD PUSH1 0x1 PUSH1 0x1 PUSH1 0xA0 SHL SUB AND CALLER SUB PUSH2 0x81C JUMPI PUSH1 0x7 DUP1 SLOAD PUSH1 0xFF PUSH1 0xA0 SHL NOT AND SWAP1 SSTORE DUP3 DUP1 RETURN JUMPDEST POP SWAP2 SWAP1 CALLVALUE PUSH2 0x323 JUMPI DUP2 PUSH1 0x3 NOT CALLDATASIZE ADD SLT PUSH2 0x323 JUMPI CALLER DUP3 MSTORE PUSH1 0x20 SWAP1 PUSH1 0x9 DUP3 MSTORE DUP1 DUP4 KECCAK256 SWAP2 PUSH1 0x1 DUP4 ADD SWAP1 DUP2 SLOAD SWAP4 PUSH1 0x1 PUSH1 0x1 PUSH1 0x80 SHL SUB DUP6 AND SWAP3 DUP4 ISZERO PUSH2 0x1718 JUMPI CALLER DUP8 MSTORE PUSH1 0xD DUP4 MSTORE DUP5 DUP8 KECCAK256 SLOAD SWAP1 DUP3 SLOAD SWAP2 PUSH4 0xFFFFFFFF DUP4 DUP9 SHR AND ISZERO ISZERO SWAP1 DUP2 PUSH2 0x170E JUMPI JUMPDEST POP ISZERO PUSH2 0x16FD JUMPI PUSH2 0x1600 PUSH2 0x2710 PUSH2 0x15F8 PUSH1 0x5 DUP1 SLOAD DIV JUMPDEST DUP9 PUSH2 0x1A9C JUMP JUMPDEST DIV DUP1 SWAP7 PUSH2 0x1AC5 JUMP JUMPDEST PUSH16 0xFFFFFFFFFFFFFFFFFFFFFFFFFFFFFFFF NOT SWAP1 SWAP8 AND SWAP1 SSTORE PUSH1 0x1 PUSH2 0xFF01 PUSH1 0xA8 SHL SUB NOT AND SWAP1 SSTORE CALLER DUP6 MSTORE PUSH1 0xD DUP2 MSTORE DUP3 DUP6 KECCAK256 DUP6 SWAP1 SSTORE DUP2 PUSH2 0x16F0 JUMPI JUMPDEST DUP3 MLOAD PUSH4 0xA9059CBB PUSH1 0xE0 SHL DUP2 MSTORE CALLER DUP8 DUP3 ADD SWAP1 DUP2 MSTORE PUSH1 0x20 DUP2 ADD DUP7 SWAP1 MSTORE DUP3 SWAP1 DUP3 SWAP1 DUP2 SWAP1 PUSH1 0x40 ADD SUB DUP2 DUP10 PUSH20 0x765DE816845861E75A25FCA122BB6898B8B1282A GAS CALL SWAP1 DUP2 ISZERO PUSH2 0x16E6 JUMPI DUP7 SWAP2 PUSH2 0x16C9 JUMPI JUMPDEST POP ISZERO PUSH2 0x16B9 JUMPI DUP3 MLOAD SWAP4 DUP5 MSTORE DUP4 ADD MSTORE CALLER SWAP2 PUSH32 0x92CCF450A286A957AF52509BC1C9939D1A6A481783E142E41E2499F0BB66EBC6 SWAP2 SWAP1 LOG2 DUP1 RETURN JUMPDEST DUP3 MLOAD PUSH4 0x12171D83 PUSH1 0xE3 SHL DUP2 MSTORE DUP7 SWAP1 REVERT JUMPDEST PUSH2 0x16E0 SWAP2 POP DUP3 RETURNDATASIZE DUP5 GT PUSH2 0x563 JUMPI PUSH2 0x555 DUP2 DUP4 PUSH2 0x1A4C JUMP JUMPDEST CODESIZE PUSH2 0x1682 JUMP JUMPDEST DUP5 MLOAD RETURNDATASIZE DUP9 DUP3 RETURNDATACOPY RETURNDATASIZE SWAP1 REVERT JUMPDEST DUP2 PUSH1 0x8 SLOAD ADD PUSH1 0x8 SSTORE PUSH2 0x1637 JUMP JUMPDEST PUSH2 0x1600 PUSH2 0x2710 PUSH2 0x15F8 PUSH1 0x5 SLOAD PUSH2 0x15F2 JUMP JUMPDEST SWAP1 POP DUP6 GT CODESIZE PUSH2 0x15DD JUMP JUMPDEST DUP5 MLOAD PUSH4 0x686827B PUSH1 0xE5 SHL DUP2 MSTORE DUP9 SWAP1 REVERT JUMPDEST POP SWAP1 CALLVALUE PUSH2 0x2E7 JUMPI DUP1 PUSH1 0x3 NOT CALLDATASIZE ADD SLT PUSH2 0x2E7 JUMPI PUSH2 0x1742 PUSH2 0x198D JUMP JUMPDEST PUSH1 0x24 CALLDATALOAD SWAP3 PUSH1 0xFF PUSH1 0x7 SLOAD PUSH1 0xA0 SHR AND PUSH2 0x1916 JUMPI PUSH1 0x1 PUSH1 0x1 PUSH1 0xA0 SHL SUB DUP3 AND SWAP4 DUP5 ISZERO PUSH2 0x1907 JUMPI PUSH6 0x5AF3107A4000 DUP2 LT DUP1 ISZERO PUSH2 0x18F6 JUMPI JUMPDEST PUSH2 0x18E7 JUMPI DUP5 DUP7 MSTORE PUSH1 0x9 PUSH1 0x20 MSTORE DUP4 DUP7 KECCAK256 SWAP1 DUP2 SLOAD SWAP4 PUSH4 0xFFFFFFFF SWAP4 DUP5 DUP7 PUSH1 0x60 SHR AND ISZERO ISZERO DUP1 PUSH2 0x18DD JUMPI JUMPDEST PUSH2 0x18CF JUMPI PUSH5 0xFFFFFFFFFF DUP1 TIMESTAMP AND SWAP7 PUSH1 0x80 SHR AND PUSH3 0x11940 DUP2 ADD DUP1 SWAP2 GT PUSH2 0x18BC JUMPI DUP7 LT PUSH2 0x18AE JUMPI DUP7 MLOAD PUSH4 0x23B872DD PUSH1 0xE0 SHL DUP2 MSTORE CALLER DUP3 DUP3 ADD SWAP1 DUP2 MSTORE ADDRESS PUSH1 0x20 DUP3 DUP2 ADD SWAP2 SWAP1 SWAP2 MSTORE PUSH1 0x40 DUP3 ADD DUP7 SWAP1 MSTORE SWAP1 DUP3 SWAP1 DUP2 SWAP1 PUSH1 0x60 ADD SUB DUP2 DUP14 PUSH20 0x765DE816845861E75A25FCA122BB6898B8B1282A GAS CALL SWAP1 DUP2 ISZERO PUSH2 0x18A4 JUMPI DUP11 SWAP2 PUSH2 0x1886 JUMPI JUMPDEST POP ISZERO PUSH2 0x1878 JUMPI POP SWAP2 PUSH2 0x184D DUP6 PUSH2 0x1872 SWAP6 SWAP4 PUSH32 0x910FEFE8CBD875C2CEFEEC15C9FCE0F7BF2D542D5C42E57B8ED2395127E29B10 SWAP8 SWAP6 PUSH2 0x1AD2 JUMP JUMPDEST SLOAD SWAP5 MLOAD SWAP5 AND PUSH4 0xFFFFFFFF AND DUP5 MSTORE PUSH5 0xFFFFFFFFFF AND PUSH1 0x20 DUP5 ADD MSTORE CALLER SWAP3 SWAP1 DUP2 SWAP1 PUSH1 0x40 DUP3 ADD SWAP1 JUMP JUMPDEST SUB SWAP1 LOG3 DUP1 RETURN JUMPDEST DUP7 MLOAD PUSH4 0x12171D83 PUSH1 0xE3 SHL DUP2 MSTORE REVERT JUMPDEST PUSH2 0x189E SWAP2 POP PUSH1 0x20 RETURNDATASIZE DUP2 GT PUSH2 0x563 JUMPI PUSH2 0x555 DUP2 DUP4 PUSH2 0x1A4C JUMP JUMPDEST CODESIZE PUSH2 0x1814 JUMP JUMPDEST DUP9 MLOAD RETURNDATASIZE DUP13 DUP3 RETURNDATACOPY RETURNDATASIZE SWAP1 REVERT JUMPDEST DUP7 MLOAD PUSH4 0x6FED7D85 PUSH1 0xE0 SHL DUP2 MSTORE REVERT JUMPDEST PUSH4 0x4E487B71 PUSH1 0xE0 SHL DUP11 MSTORE PUSH1 0x11 DUP3 MSTORE PUSH1 0x24 DUP11 REVERT JUMPDEST DUP7 MLOAD PUSH4 0x916C16B PUSH1 0xE1 SHL DUP2 MSTORE REVERT JUMPDEST POP DUP5 DUP7 AND ISZERO PUSH2 0x179B JUMP JUMPDEST POP DUP3 MLOAD PUSH4 0xC64200E9 PUSH1 0xE0 SHL DUP2 MSTORE REVERT JUMPDEST POP PUSH8 0xDE0B6B3A7640000 DUP2 GT PUSH2 0x1774 JUMP JUMPDEST POP DUP3 MLOAD PUSH4 0xE6C4247B PUSH1 0xE0 SHL DUP2 MSTORE REVERT JUMPDEST DUP3 MLOAD PUSH4 0x13D0FF59 PUSH1 0xE3 SHL DUP2 MSTORE REVERT JUMPDEST POP POP CALLVALUE PUSH2 0x323 JUMPI PUSH1 0x20 CALLDATASIZE PUSH1 0x3 NOT ADD SLT PUSH2 0x323 JUMPI PUSH1 0x20 SWAP2 PUSH1 0x1 PUSH1 0x1 PUSH1 0xA0 SHL SUB SWAP1 DUP3 SWAP1 DUP3 PUSH2 0x194E PUSH2 0x198D JUMP JUMPDEST AND DUP2 MSTORE PUSH1 0xA DUP6 MSTORE KECCAK256 SLOAD AND SWAP1 MLOAD SWAP1 DUP2 MSTORE RETURN JUMPDEST DUP5 SWAP1 CALLVALUE PUSH2 0x323 JUMPI DUP2 PUSH1 0x3 NOT CALLDATASIZE ADD SLT PUSH2 0x323 JUMPI DUP1 PUSH20 0x765DE816845861E75A25FCA122BB6898B8B1282A PUSH1 0x20 SWAP3 MSTORE RETURN JUMPDEST PUSH1 0x4 CALLDATALOAD SWAP1 PUSH1 0x1 PUSH1 0x1 PUSH1 0xA0 SHL SUB DUP3 AND DUP3 SUB PUSH2 0x19A3 JUMPI JUMP JUMPDEST PUSH1 0x0 DUP1 REVERT JUMPDEST SWAP1 PUSH1 0x5 DUP3 LT ISZERO PUSH2 0x19B5 JUMPI MSTORE JUMP JUMPDEST PUSH4 0x4E487B71 PUSH1 0xE0 SHL PUSH1 0x0 MSTORE PUSH1 0x21 PUSH1 0x4 MSTORE PUSH1 0x24 PUSH1 0x0 REVERT JUMPDEST SWAP1 DUP2 MLOAD DUP1 DUP3 MSTORE PUSH1 0x20 DUP1 DUP1 SWAP4 ADD SWAP4 ADD SWAP2 PUSH1 0x0 JUMPDEST DUP3 DUP2 LT PUSH2 0x19EB JUMPI POP POP POP POP SWAP1 JUMP JUMPDEST DUP4 MLOAD DUP6 MSTORE SWAP4 DUP2 ADD SWAP4 SWAP3 DUP2 ADD SWAP3 PUSH1 0x1 ADD PUSH2 0x19DD JUMP JUMPDEST PUSH1 0xE SLOAD DUP2 LT ISZERO PUSH2 0x1A36 JUMPI PUSH1 0xE PUSH1 0x0 MSTORE PUSH32 0xBB7B4A454DC3493923482F07822329ED19E8244EFF582CC204F8554C3620C3FD ADD SWAP1 PUSH1 0x0 SWAP1 JUMP JUMPDEST PUSH4 0x4E487B71 PUSH1 0xE0 SHL PUSH1 0x0 MSTORE PUSH1 0x32 PUSH1 0x4 MSTORE PUSH1 0x24 PUSH1 0x0 REVERT JUMPDEST SWAP1 PUSH1 0x1F DUP1 NOT SWAP2 ADD AND DUP2 ADD SWAP1 DUP2 LT PUSH8 0xFFFFFFFFFFFFFFFF DUP3 GT OR PUSH2 0x1A6E JUMPI PUSH1 0x40 MSTORE JUMP JUMPDEST PUSH4 0x4E487B71 PUSH1 0xE0 SHL PUSH1 0x0 MSTORE PUSH1 0x41 PUSH1 0x4 MSTORE PUSH1 0x24 PUSH1 0x0 REVERT JUMPDEST SWAP1 DUP2 PUSH1 0x20 SWAP2 SUB SLT PUSH2 0x19A3 JUMPI MLOAD DUP1 ISZERO ISZERO DUP2 SUB PUSH2 0x19A3 JUMPI SWAP1 JUMP JUMPDEST DUP2 DUP2 MUL SWAP3 SWAP2 DUP2 ISZERO SWAP2 DUP5 DIV EQ OR ISZERO PUSH2 0x1AAF JUMPI JUMP JUMPDEST PUSH4 0x4E487B71 PUSH1 0xE0 SHL PUSH1 0x0 MSTORE PUSH1 0x11 PUSH1 0x4 MSTORE PUSH1 0x24 PUSH1 0x0 REVERT JUMPDEST SWAP2 SWAP1 DUP3 SUB SWAP2 DUP3 GT PUSH2 0x1AAF JUMPI JUMP JUMPDEST PUSH1 0x1 DUP1 PUSH1 0xA0 SHL SUB AND SWAP2 PUSH1 0x0 DUP4 DUP2 MSTORE PUSH1 0x9 PUSH1 0x20 MSTORE PUSH1 0x40 DUP2 KECCAK256 SWAP3 PUSH1 0x32 DUP2 MUL DUP2 DUP2 DIV PUSH1 0x32 EQ DUP3 ISZERO OR ISZERO PUSH2 0x1F38 JUMPI SWAP1 PUSH2 0x2710 PUSH2 0x1B13 SWAP3 DIV SWAP1 DUP2 PUSH1 0x8 SLOAD ADD PUSH1 0x8 SSTORE PUSH2 0x1AC5 JUMP JUMPDEST SWAP3 DUP1 SLOAD PUSH5 0xFFFFFFFFFF SWAP1 DUP2 DUP2 PUSH1 0x80 SHR AND DUP1 ISZERO ISZERO SWAP1 DUP2 PUSH2 0x1F1E JUMPI JUMPDEST POP PUSH2 0x1E4D JUMPI JUMPDEST POP DUP2 SLOAD SWAP1 DUP1 DUP3 PUSH1 0x80 SHR AND DUP1 ISZERO ISZERO SWAP2 DUP3 PUSH2 0x1DFE JUMPI JUMPDEST POP POP PUSH2 0x1D9B JUMPI JUMPDEST POP DUP1 SLOAD PUSH4 0xFFFFFFFF SWAP1 DUP2 PUSH1 0x1 DUP2 DUP4 AND ADD AND SWAP5 PUSH5 0xFFFFFFFFFF PUSH1 0x80 SHL SWAP1 PUSH1 0x80 SHL AND DUP1 DUP7 PUSH21 0xFFFFFFFFFF000000000000000000000000FFFFFFFF NOT DUP5 AND OR OR SWAP6 DUP7 DUP6 SSTORE PUSH1 0x1 DUP6 ADD SWAP7 DUP8 SLOAD PUSH1 0x1 PUSH1 0x1 PUSH1 0x80 SHL SUB DUP1 SWAP11 AND DUP11 DUP3 AND ADD DUP11 DUP2 GT PUSH2 0x1D87 JUMPI SWAP2 DUP12 SWAP6 SWAP4 SWAP2 DUP12 SWAP10 SWAP9 SWAP8 SWAP6 SWAP4 PUSH1 0x1 PUSH1 0x1 PUSH1 0x80 SHL SUB NOT SWAP13 DUP14 SWAP2 AND SWAP2 AND OR DUP11 SSTORE DUP5 DUP2 PUSH1 0x20 SHR AND DUP3 GT PUSH2 0x1CCF JUMPI JUMPDEST POP POP POP POP POP POP DUP1 SLOAD PUSH1 0xFF DUP2 PUSH1 0xA8 SHR AND ISZERO PUSH2 0x1C62 JUMPI JUMPDEST POP POP DUP1 DUP6 PUSH1 0x40 SWAP3 MSTORE PUSH1 0xC PUSH1 0x20 MSTORE KECCAK256 SWAP2 DUP3 SLOAD SWAP3 DUP3 DUP5 AND DUP1 ISZERO ISZERO SWAP1 DUP2 PUSH2 0x1C54 JUMPI JUMPDEST POP PUSH2 0x1C18 JUMPI JUMPDEST POP POP POP POP POP POP JUMP JUMPDEST PUSH32 0x35003C2A88A451CD165F157AA0F4EFAA1C78331D1BDA2C6BBF1A32E40A07D398 SWAP5 PUSH1 0x20 SWAP5 AND SWAP1 SSTORE SLOAD AND PUSH1 0x40 MLOAD SWAP1 DUP2 MSTORE LOG2 CODESIZE DUP1 DUP1 DUP1 DUP1 DUP1 PUSH2 0x1C10 JUMP JUMPDEST SWAP1 POP DUP4 DUP4 SLOAD AND LT ISZERO CODESIZE PUSH2 0x1C0A JUMP JUMPDEST PUSH1 0xFF PUSH1 0xA8 SHL NOT AND PUSH1 0x1 PUSH1 0xA8 SHL OR SWAP1 SSTORE PUSH1 0xE SLOAD PUSH9 0x10000000000000000 DUP2 LT ISZERO PUSH2 0x1CBB JUMPI SWAP1 PUSH2 0x1C98 DUP3 PUSH1 0x1 PUSH1 0x40 SWAP5 ADD PUSH1 0xE SSTORE PUSH2 0x19FF JUMP JUMPDEST DUP2 SLOAD PUSH1 0x1 PUSH1 0x1 PUSH1 0xA0 SHL SUB PUSH1 0x3 SWAP3 SWAP1 SWAP3 SHL SWAP2 DUP3 SHL NOT AND SWAP1 DUP9 SWAP1 SHL OR SWAP1 SSTORE SWAP1 CODESIZE PUSH2 0x1BEB JUMP JUMPDEST PUSH4 0x4E487B71 PUSH1 0xE0 SHL DUP3 MSTORE PUSH1 0x41 PUSH1 0x4 MSTORE PUSH1 0x24 DUP3 REVERT JUMPDEST PUSH8 0xFFFFFFFF00000000 SWAP1 PUSH1 0x20 SHL AND SWAP3 PUSH21 0xFFFFFFFFFF0000000000000000FFFFFFFFFFFFFFFF NOT AND OR OR OR DUP1 DUP5 SSTORE PUSH1 0x20 SHR AND PUSH1 0x1E DUP2 EQ DUP1 ISZERO PUSH2 0x1D7D JUMPI JUMPDEST DUP1 ISZERO PUSH2 0x1D73 JUMPI JUMPDEST DUP1 ISZERO PUSH2 0x1D68 JUMPI JUMPDEST PUSH2 0x1D27 JUMPI JUMPDEST DUP1 DUP1 DUP1 DUP1 PUSH2 0x1BD6 JUMP JUMPDEST PUSH1 0x20 PUSH2 0x1D53 PUSH32 0xE77C5A722D2D46CDD1852F1811F567C19DADC53DA7FC1E0EE6FC979D0335DBAC SWAP3 PUSH2 0x1F86 JUMP JUMPDEST PUSH2 0x1D60 PUSH1 0x40 MLOAD DUP1 SWAP3 PUSH2 0x19A8 JUMP JUMPDEST LOG2 DUP6 CODESIZE PUSH2 0x1D1E JUMP JUMPDEST POP PUSH2 0x16D DUP2 EQ PUSH2 0x1D19 JUMP JUMPDEST POP PUSH1 0xB4 DUP2 EQ PUSH2 0x1D12 JUMP JUMPDEST POP PUSH1 0x5A DUP2 EQ PUSH2 0x1D0B JUMP JUMPDEST PUSH4 0x4E487B71 PUSH1 0xE0 SHL DUP10 MSTORE PUSH1 0x11 PUSH1 0x4 MSTORE PUSH1 0x24 DUP10 REVERT JUMPDEST PUSH1 0xB0 SHR PUSH1 0xFF AND PUSH1 0x3 DUP2 LT ISZERO PUSH2 0x1B4E JUMPI DUP2 SLOAD PUSH1 0xFF PUSH1 0xB0 SHL NOT AND PUSH1 0x1 SWAP2 SWAP1 SWAP2 ADD PUSH1 0xB0 SHL PUSH1 0xFF PUSH1 0xB0 SHL AND OR DUP2 SSTORE DUP5 PUSH32 0xF31AA52E228BAC5C0FD9B53DE3947B96A6B562A29503DEA0C7A2784CDC228044 PUSH1 0x20 PUSH1 0xFF DUP5 SLOAD PUSH1 0xB0 SHR AND PUSH1 0x40 MLOAD SWAP1 DUP2 MSTORE LOG2 CODESIZE PUSH2 0x1B4E JUMP JUMPDEST PUSH3 0x11940 DUP3 ADD SWAP3 POP SWAP1 DUP3 DUP2 GT PUSH2 0x1E39 JUMPI PUSH3 0x13560 ADD DUP1 SWAP3 GT PUSH2 0x1E25 JUMPI DUP6 AND GT ISZERO CODESIZE DUP1 PUSH2 0x1B47 JUMP JUMPDEST PUSH4 0x4E487B71 PUSH1 0xE0 SHL DUP6 MSTORE PUSH1 0x11 PUSH1 0x4 MSTORE PUSH1 0x24 DUP6 REVERT JUMPDEST PUSH4 0x4E487B71 PUSH1 0xE0 SHL DUP7 MSTORE PUSH1 0x11 PUSH1 0x4 MSTORE PUSH1 0x24 DUP7 REVERT JUMPDEST PUSH1 0xB0 DUP2 SWAP1 SHR PUSH1 0xFF AND ISZERO PUSH2 0x1EC2 JUMPI POP DUP2 SLOAD PUSH1 0xFF PUSH1 0xB0 SHL NOT DUP2 AND PUSH1 0xB0 SWAP2 DUP3 SHR PUSH1 0xFF AND PUSH1 0x0 NOT ADD SWAP1 SWAP2 SHL PUSH1 0xFF PUSH1 0xB0 SHL AND OR DUP3 SSTORE DUP6 PUSH32 0xA3CD923E771784F8AB03C4BC813511F007DF871C8652C02CD19CC966132B1964 PUSH1 0x40 DUP5 SLOAD PUSH1 0xFF DUP3 MLOAD SWAP2 PUSH4 0xFFFFFFFF DUP2 AND DUP4 MSTORE PUSH1 0xB0 SHR AND PUSH1 0x20 DUP3 ADD MSTORE LOG2 JUMPDEST CODESIZE PUSH2 0x1B33 JUMP JUMPDEST DUP7 PUSH32 0xC0539BB1C6561E4F713A8725D44795917796A9717AE897FBC6707EF291FAC9B0 PUSH1 0x20 PUSH1 0x40 MLOAD PUSH4 0xFFFFFFFF DUP6 AND DUP2 MSTORE LOG2 PUSH16 0xFFFFFFFF0000000000000000FFFFFFFF NOT DUP2 AND PUSH1 0x60 SWAP2 SWAP1 SWAP2 SHL PUSH4 0xFFFFFFFF PUSH1 0x60 SHL AND OR DUP3 SSTORE PUSH2 0x1EBC JUMP JUMPDEST PUSH3 0x2A300 SWAP2 POP ADD DUP3 DUP2 GT PUSH2 0x1E25 JUMPI DUP3 AND DUP3 DUP7 AND GT CODESIZE PUSH2 0x1B2D JUMP JUMPDEST PUSH4 0x4E487B71 PUSH1 0xE0 SHL DUP4 MSTORE PUSH1 0x11 PUSH1 0x4 MSTORE PUSH1 0x24 DUP4 REVERT JUMPDEST PUSH4 0xFFFFFFFF AND PUSH1 0x31 DUP2 LT ISZERO PUSH2 0x1F7F JUMPI PUSH1 0x23 DUP2 LT ISZERO PUSH2 0x1F78 JUMPI PUSH1 0xE GT ISZERO PUSH2 0x1F72 JUMPI PUSH1 0x0 SLOAD SWAP1 JUMP JUMPDEST PUSH1 0x1 SLOAD SWAP1 JUMP JUMPDEST POP PUSH1 0x2 SLOAD SWAP1 JUMP JUMPDEST POP PUSH1 0x3 SLOAD SWAP1 JUMP JUMPDEST PUSH4 0xFFFFFFFF AND PUSH2 0x16D DUP2 LT ISZERO PUSH2 0x1FC6 JUMPI PUSH1 0xB4 DUP2 LT ISZERO PUSH2 0x1FC0 JUMPI PUSH1 0x5A DUP2 LT ISZERO PUSH2 0x1FBA JUMPI PUSH1 0x1E GT ISZERO PUSH2 0x1FB5 JUMPI PUSH1 0x0 SWAP1 JUMP JUMPDEST PUSH1 0x1 SWAP1 JUMP JUMPDEST POP PUSH1 0x2 SWAP1 JUMP JUMPDEST POP PUSH1 0x3 SWAP1 JUMP JUMPDEST POP PUSH1 0x4 SWAP1 JUMP JUMPDEST PUSH8 0xFFFFFFFFFFFFFFFF DUP2 GT PUSH2 0x1A6E JUMPI PUSH1 0x5 SHL PUSH1 0x20 ADD SWAP1 JUMP JUMPDEST SWAP1 PUSH2 0x1FEE DUP3 PUSH2 0x1FCC JUMP JUMPDEST PUSH2 0x1FFB PUSH1 0x40 MLOAD SWAP2 DUP3 PUSH2 0x1A4C JUMP JUMPDEST DUP3 DUP2 MSTORE DUP1 SWAP3 PUSH2 0x200C PUSH1 0x1F NOT SWAP2 PUSH2 0x1FCC JUMP JUMPDEST ADD SWAP1 PUSH1 0x20 CALLDATASIZE SWAP2 ADD CALLDATACOPY JUMP JUMPDEST DUP1 MLOAD DUP3 LT ISZERO PUSH2 0x1A36 JUMPI PUSH1 0x20 SWAP2 PUSH1 0x5 SHL ADD ADD SWAP1 JUMP INVALID LOG2 PUSH5 0x6970667358 0x22 SLT KECCAK256 PUSH14 0x3978F626BED10563A7D1A40CED1A PREVRANDAO 0xF6 SWAP10 DUP11 DUP4 PUSH30 0xE1462ED54DFC20D17A5A564736F6C634300081400330000000000000000 "},"gasEstimates":{"creation":{"codeDepositCost":"1657600","executionCost":"158620","totalCost":"1816220"},"external":{"COOLDOWN()":"743","MAX_DEPOSIT()":"985","MAX_RECOVERY_FEE()":"831","MAX_SHIELDS()":"391","MIN_DEPOSIT()":"1007","POOL_FEE_BPS()":"941","PRECISION_WINDOW()":"347","STREAK_THRESHOLD()":"325","acceptOwnership()":"50594","cUSD()":"168","claimReferralReward()":"infinite","claimReward()":"infinite","deposit(uint256,address)":"infinite","depositFor(address,uint256)":"infinite","depositors(uint256)":"7491","fundPool(uint256)":"infinite","getBadge(address)":"3371","getLeaderboard(uint256)":"infinite","getUser(address)":"7580","owner()":"2782","pause()":"26991","paused()":"2559","pendingOwner()":"3156","pendingReferralReward(address)":"2978","poolBalance()":"2783","poolFunds()":"3003","recoverStreak()":"infinite","referralRewardBps()":"2670","referrer(address)":"2459","rewardTier1()":"2472","rewardTier2()":"2387","rewardTier3()":"3201","rewardTier4()":"2563","savingsGoal(address)":"2889","setGoal(uint128)":"26499","setReferralRewardBps(uint256)":"25105","setRewardTiers(uint256,uint256,uint256,uint256)":"93730","setWithdrawalPenaltyBps(uint256)":"24670","totalDepositors()":"2409","totalRewardsClaimed(address)":"3374","transferOwnership(address)":"29054","unpause()":"26605","users(address)":"5409","withdraw()":"infinite","withdrawalPenaltyBps()":"2585"},"internal":{"_checkBadge(address,uint32)":"infinite","_getBadge(uint32)":"119","_processDeposit(address,uint256,uint40)":"infinite","_rewardAmount(uint32)":"2194"}},"methodIdentifiers":{"COOLDOWN()":"a2724a4d","MAX_DEPOSIT()":"dd5967c3","MAX_RECOVERY_FEE()":"aa0224fd","MAX_SHIELDS()":"546cea86","MIN_DEPOSIT()":"e1e158a5","POOL_FEE_BPS()":"cd6c7873","PRECISION_WINDOW()":"51bea8c3","STREAK_THRESHOLD()":"4c8530ce","acceptOwnership()":"79ba5097","cUSD()":"1fccf672","claimReferralReward()":"9b4b2c9c","claimReward()":"b88a802f","deposit(uint256,address)":"6e553f65","depositFor(address,uint256)":"2f4f21e2","depositors(uint256)":"e4b2fb79","fundPool(uint256)":"da3a5f72","getBadge(address)":"c254de88","getLeaderboard(uint256)":"a34b46fe","getUser(address)":"6f77926b","owner()":"8da5cb5b","pause()":"8456cb59","paused()":"5c975abb","pendingOwner()":"e30c3978","pendingReferralReward(address)":"9f147d00","poolBalance()":"96365d44","poolFunds()":"bc2104d2","recoverStreak()":"7289cca6","referralRewardBps()":"75f4c059","referrer(address)":"2cf003c2","rewardTier1()":"5264dab0","rewardTier2()":"3fbf422f","rewardTier3()":"f67ded4e","rewardTier4()":"60bd13d9","savingsGoal(address)":"82bbf60e","setGoal(uint128)":"a2c8b369","setReferralRewardBps(uint256)":"b09e603f","setRewardTiers(uint256,uint256,uint256,uint256)":"ff84a262","setWithdrawalPenaltyBps(uint256)":"54b1de8f","totalDepositors()":"418f3128","totalRewardsClaimed(address)":"f6ce9004","transferOwnership(address)":"f2fde38b","unpause()":"3f4ba83a","users(address)":"a87430ba","withdraw()":"3ccfd60b","withdrawalPenaltyBps()":"66fc0127"}},"storageLayout":{"storage":[{"astId":62,"contract":"contracts/Kibo.sol:Kibo","label":"rewardTier1","offset":0,"slot":"0","type":"t_uint256"},{"astId":65,"contract":"contracts/Kibo.sol:Kibo","label":"rewardTier2","offset":0,"slot":"1","type":"t_uint256"},{"astId":68,"contract":"contracts/Kibo.sol:Kibo","label":"rewardTier3","offset":0,"slot":"2","type":"t_uint256"},{"astId":71,"contract":"contracts/Kibo.sol:Kibo","label":"rewardTier4","offset":0,"slot":"3","type":"t_uint256"},{"astId":74,"contract":"contracts/Kibo.sol:Kibo","label":"referralRewardBps","offset":0,"slot":"4","type":"t_uint256"},{"astId":77,"contract":"contracts/Kibo.sol:Kibo","label":"withdrawalPenaltyBps","offset":0,"slot":"5","type":"t_uint256"},{"astId":79,"contract":"contracts/Kibo.sol:Kibo","label":"owner","offset":0,"slot":"6","type":"t_address"},{"astId":81,"contract":"contracts/Kibo.sol:Kibo","label":"pendingOwner","offset":0,"slot":"7","type":"t_address"},{"astId":83,"contract":"contracts/Kibo.sol:Kibo","label":"paused","offset":20,"slot":"7","type":"t_bool"},{"astId":85,"contract":"contracts/Kibo.sol:Kibo","label":"poolFunds","offset":0,"slot":"8","type":"t_uint256"},{"astId":141,"contract":"contracts/Kibo.sol:Kibo","label":"users","offset":0,"slot":"9","type":"t_mapping(t_address,t_struct(UserData)130_storage)"},{"astId":145,"contract":"contracts/Kibo.sol:Kibo","label":"referrer","offset":0,"slot":"10","type":"t_mapping(t_address,t_address)"},{"astId":149,"contract":"contracts/Kibo.sol:Kibo","label":"pendingReferralReward","offset":0,"slot":"11","type":"t_mapping(t_address,t_uint256)"},{"astId":153,"contract":"contracts/Kibo.sol:Kibo","label":"savingsGoal","offset":0,"slot":"12","type":"t_mapping(t_address,t_uint128)"},{"astId":157,"contract":"contracts/Kibo.sol:Kibo","label":"totalRewardsClaimed","offset":0,"slot":"13","type":"t_mapping(t_address,t_uint256)"},{"astId":160,"contract":"contracts/Kibo.sol:Kibo","label":"depositors","offset":0,"slot":"14","type":"t_array(t_address)dyn_storage"}],"types":{"t_address":{"encoding":"inplace","label":"address","numberOfBytes":"20"},"t_array(t_address)dyn_storage":{"base":"t_address","encoding":"dynamic_array","label":"address[]","numberOfBytes":"32"},"t_bool":{"encoding":"inplace","label":"bool","numberOfBytes":"1"},"t_mapping(t_address,t_address)":{"encoding":"mapping","key":"t_address","label":"mapping(address => address)","numberOfBytes":"32","value":"t_address"},"t_mapping(t_address,t_struct(UserData)130_storage)":{"encoding":"mapping","key":"t_address","label":"mapping(address => struct Kibo.UserData)","numberOfBytes":"32","value":"t_struct(UserData)130_storage"},"t_mapping(t_address,t_uint128)":{"encoding":"mapping","key":"t_address","label":"mapping(address => uint128)","numberOfBytes":"32","value":"t_uint128"},"t_mapping(t_address,t_uint256)":{"encoding":"mapping","key":"t_address","label":"mapping(address => uint256)","numberOfBytes":"32","value":"t_uint256"},"t_struct(UserData)130_storage":{"encoding":"inplace","label":"struct Kibo.UserData","members":[{"astId":115,"contract":"contracts/Kibo.sol:Kibo","label":"streak","offset":0,"slot":"0","type":"t_uint32"},{"astId":117,"contract":"contracts/Kibo.sol:Kibo","label":"longestStreak","offset":4,"slot":"0","type":"t_uint32"},{"astId":119,"contract":"contracts/Kibo.sol:Kibo","label":"lastClaimedStreak","offset":8,"slot":"0","type":"t_uint32"},{"astId":121,"contract":"contracts/Kibo.sol:Kibo","label":"brokenStreak","offset":12,"slot":"0","type":"t_uint32"},{"astId":123,"contract":"contracts/Kibo.sol:Kibo","label":"lastDeposit","offset":16,"slot":"0","type":"t_uint40"},{"astId":125,"contract":"contracts/Kibo.sol:Kibo","label":"isDepositor","offset":21,"slot":"0","type":"t_bool"},{"astId":127,"contract":"contracts/Kibo.sol:Kibo","label":"shields","offset":22,"slot":"0","type":"t_uint8"},{"astId":129,"contract":"contracts/Kibo.sol:Kibo","label":"totalDeposited","offset":0,"slot":"1","type":"t_uint128"}],"numberOfBytes":"64"},"t_uint128":{"encoding":"inplace","label":"uint128","numberOfBytes":"16"},"t_uint256":{"encoding":"inplace","label":"uint256","numberOfBytes":"32"},"t_uint32":{"encoding":"inplace","label":"uint32","numberOfBytes":"4"},"t_uint40":{"encoding":"inplace","label":"uint40","numberOfBytes":"5"},"t_uint8":{"encoding":"inplace","label":"uint8","numberOfBytes":"1"}}},"userdoc":{"kind":"user","methods":{},"version":1}}}}