{"contracts/Kibo.sol":{"Kibo":{"abi":[{"inputs":[],"stateMutability":"nonpayable","type":"constructor"},{"inputs":[],"name":"AlreadyClaimed","type":"error"},{"inputs":[],"name":"AmountOutOfRange","type":"error"},{"inputs":[],"name":"BpsOutOfRange","type":"error"},{"inputs":[],"name":"InvalidAddress","type":"error"},{"inputs":[],"name":"InvalidTiers","type":"error"},{"inputs":[],"name":"NeedMilestone","type":"error"},{"inputs":[],"name":"NoStreakToRecover","type":"error"},{"inputs":[],"name":"NothingToWithdraw","type":"error"},{"inputs":[],"name":"Paused","type":"error"},{"inputs":[],"name":"PoolEmpty","type":"error"},{"inputs":[],"name":"RecoveryPending","type":"error"},{"inputs":[],"name":"TooSoon","type":"error"},{"inputs":[],"name":"TransferFailed","type":"error"},{"inputs":[],"name":"Unauthorized","type":"error"},{"anonymous":false,"inputs":[{"indexed":true,"internalType":"address","name":"user","type":"address"},{"indexed":false,"internalType":"enum Kibo.Badge","name":"badge","type":"uint8"}],"name":"BadgeEarned","type":"event"},{"anonymous":false,"inputs":[{"indexed":true,"internalType":"address","name":"by","type":"address"}],"name":"ContractPaused","type":"event"},{"anonymous":false,"inputs":[{"indexed":true,"internalType":"address","name":"by","type":"address"}],"name":"ContractUnpaused","type":"event"},{"anonymous":false,"inputs":[{"indexed":true,"internalType":"address","name":"user","type":"address"},{"indexed":false,"internalType":"uint32","name":"streak","type":"uint32"},{"indexed":false,"internalType":"uint40","name":"timestamp","type":"uint40"}],"name":"Deposited","type":"event"},{"anonymous":false,"inputs":[{"indexed":true,"internalType":"address","name":"payer","type":"address"},{"indexed":true,"internalType":"address","name":"beneficiary","type":"address"},{"indexed":false,"internalType":"uint32","name":"streak","type":"uint32"},{"indexed":false,"internalType":"uint40","name":"timestamp","type":"uint40"}],"name":"DepositedFor","type":"event"},{"anonymous":false,"inputs":[{"indexed":true,"internalType":"address","name":"user","type":"address"}],"name":"GoalCancelled","type":"event"},{"anonymous":false,"inputs":[{"indexed":true,"internalType":"address","name":"user","type":"address"},{"indexed":false,"internalType":"uint128","name":"totalDeposited","type":"uint128"}],"name":"GoalReached","type":"event"},{"anonymous":false,"inputs":[{"indexed":true,"internalType":"address","name":"user","type":"address"},{"indexed":false,"internalType":"uint128","name":"target","type":"uint128"}],"name":"GoalSet","type":"event"},{"anonymous":false,"inputs":[{"indexed":true,"internalType":"address","name":"previousOwner","type":"address"},{"indexed":true,"internalType":"address","name":"newOwner","type":"address"}],"name":"OwnershipTransferStarted","type":"event"},{"anonymous":false,"inputs":[{"indexed":true,"internalType":"address","name":"previousOwner","type":"address"},{"indexed":true,"internalType":"address","name":"newOwner","type":"address"}],"name":"OwnershipTransferred","type":"event"},{"anonymous":false,"inputs":[{"indexed":false,"internalType":"uint256","name":"oldBps","type":"uint256"},{"indexed":false,"internalType":"uint256","name":"newBps","type":"uint256"}],"name":"PoolFeeBpsUpdated","type":"event"},{"anonymous":false,"inputs":[{"indexed":true,"internalType":"address","name":"funder","type":"address"},{"indexed":false,"internalType":"uint256","name":"amount","type":"uint256"}],"name":"PoolFunded","type":"event"},{"anonymous":false,"inputs":[{"indexed":true,"internalType":"address","name":"user","type":"address"},{"indexed":false,"internalType":"uint8","name":"shields","type":"uint8"}],"name":"PrecisionShield","type":"event"},{"anonymous":false,"inputs":[{"indexed":true,"internalType":"address","name":"ref","type":"address"},{"indexed":true,"internalType":"address","name":"referee","type":"address"},{"indexed":false,"internalType":"uint256","name":"amount","type":"uint256"}],"name":"ReferralRewardAccrued","type":"event"},{"anonymous":false,"inputs":[{"indexed":false,"internalType":"uint256","name":"oldBps","type":"uint256"},{"indexed":false,"internalType":"uint256","name":"newBps","type":"uint256"}],"name":"ReferralRewardBpsUpdated","type":"event"},{"anonymous":false,"inputs":[{"indexed":true,"internalType":"address","name":"ref","type":"address"},{"indexed":false,"internalType":"uint256","name":"amount","type":"uint256"}],"name":"ReferralRewardClaimed","type":"event"},{"anonymous":false,"inputs":[{"indexed":true,"internalType":"address","name":"ref","type":"address"},{"indexed":true,"internalType":"address","name":"referee","type":"address"},{"indexed":false,"internalType":"uint256","name":"amount","type":"uint256"}],"name":"ReferralRewardSkipped","type":"event"},{"anonymous":false,"inputs":[{"indexed":true,"internalType":"address","name":"user","type":"address"},{"indexed":false,"internalType":"uint32","name":"streak","type":"uint32"},{"indexed":false,"internalType":"uint256","name":"reward","type":"uint256"}],"name":"RewardClaimed","type":"event"},{"anonymous":false,"inputs":[{"indexed":false,"internalType":"uint256","name":"t1","type":"uint256"},{"indexed":false,"internalType":"uint256","name":"t2","type":"uint256"},{"indexed":false,"internalType":"uint256","name":"t3","type":"uint256"},{"indexed":false,"internalType":"uint256","name":"t4","type":"uint256"}],"name":"RewardTiersUpdated","type":"event"},{"anonymous":false,"inputs":[{"indexed":true,"internalType":"address","name":"user","type":"address"},{"indexed":false,"internalType":"uint32","name":"streak","type":"uint32"},{"indexed":false,"internalType":"uint8","name":"shieldsLeft","type":"uint8"}],"name":"ShieldUsed","type":"event"},{"anonymous":false,"inputs":[{"indexed":true,"internalType":"address","name":"user","type":"address"},{"indexed":false,"internalType":"uint32","name":"oldStreak","type":"uint32"}],"name":"StreakBroken","type":"event"},{"anonymous":false,"inputs":[{"indexed":true,"internalType":"address","name":"user","type":"address"},{"indexed":false,"internalType":"uint32","name":"streak","type":"uint32"},{"indexed":false,"internalType":"uint256","name":"fee","type":"uint256"}],"name":"StreakRecovered","type":"event"},{"anonymous":false,"inputs":[{"indexed":true,"internalType":"address","name":"user","type":"address"},{"indexed":false,"internalType":"uint256","name":"payout","type":"uint256"},{"indexed":false,"internalType":"uint256","name":"penalty","type":"uint256"}],"name":"Withdrawn","type":"event"},{"inputs":[],"name":"COOLDOWN","outputs":[{"internalType":"uint256","name":"","type":"uint256"}],"stateMutability":"view","type":"function"},{"inputs":[],"name":"MAX_DEPOSIT","outputs":[{"internalType":"uint256","name":"","type":"uint256"}],"stateMutability":"view","type":"function"},{"inputs":[],"name":"MAX_POOL_FEE_BPS","outputs":[{"internalType":"uint256","name":"","type":"uint256"}],"stateMutability":"view","type":"function"},{"inputs":[],"name":"MAX_RECOVERY_FEE","outputs":[{"internalType":"uint256","name":"","type":"uint256"}],"stateMutability":"view","type":"function"},{"inputs":[],"name":"MAX_REWARD_TIER","outputs":[{"internalType":"uint256","name":"","type":"uint256"}],"stateMutability":"view","type":"function"},{"inputs":[],"name":"MAX_SHIELDS","outputs":[{"internalType":"uint8","name":"","type":"uint8"}],"stateMutability":"view","type":"function"},{"inputs":[],"name":"MIN_DEPOSIT","outputs":[{"internalType":"uint256","name":"","type":"uint256"}],"stateMutability":"view","type":"function"},{"inputs":[],"name":"PRECISION_WINDOW","outputs":[{"internalType":"uint256","name":"","type":"uint256"}],"stateMutability":"view","type":"function"},{"inputs":[],"name":"STREAK_THRESHOLD","outputs":[{"internalType":"uint256","name":"","type":"uint256"}],"stateMutability":"view","type":"function"},{"inputs":[],"name":"acceptOwnership","outputs":[],"stateMutability":"nonpayable","type":"function"},{"inputs":[],"name":"cUSD","outputs":[{"internalType":"contract IERC20","name":"","type":"address"}],"stateMutability":"view","type":"function"},{"inputs":[],"name":"cancelOwnershipTransfer","outputs":[],"stateMutability":"nonpayable","type":"function"},{"inputs":[],"name":"claimReferralReward","outputs":[],"stateMutability":"nonpayable","type":"function"},{"inputs":[],"name":"claimReward","outputs":[],"stateMutability":"nonpayable","type":"function"},{"inputs":[{"internalType":"uint256","name":"amount","type":"uint256"},{"internalType":"address","name":"ref","type":"address"}],"name":"deposit","outputs":[],"stateMutability":"nonpayable","type":"function"},{"inputs":[{"internalType":"address","name":"beneficiary","type":"address"},{"internalType":"uint256","name":"amount","type":"uint256"}],"name":"depositFor","outputs":[],"stateMutability":"nonpayable","type":"function"},{"inputs":[{"internalType":"uint256","name":"","type":"uint256"}],"name":"depositors","outputs":[{"internalType":"address","name":"","type":"address"}],"stateMutability":"view","type":"function"},{"inputs":[{"internalType":"uint256","name":"amount","type":"uint256"}],"name":"fundPool","outputs":[],"stateMutability":"nonpayable","type":"function"},{"inputs":[{"internalType":"address","name":"user","type":"address"}],"name":"getBadge","outputs":[{"internalType":"enum Kibo.Badge","name":"","type":"uint8"}],"stateMutability":"view","type":"function"},{"inputs":[{"internalType":"uint256","name":"limit","type":"uint256"}],"name":"getLeaderboard","outputs":[{"internalType":"address[]","name":"addrs","type":"address[]"},{"internalType":"uint256[]","name":"streaks","type":"uint256[]"},{"internalType":"uint256[]","name":"totals","type":"uint256[]"}],"stateMutability":"view","type":"function"},{"inputs":[{"internalType":"address","name":"user","type":"address"}],"name":"getUser","outputs":[{"internalType":"uint256","name":"streak","type":"uint256"},{"internalType":"uint256","name":"lastDeposit","type":"uint256"},{"internalType":"uint256","name":"totalDeposited","type":"uint256"},{"internalType":"uint256","name":"longestStreak","type":"uint256"},{"internalType":"bool","name":"canDeposit","type":"bool"},{"internalType":"uint256","name":"lastClaimedStreak","type":"uint256"},{"internalType":"uint8","name":"shields","type":"uint8"},{"internalType":"uint256","name":"brokenStreak","type":"uint256"},{"internalType":"enum Kibo.Badge","name":"badge","type":"uint8"},{"internalType":"uint256","name":"rewardsClaimed","type":"uint256"}],"stateMutability":"view","type":"function"},{"inputs":[],"name":"owner","outputs":[{"internalType":"address","name":"","type":"address"}],"stateMutability":"view","type":"function"},{"inputs":[],"name":"pause","outputs":[],"stateMutability":"nonpayable","type":"function"},{"inputs":[],"name":"paused","outputs":[{"internalType":"bool","name":"","type":"bool"}],"stateMutability":"view","type":"function"},{"inputs":[],"name":"pendingOwner","outputs":[{"internalType":"address","name":"","type":"address"}],"stateMutability":"view","type":"function"},{"inputs":[{"internalType":"address","name":"","type":"address"}],"name":"pendingReferralReward","outputs":[{"internalType":"uint256","name":"","type":"uint256"}],"stateMutability":"view","type":"function"},{"inputs":[],"name":"poolBalance","outputs":[{"internalType":"uint256","name":"","type":"uint256"}],"stateMutability":"view","type":"function"},{"inputs":[],"name":"poolFeeBps","outputs":[{"internalType":"uint256","name":"","type":"uint256"}],"stateMutability":"view","type":"function"},{"inputs":[],"name":"poolFunds","outputs":[{"internalType":"uint256","name":"","type":"uint256"}],"stateMutability":"view","type":"function"},{"inputs":[],"name":"recoverStreak","outputs":[],"stateMutability":"nonpayable","type":"function"},{"inputs":[],"name":"referralRewardBps","outputs":[{"internalType":"uint256","name":"","type":"uint256"}],"stateMutability":"view","type":"function"},{"inputs":[{"internalType":"address","name":"","type":"address"}],"name":"referrer","outputs":[{"internalType":"address","name":"","type":"address"}],"stateMutability":"view","type":"function"},{"inputs":[],"name":"rewardTier1","outputs":[{"internalType":"uint256","name":"","type":"uint256"}],"stateMutability":"view","type":"function"},{"inputs":[],"name":"rewardTier2","outputs":[{"internalType":"uint256","name":"","type":"uint256"}],"stateMutability":"view","type":"function"},{"inputs":[],"name":"rewardTier3","outputs":[{"internalType":"uint256","name":"","type":"uint256"}],"stateMutability":"view","type":"function"},{"inputs":[],"name":"rewardTier4","outputs":[{"internalType":"uint256","name":"","type":"uint256"}],"stateMutability":"view","type":"function"},{"inputs":[{"internalType":"address","name":"","type":"address"}],"name":"savingsGoal","outputs":[{"internalType":"uint128","name":"","type":"uint128"}],"stateMutability":"view","type":"function"},{"inputs":[{"internalType":"uint128","name":"target","type":"uint128"}],"name":"setGoal","outputs":[],"stateMutability":"nonpayable","type":"function"},{"inputs":[{"internalType":"uint256","name":"bps","type":"uint256"}],"name":"setPoolFeeBps","outputs":[],"stateMutability":"nonpayable","type":"function"},{"inputs":[{"internalType":"uint256","name":"bps","type":"uint256"}],"name":"setReferralRewardBps","outputs":[],"stateMutability":"nonpayable","type":"function"},{"inputs":[{"internalType":"uint256","name":"t1","type":"uint256"},{"internalType":"uint256","name":"t2","type":"uint256"},{"internalType":"uint256","name":"t3","type":"uint256"},{"internalType":"uint256","name":"t4","type":"uint256"}],"name":"setRewardTiers","outputs":[],"stateMutability":"nonpayable","type":"function"},{"inputs":[{"internalType":"uint256","name":"bps","type":"uint256"}],"name":"setWithdrawalPenaltyBps","outputs":[],"stateMutability":"nonpayable","type":"function"},{"inputs":[],"name":"totalDepositors","outputs":[{"internalType":"uint256","name":"","type":"uint256"}],"stateMutability":"view","type":"function"},{"inputs":[{"internalType":"address","name":"","type":"address"}],"name":"totalRewardsClaimed","outputs":[{"internalType":"uint256","name":"","type":"uint256"}],"stateMutability":"view","type":"function"},{"inputs":[{"internalType":"address","name":"newOwner","type":"address"}],"name":"transferOwnership","outputs":[],"stateMutability":"nonpayable","type":"function"},{"inputs":[],"name":"unpause","outputs":[],"stateMutability":"nonpayable","type":"function"},{"inputs":[{"internalType":"address","name":"","type":"address"}],"name":"users","outputs":[{"internalType":"uint32","name":"streak","type":"uint32"},{"internalType":"uint32","name":"longestStreak","type":"uint32"},{"internalType":"uint32","name":"lastClaimedStreak","type":"uint32"},{"internalType":"uint32","name":"brokenStreak","type":"uint32"},{"internalType":"uint40","name":"lastDeposit","type":"uint40"},{"internalType":"bool","name":"isDepositor","type":"bool"},{"internalType":"uint8","name":"shields","type":"uint8"},{"internalType":"uint128","name":"totalDeposited","type":"uint128"}],"stateMutability":"view","type":"function"},{"inputs":[],"name":"withdraw","outputs":[],"stateMutability":"nonpayable","type":"function"},{"inputs":[],"name":"withdrawalPenaltyBps","outputs":[{"internalType":"uint256","name":"","type":"uint256"}],"stateMutability":"view","type":"function"}],"devdoc":{"kind":"dev","methods":{},"version":1},"evm":{"bytecode":{"linkReferences":{},"object":"608080604052346100645760326000556611c37937e08000600155662aa1efb94e00006002556658d15e1762800060035566b1a2bc2ec500006004556101f46005819055600655600780546001600160a01b03191633179055612280908161006a8239f35b600080fdfe6080604081815260048036101561001557600080fd5b600092833560e01c9081631fccf67214611b495750806323452b9c14611b115780632cf003c214611ad65780632f4f21e2146118da57806337e1b65a146118bd5780633ccfd60b146117205780633f4ba83a146116c65780633fbf422f146116a7578063418f31281461168857806348903e01146116215780634c8530ce1461160557806351bea8c3146115e85780635264dab0146115c9578063546cea86146115ad57806354b1de8f146115675780635c975abb1461154057806360bd13d91461152357806366fc0127146115045780636e553f65146112085780636f77926b146111165780637289cca614610f6f57806375f4c05914610f5057806379ba509714610ee157806382bbf60e14610e9f5780638456cb5914610e335780638da5cb5b14610e0a57806396365d44146106025780639b4b2c9c14610d2b5780639f147d0014610cf3578063a2724a4d14610cd5578063a2c8b36914610c39578063a34b46fe14610943578063a87430ba146108a5578063aa0224fd14610882578063af10bbcd146104a7578063b09e603f146107fe578063b88a802f14610621578063bc2104d214610602578063c254de88146105b5578063c7a0ecac14610599578063da3a5f72146104ac578063dd5967c3146104a7578063e1e158a514610486578063e30c39781461045d578063e4b2fb791461041a578063f2fde38b14610389578063f67ded4e1461036a578063f6ce90041461032e5763ff84a2621461023e57600080fd5b3461032a57608036600319011261032a57600754813592606435926044359260243591906001600160a01b0316330361031d5785158015610313575b8015610309575b80156102ff575b80156102ee575b6102e0579185939185608096947f7ddff0131937dfb4362682c96132c768e4bce6a574b2c4ebd904636975d99f1598600155826002558460035555815194855260208501528301526060820152a180f35b825163036899eb60e31b8152fd5b50670de0b6b3a7640000851161028f565b5083851115610288565b5081841115610281565b508582111561027a565b82516282b42960e81b8152fd5b8280fd5b5050346103665760203660031901126103665760209181906001600160a01b03610356611b77565b168152600e845220549051908152f35b5080fd5b5050346103665781600319360112610366576020906003549051908152f35b503461032a57602036600319011261032a576103a3611b77565b6007546001600160a01b0390811692913384900361040b57169283156103fe575050600880546001600160a01b031916831790557f38d16b8cac22d99fc7c124b9cd0de2d3fa1faef420bfe791d8c362d765e227008380a380f35b5163e6c4247b60e01b8152fd5b84516282b42960e81b81528390fd5b503461032a57602036600319011261032a573591600f5483101561045a5750610444602092611c0c565b905491519160018060a01b039160031b1c168152f35b80fd5b50503461036657816003193601126103665760085490516001600160a01b039091168152602090f35b50503461036657816003193601126103665760209051655af3107a40008152f35b611be9565b50903461032a57602036600319011261032a5780516323b872dd60e01b815233818401908152306020828101919091528435604083018190529492918290819060600103818873765de816845861e75a25fca122bb6898b8b1282a5af190811561058f578591610561575b501561055357508160095401600955519081527f32173d8e51cec3a6fe484b7a1c3febe760cdf96e03d4cca36a43563a4333e83860203392a280f35b90516312171d8360e31b8152fd5b610582915060203d8111610588575b61057a8183611c59565b810190611c91565b38610517565b503d610570565b83513d87823e3d90fd5b5050346103665781600319360112610366576020905160c88152f35b505034610366576020366003190112610366576106006105f763ffffffff8360209560018060a01b036105e6611b77565b168152600a87522054851c166121a6565b91518092611b92565bf35b5050346103665781600319360112610366576020906009549051908152f35b503461032a578260031936011261032a5760ff60085460a01c166107f057338352600a6020528183209182549163ffffffff93848416946007861080156107e4575b6107d45784841c168511156107c55761067b8561216c565b9384600954106107b5576bffffffff000000000000000019811690841b6bffffffff0000000000000000161780825560b01c60ff169060038210610790575b505060098054849003905533808652600e6020908152838720805486019055835163a9059cbb60e01b8152838101928352828201869052918290819060400103818973765de816845861e75a25fca122bb6898b8b1282a5af1908115610786578691610768575b501561055357505163ffffffff9092168252602082015233907f0d26a00dfd91636328b46a49a079c1612a57c89258f2fea78c7469ec0b5f80479080604081015b0390a280f35b610780915060203d81116105885761057a8183611c59565b38610721565b83513d88823e3d90fd5b805460ff60b01b191660019290920160b01b60ff60b01b1691909117905538806106ba565b83516305ce024d60e51b81528390fd5b509051630c8d9eab60e31b8152fd5b8351632e6d9aff60e01b81528390fd5b50600786061515610663565b90516313d0ff5960e31b8152fd5b50903461032a57602036600319011261032a57600754823592906001600160a01b03163303610875576103e8831161086757507e6d2ab5e2e5f0fd1d9bf29d6f60ae957400958ebae002a5f2d361a417993cd4906005548151908152836020820152a160055580f35b905163063941ff60e31b8152fd5b90516282b42960e81b8152fd5b5050346103665781600319360112610366576020905167016345785d8a00008152f35b505034610366576020366003190112610366576101009181906001600160a01b036108ce611b77565b168152600a6020522060ff6001600160801b0360018354930154169183519363ffffffff908183168652818360201c1660208701528183821c16908601528160601c16606085015264ffffffffff8160801c166080850152818160a81c16151560a085015260b01c1660c083015260e0820152f35b509190346103665760208060031936011261032a57833593600f5460c88110600014610c3057945b80861015610c2b5750845b61097f86612204565b9061098987612204565b9661099381612204565b9386885b878a8c88878510610bb25750509250505050875b838110610ab15750508103610a2557509490915b8351946060860160608752875180915282608088019801915b818110610a0857878903848901528780610a0489896109f78e8b611bb5565b9184830390850152611bb5565b0390f35b82516001600160a01b0316895297830197918301916001016109d8565b610a3481979397949294612204565b96610a3e82612204565b93610a4883612204565b95885b848110610a5c5750505050506109bf565b6001908b610a7e826001600160a01b03610a768288612236565b511692612236565b52610a898185612236565b51610a94828a612236565b52610a9f8186612236565b51610aaa828b612236565b5201610a4b565b8060019182810192838211610b9f57835b868110610b73575050808203610ada575b50506109ab565b610b6b906001600160a01b0380610af1858b612236565b511690610afe838b612236565b5116610b0a858b612236565b52610b15828a612236565b528c610b4282610b258684612236565b5192610b318282612236565b51610b3c8883612236565b52612236565b52610b4d838a612236565b5192610b64610b5c838c612236565b51918b612236565b5288612236565b523880610ad3565b8d610b8985610b828484612236565b5192612236565b5110610b97575b8101610ac2565b925082610b90565b634e487b7160e01b8c526011855260248cfd5b8463ffffffff600197610bc483611c0c565b8a8060a01b0391549060031b1c1695868152600a8098522054169283610bf3575b505050505050018790610997565b84610b3c83610c0195612236565b528b5288526001600160801b03828a8c20015416610c1f8289612236565b5238808088848f610be5565b610976565b5060c89461096b565b503461032a57602036600319011261032a5735906001600160801b03821680920361032a57338352600d60205280832080546001600160801b0319168317905581610ca8575050337f8e7ceb5d4a16b827a2dbebf1f7dba029626039ce0855da597c692098a3e78c608280a280f35b519081527fd576bc64b95e6bbdb657e504fcdadeb74867d950336fd046addd6db94933ab0d60203392a280f35b50503461036657816003193601126103665760209051620119408152f35b5050346103665760203660031901126103665760209181906001600160a01b03610d1b611b77565b168152600c845220549051908152f35b50903461032a578260031936011261032a57338352602090600c825280842054928315610dfc5733808652600c8452828620869055825163a9059cbb60e01b8152828101918252602082018690529084908290819060400103818973765de816845861e75a25fca122bb6898b8b1282a5af1908115610786578691610ddf575b50156105535750907f5be4d22009fea85381595ed91090bc5c0bc92a93fe07ed7472c5888eb1993f8391519283523392a280f35b610df69150843d86116105885761057a8183611c59565b38610dab565b9051630686827b60e51b8152fd5b50503461036657816003193601126103665760075490516001600160a01b039091168152602090f35b50903461032a578260031936011261032a576007546001600160a01b03163303610e93576008805460ff60a01b1916600160a01b17905582337f81990fd9a5c552b8e3677917d8a03c07678f0d2cb68f88b634aca2022e9bd19f8280a280f35b516282b42960e81b8152fd5b505034610366576020366003190112610366576020916001600160801b039082906001600160a01b03610ed0611b77565b168152600d85522054169051908152f35b503461032a578260031936011261032a576008546001600160a01b03929091908383163303610e9357505060075491339083167f8be0079c531659141344cd1fd0a4f28419497f9722a3daafe3b4186f6b6457e08580a36001600160a01b031991821633176007551660085580f35b5050346103665781600319360112610366576020906005549051908152f35b50903461032a578260031936011261032a5760ff60085460a01c1661110957338352600a6020528083209081549163ffffffff93848460601c1694851590819582156110fd575b50506110ef57655af3107a400093848602948686041417156110dc5767016345785d8a00008085116110d4575b5082516323b872dd60e01b8152338282019081523060208281019190915260408201879052908290819060600103818a73765de816845861e75a25fca122bb6898b8b1282a5af19081156110ca5787916110ac575b501561109e575080546fffffffff0000000000000000ffffffff19168417905560098054830190555163ffffffff9092168252602082015233907fc428c32598bfe7863de948cb3b5ffb667a08521ac39c31a674722457e9800b6e908060408101610762565b82516312171d8360e31b8152fd5b6110c4915060203d81116105885761057a8183611c59565b38611038565b84513d89823e3d90fd5b935038610fe3565b634e487b7160e01b865260119052602485fd5b8251631f309d3760e21b8152fd5b16151590503880610fb6565b516313d0ff5960e31b8152fd5b50823461045a57602036600319011261045a576001600160a01b03611139611b77565b1691828252600a6020528382209384549164ffffffffff6001600160801b036001828660801c16980154169463ffffffff95868660201c1691620119408a0194858b116111f557509585610140999589958560209b956111ed9a8f9c61119f889a6121a6565b9b8152600e8f5220549b85519d8e89891681520152848d015260608c01524216101560808a01521c1660a087015260ff8160b01c1660c087015260601c1660e0850152610100840190611b92565b610120820152f35b634e487b7160e01b825260119052602490fd5b503461032a578160031936011261032a576024356001600160a01b03818116918335908390036115005760ff60085460a01c166114f057655af3107a4000811080156114df575b6114cf57338652602091600a83528587209364ffffffffff95864216968654908160801c166201194081018091116114bc5788106114ad5760a81c60ff16159182806114a4575b8061149a575b80611484575b611463575b5087516323b872dd60e01b8152338282019081523060208201526040810186905286908290819060600103818d73765de816845861e75a25fca122bb6898b8b1282a5af1908115611459578a9161143c575b501561142e575092826107629592879561133a7f1091413ac916d6d977ba19245be465e86c3dfd74cc7c9903af6856d3e3668e559963ffffffff9733611cdf565b61136b575b5050505416935191829133958390929164ffffffffff60209163ffffffff604085019616845216910152565b338a52600b8352888a205416906005549082151580611425575b611390575b5061133f565b6127109161139d91611ca9565b60095491900492838083106113f4577f9e2c5f94b327df7a7ea63d4c940cf9abf3d51452d7a5aca95b6140ce2c823ef29203600955828b52600c8152898b2084815401905589519384523393a35b3880808061138a565b507fdf599ad211fa168884e13fd826c0ffce9953e8779d95c69096d14abe8e041f6b915089519384523393a36113eb565b50811515611385565b87516312171d8360e31b8152fd5b6114539150863d88116105885761057a8183611c59565b386112f9565b89513d8c823e3d90fd5b338a52600b8652888a2080546001600160a01b0319169091179055386112a7565b50808a52600b865233848a8c20541614156112a2565b503381141561129c565b50801515611296565b508751636fed7d8560e01b8152fd5b634e487b7160e01b8b526011835260248bfd5b845163c64200e960e01b81528490fd5b50670de0b6b3a7640000811161124f565b84516313d0ff5960e31b81528490fd5b8580fd5b5050346103665781600319360112610366576020906006549051908152f35b503461032a578260031936011261032a5760209250549051908152f35b50503461036657816003193601126103665760209060ff60085460a01c1690519015158152f35b503461032a57602036600319011261032a57600754813592906001600160a01b03163303610e93576103e883116115a057505060065580f35b5163063941ff60e31b8152fd5b5050346103665781600319360112610366576020905160038152f35b5050346103665781600319360112610366576020906001549051908152f35b50503461036657816003193601126103665760209051611c208152f35b5050346103665781600319360112610366576020905160078152f35b50903461032a57602036600319011261032a57600754823592906001600160a01b031633036108755760c8831161086757507ff8f76aeed5add00fd43eed1a4a8d1d8f0ef674595076b8e424cf5b656d2fb8b59083548151908152836020820152a1815580f35b505034610366578160031936011261036657602090600f549051908152f35b5050346103665781600319360112610366576020906002549051908152f35b50903461032a578260031936011261032a576007546001600160a01b03163303610e93576008805460ff60a01b1916905582337f5b65b0c1363b3003db9bcc5e1fd8805a6d6bf5bf6dc9d3431ee4494cd7d117668280a280f35b50919034610366578160031936011261036657338252602090600a82528083209160018301908154936001600160801b0385169283156118ad57338752600e8352848720549082549163ffffffff83881c16151590816118a3575b50156118925761179f6127106117976005600654045b88611ca9565b048096611cd2565b6001600160801b031990971690556001600160b81b0319169055338552600e815282852085905581611885575b825163a9059cbb60e01b8152338782019081526020810186905282908290819060400103818973765de816845861e75a25fca122bb6898b8b1282a5af190811561187b57869161185e575b501561184e57825193845283015233917f92ccf450a286a957af52509bc1c9939d1a6a481783e142e41e2499f0bb66ebc69190a280f35b82516312171d8360e31b81528690fd5b6118759150823d84116105885761057a8183611c59565b38611817565b84513d88823e3d90fd5b81600954016009556117cc565b61179f612710611797600654611791565b905085113861177b565b8451630686827b60e51b81528890fd5b505034610366578160031936011261036657602091549051908152f35b50903461032a578060031936011261032a576118f4611b77565b6024359260ff60085460a01c16611ac8576001600160a01b038216938415611ab957655af3107a400081108015611aa8575b611a9957848652600a6020528386209081549363ffffffff93848660601c16151580611a8f575b611a815764ffffffffff8042169660801c16620119408101809111611a6e578610611a605786516323b872dd60e01b8152338282019081523060208281019190915260408201869052908290819060600103818d73765de816845861e75a25fca122bb6898b8b1282a5af1908115611a56578a91611a38575b5015611a2a5750916119ff85611a2495937f910fefe8cbd875c2cefeec15c9fce0f7bf2d542d5c42e57b8ed2395127e29b109795611cdf565b549451941663ffffffff16845264ffffffffff16602084015233929081906040820190565b0390a380f35b86516312171d8360e31b8152fd5b611a50915060203d81116105885761057a8183611c59565b386119c6565b88513d8c823e3d90fd5b8651636fed7d8560e01b8152fd5b634e487b7160e01b8a526011825260248afd5b8651630916c16b60e11b8152fd5b508486161561194d565b50825163c64200e960e01b8152fd5b50670de0b6b3a76400008111611926565b50825163e6c4247b60e01b8152fd5b82516313d0ff5960e31b8152fd5b505034610366576020366003190112610366576020916001600160a01b0390829082611b00611b77565b168152600b85522054169051908152f35b50903461032a578260031936011261032a576007546001600160a01b03163303610e9357600880546001600160a01b03191690558280f35b8490346103665781600319360112610366578073765de816845861e75a25fca122bb6898b8b1282a60209252f35b600435906001600160a01b0382168203611b8d57565b600080fd5b906005821015611b9f5752565b634e487b7160e01b600052602160045260246000fd5b90815180825260208080930193019160005b828110611bd5575050505090565b835185529381019392810192600101611bc7565b34611b8d576000366003190112611b8d576020604051670de0b6b3a76400008152f35b600f54811015611c4357600f6000527f8d1108e10bcb7c27dddfc02ed9d693a074039d026cf4ea4240b40f7d581ac8020190600090565b634e487b7160e01b600052603260045260246000fd5b90601f8019910116810190811067ffffffffffffffff821117611c7b57604052565b634e487b7160e01b600052604160045260246000fd5b90816020910312611b8d57518015158103611b8d5790565b81810292918115918404141715611cbc57565b634e487b7160e01b600052601160045260246000fd5b91908203918211611cbc57565b9160018060a01b0380931692600091848352602092600a8452604092611d1f84832096612710611d10855483611ca9565b04908160095401600955611cd2565b9582815464ffffffffff90818160801c168015159081612152575b50612072575b50825490808260801c168015159182612037575b5050611fd6575b5015611f8b575b80549364ffffffffff60801b9060801b16938464ffffffffff60801b1982161790818355600183019586546001600160801b03809b168b8216018b8111611f77578b166001600160801b031991821617885599969588959094909390928c9263ffffffff92808d1c841684841611611ec5575b5050505050805460ff8160a81c1615611e5c575b505050878152600d8652208054958387168015159081611e4e575b50611e14575b5050505050505050565b7f35003c2a88a451cd165f157aa0f4efaa1c78331d1bda2c6bbf1a32e40a07d3989616905554169051908152a23880808080808080611e0a565b905084845416101538611e04565b60ff60a81b1916600160a81b179055600f549192509068010000000000000000811015611eb15790611e9682600188959401600f55611c0c565b819291549060031b918b831b921b1916179055388080611de9565b634e487b7160e01b83526041600452602483fd5b67ffffffff00000000908d1b169174ffffffffff0000000000000000ffffffff00000000191617178084558a1c1689601e82148015611f6d575b8015611f63575b8015611f58575b611f19575b8180611dd5565b611f437fe77c5a722d2d46cdd1852f1811f567c19dadc53da7fc1e0ee6fc979d0335dbac926121a6565b611f4f88518092611b92565ba2893889611f12565b5061016d8214611f0d565b5060b48214611f06565b50605a8214611eff565b634e487b7160e01b88526011600452602488fd5b805463ffffffff908160018183160116918263ffffffff1983161780855560601c16611fb9575b5050611d62565b6fffffffff0000000000000000ffffffff19161781553880611fb2565b60b01c60ff166003811015611d5b57825460ff60b01b191660019190910160b01b60ff60b01b16178255887ff31aa52e228bac5c0fd9b53de3947b96a6b562a29503dea0c7a2784cdc2280448860ff855460b01c168951908152a238611d5b565b620119408201925090828111611f7757620135600180921161205e57871611153880611d54565b634e487b7160e01b87526011600452602487fd5b60b081901c60ff16156120f25750825460ff60b01b19811660b091821c60ff166000190190911b60ff60b01b16178355897fa3cd923e771784f8ab03c4bc813511f007df871c8652c02cd19cc966132b196488855463ffffffff60601b198116875560ff82519163ffffffff8116835260b01c168c820152a25b38611d40565b909150897fc0539bb1c6561e4f713a8725d44795917796a9717ae897fbc6707ef291fac9b089895163ffffffff85168152a26fffffffff0000000000000000ffffffff19811660609190911b63ffffffff60601b161782556001906120ec565b6202a30091500182811161205e5782168288161138611d3a565b63ffffffff16603181101561219f57602381101561219857600e11156121925760015490565b60025490565b5060035490565b5060045490565b63ffffffff1661016d8110156121e65760b48110156121e057605a8110156121da57601e11156121d557600090565b600190565b50600290565b50600390565b50600490565b67ffffffffffffffff8111611c7b5760051b60200190565b9061220e826121ec565b61221b6040519182611c59565b828152809261222c601f19916121ec565b0190602036910137565b8051821015611c435760209160051b01019056fea2646970667358221220302e196bf86856c390f35459118619d3f390b8047749785f75db8a0919d7213464736f6c63430008140033","opcodes":"PUSH1 0x80 DUP1 PUSH1 0x40 MSTORE CALLVALUE PUSH2 0x64 JUMPI PUSH1 0x32 PUSH1 0x0 SSTORE PUSH7 0x11C37937E08000 PUSH1 0x1 SSTORE PUSH7 0x2AA1EFB94E0000 PUSH1 0x2 SSTORE PUSH7 0x58D15E17628000 PUSH1 0x3 SSTORE PUSH7 0xB1A2BC2EC50000 PUSH1 0x4 SSTORE PUSH2 0x1F4 PUSH1 0x5 DUP2 SWAP1 SSTORE PUSH1 0x6 SSTORE PUSH1 0x7 DUP1 SLOAD PUSH1 0x1 PUSH1 0x1 PUSH1 0xA0 SHL SUB NOT AND CALLER OR SWAP1 SSTORE PUSH2 0x2280 SWAP1 DUP2 PUSH2 0x6A DUP3 CODECOPY RETURN JUMPDEST PUSH1 0x0 DUP1 REVERT INVALID PUSH1 0x80 PUSH1 0x40 DUP2 DUP2 MSTORE PUSH1 0x4 DUP1 CALLDATASIZE LT ISZERO PUSH2 0x15 JUMPI PUSH1 0x0 DUP1 REVERT JUMPDEST PUSH1 0x0 SWAP3 DUP4 CALLDATALOAD PUSH1 0xE0 SHR SWAP1 DUP2 PUSH4 0x1FCCF672 EQ PUSH2 0x1B49 JUMPI POP DUP1 PUSH4 0x23452B9C EQ PUSH2 0x1B11 JUMPI DUP1 PUSH4 0x2CF003C2 EQ PUSH2 0x1AD6 JUMPI DUP1 PUSH4 0x2F4F21E2 EQ PUSH2 0x18DA JUMPI DUP1 PUSH4 0x37E1B65A EQ PUSH2 0x18BD JUMPI DUP1 PUSH4 0x3CCFD60B EQ PUSH2 0x1720 JUMPI DUP1 PUSH4 0x3F4BA83A EQ PUSH2 0x16C6 JUMPI DUP1 PUSH4 0x3FBF422F EQ PUSH2 0x16A7 JUMPI DUP1 PUSH4 0x418F3128 EQ PUSH2 0x1688 JUMPI DUP1 PUSH4 0x48903E01 EQ PUSH2 0x1621 JUMPI DUP1 PUSH4 0x4C8530CE EQ PUSH2 0x1605 JUMPI DUP1 PUSH4 0x51BEA8C3 EQ PUSH2 0x15E8 JUMPI DUP1 PUSH4 0x5264DAB0 EQ PUSH2 0x15C9 JUMPI DUP1 PUSH4 0x546CEA86 EQ PUSH2 0x15AD JUMPI DUP1 PUSH4 0x54B1DE8F EQ PUSH2 0x1567 JUMPI DUP1 PUSH4 0x5C975ABB EQ PUSH2 0x1540 JUMPI DUP1 PUSH4 0x60BD13D9 EQ PUSH2 0x1523 JUMPI DUP1 PUSH4 0x66FC0127 EQ PUSH2 0x1504 JUMPI DUP1 PUSH4 0x6E553F65 EQ PUSH2 0x1208 JUMPI DUP1 PUSH4 0x6F77926B EQ PUSH2 0x1116 JUMPI DUP1 PUSH4 0x7289CCA6 EQ PUSH2 0xF6F JUMPI DUP1 PUSH4 0x75F4C059 EQ PUSH2 0xF50 JUMPI DUP1 PUSH4 0x79BA5097 EQ PUSH2 0xEE1 JUMPI DUP1 PUSH4 0x82BBF60E EQ PUSH2 0xE9F JUMPI DUP1 PUSH4 0x8456CB59 EQ PUSH2 0xE33 JUMPI DUP1 PUSH4 0x8DA5CB5B EQ PUSH2 0xE0A JUMPI DUP1 PUSH4 0x96365D44 EQ PUSH2 0x602 JUMPI DUP1 PUSH4 0x9B4B2C9C EQ PUSH2 0xD2B JUMPI DUP1 PUSH4 0x9F147D00 EQ PUSH2 0xCF3 JUMPI DUP1 PUSH4 0xA2724A4D EQ PUSH2 0xCD5 JUMPI DUP1 PUSH4 0xA2C8B369 EQ PUSH2 0xC39 JUMPI DUP1 PUSH4 0xA34B46FE EQ PUSH2 0x943 JUMPI DUP1 PUSH4 0xA87430BA EQ PUSH2 0x8A5 JUMPI DUP1 PUSH4 0xAA0224FD EQ PUSH2 0x882 JUMPI DUP1 PUSH4 0xAF10BBCD EQ PUSH2 0x4A7 JUMPI DUP1 PUSH4 0xB09E603F EQ PUSH2 0x7FE JUMPI DUP1 PUSH4 0xB88A802F EQ PUSH2 0x621 JUMPI DUP1 PUSH4 0xBC2104D2 EQ PUSH2 0x602 JUMPI DUP1 PUSH4 0xC254DE88 EQ PUSH2 0x5B5 JUMPI DUP1 PUSH4 0xC7A0ECAC EQ PUSH2 0x599 JUMPI DUP1 PUSH4 0xDA3A5F72 EQ PUSH2 0x4AC JUMPI DUP1 PUSH4 0xDD5967C3 EQ PUSH2 0x4A7 JUMPI DUP1 PUSH4 0xE1E158A5 EQ PUSH2 0x486 JUMPI DUP1 PUSH4 0xE30C3978 EQ PUSH2 0x45D JUMPI DUP1 PUSH4 0xE4B2FB79 EQ PUSH2 0x41A JUMPI DUP1 PUSH4 0xF2FDE38B EQ PUSH2 0x389 JUMPI DUP1 PUSH4 0xF67DED4E EQ PUSH2 0x36A JUMPI DUP1 PUSH4 0xF6CE9004 EQ PUSH2 0x32E JUMPI PUSH4 0xFF84A262 EQ PUSH2 0x23E JUMPI PUSH1 0x0 DUP1 REVERT JUMPDEST CALLVALUE PUSH2 0x32A JUMPI PUSH1 0x80 CALLDATASIZE PUSH1 0x3 NOT ADD SLT PUSH2 0x32A JUMPI PUSH1 0x7 SLOAD DUP2 CALLDATALOAD SWAP3 PUSH1 0x64 CALLDATALOAD SWAP3 PUSH1 0x44 CALLDATALOAD SWAP3 PUSH1 0x24 CALLDATALOAD SWAP2 SWAP1 PUSH1 0x1 PUSH1 0x1 PUSH1 0xA0 SHL SUB AND CALLER SUB PUSH2 0x31D JUMPI DUP6 ISZERO DUP1 ISZERO PUSH2 0x313 JUMPI JUMPDEST DUP1 ISZERO PUSH2 0x309 JUMPI JUMPDEST DUP1 ISZERO PUSH2 0x2FF JUMPI JUMPDEST DUP1 ISZERO PUSH2 0x2EE JUMPI JUMPDEST PUSH2 0x2E0 JUMPI SWAP2 DUP6 SWAP4 SWAP2 DUP6 PUSH1 0x80 SWAP7 SWAP5 PUSH32 0x7DDFF0131937DFB4362682C96132C768E4BCE6A574B2C4EBD904636975D99F15 SWAP9 PUSH1 0x1 SSTORE DUP3 PUSH1 0x2 SSTORE DUP5 PUSH1 0x3 SSTORE SSTORE DUP2 MLOAD SWAP5 DUP6 MSTORE PUSH1 0x20 DUP6 ADD MSTORE DUP4 ADD MSTORE PUSH1 0x60 DUP3 ADD MSTORE LOG1 DUP1 RETURN JUMPDEST DUP3 MLOAD PUSH4 0x36899EB PUSH1 0xE3 SHL DUP2 MSTORE REVERT JUMPDEST POP PUSH8 0xDE0B6B3A7640000 DUP6 GT PUSH2 0x28F JUMP JUMPDEST POP DUP4 DUP6 GT ISZERO PUSH2 0x288 JUMP JUMPDEST POP DUP2 DUP5 GT ISZERO PUSH2 0x281 JUMP JUMPDEST POP DUP6 DUP3 GT ISZERO PUSH2 0x27A JUMP JUMPDEST DUP3 MLOAD PUSH3 0x82B429 PUSH1 0xE8 SHL DUP2 MSTORE REVERT JUMPDEST DUP3 DUP1 REVERT JUMPDEST POP POP CALLVALUE PUSH2 0x366 JUMPI PUSH1 0x20 CALLDATASIZE PUSH1 0x3 NOT ADD SLT PUSH2 0x366 JUMPI PUSH1 0x20 SWAP2 DUP2 SWAP1 PUSH1 0x1 PUSH1 0x1 PUSH1 0xA0 SHL SUB PUSH2 0x356 PUSH2 0x1B77 JUMP JUMPDEST AND DUP2 MSTORE PUSH1 0xE DUP5 MSTORE KECCAK256 SLOAD SWAP1 MLOAD SWAP1 DUP2 MSTORE RETURN JUMPDEST POP DUP1 REVERT JUMPDEST POP POP CALLVALUE PUSH2 0x366 JUMPI DUP2 PUSH1 0x3 NOT CALLDATASIZE ADD SLT PUSH2 0x366 JUMPI PUSH1 0x20 SWAP1 PUSH1 0x3 SLOAD SWAP1 MLOAD SWAP1 DUP2 MSTORE RETURN JUMPDEST POP CALLVALUE PUSH2 0x32A JUMPI PUSH1 0x20 CALLDATASIZE PUSH1 0x3 NOT ADD SLT PUSH2 0x32A JUMPI PUSH2 0x3A3 PUSH2 0x1B77 JUMP JUMPDEST PUSH1 0x7 SLOAD PUSH1 0x1 PUSH1 0x1 PUSH1 0xA0 SHL SUB SWAP1 DUP2 AND SWAP3 SWAP2 CALLER DUP5 SWAP1 SUB PUSH2 0x40B JUMPI AND SWAP3 DUP4 ISZERO PUSH2 0x3FE JUMPI POP POP PUSH1 0x8 DUP1 SLOAD PUSH1 0x1 PUSH1 0x1 PUSH1 0xA0 SHL SUB NOT AND DUP4 OR SWAP1 SSTORE PUSH32 0x38D16B8CAC22D99FC7C124B9CD0DE2D3FA1FAEF420BFE791D8C362D765E22700 DUP4 DUP1 LOG3 DUP1 RETURN JUMPDEST MLOAD PUSH4 0xE6C4247B PUSH1 0xE0 SHL DUP2 MSTORE REVERT JUMPDEST DUP5 MLOAD PUSH3 0x82B429 PUSH1 0xE8 SHL DUP2 MSTORE DUP4 SWAP1 REVERT JUMPDEST POP CALLVALUE PUSH2 0x32A JUMPI PUSH1 0x20 CALLDATASIZE PUSH1 0x3 NOT ADD SLT PUSH2 0x32A JUMPI CALLDATALOAD SWAP2 PUSH1 0xF SLOAD DUP4 LT ISZERO PUSH2 0x45A JUMPI POP PUSH2 0x444 PUSH1 0x20 SWAP3 PUSH2 0x1C0C JUMP JUMPDEST SWAP1 SLOAD SWAP2 MLOAD SWAP2 PUSH1 0x1 DUP1 PUSH1 0xA0 SHL SUB SWAP2 PUSH1 0x3 SHL SHR AND DUP2 MSTORE RETURN JUMPDEST DUP1 REVERT JUMPDEST POP POP CALLVALUE PUSH2 0x366 JUMPI DUP2 PUSH1 0x3 NOT CALLDATASIZE ADD SLT PUSH2 0x366 JUMPI PUSH1 0x8 SLOAD SWAP1 MLOAD PUSH1 0x1 PUSH1 0x1 PUSH1 0xA0 SHL SUB SWAP1 SWAP2 AND DUP2 MSTORE PUSH1 0x20 SWAP1 RETURN JUMPDEST POP POP CALLVALUE PUSH2 0x366 JUMPI DUP2 PUSH1 0x3 NOT CALLDATASIZE ADD SLT PUSH2 0x366 JUMPI PUSH1 0x20 SWAP1 MLOAD PUSH6 0x5AF3107A4000 DUP2 MSTORE RETURN JUMPDEST PUSH2 0x1BE9 JUMP JUMPDEST POP SWAP1 CALLVALUE PUSH2 0x32A JUMPI PUSH1 0x20 CALLDATASIZE PUSH1 0x3 NOT ADD SLT PUSH2 0x32A JUMPI DUP1 MLOAD PUSH4 0x23B872DD PUSH1 0xE0 SHL DUP2 MSTORE CALLER DUP2 DUP5 ADD SWAP1 DUP2 MSTORE ADDRESS PUSH1 0x20 DUP3 DUP2 ADD SWAP2 SWAP1 SWAP2 MSTORE DUP5 CALLDATALOAD PUSH1 0x40 DUP4 ADD DUP2 SWAP1 MSTORE SWAP5 SWAP3 SWAP2 DUP3 SWAP1 DUP2 SWAP1 PUSH1 0x60 ADD SUB DUP2 DUP9 PUSH20 0x765DE816845861E75A25FCA122BB6898B8B1282A GAS CALL SWAP1 DUP2 ISZERO PUSH2 0x58F JUMPI DUP6 SWAP2 PUSH2 0x561 JUMPI JUMPDEST POP ISZERO PUSH2 0x553 JUMPI POP DUP2 PUSH1 0x9 SLOAD ADD PUSH1 0x9 SSTORE MLOAD SWAP1 DUP2 MSTORE PUSH32 0x32173D8E51CEC3A6FE484B7A1C3FEBE760CDF96E03D4CCA36A43563A4333E838 PUSH1 0x20 CALLER SWAP3 LOG2 DUP1 RETURN JUMPDEST SWAP1 MLOAD PUSH4 0x12171D83 PUSH1 0xE3 SHL DUP2 MSTORE REVERT JUMPDEST PUSH2 0x582 SWAP2 POP PUSH1 0x20 RETURNDATASIZE DUP2 GT PUSH2 0x588 JUMPI JUMPDEST PUSH2 0x57A DUP2 DUP4 PUSH2 0x1C59 JUMP JUMPDEST DUP2 ADD SWAP1 PUSH2 0x1C91 JUMP JUMPDEST CODESIZE PUSH2 0x517 JUMP JUMPDEST POP RETURNDATASIZE PUSH2 0x570 JUMP JUMPDEST DUP4 MLOAD RETURNDATASIZE DUP8 DUP3 RETURNDATACOPY RETURNDATASIZE SWAP1 REVERT JUMPDEST POP POP CALLVALUE PUSH2 0x366 JUMPI DUP2 PUSH1 0x3 NOT CALLDATASIZE ADD SLT PUSH2 0x366 JUMPI PUSH1 0x20 SWAP1 MLOAD PUSH1 0xC8 DUP2 MSTORE RETURN JUMPDEST POP POP CALLVALUE PUSH2 0x366 JUMPI PUSH1 0x20 CALLDATASIZE PUSH1 0x3 NOT ADD SLT PUSH2 0x366 JUMPI PUSH2 0x600 PUSH2 0x5F7 PUSH4 0xFFFFFFFF DUP4 PUSH1 0x20 SWAP6 PUSH1 0x1 DUP1 PUSH1 0xA0 SHL SUB PUSH2 0x5E6 PUSH2 0x1B77 JUMP JUMPDEST AND DUP2 MSTORE PUSH1 0xA DUP8 MSTORE KECCAK256 SLOAD DUP6 SHR AND PUSH2 0x21A6 JUMP JUMPDEST SWAP2 MLOAD DUP1 SWAP3 PUSH2 0x1B92 JUMP JUMPDEST RETURN JUMPDEST POP POP CALLVALUE PUSH2 0x366 JUMPI DUP2 PUSH1 0x3 NOT CALLDATASIZE ADD SLT PUSH2 0x366 JUMPI PUSH1 0x20 SWAP1 PUSH1 0x9 SLOAD SWAP1 MLOAD SWAP1 DUP2 MSTORE RETURN JUMPDEST POP CALLVALUE PUSH2 0x32A JUMPI DUP3 PUSH1 0x3 NOT CALLDATASIZE ADD SLT PUSH2 0x32A JUMPI PUSH1 0xFF PUSH1 0x8 SLOAD PUSH1 0xA0 SHR AND PUSH2 0x7F0 JUMPI CALLER DUP4 MSTORE PUSH1 0xA PUSH1 0x20 MSTORE DUP2 DUP4 KECCAK256 SWAP2 DUP3 SLOAD SWAP2 PUSH4 0xFFFFFFFF SWAP4 DUP5 DUP5 AND SWAP5 PUSH1 0x7 DUP7 LT DUP1 ISZERO PUSH2 0x7E4 JUMPI JUMPDEST PUSH2 0x7D4 JUMPI DUP5 DUP5 SHR AND DUP6 GT ISZERO PUSH2 0x7C5 JUMPI PUSH2 0x67B DUP6 PUSH2 0x216C JUMP JUMPDEST SWAP4 DUP5 PUSH1 0x9 SLOAD LT PUSH2 0x7B5 JUMPI PUSH12 0xFFFFFFFF0000000000000000 NOT DUP2 AND SWAP1 DUP5 SHL PUSH12 0xFFFFFFFF0000000000000000 AND OR DUP1 DUP3 SSTORE PUSH1 0xB0 SHR PUSH1 0xFF AND SWAP1 PUSH1 0x3 DUP3 LT PUSH2 0x790 JUMPI JUMPDEST POP POP PUSH1 0x9 DUP1 SLOAD DUP5 SWAP1 SUB SWAP1 SSTORE CALLER DUP1 DUP7 MSTORE PUSH1 0xE PUSH1 0x20 SWAP1 DUP2 MSTORE DUP4 DUP8 KECCAK256 DUP1 SLOAD DUP7 ADD SWAP1 SSTORE DUP4 MLOAD PUSH4 0xA9059CBB PUSH1 0xE0 SHL DUP2 MSTORE DUP4 DUP2 ADD SWAP3 DUP4 MSTORE DUP3 DUP3 ADD DUP7 SWAP1 MSTORE SWAP2 DUP3 SWAP1 DUP2 SWAP1 PUSH1 0x40 ADD SUB DUP2 DUP10 PUSH20 0x765DE816845861E75A25FCA122BB6898B8B1282A GAS CALL SWAP1 DUP2 ISZERO PUSH2 0x786 JUMPI DUP7 SWAP2 PUSH2 0x768 JUMPI JUMPDEST POP ISZERO PUSH2 0x553 JUMPI POP MLOAD PUSH4 0xFFFFFFFF SWAP1 SWAP3 AND DUP3 MSTORE PUSH1 0x20 DUP3 ADD MSTORE CALLER SWAP1 PUSH32 0xD26A00DFD91636328B46A49A079C1612A57C89258F2FEA78C7469EC0B5F8047 SWAP1 DUP1 PUSH1 0x40 DUP2 ADD JUMPDEST SUB SWAP1 LOG2 DUP1 RETURN JUMPDEST PUSH2 0x780 SWAP2 POP PUSH1 0x20 RETURNDATASIZE DUP2 GT PUSH2 0x588 JUMPI PUSH2 0x57A DUP2 DUP4 PUSH2 0x1C59 JUMP JUMPDEST CODESIZE PUSH2 0x721 JUMP JUMPDEST DUP4 MLOAD RETURNDATASIZE DUP9 DUP3 RETURNDATACOPY RETURNDATASIZE SWAP1 REVERT JUMPDEST DUP1 SLOAD PUSH1 0xFF PUSH1 0xB0 SHL NOT AND PUSH1 0x1 SWAP3 SWAP1 SWAP3 ADD PUSH1 0xB0 SHL PUSH1 0xFF PUSH1 0xB0 SHL AND SWAP2 SWAP1 SWAP2 OR SWAP1 SSTORE CODESIZE DUP1 PUSH2 0x6BA JUMP JUMPDEST DUP4 MLOAD PUSH4 0x5CE024D PUSH1 0xE5 SHL DUP2 MSTORE DUP4 SWAP1 REVERT JUMPDEST POP SWAP1 MLOAD PUSH4 0xC8D9EAB PUSH1 0xE3 SHL DUP2 MSTORE REVERT JUMPDEST DUP4 MLOAD PUSH4 0x2E6D9AFF PUSH1 0xE0 SHL DUP2 MSTORE DUP4 SWAP1 REVERT JUMPDEST POP PUSH1 0x7 DUP7 MOD ISZERO ISZERO PUSH2 0x663 JUMP JUMPDEST SWAP1 MLOAD PUSH4 0x13D0FF59 PUSH1 0xE3 SHL DUP2 MSTORE REVERT JUMPDEST POP SWAP1 CALLVALUE PUSH2 0x32A JUMPI PUSH1 0x20 CALLDATASIZE PUSH1 0x3 NOT ADD SLT PUSH2 0x32A JUMPI PUSH1 0x7 SLOAD DUP3 CALLDATALOAD SWAP3 SWAP1 PUSH1 0x1 PUSH1 0x1 PUSH1 0xA0 SHL SUB AND CALLER SUB PUSH2 0x875 JUMPI PUSH2 0x3E8 DUP4 GT PUSH2 0x867 JUMPI POP PUSH31 0x6D2AB5E2E5F0FD1D9BF29D6F60AE957400958EBAE002A5F2D361A417993CD4 SWAP1 PUSH1 0x5 SLOAD DUP2 MLOAD SWAP1 DUP2 MSTORE DUP4 PUSH1 0x20 DUP3 ADD MSTORE LOG1 PUSH1 0x5 SSTORE DUP1 RETURN JUMPDEST SWAP1 MLOAD PUSH4 0x63941FF PUSH1 0xE3 SHL DUP2 MSTORE REVERT JUMPDEST SWAP1 MLOAD PUSH3 0x82B429 PUSH1 0xE8 SHL DUP2 MSTORE REVERT JUMPDEST POP POP CALLVALUE PUSH2 0x366 JUMPI DUP2 PUSH1 0x3 NOT CALLDATASIZE ADD SLT PUSH2 0x366 JUMPI PUSH1 0x20 SWAP1 MLOAD PUSH8 0x16345785D8A0000 DUP2 MSTORE RETURN JUMPDEST POP POP CALLVALUE PUSH2 0x366 JUMPI PUSH1 0x20 CALLDATASIZE PUSH1 0x3 NOT ADD SLT PUSH2 0x366 JUMPI PUSH2 0x100 SWAP2 DUP2 SWAP1 PUSH1 0x1 PUSH1 0x1 PUSH1 0xA0 SHL SUB PUSH2 0x8CE PUSH2 0x1B77 JUMP JUMPDEST AND DUP2 MSTORE PUSH1 0xA PUSH1 0x20 MSTORE KECCAK256 PUSH1 0xFF PUSH1 0x1 PUSH1 0x1 PUSH1 0x80 SHL SUB PUSH1 0x1 DUP4 SLOAD SWAP4 ADD SLOAD AND SWAP2 DUP4 MLOAD SWAP4 PUSH4 0xFFFFFFFF SWAP1 DUP2 DUP4 AND DUP7 MSTORE DUP2 DUP4 PUSH1 0x20 SHR AND PUSH1 0x20 DUP8 ADD MSTORE DUP2 DUP4 DUP3 SHR AND SWAP1 DUP7 ADD MSTORE DUP2 PUSH1 0x60 SHR AND PUSH1 0x60 DUP6 ADD MSTORE PUSH5 0xFFFFFFFFFF DUP2 PUSH1 0x80 SHR AND PUSH1 0x80 DUP6 ADD MSTORE DUP2 DUP2 PUSH1 0xA8 SHR AND ISZERO ISZERO PUSH1 0xA0 DUP6 ADD MSTORE PUSH1 0xB0 SHR AND PUSH1 0xC0 DUP4 ADD MSTORE PUSH1 0xE0 DUP3 ADD MSTORE RETURN JUMPDEST POP SWAP2 SWAP1 CALLVALUE PUSH2 0x366 JUMPI PUSH1 0x20 DUP1 PUSH1 0x3 NOT CALLDATASIZE ADD SLT PUSH2 0x32A JUMPI DUP4 CALLDATALOAD SWAP4 PUSH1 0xF SLOAD PUSH1 0xC8 DUP2 LT PUSH1 0x0 EQ PUSH2 0xC30 JUMPI SWAP5 JUMPDEST DUP1 DUP7 LT ISZERO PUSH2 0xC2B JUMPI POP DUP5 JUMPDEST PUSH2 0x97F DUP7 PUSH2 0x2204 JUMP JUMPDEST SWAP1 PUSH2 0x989 DUP8 PUSH2 0x2204 JUMP JUMPDEST SWAP7 PUSH2 0x993 DUP2 PUSH2 0x2204 JUMP JUMPDEST SWAP4 DUP7 DUP9 JUMPDEST DUP8 DUP11 DUP13 DUP9 DUP8 DUP6 LT PUSH2 0xBB2 JUMPI POP POP SWAP3 POP POP POP POP DUP8 JUMPDEST DUP4 DUP2 LT PUSH2 0xAB1 JUMPI POP POP DUP2 SUB PUSH2 0xA25 JUMPI POP SWAP5 SWAP1 SWAP2 JUMPDEST DUP4 MLOAD SWAP5 PUSH1 0x60 DUP7 ADD PUSH1 0x60 DUP8 MSTORE DUP8 MLOAD DUP1 SWAP2 MSTORE DUP3 PUSH1 0x80 DUP9 ADD SWAP9 ADD SWAP2 JUMPDEST DUP2 DUP2 LT PUSH2 0xA08 JUMPI DUP8 DUP10 SUB DUP5 DUP10 ADD MSTORE DUP8 DUP1 PUSH2 0xA04 DUP10 DUP10 PUSH2 0x9F7 DUP15 DUP12 PUSH2 0x1BB5 JUMP JUMPDEST SWAP2 DUP5 DUP4 SUB SWAP1 DUP6 ADD MSTORE PUSH2 0x1BB5 JUMP JUMPDEST SUB SWAP1 RETURN JUMPDEST DUP3 MLOAD PUSH1 0x1 PUSH1 0x1 PUSH1 0xA0 SHL SUB AND DUP10 MSTORE SWAP8 DUP4 ADD SWAP8 SWAP2 DUP4 ADD SWAP2 PUSH1 0x1 ADD PUSH2 0x9D8 JUMP JUMPDEST PUSH2 0xA34 DUP2 SWAP8 SWAP4 SWAP8 SWAP5 SWAP3 SWAP5 PUSH2 0x2204 JUMP JUMPDEST SWAP7 PUSH2 0xA3E DUP3 PUSH2 0x2204 JUMP JUMPDEST SWAP4 PUSH2 0xA48 DUP4 PUSH2 0x2204 JUMP JUMPDEST SWAP6 DUP9 JUMPDEST DUP5 DUP2 LT PUSH2 0xA5C JUMPI POP POP POP POP POP PUSH2 0x9BF JUMP JUMPDEST PUSH1 0x1 SWAP1 DUP12 PUSH2 0xA7E DUP3 PUSH1 0x1 PUSH1 0x1 PUSH1 0xA0 SHL SUB PUSH2 0xA76 DUP3 DUP9 PUSH2 0x2236 JUMP JUMPDEST MLOAD AND SWAP3 PUSH2 0x2236 JUMP JUMPDEST MSTORE PUSH2 0xA89 DUP2 DUP6 PUSH2 0x2236 JUMP JUMPDEST MLOAD PUSH2 0xA94 DUP3 DUP11 PUSH2 0x2236 JUMP JUMPDEST MSTORE PUSH2 0xA9F DUP2 DUP7 PUSH2 0x2236 JUMP JUMPDEST MLOAD PUSH2 0xAAA DUP3 DUP12 PUSH2 0x2236 JUMP JUMPDEST MSTORE ADD PUSH2 0xA4B JUMP JUMPDEST DUP1 PUSH1 0x1 SWAP2 DUP3 DUP2 ADD SWAP3 DUP4 DUP3 GT PUSH2 0xB9F JUMPI DUP4 JUMPDEST DUP7 DUP2 LT PUSH2 0xB73 JUMPI POP POP DUP1 DUP3 SUB PUSH2 0xADA JUMPI JUMPDEST POP POP PUSH2 0x9AB JUMP JUMPDEST PUSH2 0xB6B SWAP1 PUSH1 0x1 PUSH1 0x1 PUSH1 0xA0 SHL SUB DUP1 PUSH2 0xAF1 DUP6 DUP12 PUSH2 0x2236 JUMP JUMPDEST MLOAD AND SWAP1 PUSH2 0xAFE DUP4 DUP12 PUSH2 0x2236 JUMP JUMPDEST MLOAD AND PUSH2 0xB0A DUP6 DUP12 PUSH2 0x2236 JUMP JUMPDEST MSTORE PUSH2 0xB15 DUP3 DUP11 PUSH2 0x2236 JUMP JUMPDEST MSTORE DUP13 PUSH2 0xB42 DUP3 PUSH2 0xB25 DUP7 DUP5 PUSH2 0x2236 JUMP JUMPDEST MLOAD SWAP3 PUSH2 0xB31 DUP3 DUP3 PUSH2 0x2236 JUMP JUMPDEST MLOAD PUSH2 0xB3C DUP9 DUP4 PUSH2 0x2236 JUMP JUMPDEST MSTORE PUSH2 0x2236 JUMP JUMPDEST MSTORE PUSH2 0xB4D DUP4 DUP11 PUSH2 0x2236 JUMP JUMPDEST MLOAD SWAP3 PUSH2 0xB64 PUSH2 0xB5C DUP4 DUP13 PUSH2 0x2236 JUMP JUMPDEST MLOAD SWAP2 DUP12 PUSH2 0x2236 JUMP JUMPDEST MSTORE DUP9 PUSH2 0x2236 JUMP JUMPDEST MSTORE CODESIZE DUP1 PUSH2 0xAD3 JUMP JUMPDEST DUP14 PUSH2 0xB89 DUP6 PUSH2 0xB82 DUP5 DUP5 PUSH2 0x2236 JUMP JUMPDEST MLOAD SWAP3 PUSH2 0x2236 JUMP JUMPDEST MLOAD LT PUSH2 0xB97 JUMPI JUMPDEST DUP2 ADD PUSH2 0xAC2 JUMP JUMPDEST SWAP3 POP DUP3 PUSH2 0xB90 JUMP JUMPDEST PUSH4 0x4E487B71 PUSH1 0xE0 SHL DUP13 MSTORE PUSH1 0x11 DUP6 MSTORE PUSH1 0x24 DUP13 REVERT JUMPDEST DUP5 PUSH4 0xFFFFFFFF PUSH1 0x1 SWAP8 PUSH2 0xBC4 DUP4 PUSH2 0x1C0C JUMP JUMPDEST DUP11 DUP1 PUSH1 0xA0 SHL SUB SWAP2 SLOAD SWAP1 PUSH1 0x3 SHL SHR AND SWAP6 DUP7 DUP2 MSTORE PUSH1 0xA DUP1 SWAP9 MSTORE KECCAK256 SLOAD AND SWAP3 DUP4 PUSH2 0xBF3 JUMPI JUMPDEST POP POP POP POP POP POP ADD DUP8 SWAP1 PUSH2 0x997 JUMP JUMPDEST DUP5 PUSH2 0xB3C DUP4 PUSH2 0xC01 SWAP6 PUSH2 0x2236 JUMP JUMPDEST MSTORE DUP12 MSTORE DUP9 MSTORE PUSH1 0x1 PUSH1 0x1 PUSH1 0x80 SHL SUB DUP3 DUP11 DUP13 KECCAK256 ADD SLOAD AND PUSH2 0xC1F DUP3 DUP10 PUSH2 0x2236 JUMP JUMPDEST MSTORE CODESIZE DUP1 DUP1 DUP9 DUP5 DUP16 PUSH2 0xBE5 JUMP JUMPDEST PUSH2 0x976 JUMP JUMPDEST POP PUSH1 0xC8 SWAP5 PUSH2 0x96B JUMP JUMPDEST POP CALLVALUE PUSH2 0x32A JUMPI PUSH1 0x20 CALLDATASIZE PUSH1 0x3 NOT ADD SLT PUSH2 0x32A JUMPI CALLDATALOAD SWAP1 PUSH1 0x1 PUSH1 0x1 PUSH1 0x80 SHL SUB DUP3 AND DUP1 SWAP3 SUB PUSH2 0x32A JUMPI CALLER DUP4 MSTORE PUSH1 0xD PUSH1 0x20 MSTORE DUP1 DUP4 KECCAK256 DUP1 SLOAD PUSH1 0x1 PUSH1 0x1 PUSH1 0x80 SHL SUB NOT AND DUP4 OR SWAP1 SSTORE DUP2 PUSH2 0xCA8 JUMPI POP POP CALLER PUSH32 0x8E7CEB5D4A16B827A2DBEBF1F7DBA029626039CE0855DA597C692098A3E78C60 DUP3 DUP1 LOG2 DUP1 RETURN JUMPDEST MLOAD SWAP1 DUP2 MSTORE PUSH32 0xD576BC64B95E6BBDB657E504FCDADEB74867D950336FD046ADDD6DB94933AB0D PUSH1 0x20 CALLER SWAP3 LOG2 DUP1 RETURN JUMPDEST POP POP CALLVALUE PUSH2 0x366 JUMPI DUP2 PUSH1 0x3 NOT CALLDATASIZE ADD SLT PUSH2 0x366 JUMPI PUSH1 0x20 SWAP1 MLOAD PUSH3 0x11940 DUP2 MSTORE RETURN JUMPDEST POP POP CALLVALUE PUSH2 0x366 JUMPI PUSH1 0x20 CALLDATASIZE PUSH1 0x3 NOT ADD SLT PUSH2 0x366 JUMPI PUSH1 0x20 SWAP2 DUP2 SWAP1 PUSH1 0x1 PUSH1 0x1 PUSH1 0xA0 SHL SUB PUSH2 0xD1B PUSH2 0x1B77 JUMP JUMPDEST AND DUP2 MSTORE PUSH1 0xC DUP5 MSTORE KECCAK256 SLOAD SWAP1 MLOAD SWAP1 DUP2 MSTORE RETURN JUMPDEST POP SWAP1 CALLVALUE PUSH2 0x32A JUMPI DUP3 PUSH1 0x3 NOT CALLDATASIZE ADD SLT PUSH2 0x32A JUMPI CALLER DUP4 MSTORE PUSH1 0x20 SWAP1 PUSH1 0xC DUP3 MSTORE DUP1 DUP5 KECCAK256 SLOAD SWAP3 DUP4 ISZERO PUSH2 0xDFC JUMPI CALLER DUP1 DUP7 MSTORE PUSH1 0xC DUP5 MSTORE DUP3 DUP7 KECCAK256 DUP7 SWAP1 SSTORE DUP3 MLOAD PUSH4 0xA9059CBB PUSH1 0xE0 SHL DUP2 MSTORE DUP3 DUP2 ADD SWAP2 DUP3 MSTORE PUSH1 0x20 DUP3 ADD DUP7 SWAP1 MSTORE SWAP1 DUP5 SWAP1 DUP3 SWAP1 DUP2 SWAP1 PUSH1 0x40 ADD SUB DUP2 DUP10 PUSH20 0x765DE816845861E75A25FCA122BB6898B8B1282A GAS CALL SWAP1 DUP2 ISZERO PUSH2 0x786 JUMPI DUP7 SWAP2 PUSH2 0xDDF JUMPI JUMPDEST POP ISZERO PUSH2 0x553 JUMPI POP SWAP1 PUSH32 0x5BE4D22009FEA85381595ED91090BC5C0BC92A93FE07ED7472C5888EB1993F83 SWAP2 MLOAD SWAP3 DUP4 MSTORE CALLER SWAP3 LOG2 DUP1 RETURN JUMPDEST PUSH2 0xDF6 SWAP2 POP DUP5 RETURNDATASIZE DUP7 GT PUSH2 0x588 JUMPI PUSH2 0x57A DUP2 DUP4 PUSH2 0x1C59 JUMP JUMPDEST CODESIZE PUSH2 0xDAB JUMP JUMPDEST SWAP1 MLOAD PUSH4 0x686827B PUSH1 0xE5 SHL DUP2 MSTORE REVERT JUMPDEST POP POP CALLVALUE PUSH2 0x366 JUMPI DUP2 PUSH1 0x3 NOT CALLDATASIZE ADD SLT PUSH2 0x366 JUMPI PUSH1 0x7 SLOAD SWAP1 MLOAD PUSH1 0x1 PUSH1 0x1 PUSH1 0xA0 SHL SUB SWAP1 SWAP2 AND DUP2 MSTORE PUSH1 0x20 SWAP1 RETURN JUMPDEST POP SWAP1 CALLVALUE PUSH2 0x32A JUMPI DUP3 PUSH1 0x3 NOT CALLDATASIZE ADD SLT PUSH2 0x32A JUMPI PUSH1 0x7 SLOAD PUSH1 0x1 PUSH1 0x1 PUSH1 0xA0 SHL SUB AND CALLER SUB PUSH2 0xE93 JUMPI PUSH1 0x8 DUP1 SLOAD PUSH1 0xFF PUSH1 0xA0 SHL NOT AND PUSH1 0x1 PUSH1 0xA0 SHL OR SWAP1 SSTORE DUP3 CALLER PUSH32 0x81990FD9A5C552B8E3677917D8A03C07678F0D2CB68F88B634ACA2022E9BD19F DUP3 DUP1 LOG2 DUP1 RETURN JUMPDEST MLOAD PUSH3 0x82B429 PUSH1 0xE8 SHL DUP2 MSTORE REVERT JUMPDEST POP POP CALLVALUE PUSH2 0x366 JUMPI PUSH1 0x20 CALLDATASIZE PUSH1 0x3 NOT ADD SLT PUSH2 0x366 JUMPI PUSH1 0x20 SWAP2 PUSH1 0x1 PUSH1 0x1 PUSH1 0x80 SHL SUB SWAP1 DUP3 SWAP1 PUSH1 0x1 PUSH1 0x1 PUSH1 0xA0 SHL SUB PUSH2 0xED0 PUSH2 0x1B77 JUMP JUMPDEST AND DUP2 MSTORE PUSH1 0xD DUP6 MSTORE KECCAK256 SLOAD AND SWAP1 MLOAD SWAP1 DUP2 MSTORE RETURN JUMPDEST POP CALLVALUE PUSH2 0x32A JUMPI DUP3 PUSH1 0x3 NOT CALLDATASIZE ADD SLT PUSH2 0x32A JUMPI PUSH1 0x8 SLOAD PUSH1 0x1 PUSH1 0x1 PUSH1 0xA0 SHL SUB SWAP3 SWAP1 SWAP2 SWAP1 DUP4 DUP4 AND CALLER SUB PUSH2 0xE93 JUMPI POP POP PUSH1 0x7 SLOAD SWAP2 CALLER SWAP1 DUP4 AND PUSH32 0x8BE0079C531659141344CD1FD0A4F28419497F9722A3DAAFE3B4186F6B6457E0 DUP6 DUP1 LOG3 PUSH1 0x1 PUSH1 0x1 PUSH1 0xA0 SHL SUB NOT SWAP2 DUP3 AND CALLER OR PUSH1 0x7 SSTORE AND PUSH1 0x8 SSTORE DUP1 RETURN JUMPDEST POP POP CALLVALUE PUSH2 0x366 JUMPI DUP2 PUSH1 0x3 NOT CALLDATASIZE ADD SLT PUSH2 0x366 JUMPI PUSH1 0x20 SWAP1 PUSH1 0x5 SLOAD SWAP1 MLOAD SWAP1 DUP2 MSTORE RETURN JUMPDEST POP SWAP1 CALLVALUE PUSH2 0x32A JUMPI DUP3 PUSH1 0x3 NOT CALLDATASIZE ADD SLT PUSH2 0x32A JUMPI PUSH1 0xFF PUSH1 0x8 SLOAD PUSH1 0xA0 SHR AND PUSH2 0x1109 JUMPI CALLER DUP4 MSTORE PUSH1 0xA PUSH1 0x20 MSTORE DUP1 DUP4 KECCAK256 SWAP1 DUP2 SLOAD SWAP2 PUSH4 0xFFFFFFFF SWAP4 DUP5 DUP5 PUSH1 0x60 SHR AND SWAP5 DUP6 ISZERO SWAP1 DUP2 SWAP6 DUP3 ISZERO PUSH2 0x10FD JUMPI JUMPDEST POP POP PUSH2 0x10EF JUMPI PUSH6 0x5AF3107A4000 SWAP4 DUP5 DUP7 MUL SWAP5 DUP7 DUP7 DIV EQ OR ISZERO PUSH2 0x10DC JUMPI PUSH8 0x16345785D8A0000 DUP1 DUP6 GT PUSH2 0x10D4 JUMPI JUMPDEST POP DUP3 MLOAD PUSH4 0x23B872DD PUSH1 0xE0 SHL DUP2 MSTORE CALLER DUP3 DUP3 ADD SWAP1 DUP2 MSTORE ADDRESS PUSH1 0x20 DUP3 DUP2 ADD SWAP2 SWAP1 SWAP2 MSTORE PUSH1 0x40 DUP3 ADD DUP8 SWAP1 MSTORE SWAP1 DUP3 SWAP1 DUP2 SWAP1 PUSH1 0x60 ADD SUB DUP2 DUP11 PUSH20 0x765DE816845861E75A25FCA122BB6898B8B1282A GAS CALL SWAP1 DUP2 ISZERO PUSH2 0x10CA JUMPI DUP8 SWAP2 PUSH2 0x10AC JUMPI JUMPDEST POP ISZERO PUSH2 0x109E JUMPI POP DUP1 SLOAD PUSH16 0xFFFFFFFF0000000000000000FFFFFFFF NOT AND DUP5 OR SWAP1 SSTORE PUSH1 0x9 DUP1 SLOAD DUP4 ADD SWAP1 SSTORE MLOAD PUSH4 0xFFFFFFFF SWAP1 SWAP3 AND DUP3 MSTORE PUSH1 0x20 DUP3 ADD MSTORE CALLER SWAP1 PUSH32 0xC428C32598BFE7863DE948CB3B5FFB667A08521AC39C31A674722457E9800B6E SWAP1 DUP1 PUSH1 0x40 DUP2 ADD PUSH2 0x762 JUMP JUMPDEST DUP3 MLOAD PUSH4 0x12171D83 PUSH1 0xE3 SHL DUP2 MSTORE REVERT JUMPDEST PUSH2 0x10C4 SWAP2 POP PUSH1 0x20 RETURNDATASIZE DUP2 GT PUSH2 0x588 JUMPI PUSH2 0x57A DUP2 DUP4 PUSH2 0x1C59 JUMP JUMPDEST CODESIZE PUSH2 0x1038 JUMP JUMPDEST DUP5 MLOAD RETURNDATASIZE DUP10 DUP3 RETURNDATACOPY RETURNDATASIZE SWAP1 REVERT JUMPDEST SWAP4 POP CODESIZE PUSH2 0xFE3 JUMP JUMPDEST PUSH4 0x4E487B71 PUSH1 0xE0 SHL DUP7 MSTORE PUSH1 0x11 SWAP1 MSTORE PUSH1 0x24 DUP6 REVERT JUMPDEST DUP3 MLOAD PUSH4 0x1F309D37 PUSH1 0xE2 SHL DUP2 MSTORE REVERT JUMPDEST AND ISZERO ISZERO SWAP1 POP CODESIZE DUP1 PUSH2 0xFB6 JUMP JUMPDEST MLOAD PUSH4 0x13D0FF59 PUSH1 0xE3 SHL DUP2 MSTORE REVERT JUMPDEST POP DUP3 CALLVALUE PUSH2 0x45A JUMPI PUSH1 0x20 CALLDATASIZE PUSH1 0x3 NOT ADD SLT PUSH2 0x45A JUMPI PUSH1 0x1 PUSH1 0x1 PUSH1 0xA0 SHL SUB PUSH2 0x1139 PUSH2 0x1B77 JUMP JUMPDEST AND SWAP2 DUP3 DUP3 MSTORE PUSH1 0xA PUSH1 0x20 MSTORE DUP4 DUP3 KECCAK256 SWAP4 DUP5 SLOAD SWAP2 PUSH5 0xFFFFFFFFFF PUSH1 0x1 PUSH1 0x1 PUSH1 0x80 SHL SUB PUSH1 0x1 DUP3 DUP7 PUSH1 0x80 SHR AND SWAP9 ADD SLOAD AND SWAP5 PUSH4 0xFFFFFFFF SWAP6 DUP7 DUP7 PUSH1 0x20 SHR AND SWAP2 PUSH3 0x11940 DUP11 ADD SWAP5 DUP6 DUP12 GT PUSH2 0x11F5 JUMPI POP SWAP6 DUP6 PUSH2 0x140 SWAP10 SWAP6 DUP10 SWAP6 DUP6 PUSH1 0x20 SWAP12 SWAP6 PUSH2 0x11ED SWAP11 DUP16 SWAP13 PUSH2 0x119F DUP9 SWAP11 PUSH2 0x21A6 JUMP JUMPDEST SWAP12 DUP2 MSTORE PUSH1 0xE DUP16 MSTORE KECCAK256 SLOAD SWAP12 DUP6 MLOAD SWAP14 DUP15 DUP10 DUP10 AND DUP2 MSTORE ADD MSTORE DUP5 DUP14 ADD MSTORE PUSH1 0x60 DUP13 ADD MSTORE TIMESTAMP AND LT ISZERO PUSH1 0x80 DUP11 ADD MSTORE SHR AND PUSH1 0xA0 DUP8 ADD MSTORE PUSH1 0xFF DUP2 PUSH1 0xB0 SHR AND PUSH1 0xC0 DUP8 ADD MSTORE PUSH1 0x60 SHR AND PUSH1 0xE0 DUP6 ADD MSTORE PUSH2 0x100 DUP5 ADD SWAP1 PUSH2 0x1B92 JUMP JUMPDEST PUSH2 0x120 DUP3 ADD MSTORE RETURN JUMPDEST PUSH4 0x4E487B71 PUSH1 0xE0 SHL DUP3 MSTORE PUSH1 0x11 SWAP1 MSTORE PUSH1 0x24 SWAP1 REVERT JUMPDEST POP CALLVALUE PUSH2 0x32A JUMPI DUP2 PUSH1 0x3 NOT CALLDATASIZE ADD SLT PUSH2 0x32A JUMPI PUSH1 0x24 CALLDATALOAD PUSH1 0x1 PUSH1 0x1 PUSH1 0xA0 SHL SUB DUP2 DUP2 AND SWAP2 DUP4 CALLDATALOAD SWAP1 DUP4 SWAP1 SUB PUSH2 0x1500 JUMPI PUSH1 0xFF PUSH1 0x8 SLOAD PUSH1 0xA0 SHR AND PUSH2 0x14F0 JUMPI PUSH6 0x5AF3107A4000 DUP2 LT DUP1 ISZERO PUSH2 0x14DF JUMPI JUMPDEST PUSH2 0x14CF JUMPI CALLER DUP7 MSTORE PUSH1 0x20 SWAP2 PUSH1 0xA DUP4 MSTORE DUP6 DUP8 KECCAK256 SWAP4 PUSH5 0xFFFFFFFFFF SWAP6 DUP7 TIMESTAMP AND SWAP7 DUP7 SLOAD SWAP1 DUP2 PUSH1 0x80 SHR AND PUSH3 0x11940 DUP2 ADD DUP1 SWAP2 GT PUSH2 0x14BC JUMPI DUP9 LT PUSH2 0x14AD JUMPI PUSH1 0xA8 SHR PUSH1 0xFF AND ISZERO SWAP2 DUP3 DUP1 PUSH2 0x14A4 JUMPI JUMPDEST DUP1 PUSH2 0x149A JUMPI JUMPDEST DUP1 PUSH2 0x1484 JUMPI JUMPDEST PUSH2 0x1463 JUMPI JUMPDEST POP DUP8 MLOAD PUSH4 0x23B872DD PUSH1 0xE0 SHL DUP2 MSTORE CALLER DUP3 DUP3 ADD SWAP1 DUP2 MSTORE ADDRESS PUSH1 0x20 DUP3 ADD MSTORE PUSH1 0x40 DUP2 ADD DUP7 SWAP1 MSTORE DUP7 SWAP1 DUP3 SWAP1 DUP2 SWAP1 PUSH1 0x60 ADD SUB DUP2 DUP14 PUSH20 0x765DE816845861E75A25FCA122BB6898B8B1282A GAS CALL SWAP1 DUP2 ISZERO PUSH2 0x1459 JUMPI DUP11 SWAP2 PUSH2 0x143C JUMPI JUMPDEST POP ISZERO PUSH2 0x142E JUMPI POP SWAP3 DUP3 PUSH2 0x762 SWAP6 SWAP3 DUP8 SWAP6 PUSH2 0x133A PUSH32 0x1091413AC916D6D977BA19245BE465E86C3DFD74CC7C9903AF6856D3E3668E55 SWAP10 PUSH4 0xFFFFFFFF SWAP8 CALLER PUSH2 0x1CDF JUMP JUMPDEST PUSH2 0x136B JUMPI JUMPDEST POP POP POP SLOAD AND SWAP4 MLOAD SWAP2 DUP3 SWAP2 CALLER SWAP6 DUP4 SWAP1 SWAP3 SWAP2 PUSH5 0xFFFFFFFFFF PUSH1 0x20 SWAP2 PUSH4 0xFFFFFFFF PUSH1 0x40 DUP6 ADD SWAP7 AND DUP5 MSTORE AND SWAP2 ADD MSTORE JUMP JUMPDEST CALLER DUP11 MSTORE PUSH1 0xB DUP4 MSTORE DUP9 DUP11 KECCAK256 SLOAD AND SWAP1 PUSH1 0x5 SLOAD SWAP1 DUP3 ISZERO ISZERO DUP1 PUSH2 0x1425 JUMPI JUMPDEST PUSH2 0x1390 JUMPI JUMPDEST POP PUSH2 0x133F JUMP JUMPDEST PUSH2 0x2710 SWAP2 PUSH2 0x139D SWAP2 PUSH2 0x1CA9 JUMP JUMPDEST PUSH1 0x9 SLOAD SWAP2 SWAP1 DIV SWAP3 DUP4 DUP1 DUP4 LT PUSH2 0x13F4 JUMPI PUSH32 0x9E2C5F94B327DF7A7EA63D4C940CF9ABF3D51452D7A5ACA95B6140CE2C823EF2 SWAP3 SUB PUSH1 0x9 SSTORE DUP3 DUP12 MSTORE PUSH1 0xC DUP2 MSTORE DUP10 DUP12 KECCAK256 DUP5 DUP2 SLOAD ADD SWAP1 SSTORE DUP10 MLOAD SWAP4 DUP5 MSTORE CALLER SWAP4 LOG3 JUMPDEST CODESIZE DUP1 DUP1 DUP1 PUSH2 0x138A JUMP JUMPDEST POP PUSH32 0xDF599AD211FA168884E13FD826C0FFCE9953E8779D95C69096D14ABE8E041F6B SWAP2 POP DUP10 MLOAD SWAP4 DUP5 MSTORE CALLER SWAP4 LOG3 PUSH2 0x13EB JUMP JUMPDEST POP DUP2 ISZERO ISZERO PUSH2 0x1385 JUMP JUMPDEST DUP8 MLOAD PUSH4 0x12171D83 PUSH1 0xE3 SHL DUP2 MSTORE REVERT JUMPDEST PUSH2 0x1453 SWAP2 POP DUP7 RETURNDATASIZE DUP9 GT PUSH2 0x588 JUMPI PUSH2 0x57A DUP2 DUP4 PUSH2 0x1C59 JUMP JUMPDEST CODESIZE PUSH2 0x12F9 JUMP JUMPDEST DUP10 MLOAD RETURNDATASIZE DUP13 DUP3 RETURNDATACOPY RETURNDATASIZE SWAP1 REVERT JUMPDEST CALLER DUP11 MSTORE PUSH1 0xB DUP7 MSTORE DUP9 DUP11 KECCAK256 DUP1 SLOAD PUSH1 0x1 PUSH1 0x1 PUSH1 0xA0 SHL SUB NOT AND SWAP1 SWAP2 OR SWAP1 SSTORE CODESIZE PUSH2 0x12A7 JUMP JUMPDEST POP DUP1 DUP11 MSTORE PUSH1 0xB DUP7 MSTORE CALLER DUP5 DUP11 DUP13 KECCAK256 SLOAD AND EQ ISZERO PUSH2 0x12A2 JUMP JUMPDEST POP CALLER DUP2 EQ ISZERO PUSH2 0x129C JUMP JUMPDEST POP DUP1 ISZERO ISZERO PUSH2 0x1296 JUMP JUMPDEST POP DUP8 MLOAD PUSH4 0x6FED7D85 PUSH1 0xE0 SHL DUP2 MSTORE REVERT JUMPDEST PUSH4 0x4E487B71 PUSH1 0xE0 SHL DUP12 MSTORE PUSH1 0x11 DUP4 MSTORE PUSH1 0x24 DUP12 REVERT JUMPDEST DUP5 MLOAD PUSH4 0xC64200E9 PUSH1 0xE0 SHL DUP2 MSTORE DUP5 SWAP1 REVERT JUMPDEST POP PUSH8 0xDE0B6B3A7640000 DUP2 GT PUSH2 0x124F JUMP JUMPDEST DUP5 MLOAD PUSH4 0x13D0FF59 PUSH1 0xE3 SHL DUP2 MSTORE DUP5 SWAP1 REVERT JUMPDEST DUP6 DUP1 REVERT JUMPDEST POP POP CALLVALUE PUSH2 0x366 JUMPI DUP2 PUSH1 0x3 NOT CALLDATASIZE ADD SLT PUSH2 0x366 JUMPI PUSH1 0x20 SWAP1 PUSH1 0x6 SLOAD SWAP1 MLOAD SWAP1 DUP2 MSTORE RETURN JUMPDEST POP CALLVALUE PUSH2 0x32A JUMPI DUP3 PUSH1 0x3 NOT CALLDATASIZE ADD SLT PUSH2 0x32A JUMPI PUSH1 0x20 SWAP3 POP SLOAD SWAP1 MLOAD SWAP1 DUP2 MSTORE RETURN JUMPDEST POP POP CALLVALUE PUSH2 0x366 JUMPI DUP2 PUSH1 0x3 NOT CALLDATASIZE ADD SLT PUSH2 0x366 JUMPI PUSH1 0x20 SWAP1 PUSH1 0xFF PUSH1 0x8 SLOAD PUSH1 0xA0 SHR AND SWAP1 MLOAD SWAP1 ISZERO ISZERO DUP2 MSTORE RETURN JUMPDEST POP CALLVALUE PUSH2 0x32A JUMPI PUSH1 0x20 CALLDATASIZE PUSH1 0x3 NOT ADD SLT PUSH2 0x32A JUMPI PUSH1 0x7 SLOAD DUP2 CALLDATALOAD SWAP3 SWAP1 PUSH1 0x1 PUSH1 0x1 PUSH1 0xA0 SHL SUB AND CALLER SUB PUSH2 0xE93 JUMPI PUSH2 0x3E8 DUP4 GT PUSH2 0x15A0 JUMPI POP POP PUSH1 0x6 SSTORE DUP1 RETURN JUMPDEST MLOAD PUSH4 0x63941FF PUSH1 0xE3 SHL DUP2 MSTORE REVERT JUMPDEST POP POP CALLVALUE PUSH2 0x366 JUMPI DUP2 PUSH1 0x3 NOT CALLDATASIZE ADD SLT PUSH2 0x366 JUMPI PUSH1 0x20 SWAP1 MLOAD PUSH1 0x3 DUP2 MSTORE RETURN JUMPDEST POP POP CALLVALUE PUSH2 0x366 JUMPI DUP2 PUSH1 0x3 NOT CALLDATASIZE ADD SLT PUSH2 0x366 JUMPI PUSH1 0x20 SWAP1 PUSH1 0x1 SLOAD SWAP1 MLOAD SWAP1 DUP2 MSTORE RETURN JUMPDEST POP POP CALLVALUE PUSH2 0x366 JUMPI DUP2 PUSH1 0x3 NOT CALLDATASIZE ADD SLT PUSH2 0x366 JUMPI PUSH1 0x20 SWAP1 MLOAD PUSH2 0x1C20 DUP2 MSTORE RETURN JUMPDEST POP POP CALLVALUE PUSH2 0x366 JUMPI DUP2 PUSH1 0x3 NOT CALLDATASIZE ADD SLT PUSH2 0x366 JUMPI PUSH1 0x20 SWAP1 MLOAD PUSH1 0x7 DUP2 MSTORE RETURN JUMPDEST POP SWAP1 CALLVALUE PUSH2 0x32A JUMPI PUSH1 0x20 CALLDATASIZE PUSH1 0x3 NOT ADD SLT PUSH2 0x32A JUMPI PUSH1 0x7 SLOAD DUP3 CALLDATALOAD SWAP3 SWAP1 PUSH1 0x1 PUSH1 0x1 PUSH1 0xA0 SHL SUB AND CALLER SUB PUSH2 0x875 JUMPI PUSH1 0xC8 DUP4 GT PUSH2 0x867 JUMPI POP PUSH32 0xF8F76AEED5ADD00FD43EED1A4A8D1D8F0EF674595076B8E424CF5B656D2FB8B5 SWAP1 DUP4 SLOAD DUP2 MLOAD SWAP1 DUP2 MSTORE DUP4 PUSH1 0x20 DUP3 ADD MSTORE LOG1 DUP2 SSTORE DUP1 RETURN JUMPDEST POP POP CALLVALUE PUSH2 0x366 JUMPI DUP2 PUSH1 0x3 NOT CALLDATASIZE ADD SLT PUSH2 0x366 JUMPI PUSH1 0x20 SWAP1 PUSH1 0xF SLOAD SWAP1 MLOAD SWAP1 DUP2 MSTORE RETURN JUMPDEST POP POP CALLVALUE PUSH2 0x366 JUMPI DUP2 PUSH1 0x3 NOT CALLDATASIZE ADD SLT PUSH2 0x366 JUMPI PUSH1 0x20 SWAP1 PUSH1 0x2 SLOAD SWAP1 MLOAD SWAP1 DUP2 MSTORE RETURN JUMPDEST POP SWAP1 CALLVALUE PUSH2 0x32A JUMPI DUP3 PUSH1 0x3 NOT CALLDATASIZE ADD SLT PUSH2 0x32A JUMPI PUSH1 0x7 SLOAD PUSH1 0x1 PUSH1 0x1 PUSH1 0xA0 SHL SUB AND CALLER SUB PUSH2 0xE93 JUMPI PUSH1 0x8 DUP1 SLOAD PUSH1 0xFF PUSH1 0xA0 SHL NOT AND SWAP1 SSTORE DUP3 CALLER PUSH32 0x5B65B0C1363B3003DB9BCC5E1FD8805A6D6BF5BF6DC9D3431EE4494CD7D11766 DUP3 DUP1 LOG2 DUP1 RETURN JUMPDEST POP SWAP2 SWAP1 CALLVALUE PUSH2 0x366 JUMPI DUP2 PUSH1 0x3 NOT CALLDATASIZE ADD SLT PUSH2 0x366 JUMPI CALLER DUP3 MSTORE PUSH1 0x20 SWAP1 PUSH1 0xA DUP3 MSTORE DUP1 DUP4 KECCAK256 SWAP2 PUSH1 0x1 DUP4 ADD SWAP1 DUP2 SLOAD SWAP4 PUSH1 0x1 PUSH1 0x1 PUSH1 0x80 SHL SUB DUP6 AND SWAP3 DUP4 ISZERO PUSH2 0x18AD JUMPI CALLER DUP8 MSTORE PUSH1 0xE DUP4 MSTORE DUP5 DUP8 KECCAK256 SLOAD SWAP1 DUP3 SLOAD SWAP2 PUSH4 0xFFFFFFFF DUP4 DUP9 SHR AND ISZERO ISZERO SWAP1 DUP2 PUSH2 0x18A3 JUMPI JUMPDEST POP ISZERO PUSH2 0x1892 JUMPI PUSH2 0x179F PUSH2 0x2710 PUSH2 0x1797 PUSH1 0x5 PUSH1 0x6 SLOAD DIV JUMPDEST DUP9 PUSH2 0x1CA9 JUMP JUMPDEST DIV DUP1 SWAP7 PUSH2 0x1CD2 JUMP JUMPDEST PUSH1 0x1 PUSH1 0x1 PUSH1 0x80 SHL SUB NOT SWAP1 SWAP8 AND SWAP1 SSTORE PUSH1 0x1 PUSH1 0x1 PUSH1 0xB8 SHL SUB NOT AND SWAP1 SSTORE CALLER DUP6 MSTORE PUSH1 0xE DUP2 MSTORE DUP3 DUP6 KECCAK256 DUP6 SWAP1 SSTORE DUP2 PUSH2 0x1885 JUMPI JUMPDEST DUP3 MLOAD PUSH4 0xA9059CBB PUSH1 0xE0 SHL DUP2 MSTORE CALLER DUP8 DUP3 ADD SWAP1 DUP2 MSTORE PUSH1 0x20 DUP2 ADD DUP7 SWAP1 MSTORE DUP3 SWAP1 DUP3 SWAP1 DUP2 SWAP1 PUSH1 0x40 ADD SUB DUP2 DUP10 PUSH20 0x765DE816845861E75A25FCA122BB6898B8B1282A GAS CALL SWAP1 DUP2 ISZERO PUSH2 0x187B JUMPI DUP7 SWAP2 PUSH2 0x185E JUMPI JUMPDEST POP ISZERO PUSH2 0x184E JUMPI DUP3 MLOAD SWAP4 DUP5 MSTORE DUP4 ADD MSTORE CALLER SWAP2 PUSH32 0x92CCF450A286A957AF52509BC1C9939D1A6A481783E142E41E2499F0BB66EBC6 SWAP2 SWAP1 LOG2 DUP1 RETURN JUMPDEST DUP3 MLOAD PUSH4 0x12171D83 PUSH1 0xE3 SHL DUP2 MSTORE DUP7 SWAP1 REVERT JUMPDEST PUSH2 0x1875 SWAP2 POP DUP3 RETURNDATASIZE DUP5 GT PUSH2 0x588 JUMPI PUSH2 0x57A DUP2 DUP4 PUSH2 0x1C59 JUMP JUMPDEST CODESIZE PUSH2 0x1817 JUMP JUMPDEST DUP5 MLOAD RETURNDATASIZE DUP9 DUP3 RETURNDATACOPY RETURNDATASIZE SWAP1 REVERT JUMPDEST DUP2 PUSH1 0x9 SLOAD ADD PUSH1 0x9 SSTORE PUSH2 0x17CC JUMP JUMPDEST PUSH2 0x179F PUSH2 0x2710 PUSH2 0x1797 PUSH1 0x6 SLOAD PUSH2 0x1791 JUMP JUMPDEST SWAP1 POP DUP6 GT CODESIZE PUSH2 0x177B JUMP JUMPDEST DUP5 MLOAD PUSH4 0x686827B PUSH1 0xE5 SHL DUP2 MSTORE DUP9 SWAP1 REVERT JUMPDEST POP POP CALLVALUE PUSH2 0x366 JUMPI DUP2 PUSH1 0x3 NOT CALLDATASIZE ADD SLT PUSH2 0x366 JUMPI PUSH1 0x20 SWAP2 SLOAD SWAP1 MLOAD SWAP1 DUP2 MSTORE RETURN JUMPDEST POP SWAP1 CALLVALUE PUSH2 0x32A JUMPI DUP1 PUSH1 0x3 NOT CALLDATASIZE ADD SLT PUSH2 0x32A JUMPI PUSH2 0x18F4 PUSH2 0x1B77 JUMP JUMPDEST PUSH1 0x24 CALLDATALOAD SWAP3 PUSH1 0xFF PUSH1 0x8 SLOAD PUSH1 0xA0 SHR AND PUSH2 0x1AC8 JUMPI PUSH1 0x1 PUSH1 0x1 PUSH1 0xA0 SHL SUB DUP3 AND SWAP4 DUP5 ISZERO PUSH2 0x1AB9 JUMPI PUSH6 0x5AF3107A4000 DUP2 LT DUP1 ISZERO PUSH2 0x1AA8 JUMPI JUMPDEST PUSH2 0x1A99 JUMPI DUP5 DUP7 MSTORE PUSH1 0xA PUSH1 0x20 MSTORE DUP4 DUP7 KECCAK256 SWAP1 DUP2 SLOAD SWAP4 PUSH4 0xFFFFFFFF SWAP4 DUP5 DUP7 PUSH1 0x60 SHR AND ISZERO ISZERO DUP1 PUSH2 0x1A8F JUMPI JUMPDEST PUSH2 0x1A81 JUMPI PUSH5 0xFFFFFFFFFF DUP1 TIMESTAMP AND SWAP7 PUSH1 0x80 SHR AND PUSH3 0x11940 DUP2 ADD DUP1 SWAP2 GT PUSH2 0x1A6E JUMPI DUP7 LT PUSH2 0x1A60 JUMPI DUP7 MLOAD PUSH4 0x23B872DD PUSH1 0xE0 SHL DUP2 MSTORE CALLER DUP3 DUP3 ADD SWAP1 DUP2 MSTORE ADDRESS PUSH1 0x20 DUP3 DUP2 ADD SWAP2 SWAP1 SWAP2 MSTORE PUSH1 0x40 DUP3 ADD DUP7 SWAP1 MSTORE SWAP1 DUP3 SWAP1 DUP2 SWAP1 PUSH1 0x60 ADD SUB DUP2 DUP14 PUSH20 0x765DE816845861E75A25FCA122BB6898B8B1282A GAS CALL SWAP1 DUP2 ISZERO PUSH2 0x1A56 JUMPI DUP11 SWAP2 PUSH2 0x1A38 JUMPI JUMPDEST POP ISZERO PUSH2 0x1A2A JUMPI POP SWAP2 PUSH2 0x19FF DUP6 PUSH2 0x1A24 SWAP6 SWAP4 PUSH32 0x910FEFE8CBD875C2CEFEEC15C9FCE0F7BF2D542D5C42E57B8ED2395127E29B10 SWAP8 SWAP6 PUSH2 0x1CDF JUMP JUMPDEST SLOAD SWAP5 MLOAD SWAP5 AND PUSH4 0xFFFFFFFF AND DUP5 MSTORE PUSH5 0xFFFFFFFFFF AND PUSH1 0x20 DUP5 ADD MSTORE CALLER SWAP3 SWAP1 DUP2 SWAP1 PUSH1 0x40 DUP3 ADD SWAP1 JUMP JUMPDEST SUB SWAP1 LOG3 DUP1 RETURN JUMPDEST DUP7 MLOAD PUSH4 0x12171D83 PUSH1 0xE3 SHL DUP2 MSTORE REVERT JUMPDEST PUSH2 0x1A50 SWAP2 POP PUSH1 0x20 RETURNDATASIZE DUP2 GT PUSH2 0x588 JUMPI PUSH2 0x57A DUP2 DUP4 PUSH2 0x1C59 JUMP JUMPDEST CODESIZE PUSH2 0x19C6 JUMP JUMPDEST DUP9 MLOAD RETURNDATASIZE DUP13 DUP3 RETURNDATACOPY RETURNDATASIZE SWAP1 REVERT JUMPDEST DUP7 MLOAD PUSH4 0x6FED7D85 PUSH1 0xE0 SHL DUP2 MSTORE REVERT JUMPDEST PUSH4 0x4E487B71 PUSH1 0xE0 SHL DUP11 MSTORE PUSH1 0x11 DUP3 MSTORE PUSH1 0x24 DUP11 REVERT JUMPDEST DUP7 MLOAD PUSH4 0x916C16B PUSH1 0xE1 SHL DUP2 MSTORE REVERT JUMPDEST POP DUP5 DUP7 AND ISZERO PUSH2 0x194D JUMP JUMPDEST POP DUP3 MLOAD PUSH4 0xC64200E9 PUSH1 0xE0 SHL DUP2 MSTORE REVERT JUMPDEST POP PUSH8 0xDE0B6B3A7640000 DUP2 GT PUSH2 0x1926 JUMP JUMPDEST POP DUP3 MLOAD PUSH4 0xE6C4247B PUSH1 0xE0 SHL DUP2 MSTORE REVERT JUMPDEST DUP3 MLOAD PUSH4 0x13D0FF59 PUSH1 0xE3 SHL DUP2 MSTORE REVERT JUMPDEST POP POP CALLVALUE PUSH2 0x366 JUMPI PUSH1 0x20 CALLDATASIZE PUSH1 0x3 NOT ADD SLT PUSH2 0x366 JUMPI PUSH1 0x20 SWAP2 PUSH1 0x1 PUSH1 0x1 PUSH1 0xA0 SHL SUB SWAP1 DUP3 SWAP1 DUP3 PUSH2 0x1B00 PUSH2 0x1B77 JUMP JUMPDEST AND DUP2 MSTORE PUSH1 0xB DUP6 MSTORE KECCAK256 SLOAD AND SWAP1 MLOAD SWAP1 DUP2 MSTORE RETURN JUMPDEST POP SWAP1 CALLVALUE PUSH2 0x32A JUMPI DUP3 PUSH1 0x3 NOT CALLDATASIZE ADD SLT PUSH2 0x32A JUMPI PUSH1 0x7 SLOAD PUSH1 0x1 PUSH1 0x1 PUSH1 0xA0 SHL SUB AND CALLER SUB PUSH2 0xE93 JUMPI PUSH1 0x8 DUP1 SLOAD PUSH1 0x1 PUSH1 0x1 PUSH1 0xA0 SHL SUB NOT AND SWAP1 SSTORE DUP3 DUP1 RETURN JUMPDEST DUP5 SWAP1 CALLVALUE PUSH2 0x366 JUMPI DUP2 PUSH1 0x3 NOT CALLDATASIZE ADD SLT PUSH2 0x366 JUMPI DUP1 PUSH20 0x765DE816845861E75A25FCA122BB6898B8B1282A PUSH1 0x20 SWAP3 MSTORE RETURN JUMPDEST PUSH1 0x4 CALLDATALOAD SWAP1 PUSH1 0x1 PUSH1 0x1 PUSH1 0xA0 SHL SUB DUP3 AND DUP3 SUB PUSH2 0x1B8D JUMPI JUMP JUMPDEST PUSH1 0x0 DUP1 REVERT JUMPDEST SWAP1 PUSH1 0x5 DUP3 LT ISZERO PUSH2 0x1B9F JUMPI MSTORE JUMP JUMPDEST PUSH4 0x4E487B71 PUSH1 0xE0 SHL PUSH1 0x0 MSTORE PUSH1 0x21 PUSH1 0x4 MSTORE PUSH1 0x24 PUSH1 0x0 REVERT JUMPDEST SWAP1 DUP2 MLOAD DUP1 DUP3 MSTORE PUSH1 0x20 DUP1 DUP1 SWAP4 ADD SWAP4 ADD SWAP2 PUSH1 0x0 JUMPDEST DUP3 DUP2 LT PUSH2 0x1BD5 JUMPI POP POP POP POP SWAP1 JUMP JUMPDEST DUP4 MLOAD DUP6 MSTORE SWAP4 DUP2 ADD SWAP4 SWAP3 DUP2 ADD SWAP3 PUSH1 0x1 ADD PUSH2 0x1BC7 JUMP JUMPDEST CALLVALUE PUSH2 0x1B8D JUMPI PUSH1 0x0 CALLDATASIZE PUSH1 0x3 NOT ADD SLT PUSH2 0x1B8D JUMPI PUSH1 0x20 PUSH1 0x40 MLOAD PUSH8 0xDE0B6B3A7640000 DUP2 MSTORE RETURN JUMPDEST PUSH1 0xF SLOAD DUP2 LT ISZERO PUSH2 0x1C43 JUMPI PUSH1 0xF PUSH1 0x0 MSTORE PUSH32 0x8D1108E10BCB7C27DDDFC02ED9D693A074039D026CF4EA4240B40F7D581AC802 ADD SWAP1 PUSH1 0x0 SWAP1 JUMP JUMPDEST PUSH4 0x4E487B71 PUSH1 0xE0 SHL PUSH1 0x0 MSTORE PUSH1 0x32 PUSH1 0x4 MSTORE PUSH1 0x24 PUSH1 0x0 REVERT JUMPDEST SWAP1 PUSH1 0x1F DUP1 NOT SWAP2 ADD AND DUP2 ADD SWAP1 DUP2 LT PUSH8 0xFFFFFFFFFFFFFFFF DUP3 GT OR PUSH2 0x1C7B JUMPI PUSH1 0x40 MSTORE JUMP JUMPDEST PUSH4 0x4E487B71 PUSH1 0xE0 SHL PUSH1 0x0 MSTORE PUSH1 0x41 PUSH1 0x4 MSTORE PUSH1 0x24 PUSH1 0x0 REVERT JUMPDEST SWAP1 DUP2 PUSH1 0x20 SWAP2 SUB SLT PUSH2 0x1B8D JUMPI MLOAD DUP1 ISZERO ISZERO DUP2 SUB PUSH2 0x1B8D JUMPI SWAP1 JUMP JUMPDEST DUP2 DUP2 MUL SWAP3 SWAP2 DUP2 ISZERO SWAP2 DUP5 DIV EQ OR ISZERO PUSH2 0x1CBC JUMPI JUMP JUMPDEST PUSH4 0x4E487B71 PUSH1 0xE0 SHL PUSH1 0x0 MSTORE PUSH1 0x11 PUSH1 0x4 MSTORE PUSH1 0x24 PUSH1 0x0 REVERT JUMPDEST SWAP2 SWAP1 DUP3 SUB SWAP2 DUP3 GT PUSH2 0x1CBC JUMPI JUMP JUMPDEST SWAP2 PUSH1 0x1 DUP1 PUSH1 0xA0 SHL SUB DUP1 SWAP4 AND SWAP3 PUSH1 0x0 SWAP2 DUP5 DUP4 MSTORE PUSH1 0x20 SWAP3 PUSH1 0xA DUP5 MSTORE PUSH1 0x40 SWAP3 PUSH2 0x1D1F DUP5 DUP4 KECCAK256 SWAP7 PUSH2 0x2710 PUSH2 0x1D10 DUP6 SLOAD DUP4 PUSH2 0x1CA9 JUMP JUMPDEST DIV SWAP1 DUP2 PUSH1 0x9 SLOAD ADD PUSH1 0x9 SSTORE PUSH2 0x1CD2 JUMP JUMPDEST SWAP6 DUP3 DUP2 SLOAD PUSH5 0xFFFFFFFFFF SWAP1 DUP2 DUP2 PUSH1 0x80 SHR AND DUP1 ISZERO ISZERO SWAP1 DUP2 PUSH2 0x2152 JUMPI JUMPDEST POP PUSH2 0x2072 JUMPI JUMPDEST POP DUP3 SLOAD SWAP1 DUP1 DUP3 PUSH1 0x80 SHR AND DUP1 ISZERO ISZERO SWAP2 DUP3 PUSH2 0x2037 JUMPI JUMPDEST POP POP PUSH2 0x1FD6 JUMPI JUMPDEST POP ISZERO PUSH2 0x1F8B JUMPI JUMPDEST DUP1 SLOAD SWAP4 PUSH5 0xFFFFFFFFFF PUSH1 0x80 SHL SWAP1 PUSH1 0x80 SHL AND SWAP4 DUP5 PUSH5 0xFFFFFFFFFF PUSH1 0x80 SHL NOT DUP3 AND OR SWAP1 DUP2 DUP4 SSTORE PUSH1 0x1 DUP4 ADD SWAP6 DUP7 SLOAD PUSH1 0x1 PUSH1 0x1 PUSH1 0x80 SHL SUB DUP1 SWAP12 AND DUP12 DUP3 AND ADD DUP12 DUP2 GT PUSH2 0x1F77 JUMPI DUP12 AND PUSH1 0x1 PUSH1 0x1 PUSH1 0x80 SHL SUB NOT SWAP2 DUP3 AND OR DUP9 SSTORE SWAP10 SWAP7 SWAP6 DUP9 SWAP6 SWAP1 SWAP5 SWAP1 SWAP4 SWAP1 SWAP3 DUP13 SWAP3 PUSH4 0xFFFFFFFF SWAP3 DUP1 DUP14 SHR DUP5 AND DUP5 DUP5 AND GT PUSH2 0x1EC5 JUMPI JUMPDEST POP POP POP POP POP DUP1 SLOAD PUSH1 0xFF DUP2 PUSH1 0xA8 SHR AND ISZERO PUSH2 0x1E5C JUMPI JUMPDEST POP POP POP DUP8 DUP2 MSTORE PUSH1 0xD DUP7 MSTORE KECCAK256 DUP1 SLOAD SWAP6 DUP4 DUP8 AND DUP1 ISZERO ISZERO SWAP1 DUP2 PUSH2 0x1E4E JUMPI JUMPDEST POP PUSH2 0x1E14 JUMPI JUMPDEST POP POP POP POP POP POP POP POP JUMP JUMPDEST PUSH32 0x35003C2A88A451CD165F157AA0F4EFAA1C78331D1BDA2C6BBF1A32E40A07D398 SWAP7 AND SWAP1 SSTORE SLOAD AND SWAP1 MLOAD SWAP1 DUP2 MSTORE LOG2 CODESIZE DUP1 DUP1 DUP1 DUP1 DUP1 DUP1 DUP1 PUSH2 0x1E0A JUMP JUMPDEST SWAP1 POP DUP5 DUP5 SLOAD AND LT ISZERO CODESIZE PUSH2 0x1E04 JUMP JUMPDEST PUSH1 0xFF PUSH1 0xA8 SHL NOT AND PUSH1 0x1 PUSH1 0xA8 SHL OR SWAP1 SSTORE PUSH1 0xF SLOAD SWAP2 SWAP3 POP SWAP1 PUSH9 0x10000000000000000 DUP2 LT ISZERO PUSH2 0x1EB1 JUMPI SWAP1 PUSH2 0x1E96 DUP3 PUSH1 0x1 DUP9 SWAP6 SWAP5 ADD PUSH1 0xF SSTORE PUSH2 0x1C0C JUMP JUMPDEST DUP2 SWAP3 SWAP2 SLOAD SWAP1 PUSH1 0x3 SHL SWAP2 DUP12 DUP4 SHL SWAP3 SHL NOT AND OR SWAP1 SSTORE CODESIZE DUP1 DUP1 PUSH2 0x1DE9 JUMP JUMPDEST PUSH4 0x4E487B71 PUSH1 0xE0 SHL DUP4 MSTORE PUSH1 0x41 PUSH1 0x4 MSTORE PUSH1 0x24 DUP4 REVERT JUMPDEST PUSH8 0xFFFFFFFF00000000 SWAP1 DUP14 SHL AND SWAP2 PUSH21 0xFFFFFFFFFF0000000000000000FFFFFFFF00000000 NOT AND OR OR DUP1 DUP5 SSTORE DUP11 SHR AND DUP10 PUSH1 0x1E DUP3 EQ DUP1 ISZERO PUSH2 0x1F6D JUMPI JUMPDEST DUP1 ISZERO PUSH2 0x1F63 JUMPI JUMPDEST DUP1 ISZERO PUSH2 0x1F58 JUMPI JUMPDEST PUSH2 0x1F19 JUMPI JUMPDEST DUP2 DUP1 PUSH2 0x1DD5 JUMP JUMPDEST PUSH2 0x1F43 PUSH32 0xE77C5A722D2D46CDD1852F1811F567C19DADC53DA7FC1E0EE6FC979D0335DBAC SWAP3 PUSH2 0x21A6 JUMP JUMPDEST PUSH2 0x1F4F DUP9 MLOAD DUP1 SWAP3 PUSH2 0x1B92 JUMP JUMPDEST LOG2 DUP10 CODESIZE DUP10 PUSH2 0x1F12 JUMP JUMPDEST POP PUSH2 0x16D DUP3 EQ PUSH2 0x1F0D JUMP JUMPDEST POP PUSH1 0xB4 DUP3 EQ PUSH2 0x1F06 JUMP JUMPDEST POP PUSH1 0x5A DUP3 EQ PUSH2 0x1EFF JUMP JUMPDEST PUSH4 0x4E487B71 PUSH1 0xE0 SHL DUP9 MSTORE PUSH1 0x11 PUSH1 0x4 MSTORE PUSH1 0x24 DUP9 REVERT JUMPDEST DUP1 SLOAD PUSH4 0xFFFFFFFF SWAP1 DUP2 PUSH1 0x1 DUP2 DUP4 AND ADD AND SWAP2 DUP3 PUSH4 0xFFFFFFFF NOT DUP4 AND OR DUP1 DUP6 SSTORE PUSH1 0x60 SHR AND PUSH2 0x1FB9 JUMPI JUMPDEST POP POP PUSH2 0x1D62 JUMP JUMPDEST PUSH16 0xFFFFFFFF0000000000000000FFFFFFFF NOT AND OR DUP2 SSTORE CODESIZE DUP1 PUSH2 0x1FB2 JUMP JUMPDEST PUSH1 0xB0 SHR PUSH1 0xFF AND PUSH1 0x3 DUP2 LT ISZERO PUSH2 0x1D5B JUMPI DUP3 SLOAD PUSH1 0xFF PUSH1 0xB0 SHL NOT AND PUSH1 0x1 SWAP2 SWAP1 SWAP2 ADD PUSH1 0xB0 SHL PUSH1 0xFF PUSH1 0xB0 SHL AND OR DUP3 SSTORE DUP9 PUSH32 0xF31AA52E228BAC5C0FD9B53DE3947B96A6B562A29503DEA0C7A2784CDC228044 DUP9 PUSH1 0xFF DUP6 SLOAD PUSH1 0xB0 SHR AND DUP10 MLOAD SWAP1 DUP2 MSTORE LOG2 CODESIZE PUSH2 0x1D5B JUMP JUMPDEST PUSH3 0x11940 DUP3 ADD SWAP3 POP SWAP1 DUP3 DUP2 GT PUSH2 0x1F77 JUMPI PUSH3 0x13560 ADD DUP1 SWAP3 GT PUSH2 0x205E JUMPI DUP8 AND GT ISZERO CODESIZE DUP1 PUSH2 0x1D54 JUMP JUMPDEST PUSH4 0x4E487B71 PUSH1 0xE0 SHL DUP8 MSTORE PUSH1 0x11 PUSH1 0x4 MSTORE PUSH1 0x24 DUP8 REVERT JUMPDEST PUSH1 0xB0 DUP2 SWAP1 SHR PUSH1 0xFF AND ISZERO PUSH2 0x20F2 JUMPI POP DUP3 SLOAD PUSH1 0xFF PUSH1 0xB0 SHL NOT DUP2 AND PUSH1 0xB0 SWAP2 DUP3 SHR PUSH1 0xFF AND PUSH1 0x0 NOT ADD SWAP1 SWAP2 SHL PUSH1 0xFF PUSH1 0xB0 SHL AND OR DUP4 SSTORE DUP10 PUSH32 0xA3CD923E771784F8AB03C4BC813511F007DF871C8652C02CD19CC966132B1964 DUP9 DUP6 SLOAD PUSH4 0xFFFFFFFF PUSH1 0x60 SHL NOT DUP2 AND DUP8 SSTORE PUSH1 0xFF DUP3 MLOAD SWAP2 PUSH4 0xFFFFFFFF DUP2 AND DUP4 MSTORE PUSH1 0xB0 SHR AND DUP13 DUP3 ADD MSTORE LOG2 JUMPDEST CODESIZE PUSH2 0x1D40 JUMP JUMPDEST SWAP1 SWAP2 POP DUP10 PUSH32 0xC0539BB1C6561E4F713A8725D44795917796A9717AE897FBC6707EF291FAC9B0 DUP10 DUP10 MLOAD PUSH4 0xFFFFFFFF DUP6 AND DUP2 MSTORE LOG2 PUSH16 0xFFFFFFFF0000000000000000FFFFFFFF NOT DUP2 AND PUSH1 0x60 SWAP2 SWAP1 SWAP2 SHL PUSH4 0xFFFFFFFF PUSH1 0x60 SHL AND OR DUP3 SSTORE PUSH1 0x1 SWAP1 PUSH2 0x20EC JUMP JUMPDEST PUSH3 0x2A300 SWAP2 POP ADD DUP3 DUP2 GT PUSH2 0x205E JUMPI DUP3 AND DUP3 DUP9 AND GT CODESIZE PUSH2 0x1D3A JUMP JUMPDEST PUSH4 0xFFFFFFFF AND PUSH1 0x31 DUP2 LT ISZERO PUSH2 0x219F JUMPI PUSH1 0x23 DUP2 LT ISZERO PUSH2 0x2198 JUMPI PUSH1 0xE GT ISZERO PUSH2 0x2192 JUMPI PUSH1 0x1 SLOAD SWAP1 JUMP JUMPDEST PUSH1 0x2 SLOAD SWAP1 JUMP JUMPDEST POP PUSH1 0x3 SLOAD SWAP1 JUMP JUMPDEST POP PUSH1 0x4 SLOAD SWAP1 JUMP JUMPDEST PUSH4 0xFFFFFFFF AND PUSH2 0x16D DUP2 LT ISZERO PUSH2 0x21E6 JUMPI PUSH1 0xB4 DUP2 LT ISZERO PUSH2 0x21E0 JUMPI PUSH1 0x5A DUP2 LT ISZERO PUSH2 0x21DA JUMPI PUSH1 0x1E GT ISZERO PUSH2 0x21D5 JUMPI PUSH1 0x0 SWAP1 JUMP JUMPDEST PUSH1 0x1 SWAP1 JUMP JUMPDEST POP PUSH1 0x2 SWAP1 JUMP JUMPDEST POP PUSH1 0x3 SWAP1 JUMP JUMPDEST POP PUSH1 0x4 SWAP1 JUMP JUMPDEST PUSH8 0xFFFFFFFFFFFFFFFF DUP2 GT PUSH2 0x1C7B JUMPI PUSH1 0x5 SHL PUSH1 0x20 ADD SWAP1 JUMP JUMPDEST SWAP1 PUSH2 0x220E DUP3 PUSH2 0x21EC JUMP JUMPDEST PUSH2 0x221B PUSH1 0x40 MLOAD SWAP2 DUP3 PUSH2 0x1C59 JUMP JUMPDEST DUP3 DUP2 MSTORE DUP1 SWAP3 PUSH2 0x222C PUSH1 0x1F NOT SWAP2 PUSH2 0x21EC JUMP JUMPDEST ADD SWAP1 PUSH1 0x20 CALLDATASIZE SWAP2 ADD CALLDATACOPY JUMP JUMPDEST DUP1 MLOAD DUP3 LT ISZERO PUSH2 0x1C43 JUMPI PUSH1 0x20 SWAP2 PUSH1 0x5 SHL ADD ADD SWAP1 JUMP INVALID LOG2 PUSH5 0x6970667358 0x22 SLT KECCAK256 ADDRESS 0x2E NOT PUSH12 0xF86856C390F35459118619D3 RETURN SWAP1 0xB8 DIV PUSH24 0x49785F75DB8A0919D7213464736F6C634300081400330000 "},"gasEstimates":{"creation":{"codeDepositCost":"1766400","executionCost":"180846","totalCost":"1947246"},"external":{"COOLDOWN()":"809","MAX_DEPOSIT()":"1081","MAX_POOL_FEE_BPS()":"1029","MAX_RECOVERY_FEE()":"897","MAX_REWARD_TIER()":"927","MAX_SHIELDS()":"457","MIN_DEPOSIT()":"1095","PRECISION_WINDOW()":"413","STREAK_THRESHOLD()":"391","acceptOwnership()":"50660","cUSD()":"168","cancelOwnershipTransfer()":"26545","claimReferralReward()":"infinite","claimReward()":"infinite","deposit(uint256,address)":"infinite","depositFor(address,uint256)":"infinite","depositors(uint256)":"7579","fundPool(uint256)":"infinite","getBadge(address)":"3459","getLeaderboard(uint256)":"infinite","getUser(address)":"7646","owner()":"2848","pause()":"28193","paused()":"2625","pendingOwner()":"3244","pendingReferralReward(address)":"3044","poolBalance()":"2849","poolFeeBps()":"2362","poolFunds()":"3091","recoverStreak()":"infinite","referralRewardBps()":"2739","referrer(address)":"2481","rewardTier1()":"2541","rewardTier2()":"2431","rewardTier3()":"3289","rewardTier4()":"2626","savingsGoal(address)":"2955","setGoal(uint128)":"26582","setPoolFeeBps(uint256)":"28037","setReferralRewardBps(uint256)":"28609","setRewardTiers(uint256,uint256,uint256,uint256)":"93859","setWithdrawalPenaltyBps(uint256)":"24736","totalDepositors()":"2453","totalRewardsClaimed(address)":"3462","transferOwnership(address)":"29142","unpause()":"27785","users(address)":"5475","withdraw()":"infinite","withdrawalPenaltyBps()":"2651"},"internal":{"_checkBadge(address,uint32)":"infinite","_getBadge(uint32)":"119","_processDeposit(address,uint256,uint40)":"infinite","_rewardAmount(uint32)":"2194"}},"methodIdentifiers":{"COOLDOWN()":"a2724a4d","MAX_DEPOSIT()":"dd5967c3","MAX_POOL_FEE_BPS()":"c7a0ecac","MAX_RECOVERY_FEE()":"aa0224fd","MAX_REWARD_TIER()":"af10bbcd","MAX_SHIELDS()":"546cea86","MIN_DEPOSIT()":"e1e158a5","PRECISION_WINDOW()":"51bea8c3","STREAK_THRESHOLD()":"4c8530ce","acceptOwnership()":"79ba5097","cUSD()":"1fccf672","cancelOwnershipTransfer()":"23452b9c","claimReferralReward()":"9b4b2c9c","claimReward()":"b88a802f","deposit(uint256,address)":"6e553f65","depositFor(address,uint256)":"2f4f21e2","depositors(uint256)":"e4b2fb79","fundPool(uint256)":"da3a5f72","getBadge(address)":"c254de88","getLeaderboard(uint256)":"a34b46fe","getUser(address)":"6f77926b","owner()":"8da5cb5b","pause()":"8456cb59","paused()":"5c975abb","pendingOwner()":"e30c3978","pendingReferralReward(address)":"9f147d00","poolBalance()":"96365d44","poolFeeBps()":"37e1b65a","poolFunds()":"bc2104d2","recoverStreak()":"7289cca6","referralRewardBps()":"75f4c059","referrer(address)":"2cf003c2","rewardTier1()":"5264dab0","rewardTier2()":"3fbf422f","rewardTier3()":"f67ded4e","rewardTier4()":"60bd13d9","savingsGoal(address)":"82bbf60e","setGoal(uint128)":"a2c8b369","setPoolFeeBps(uint256)":"48903e01","setReferralRewardBps(uint256)":"b09e603f","setRewardTiers(uint256,uint256,uint256,uint256)":"ff84a262","setWithdrawalPenaltyBps(uint256)":"54b1de8f","totalDepositors()":"418f3128","totalRewardsClaimed(address)":"f6ce9004","transferOwnership(address)":"f2fde38b","unpause()":"3f4ba83a","users(address)":"a87430ba","withdraw()":"3ccfd60b","withdrawalPenaltyBps()":"66fc0127"}},"storageLayout":{"storage":[{"astId":65,"contract":"contracts/Kibo.sol:Kibo","label":"poolFeeBps","offset":0,"slot":"0","type":"t_uint256"},{"astId":68,"contract":"contracts/Kibo.sol:Kibo","label":"rewardTier1","offset":0,"slot":"1","type":"t_uint256"},{"astId":71,"contract":"contracts/Kibo.sol:Kibo","label":"rewardTier2","offset":0,"slot":"2","type":"t_uint256"},{"astId":74,"contract":"contracts/Kibo.sol:Kibo","label":"rewardTier3","offset":0,"slot":"3","type":"t_uint256"},{"astId":77,"contract":"contracts/Kibo.sol:Kibo","label":"rewardTier4","offset":0,"slot":"4","type":"t_uint256"},{"astId":80,"contract":"contracts/Kibo.sol:Kibo","label":"referralRewardBps","offset":0,"slot":"5","type":"t_uint256"},{"astId":83,"contract":"contracts/Kibo.sol:Kibo","label":"withdrawalPenaltyBps","offset":0,"slot":"6","type":"t_uint256"},{"astId":85,"contract":"contracts/Kibo.sol:Kibo","label":"owner","offset":0,"slot":"7","type":"t_address"},{"astId":87,"contract":"contracts/Kibo.sol:Kibo","label":"pendingOwner","offset":0,"slot":"8","type":"t_address"},{"astId":89,"contract":"contracts/Kibo.sol:Kibo","label":"paused","offset":20,"slot":"8","type":"t_bool"},{"astId":91,"contract":"contracts/Kibo.sol:Kibo","label":"poolFunds","offset":0,"slot":"9","type":"t_uint256"},{"astId":147,"contract":"contracts/Kibo.sol:Kibo","label":"users","offset":0,"slot":"10","type":"t_mapping(t_address,t_struct(UserData)136_storage)"},{"astId":151,"contract":"contracts/Kibo.sol:Kibo","label":"referrer","offset":0,"slot":"11","type":"t_mapping(t_address,t_address)"},{"astId":155,"contract":"contracts/Kibo.sol:Kibo","label":"pendingReferralReward","offset":0,"slot":"12","type":"t_mapping(t_address,t_uint256)"},{"astId":159,"contract":"contracts/Kibo.sol:Kibo","label":"savingsGoal","offset":0,"slot":"13","type":"t_mapping(t_address,t_uint128)"},{"astId":163,"contract":"contracts/Kibo.sol:Kibo","label":"totalRewardsClaimed","offset":0,"slot":"14","type":"t_mapping(t_address,t_uint256)"},{"astId":166,"contract":"contracts/Kibo.sol:Kibo","label":"depositors","offset":0,"slot":"15","type":"t_array(t_address)dyn_storage"}],"types":{"t_address":{"encoding":"inplace","label":"address","numberOfBytes":"20"},"t_array(t_address)dyn_storage":{"base":"t_address","encoding":"dynamic_array","label":"address[]","numberOfBytes":"32"},"t_bool":{"encoding":"inplace","label":"bool","numberOfBytes":"1"},"t_mapping(t_address,t_address)":{"encoding":"mapping","key":"t_address","label":"mapping(address => address)","numberOfBytes":"32","value":"t_address"},"t_mapping(t_address,t_struct(UserData)136_storage)":{"encoding":"mapping","key":"t_address","label":"mapping(address => struct Kibo.UserData)","numberOfBytes":"32","value":"t_struct(UserData)136_storage"},"t_mapping(t_address,t_uint128)":{"encoding":"mapping","key":"t_address","label":"mapping(address => uint128)","numberOfBytes":"32","value":"t_uint128"},"t_mapping(t_address,t_uint256)":{"encoding":"mapping","key":"t_address","label":"mapping(address => uint256)","numberOfBytes":"32","value":"t_uint256"},"t_struct(UserData)136_storage":{"encoding":"inplace","label":"struct Kibo.UserData","members":[{"astId":121,"contract":"contracts/Kibo.sol:Kibo","label":"streak","offset":0,"slot":"0","type":"t_uint32"},{"astId":123,"contract":"contracts/Kibo.sol:Kibo","label":"longestStreak","offset":4,"slot":"0","type":"t_uint32"},{"astId":125,"contract":"contracts/Kibo.sol:Kibo","label":"lastClaimedStreak","offset":8,"slot":"0","type":"t_uint32"},{"astId":127,"contract":"contracts/Kibo.sol:Kibo","label":"brokenStreak","offset":12,"slot":"0","type":"t_uint32"},{"astId":129,"contract":"contracts/Kibo.sol:Kibo","label":"lastDeposit","offset":16,"slot":"0","type":"t_uint40"},{"astId":131,"contract":"contracts/Kibo.sol:Kibo","label":"isDepositor","offset":21,"slot":"0","type":"t_bool"},{"astId":133,"contract":"contracts/Kibo.sol:Kibo","label":"shields","offset":22,"slot":"0","type":"t_uint8"},{"astId":135,"contract":"contracts/Kibo.sol:Kibo","label":"totalDeposited","offset":0,"slot":"1","type":"t_uint128"}],"numberOfBytes":"64"},"t_uint128":{"encoding":"inplace","label":"uint128","numberOfBytes":"16"},"t_uint256":{"encoding":"inplace","label":"uint256","numberOfBytes":"32"},"t_uint32":{"encoding":"inplace","label":"uint32","numberOfBytes":"4"},"t_uint40":{"encoding":"inplace","label":"uint40","numberOfBytes":"5"},"t_uint8":{"encoding":"inplace","label":"uint8","numberOfBytes":"1"}}},"userdoc":{"kind":"user","methods":{},"version":1}}}}